:100000000C945D050C940E1E0C94E71D0C94850554
:100010000C9485050C9485050C9485050C94850538
:100020000C9485050C9485050C9485050C94850528
:100030000C9485050C9485050C9485050C94850518
:100040000C949D1D0C9485050C945B1E0C94351E20
:100050000C9485050C9485050C9485050C948505F8
:100060000C948D1E0C948505084AD73B3BCE016E3F
:1000700084BCBFFDC12F3D6C74319ABD56833DDAFF
:100080003D00C77F11BED9E4BB4C3E916BAAAABE0E
:10009000000000803F00000000002300260029002F
:1000A00000000000003E5B4F5B3E3E6B4F6B3E1C12
:1000B0003E7C3E1C183C7E3C181C577D571C1C5E29
:1000C0007F5E1C00183C1800FFE7C3E7FF00182400
:1000D0001800FFE7DBE7FF30483A060E26297929AA
:1000E00026407F050507407F05253F5A3CE73C5ADF
:1000F0007F3E1C1C08081C1C3E7F14227F22145FBC
:100100005F005F5F06097F017F006689956A606016
:1001100060606094A2FFA29408047E040810207E10
:10012000201008082A1C08081C2A08081E10101095
:10013000100C1E0C1E0C30383E3830060E3E0E06DB
:10014000000000000000005F00000007000700142E
:100150007F147F14242A7F2A1223130864623649ED
:100160005620500008070300001C224100004122D5
:100170001C002A1C7F1C2A08083E080800807030DA
:100180000008080808080000606000201008040249
:100190003E5149453E00427F40007249494946214F
:1001A00041494D331814127F1027454545393C4AC3
:1001B00049493141211109073649494936464949DA
:1001C000291E000014000000403400000008142222
:1001D0004114141414140041221408020159090690
:1001E0003E415D594E7C1211127C7F494949363E91
:1001F000414141227F4141413E7F494949417F0977
:100200000909013E414151737F0808087F00417F81
:1002100041002040413F017F081422417F4040407F
:10022000407F021C027F7F0408107F3E4141413E17
:100230007F090909063E4151215E7F091929462699
:100240004949493203017F01033F4040403F1F209D
:1002500040201F3F4038403F631408146303047874
:1002600004036159494D43007F4141410204081094
:1002700020004141417F04020102044040404040CF
:10028000000307080020545478407F28444438383D
:1002900044444428384444287F38545454180008AF
:1002A0007E090218A4A49C787F0804047800447D89
:1002B00040002040403D007F1028440000417F4026
:1002C000007C047804787C0804047838444444387A
:1002D000FC1824241818242418FC7C08040408485A
:1002E0005454542404043F44243C4040207C1C20AB
:1002F00040201C3C4030403C44281028444C909006
:10030000907C4464544C440008364100000077005F
:1003100000004136080002010204023C2623263C6C
:100320001EA1A161123A4040207A385454555921F7
:1003300055557941225454784221555478402054DF
:100340005579400C1E52721239555555593954542D
:10035000545939555454580000457C410002457D9C
:10036000420001457C407D1211127DF0282528F0C5
:100370007C545545002054547C547C0A097F4932F2
:10038000494949323A4444443A324A4848303A4169
:1003900041217A3A42402078009DA0A07D3D424212
:1003A000423D3D4040403D3C24FF2424487E49439B
:1003B000662B2FFC2F2BFF0929F620C0887E09030E
:1003C00020545479410000447D413048484A323835
:1003D0004040227A007A0A0A727D0D19317D262961
:1003E000292F28262929292630484D402038080859
:1003F000080808080808382F10C8ACBA2F1028348D
:10040000FA00007B000008142A142222142A14087F
:100410005500550055AA55AA55AAFF55FF55FF008E
:100420000000FF00101010FF00141414FF00101043
:10043000FF00FF1010F010F0141414FC001414F757
:1004400000FF0000FF00FF1414F404FC1414171044
:100450001F10101F101F1414141F00101010F00094
:100460000000001F101010101F10101010F01000CE
:100470000000FF101010101010101010FF100000DE
:1004800000FF140000FF00FF00001F10170000FC19
:1004900004F414141710171414F404F40000FF00EB
:1004A000F714141414141414F700F7141414171474
:1004B00010101F101F141414F4141010F010F0007A
:1004C000001F101F0000001F14000000FC1400009B
:1004D000F010F01010FF10FF141414FF141010107F
:1004E0001F00000000F010FFFFFFFFFFF0F0F0F032
:1004F000F0FFFFFF0000000000FFFF0F0F0F0F0FC6
:100500003844443844FC4A4A4A347E020206060211
:100510007E027E0263554941633844443C04407E78
:10052000201E2006027E020299A5E7A5991C2A49F1
:100530002A1C4C7201724C304A4D4D30304878487C
:1005400030BC625A463D3E494949007E0101017E68
:100550002A2A2A2A2A44445F444440514A444040BB
:10056000444A51400000FF0103E080FF00000808FA
:100570006B6B083612362436060F090F060000187A
:10058000180000001010003040FF0101001F0101A1
:100590001E00191D1712003C3C3C3C0000000000EE
:1005A000000103070F1F3F7F0080C0E0F0F8FCFE52
:1005B000DB40A4A62EAF2000A1C8D300408DAED54D
:1005C00080A80000600000000000000000000000A3
:1005D000000000E00000000000000000000000003B
:1005E0000001E0000000000000000000000000002A
:1005F00001F0000000000000000000000000000307
:10060000F00000000000000000000000000007F003
:100610000000000000000000000000000007F800DB
:100620000000000000000000000000000FF80000C3
:100630000003C0007E000001E0007F0FF800000012
:1006400003C000FE000001E000FFEFF8000000031F
:10065000C000FE000001E000FFFFF800000003C042
:1006600000F00000000F007FFE7FC0000003C0000C
:10067000F00000000F003FFE7FF83FF1FBCFFCFED3
:10068000F3BC3DEFE01FFE7FFF7FFBFFDFFEFEFFC1
:10069000BC3DEFE01FC6FFFF7FFBFFDFFEFEFFBCA0
:1006A0003DEFE00FE3C7FE787BC3DE1EF0FFBC3DED
:1006B000EF0007FF87FC787BC3DE1EF0F83C3DEFC0
:1006C0000001FFFFF0007BC3C01EF0F03C3DEF00D7
:1006D00001F37FE03FFBC3CFFEF0F03C3DEF0003B2
:1006E000E33F807FFBC3DFFEF0F03C3DEF0007E718
:1006F0003C00787BC3DE1EF0F03C3DEF0007FFBE00
:1007000000787BC3DE1EF0F03C3DEF0007FFFE00EB
:10071000787BC3DE1EF0F03C3DEF000FFFFE007F54
:10072000FBFFDFFEF0F03FFDEFE00FFFFF007FFB80
:10073000FFDFFEF0F03FFDEFE00FF9FF003E79F93B
:10074000CF9EF0F01F3DE7E01FF1FF00000000002A
:10075000000000000000001F80FF007FFFFFFFFF80
:10076000FFFFFFFFFFE01C007F007FFFFFFFFEB4E5
:100770006D888D18E000001F007FFFFFFFFE95AD24
:100780007DB577E000000F007FFFFFFFFEA5AD9D68
:100790008D19E0000006007FFFFFFFFEB5ADEDB54F
:1007A0007EE000000000000180000000000000006A
:1007B0000000038000000000000000000007C000EF
:1007C000000000000000000007C000000000000062
:1007D0000000000FC00000000000000000001FE04B
:1007E0000000000000000000001FE000000000000A
:1007F000000000003FE00000000000000000003F9B
:10080000F00000000000000000007FF00000000089
:100810000000001FF87FF0000000000000003FFE15
:100820007FF0000000000000003FFF7FF0000000AC
:10083000000000001FFFFBE0000000000000000FB0
:10084000FFF9FFC00000000000000FFFF9FFF800F3
:10085000000000000007FFF1FFFF000000000000A3
:1008600003FC73FFFF80000000000001FE3FFFFF5C
:1008700080000000000000FF1E0FFF0000000000CD
:1008800000007FFE1FFC000000000000003FFFFF93
:10089000F8000000000000000FDFFFE00000000093
:1008A0000000001F19FFC0000000000000003F3CD6
:1008B000FF00000000000000007E7CF80000000047
:1008C000000000007FFE7C0000000000000000FF30
:1008D000FFFC0000000000000000FFFFFE00000021
:1008E0000000000000FFFFFE00000000000000010B
:1008F000FFEFFE0000000000000001FFCFFE00003F
:10090000000000000003FF07FE00000000000000E0
:1009100003FC07FE0000000000000003F003FE00DF
:10092000000000000000018000FE00000000000048
:10093000000000007E000000000000000000003EFB
:10094000000000000000000000000C00000000009B
:1009500000078000FC000003C0000000078001FCCD
:10096000000003C0000000078001FC000003C0007D
:100970000000078001E00000001E00000007800169
:10098000E00000001E007FE3F79FF9FDE7787BDFC2
:10099000C0FFF7FFBFFDFDFF787BDFC0FFF7FFBFA4
:1009A000FDFDFF787BDFC0F0F787BC3DE1FF787B82
:1009B000DE00F0F787BC3DE1F0787BDE0000F787D2
:1009C000803DE1E0787BDE007FF7879FFDE1E07806
:1009D0007BDE00FFF787BFFDE1E0787BDE00F0F70C
:1009E00087BC3DE1E0787BDE00F0F787BC3DE1E0CD
:1009F000787BDE00F0F787BC3DE1E0787BDE00FF2E
:100A0000F7FFBFFDE1E07FFBDFC0FFF7FFBFFDE1C8
:100A1000E07FFBDFC07CF3F39F3DE1E03E7BCFC096
:100A20000000000000000000000000FFFFFFFFFFCB
:100A3000FFFFFFFFFFC0FFFFFFFFFD68DB111A3163
:100A4000C0FFFFFFFFFD2B5AFB6AEFC0FFFFFFFF58
:100A5000FD4B5B3B1A33C0FFFFFFFFFD6B5BDB6AA7
:100A6000FDC000000000240027002A000000000054
:100A7000250028002B0004040404040404040202DA
:100A8000020202020303030303030102040810200D
:100A90004080010204081020010204081020000018
:100AA000000800020100000304070000000000002D
:100AB00000002200FF212020F42611241FBECFEFCA
:100AC000D8E0DEBFCDBF12E0A0E0B1E0E0E6FDE59A
:100AD00002C005900D92A830B107D9F724E0A8E034
:100AE000B2E001C01D92AC39B207E1F715E0CCE5E8
:100AF000D5E004C02197FE010E944D27CB35D107D8
:100B0000C9F70E9483210C94A32E0C94000091E05D
:100B10009093AC028093CE021092AD021092CF025D
:100B200008950895833081F028F4813099F082305F
:100B3000A9F008958730A9F08830C9F08430B1F465
:100B4000809180008F7D03C0809180008F7780939B
:100B50008000089584B58F7784BD089584B58F7D16
:100B6000FBCF8091B0008F778093B0000895809183
:100B7000B0008F7DF9CF1F93CF93DF93282F30E004
:100B8000F901E256F54F8491F901E657F54FD491FA
:100B9000F901EA58F54FC491CC23A9F0162F811121
:100BA0000E949205EC2FF0E0EE0FFF1FE459F54F85
:100BB000A591B4918FB7F894EC91111108C0D0951C
:100BC000DE23DC938FBFDF91CF911F910895DE2B41
:100BD000F8CFCF93DF9390E0FC01E657F54F2491D7
:100BE0008A58954FFC0184918823D1F090E0880FBA
:100BF000991FFC01EE59F54FA591B491FC01E45900
:100C0000F54FC591D491623071F49FB7F8943C913F
:100C1000822F809583238C93E8812E2B28839FBF7E
:100C2000DF91CF9108958FB7F894EC912E2B2C93F0
:100C30008FBFF6CF3FB7F89480915C0290915D0230
:100C4000A0915E02B0915F0226B5A89B05C02F3F20
:100C500019F00196A11DB11D3FBFBA2FA92F982FE2
:100C60008827BC01CD01620F711D811D911D42E0DD
:100C7000660F771F881F991F4A95D1F708958F92A5
:100C80009F92AF92BF92CF92DF92EF92FF924B0171
:100C90005C010E941A066B017C010E941A066C1905
:100CA0007D098E099F09683E734081059105A8F36F
:100CB00021E0821A9108A108B10888EEC80E83E0ED
:100CC000D81EE11CF11C81149104A104B10429F780
:100CD000FF90EF90DF90CF90BF90AF909F908F905C
:100CE00008952FB7F894609158027091590280913D
:100CF0005A0290915B022FBF0895089508950895B8
:100D0000AF92BF92CF92DF92EF92FF920F931F9319
:100D1000CF93DF936C017B018B01040F151FEB0157
:100D20005E01AE18BF08C017D10759F06991D6010E
:100D3000ED91FC910190F081E02DC6010995892B80
:100D400079F7C501DF91CF911F910F91FF90EF903F
:100D5000DF90CF90BF90AF900895FC01538D448DEC
:100D6000252F30E0842F90E0821B930B541710F056
:100D7000CF96089501970895FC01918D828D981763
:100D800061F0A28DAE0FBF2FB11D5D968C91928D3B
:100D90009F5F9F73928F90E008958FEF9FEF08956C
:100DA000FC01918D828D981731F0828DE80FF11D35
:100DB000858D90E008958FEF9FEF0895FC01918D50
:100DC000228D892F90E0805C9F4F821B91098F7349
:100DD0009927089580ED92E00E94DE0621E0892B9C
:100DE00009F420E0822F089580E090E0892B29F01B
:100DF0000E94EA0681110C9400000895FC01A48D64
:100E0000A80FB92FB11DA35ABF4F2C91848D90E02C
:100E100001968F739927848FA689B7892C93A0890F
:100E2000B1898C91837080648C93938D848D981399
:100E300006C00288F389E02D80818F7D808308952C
:100E4000EF92FF920F931F93CF93DF93EC0181E01A
:100E5000888F9B8D8C8D98131AC0E889F9898081C1
:100E600085FF15C09FB7F894EE89FF896083E889F4
:100E7000F98980818370806480839FBF81E090E0E6
:100E8000DF91CF911F910F91FF90EF900895F62E73
:100E90000B8D10E00F5F1F4F0F731127E02E8C8D0D
:100EA0008E110CC00FB607FCFACFE889F989808152
:100EB00085FFF5CFCE010E94FE06F1CFEB8DEC0F42
:100EC000FD2FF11DE35AFF4FF0829FB7F8940B8F6F
:100ED000EA89FB8980818062CFCFCF93DF93EC01D9
:100EE000888D8823B9F0AA89BB89E889F9898C9112
:100EF00085FD03C0808186FD0DC00FB607FCF7CFCE
:100F00008C9185FFF2CF808185FFEDCFCE010E94CD
:100F1000FE06E9CFDF91CF910895EF92FF920F93F4
:100F20001F93CF93DF93EC01EC80FD806E157F055E
:100F30000CF070C057FF04C0240F351F50E040E094
:100F40008E819F81FA01E20FF31F8E179F071CF419
:100F50009C01241B350B121613060CF05BC0922F5C
:100F6000842F8695869586958E9DD0018F9DB00D98
:100F700011246A0F7B1FAF8DB8A1A60FB71F477052
:100F800049F188E0841B482F682F70E0FB01E85589
:100F9000FA4FE491281708F063C0621B71092FEF24
:100FA00030E002C0359527956A95E2F7E2230130DB
:100FB000110539F0B0F10230110561F58C91E82787
:100FC00002C08C91E82BEC93941720F12C813D8189
:100FD000A20FB31FE92FE41BE83078F002301105AF
:100FE00021F58E2F9C9190959C932C813D81A20F91
:100FF000B31F88508830B0F7E770EE2359F0F0E067
:10100000E056FA4FE49101301105F9F010F1023089
:10101000110519F1DF91CF911F910F91FF90EF9082
:101020000895E0958C91E823CECF81E0011511055C
:1010300009F480E081959E2F8C932C813D81A20F35
:10104000B31F98509830C0F7D7CF8C91E82BEC9312
:10105000E1CFE0958C91E823FACF8C91E827F7CF88
:101060000130110509F4ADCFE0F20230110509F4A9
:10107000A5CFAE0DBF1DAECF0F931F93CF93DF93C0
:1010800077FF04C0260F371F70E060E0DC01149684
:10109000CD91DC91FB01E20FF31FCE17DF071CF4AB
:1010A0009E01261B370B121613064CF5FA0157FD4D
:1010B0003796A3E0F595E795AA95E1F7EC9FD00167
:1010C000ED9FB00DFC9FB00D11246A0F7B1FDC015A
:1010D0005F96ED91FC91E60FF71F4770552781E071
:1010E00090E001C0880F4A95EAF7482F01301105BA
:1010F00059F0A8F02E0F3F1F02301105E1F0DF91EB
:10110000CF911F910F9108952E0F3F1FE217F30704
:10111000B1F38191DF011197842B8C93F7CF8095E8
:101120002E0F3F1FE217F30751F39191DF01119743
:1011300098239C93F7CFE217F30709F38191DF011E
:10114000119784278C93F7CF0F931F93FA01DC013B
:1011500056964C9156974230E9F04330A1F1413018
:1011600061F514964D915C91DA01AE1BBF0BFD0148
:10117000E21BF30B77FD0BC0DC0116964D915C91E1
:101180006417750724F4AB01BF010E943C081F914E
:101190000F91089514964D915C91DA01A61BB70B3F
:1011A000BD0161507109DC0116964D915C91DA0127
:1011B000AE1BBF0BFD01E21BF30B77FDE8CFAF01C8
:1011C0000E948D07E4CF16964D915C91DA01A61B23
:1011D000B70BBD0161507109CDCF0F931F93FA0179
:1011E000DC0156964C9156974230A9F0433091F16C
:1011F000413019F514964D915C91DA01AE1BBF0B8D
:10120000FD013197F7FD04C0AB01BF010E948D07BE
:101210001F910F91089514964D915C91DA01A61BD0
:10122000B70BBD01DC0116964D915C91DA01AE1B46
:10123000BF0BFD013197621B730BF7FDE9CFDC019A
:1012400016964D915C91E417F50714F7AF010E94D3
:101250003C08DECF16964D915C91DA01A61BB70BC8
:10126000BD01621B730BCECFFC0177FD64C080858E
:101270009185681779070CF05EC057FD5CC08285C8
:101280009385481759070CF056C086898230B1F013
:10129000833029F1813041F484819581841B950B41
:1012A000AB01BC01615071092130310509F108F42D
:1012B00043C02230310509F463C0089584819581CB
:1012C000DC01A61BB70BBD016150710986819781B6
:1012D000DC01A41BB50BAD0141505109E5CF86815E
:1012E0009781861B970BBA01AC0141505109DCCFA5
:1012F000CA0157FD0796A3E095958795AA95E1F752
:10130000A481B5818A9F90018B9F300D9A9F300DEB
:101310001124620F731F078CF0A1E02DE60FF71F59
:101320004770552721E030E001C0220F4A95EAF7C7
:101330008081822B80830895CA0157FD079633E090
:10134000959587953A95E1F7A481B5818A9F90019B
:101350008B9F300D9A9F300D1124620F731F078CE5
:10136000F0A1E02DE60FF71F4770552781E090E0D0
:1013700001C0880F4A95EAF7809590818923DACFDA
:10138000CA0157FD079623E0959587952A95E1F7C1
:10139000A481B5818A9F90018B9F300D9A9F300D5B
:1013A0001124620F731F078CF0A1E02DE60FF71FC9
:1013B0004770552721E030E001C0220F4A95EAF737
:1013C00080818227B7CF08958EBD00000DB407FE3F
:1013D000FDCF8EB508958CBD9DBD08950895FC0187
:1013E0006370668B8481958126813781613039F005
:1013F000633029F09187808733872287089531876A
:1014000020879387828708952F923F924F925F9211
:101410006F927F928F929F92AF92BF92CF92DF9204
:10142000EF92FF920F931F93CF93DF93CDB7DEB769
:101430006A970FB6F894DEBF0FBECDBF9A8F898F23
:101440007A8369834A01D22E18870F833701BC2C17
:10145000DC0159962D913C915A972115310509F0DF
:1014600015C118968D919C911997681779070CF002
:10147000D7C11A968D919C91481759070CF0D0C18D
:101480004C2C512CB6E0CB9E600D711D11247C8735
:101490006B87161617060CF0C3C1EA2DF0E0FA8729
:1014A000E98793E0EE0FFF1F9A95E1F7F88BEF873E
:1014B000CF01840F951F181619060CF0B1C1A98D24
:1014C000BA8D58968C91811104C0BFEABD1508F4FD
:1014D000D394A98DBA8DED91FC9111970284F38577
:1014E000E02DCD010995B5E0DB9EC0011124E98115
:1014F000FA81FC83EB83312C212C9C0120563F4F39
:10150000388F2F8B4A2D50E05E8B4D8BEF89F88DF5
:10151000E20DF31D44919E828D82D12CC12C6981F4
:101520007A81620D731D7A8B698B842F90E09C8B7E
:101530008B8BE98DFA8DA081B18140FF82C0F1E0F3
:10154000BF126FC0AF126DC01C96ED91FC912F8140
:101550003885A4014C0D5D1D69897A89898D9A8D24
:101560000995EB89FC89F595E7954E2F5FEFC51A34
:10157000D50A6D817E818D899E89680F791F7E8352
:101580006D8398E0C916D10481F6AFEF2A1A3A0AA2
:10159000EB81FC81E40DF51DFC83EB83F5E02F1658
:1015A000310409F0B3CF2F81388526153705B9F0FE
:1015B000A98DBA8DED91FC91B1E0BB1257C0AB1271
:1015C00055C069817A816B5F7F4F0088F189E02D7A
:1015D000830128E030E0A401898D9A8D0995A98DB9
:1015E000BA8DED91FC9111970688F789E02DCD0118
:1015F0006A960FB6F894DEBF0FBECDBFDF91CF91D4
:101600001F910F91FF90EF90DF90CF90BF90AF9020
:101610009F908F907F906F905F904F903F902F9012
:1016200009941E96ED91FC91EF80F88409851A8546
:1016300092014D815E816B817C81898D9A8D0995A6
:1016400090CF2F8138852615370509F48ACF31E0F0
:10165000B31207C0A31205C01C96ED91FC91930133
:1016600078CF1E96ED91FC917301E0CF6B857C8560
:10167000641975090684F785E02D73010F851889B3
:101680009201A401898D9A8D0995A9CFF90134960B
:101690009491329745915491D91AB7E0DB9E400D51
:1016A000511D1124F901259134913C8B2B8BFA01AA
:1016B00025903490FA013296749031963491398B9A
:1016C000329664903196449041E04C1518F04A15DA
:1016D00008F07FC0662D062C000C770B7C836B8393
:1016E000842D042C000C990B9E838D83A98DBA8DBB
:1016F000ED91FC9111970284F385E02DCD010995C0
:10170000512CD12CC12CEA2DF0E0FA87E9872B2D42
:1017100030E03C872B87A401440D511D47FC5A95AE
:10172000588F4F8B69817A81660D711D67FC7A95A0
:101730007E876D877989C71608F051CF2C2D30E050
:101740004D815E81420F531FA985BA854A9FC00112
:101750004B9F900D5A9F900D1124FC01E80DF91D2F
:10176000F88BEF87852D612C4F89588D420F531FC1
:101770005E8B4D8B671408F050C044244394480E90
:10178000877041F4C1010196EB89FC89E20DF31DDC
:10179000D4901C01D7FE19C0A98DBA8DED91FC9192
:1017A000662D70E0B1E0BB1219C0AB1217C02D85D9
:1017B0003E85620F731F0484F585E02D2F813885E7
:1017C0004D895E89898D9A8D0995DD0C6394842DF0
:1017D000D1CF1E821D821C821B8288CF4B815C81EF
:1017E000640F751FAB85BC856A9FC0016B9F900D10
:1017F0007A9F900D112469817A81680F791F068480
:10180000F785E02DEF80F88409851A859D014F85C5
:101810005889898D9A8D0995D8CF570CC3948ACF52
:101820006A960FB6F894DEBF0FBECDBFDF91CF91A1
:101830001F910F91FF90EF90DF90CF90BF90AF90EE
:101840009F908F907F906F905F904F903F902F90E0
:1018500008958F929F92AF92CF92EF92FF920F9343
:101860001F93CF93DF93EC01262F898D9A8D0097DC
:1018700009F051C06A30D1F41D861C868D8948E07C
:10188000849F900111248E859F85820F931F9F87CF
:101890008E8781E090E0DF91CF911F910F91FF90B3
:1018A000EF90CF90AF909F908F9008956D3089F317
:1018B000CC88AD888F898823C1F08C859D8536E0E2
:1018C000C39E800D911D11244885598548175907DD
:1018D00064F44E855F851D861C8638E0A39EC0019A
:1018E0001124840F951F9F878E87EA88FB880889BB
:1018F00019894E855F856C857D85CE010E94040A1D
:101900002C898C859D8546E0249F800D911D112496
:101910009D878C87BECF6A3069F41D861C86FC01CA
:101920003896E4912D898E859F85E29F800D911DCB
:101930001124ADCF6D3009F4ACCFFC013496349155
:10194000631708F4A6CF3296E491E61708F4A1CF06
:10195000FC01329685909490462F431B342F47E02C
:10196000349F800C911C1124F401329634913196ED
:10197000E4913323A9F1EE2399F1CC88F401359653
:10198000E491AD884F89442301F10E2E000CFF0B2A
:10199000E30FF11DCE9EA001CF9E500D11246C854A
:1019A0007D85460F571F68857985641775076CF428
:1019B0004E855F851D861C86FC013896E491AE9E9F
:1019C000400D511D11245F874E87EA88FB880889E6
:1019D00019894E855F856C857D85CE010E94040A3C
:1019E000F4013496E4912C898C859D85E29F800DCD
:1019F000911D11248DCF6F927F928F929F92AF9203
:101A0000BF92CF92DF92EF92FF920F931F93CF93EB
:101A1000DF93EC016B015A0139014801E881F9813A
:101A20000284F385E02D0995E881F9810288F38924
:101A3000E02D87019301A501B601CE010995A5010D
:101A4000480D591D41505109E881F9810288F389F7
:101A5000E02D9301B601CE010995E881F981008856
:101A6000F189E02D9401A501B601CE010995C60CBE
:101A7000D71CB60161507109E881F9810088F189AC
:101A8000E02D9401A501CE010995E881F981068830
:101A9000F789E02DCE01DF91CF911F910F91FF903B
:101AA000EF90DF90CF90BF90AF909F908F907F90FE
:101AB0006F9009946F927F928F929F92AF92BF9294
:101AC000CF92DF92EF92FF920F931F93CF93DF930A
:101AD0005C01EB016A01490138018701DC01ED91EC
:101AE000FC916217730719F5641675062CF0962D94
:101AF000872D3A01C92ED82E9601261937092F5F56
:101B00003F4F048CF58DE02DA301BE01C501099561
:101B1000DF91CF911F910F91FF90EF90DF90CF90C9
:101B2000BF90AF909F908F907F906F9008954615D3
:101B3000570591F42617370724F0892D4B01C22F42
:101B4000D82F9E01281939092F5F3F4F068CF78D3A
:101B5000E02DA601B401DACF0284F385E02D0995CA
:101B6000D501ED91FC910488F589E02D8301940164
:101B7000A601BE01C5010995D501ED91FC9106882C
:101B8000F789E02DC501DF91CF911F910F91FF9053
:101B9000EF90DF90CF90BF90AF909F908F907F900D
:101BA0006F900994EF92FF920F931F93DC011A96A6
:101BB0000D911C911B9718962D913C911997ED91C1
:101BC000FC9100A0F1A1E02D7B0150E040E070E02D
:101BD00060E009951F910F91FF90EF9008954F924B
:101BE0005F926F927F928F929F92AF92BF92CF92AD
:101BF000DF92EF92FF920F931F93CF93DF936C01CD
:101C00002B015A0139014801DC01ED91FC9102845C
:101C1000F385E02D0995E201640C751CD601ED9168
:101C2000FC91C615D7055CF40088F189E02D870189
:101C30009401A501BE01C60109952196EFCF068842
:101C4000F789E02DC601DF91CF911F910F91FF9091
:101C5000EF90DF90CF90BF90AF909F908F907F904C
:101C60006F905F904F9009948F929F92AF92BF9226
:101C7000CF92DF92EF92FF920F931F93CF93DF9358
:101C8000EC015B014A016901E881F9810284F38575
:101C9000E02D099595012C0D3D1D21503109E8815C
:101CA000F9810488F589E02D78018401A401B5014A
:101CB000CE010995E881F9810688F789E02DCE01EA
:101CC000DF91CF911F910F91FF90EF90DF90CF9018
:101CD000BF90AF909F908F9009948F929F92AF92F8
:101CE000BF92CF92DF92EF92FF920F931F93CF9309
:101CF000DF93EC015B014A0169017801E881F98118
:101D00000284F385E02D0995C80CD91C8601015089
:101D10001109E881F9810488F589E02D9501A40174
:101D2000B501CE010995E881F9810688F789E02D92
:101D3000CE01DF91CF911F910F91FF90EF90DF9037
:101D4000CF90BF90AF909F908F900994EF92FF92A9
:101D50000F931F93DC01ED91FC9100A0F1A1E02D08
:101D600009951F910F91FF90EF9008950F931F9386
:101D7000DC01ED91FC91068CF78DE02D09951F910A
:101D80000F9108950F931F93DC01ED91FC91048C4A
:101D9000F58DE02D09951F910F910895DC01ED91CE
:101DA000FC910084F185E02D09943F924F925F925F
:101DB0006F927F928F929F92AF92BF92CF92DF925B
:101DC000EF92FF920F931F93CF93DF935C017B0100
:101DD0004A016901390187E0680E711C93E075942E
:101DE00067949A95E1F72B01400E511E10E000E038
:101DF000312CD0E0C0E0CE0187709927330C892BBD
:101E000059F4FE0183E0F595E7958A95E1F7E00F37
:101E1000F11FE80DF91D349037FE0AC021E030E0D3
:101E2000A701B5016C0F7D1F89E793E00E94CE0EDC
:101E30002196CC16DD06F9F68FEFE81AF80A060DA2
:101E4000171DE414F504A9F6DF91CF911F910F91AE
:101E5000FF90EF90DF90CF90BF90AF909F908F90CA
:101E60007F906F905F904F903F9008952F923F9298
:101E70004F925F926F927F928F929F92AF92BF929A
:101E8000CF92DF92EF92FF920F931F93CF93DF9346
:101E900000D000D000D0CDB7DEB73C016A013E8350
:101EA0002D83FC82EB825801A41AB50AB7FE03C049
:101EB000B194A194B1088D809E80861A970A97FEEE
:101EC00003C09194819491088A149B045CF0902F34
:101ED000812F0D811E819D838E839C2D8D2D6B0105
:101EE000692F782F0C151D055CF09D818E817E83F6
:101EF0006D83692F782F902F812F8601C92ED82EC0
:101F00001601201A310A2B012D813E81421A530AF3
:101F100057FE03C0519441945108710137FE03C02C
:101F20003FEFE31AF30AF594E7948D819E818617BB
:101F300097075CF5A1E0B0E0BA83A983C016D1068B
:101F40004CF1D301ED91FC910484F585E02D2B81BA
:101F50003C81A8016D817E818A149B041CF04D8117
:101F60005E81B801C3010995E418F508F7FE0AC0BF
:101F70002D813E8189819A81280F391F3E832D83CF
:101F8000E20CF31C0F5F1F4FD9CF2FEF3FEF3A83C7
:101F90002983D4CF26960FB6F894DEBF0FBECDBFEF
:101FA000DF91CF911F910F91FF90EF90DF90CF9035
:101FB000BF90AF909F908F907F906F905F904F9069
:101FC0003F902F900895089520912D02260F3327DA
:101FD000331F21323105ECF42091A602FC0190E080
:101FE00080E0243069F082E00895A0912D022191D3
:101FF000AC01435F5D4FA40FB52FB11D2C9301962B
:10200000861798F380912D02680F60932D0280E06F
:10201000089581E008951092A60281E08093A502C0
:102020001092800261E082E10E94BB0561E083E1E1
:102030000E94BB05E9EBF0E080818E7F8083808188
:102040008D7F808388E48093B80085E48093BC0012
:102050000895CF93DF9391E090930C028823B9F019
:10206000C091B800D091BA008091BC008A7B809367
:10207000BC0060E082E10E94BB0560E083E10E9459
:10208000BB050E940B10D093BA00C093B800DF913B
:10209000CF9108958F929F92AF92BF92CF92DF928D
:1020A000EF92FF920F931F93CF93DF93D091CF02C4
:1020B000D13208F0D7C0182FC091CE020E941A0664
:1020C0006B017C018091A60281116BC082E080933C
:1020D000A6021093A5028FEF8093A4021092A30290
:1020E000D093A202AEEAB2E0E2E8F2E080E0D813D8
:1020F00091C01092810280918102CC0FC82BC093B5
:10210000810280918002813009F088C010928002A3
:102110000E941A066B017C01809181028093BB00B2
:102120008091A8029091A902A091AA02B091AB025D
:10213000892B8A2B8B2BA1F00E941A060091A802F2
:102140001091A9022091AA023091AB026C197D096D
:102150008E099F09061717072807390708F442C098
:102160008091BC0083FDD8CF85EC8093BC000E9499
:102170001A066B017C018091A602823009F450C0DE
:102180008091A4028F3F09F46FC08091A402803235
:1021900009F46CC08091A402803309F469C084E022
:1021A00026C08091A8029091A902A091AA02B091A4
:1021B000AB02892B8A2B8B2B09F484CF0E941A0641
:1021C0008090A8029090A902A090AA02B090AB02C1
:1021D0006C197D098E099F0986169706A806B9060F
:1021E00008F070CF8091A7020E94291085E010921C
:1021F000AD021092CF021092AC02DF91CF911F91ED
:102200000F91FF90EF90DF90CF90BF90AF909F9095
:102210008F9008959D9191938F5F69CF85EEA5CFA3
:102220008091A8029091A902A091AA02B091AB025C
:10223000892B8A2B8B2B09F49ECF0E941A060091C2
:10224000A8021091A9022091AA023091AB026C1948
:102250007D098E099F09061717072807390708F017
:102260008ACFC0CF81E0C3CF80E0C1CF82E0BFCFB3
:1022700083E0BDCFCF92DF92EF92FF920F931F9337
:10228000CF93DF93D82FC62F613208F098C00E94F9
:102290001A066B017C018091A60281116BC081E05E
:1022A0008093A6028093A5029FEF9093A4021092C0
:1022B000A3029C0F9093A2028093810280918102DD
:1022C000DD0FD82BD093810280918002813009F0FC
:1022D00078C0109280020E941A066B017C018091E6
:1022E00081028093BB008091A8029091A902A091E5
:1022F000AA02B091AB02892B8A2B8B2BA1F00E94F2
:102300001A060091A8021091A9022091AA02309108
:10231000AB026C197D098E099F090617170728075C
:10232000390708F448C08091BC0083FDD8CF85EC04
:102330008093BC000E941A066B017C018091A6026A
:10234000813009F440C08091A3028C1710F4C09131
:10235000A302E2E8F2E0A0E6B2E080E08C1355C010
:102360008C2FDF91CF911F910F91FF90EF90DF9015
:10237000CF9008958091A8029091A902A091AA02FD
:10238000B091AB02892B8A2B8B2B09F484CF0E944E
:102390001A060091A8021091A9022091AA02309178
:1023A000AB026C197D098E099F09061717072807CC
:1023B000390708F070CF8091A7020E942910C0E071
:1023C000CFCF85EEB5CF8091A8029091A902A091C0
:1023D000AA02B091AB02892B8A2B8B2B09F4AECFCA
:1023E0000E941A060091A8021091A9022091AA0247
:1023F0003091AB026C197D098E099F0906171707EA
:102400002807390708F09ACFD6CF91919D938F5F17
:10241000A5CFE091560280915502E81730F4F0E024
:10242000E05AFD4F808190E008958FEF9FEF08956F
:1024300090915602809155022FEF3FEF981748F484
:10244000E92FF0E0E05AFD4F208130E09F5F90934C
:102450005602C90108958091550290915602891B38
:10246000990B0895CF92DF92EF92FF920F931F93F3
:10247000CF93DF937C01CB018A012091AC02222310
:1024800089F0EB016B01C40ED51ECC15DD0569F09A
:102490006991D701ED91FC910190F081E02DC70188
:1024A0000995F3CF642F0E94E40FC801DF91CF910B
:1024B0001F910F91FF90EF90DF90CF900895CF93F1
:1024C000DF931F92CDB7DEB769832091AC02222340
:1024D000F9F02091CF02203258F021E030E0FC01E9
:1024E0003383228390E080E00F90DF91CF910895B5
:1024F0008091AD02E82FF0E0E255FD4F9981908385
:102500008F5F8093AD028093CF0281E090E0ECCFAB
:1025100061E0CE0101960E94E40FF7CF81E00C94B8
:102520004A100F931F93CF93DF93082F162F88E63F
:102530000E948705C8E2D4E088819981DC01ED9191
:10254000FC910190F081E02D602F0995888199819F
:10255000DC01ED91FC910190F081E02D612F099556
:1025600088819981DF91CF911F910F910C948E12E8
:10257000EF92FF920F931F93CF937C01C62F809110
:10258000960390919703892B09F44EC080919A038A
:102590000E9487058091960390919703DC01ED914D
:1025A000FC910190F081E02D60E009958701EE2417
:1025B000E394F12CC1508091960390919703CF3F03
:1025C00061F1B0E2EB16F104A8F00E948E12809146
:1025D0009A030E9487058091960390919703DC01EE
:1025E000ED91FC910190F081E02D60E00995EE24E1
:1025F000E394F12C8091960390919703F8016491F4
:10260000DC01ED91FC910190F081E02D0995BFEF87
:10261000EB1AFB0A0F5F1F4FCDCFCF911F910F9188
:10262000FF90EF900C948E12E091A603F091A70317
:1026300090818091AC038095892380838701C1506C
:1026400008F438C0F80184912091940330919503E7
:10265000232B29F00E94E4090F5F1F4FF0CF28E0E1
:1026600030E040E8E091A203F091A3039091AA0327
:10267000582F5423D9F05081952B9083E091A403D7
:10268000F091A50390815091AB03952B9083E0913D
:10269000A403F091A50350819091AB0390959523ED
:1026A0009083469521503109E9F6D6CF5081909517
:1026B0009523E3CFCF911F910F91FF90EF90089555
:1026C0001F93CF93DF93EC018D8D9E8D892BF9F0B5
:1026D000162F89A10E9487058D8D9E8DDC01ED91BD
:1026E000FC910190F081E02D60E009958D8D9E8D2B
:1026F000DC01ED91FC910190F081E02D612F0995B5
:102700008D8D9E8DDF91CF911F910C948E12ADA572
:10271000BEA59C918BA9809589238C938B8D9C8DD4
:10272000892B31F0862FDF91CF911F910C94E40912
:1027300028E030E080E8A9A5BAA599A9462F48234A
:10274000C1F04C91942B9C93ABA5BCA59C914AA93C
:10275000942B9C93ABA5BCA54C919AA990959423DE
:102760009C9386952150310931F7DF91CF911F91CC
:1027700008954C9190959423E6CFEF92FF920F939A
:102780001F93CF93DF938091960390919703892BAA
:1027900009F49AC02091AE033091AF034091B00389
:1027A0005091B10360E074E284EF90E00E9417273B
:1027B000205131094109510956954795379527957B
:1027C0002093B80064E082EB9AE00E94B8128091F6
:1027D0007D0390917E038034910509F08CC060E206
:1027E00089E793E00E94601360917D03615E89E751
:1027F00093E00E94601320917F0330918003C90110
:10280000079697FD079633E0959587953A95E1F7FA
:1028100020917D0330917E03829F8001839F100D64
:10282000929F100D1124C0919803D091990380912B
:102830009603909197030C0F1D1F892B09F48CC0F0
:1028400080919A030E948705809196039091970347
:10285000DC01ED91FC910190F081E02D60E409959F
:10286000EE24E394F12C80919603909197030C173A
:102870001D0709F449C0B0E2EB16F104A8F00E946C
:102880008E1280919A030E94870580919603909101
:102890009703DC01ED91FC910190F081E02D60E463
:1028A0000995EE24E394F12C80919603909197037F
:1028B0006991DC01ED91FC910190F081E02D099589
:1028C000BFEFEB1AFB0ACFCF809194039091950351
:1028D000892B31F08091B7039091B8030E94EB09E6
:1028E000E091A803F091A90390818091AD038095B8
:1028F0008923808367CF60E089E793E00E946013BB
:1029000060917D03615073CF0E948E128091960377
:1029100090919703892B09F460C02091B203309104
:10292000B3034091B4035091B50360E074E284EFC7
:1029300090E00E941727205131094109510956950D
:102940004795379527952093B800DF91CF911F9138
:102950000F91FF90EF900895E091A603F091A703E7
:1029600080819091AC03892B80830C171D0771F235
:1029700089912091940330919503232B19F00E94A3
:10298000E409F3CF28E030E040E8E091A203F091C1
:10299000A3039091AA03582F5423D9F05081952B6B
:1029A0009083E091A403F091A50390815091AB0333
:1029B000952B9083E091A403F091A5035081909111
:1029C000AB03909595239083469521503109E9F604
:1029D000CCCF508190959523E3CFE091A803F0915F
:1029E000A90380819091AD03892B8083AECF1F9383
:1029F000CF93DF93EC01162F8D8D9E8D892BB1F136
:102A00002DA93EA94FA958AD60E074E284EF90E093
:102A10000E941727205131094109510956954795C0
:102A2000379527952093B80066EA111167EACE0121
:102A30000E9460138D8D9E8D892B41F129AD3AAD99
:102A40004BAD5CAD60E074E284EF90E00E9417272C
:102A500020513109410951095695479537952795D8
:102A60002093B800DF91CF911F9108958B8D9C8D9D
:102A7000892B21F08EAD9FAD0E94EB09EFA5F8A93F
:102A800090818CA9809589238083CECFEFA5F8A96A
:102A900080819CA9892B8083E5CFFF920F931F93A0
:102AA000CF93DF93EC01F62E142F052F8B810E941C
:102AB000870589819A81DC01ED91FC910190F0817B
:102AC000E02D60E0099589819A81DC01ED91FC910E
:102AD0000190F081E02D6F2D099589819A81DC01AB
:102AE000ED91FC910190F081E02D602F0995898195
:102AF0009A81DC01ED91FC910190F081E02D612F34
:102B0000099589819A810E948E128883DF91CF91E5
:102B10001F910F91FF900895FF920F931F93CF93F2
:102B2000DF93EC01062FF72E142F8B810E9487056F
:102B300089819A81DC01ED91FC910190F081E02D79
:102B40006F2D099589819A81DC01ED91FC910190AD
:102B5000F081E02D602F099589819A81DC01ED914A
:102B6000FC910190F081E02D612F099589819A8176
:102B70000E948E128883DF91CF911F910F91FF9059
:102B8000089590E080E008950F931F93CF93DF9313
:102B9000EC012B8130E0F901E256F54F8491F90107
:102BA000E657F54F0491F901EA58F54F14911123B6
:102BB00001F181110E949205E12FF0E0EE0FFF1F5D
:102BC000EA56FF4FA591B491EC910E2391F08D81BF
:102BD0009E81AF81B8850196A11DB11D8D839E8315
:102BE000AF83B88781E08C83DF91CF911F910F91E4
:102BF00008958D819E81AF81B8850197A109B109A2
:102C00008D839E83AF83B8878FEFEDCF80910A02CB
:102C100090910B02009711F00C94C41508958091C7
:102C2000080290910902009711F00C94C4150895C0
:102C30009F92AF92BF92CF92DF92EF92FF920F934B
:102C40001F93CF93DF93CDB7DEB72E970FB6F894CF
:102C5000DEBF0FBECDBF8C0188E60E948705D8017C
:102C60008D919C91DC01ED91FC910190F081E02D22
:102C70006BE3099580E00E944A106EE088E60E94AE
:102C80003A111092560280935502FE0131967F014F
:102C90005E01FFE0AF0EB11CD8018D919C91DC016B
:102CA000ED91FC910284F385E02D0995982EF801B1
:102CB00080819181DC01ED91FC910284F385E02D0E
:102CC0000995C12C8C299929F701819391937F0152
:102CD000AE16BF0609F7D8011696CD90DD90ED909F
:102CE000FC90199769817A81072E000C880B990B4B
:102CF0000E94E128A70196010E943728F801268941
:102D00003789408D518D0E945327D80196966D9337
:102D10007D938D939C9399976B817C81072E000CFA
:102D2000880B990B0E94E128A70196010E94372881
:102D3000F801228D338D448D558D0E945327D80183
:102D40009A966D937D938D939C939D976D817E81D3
:102D5000072E000C880B990B0E94E128A701960111
:102D60000E943728F801268D378D40A151A10E947D
:102D70005327D8019E966D937D938D939C93D19705
:102D80006F817885072E000C880B990B0E94E12833
:102D900020E030EF41E456E40E94542720E030E088
:102DA0004AEA53E40E943728F80162A373A384A37C
:102DB00095A3C280D380E480F58069857A85072E4B
:102DC000000C880B990B0E94E128A70196010E9434
:102DD0003728D8011A962D913D914D915C911D9700
:102DE0000E945327F80162AB73AB84AB95AB6B8544
:102DF0007C85072E000C880B990B0E94E128A70107
:102E000096010E943728D8011E962D913D914D9133
:102E10005C9151970E945327F80166AB77AB80AF66
:102E200091AF6D857E85072E000C880B990B0E9453
:102E3000E128A70196010E943728D80152962D91CA
:102E40003D914D915C9155970E945327F80162AFD7
:102E500073AF84AF95AF2E960FB6F894DEBF0FBE5A
:102E6000CDBFDF91CF911F910F91FF90EF90DF9039
:102E7000CF90BF90AF909F9008951F93CF93DF9313
:102E8000EC01162F8B810E94870589819A81DC01D4
:102E9000ED91FC910190F081E02D60E00995898130
:102EA0009A81DC01ED91FC910190F081E02D612F80
:102EB000099589819A810E948E12888361E08B81B5
:102EC0000E943A11109256028093550289819A818C
:102ED000DC01ED91FC910284F385E02D0995DF91F1
:102EE000CF911F910895FF920F931F93CF93DF937C
:102EF000EC01162FF42E61E0812F0E94E90560E0BD
:102F0000812F0E94BB0562E370E080E090E00E94A8
:102F10003F0661E0812F0E94BB0562E370E080E024
:102F200090E00E943F0664E270E0CE010E943D17EF
:102F30008D8366E170E0CE010E943D17813009F07B
:102F40003DC18C8341E067E072E0CE010E948C15A8
:102F500041E068E072E0CE010E948C1540E066E935
:102F600070E0CE010E948C154DEF67E970E0CE0154
:102F70000E948C1541E063EE70E0CE010E948C153A
:102F800043E064EE70E0CE010E948C1542E065EEF5
:102F900070E0CE010E948C1541E066EE70E0CE013B
:102FA0000E948C1543E067EE70E0CE010E948C1504
:102FB00042E065EF70E0CE010E948C1545E069EDBE
:102FC00070E0CE010E948C154EEC6BED70E0CE01EE
:102FD0000E948C1543E06CED70E0CE010E948C15D0
:102FE00048EF6DED70E0CE010E948C1540E06FE976
:102FF00070E0CE010E948C154CE363EA70E0CE01D4
:103000000E948C1540E067EB70E0CE010E948C15A9
:103010004CE36BEB70E0CE010E948C1549E062EB53
:1030200070E0CE010E948C1549E06AEC70E0CE01A0
:103030000E948C1541E068E971E0CE010E948C1578
:1030400047E160EB71E0CE010E948C1540E06DEA33
:1030500071E0CE010E948C1545E06FEF70E0CE016B
:103060000E948C1545E060E071E0CE010E948C1555
:1030700045E069E971E0CE010E948C154BE166EAFA
:1030800071E0CE010E948C154EE36CEA71E0CE0136
:103090000E948C154FE167EA71E0CE010E948C1509
:1030A00040E060E370E0CE010E948C1540E066E1F4
:1030B00070E0CE010E948C154F2D62E172E0CE01CE
:1030C0000E948C15FB8240E36AE071E0CE010E9411
:1030D0008C1546E46FE370E0CE010E948C154FEF33
:1030E00061E370E0CE010E948C1543E650E060E49D
:1030F00070E0CE010E944D1541E06EE270E0CE011D
:103100000E948C1549E06BE170E0CE010E948C15A5
:1031100041E36EE370E0CE010E948C1544E264E16D
:1031200070E0CE010E948C1541E36CE170E0CE01AD
:103130000E948C1540E063EA72E0CE010E948C157B
:1031400081E08C834DEF50E066E970E0CE010E9493
:103150004D158D81082E000C990B6C8170E00E943A
:103160000327462F64E270E0CE010E948C156C812B
:1031700070E084E190E00E940327462F61E270E056
:10318000CE010E948C156DE270E0CE010E943D17C9
:1031900041E09C81913009F040E08E7F482B6DE248
:1031A00070E0CE010E948C158AEF90E09F838E83A1
:1031B000DF91CF911F910F91FF9008958B810E9415
:1031C000870589819A81DC01ED91FC910190F08164
:1031D000E02D60E0099589819A81DC01ED91FC91F7
:1031E0000190F081E02D66E9099589819A810E941C
:1031F0008E12888362E08B810E943A1110925602EF
:103200008093550289819A81DC01ED91FC910284C1
:10321000F385E02D099500E0182F89819A81DC0162
:10322000ED91FC910284F385E02D0995802B912B83
:103230008435910549F483E08C838D819C81899F3D
:10324000802D11248D8338CF8F37910511F482E0C2
:10325000F3CF81E0F1CF20917F0330918003C9014A
:10326000079697FD079623E0959587952A95E1F7B0
:1032700020917D0330917E03829FA001839F500D9A
:10328000929F500D112470E060E08091980390911E
:1032900099030C94BB2B0E94B62BFB0101900020DC
:1032A000E9F73197AF01461B570BDC01ED91FC911B
:1032B0000280F381E02D09940F931F93CF93DF9346
:1032C000EC010E944D198C016AE571E0CE010E946B
:1032D0004D19800F911FDF91CF911F910F9108958C
:1032E000CF93DF93CDB7DEB7C054D1090FB6F894B2
:1032F000DEBF0FBECDBF9E01275B3F4F4DE551E0C6
:1033000060E470E0CE0101960E94C22BBE016F5FA7
:103310007F4F89E793E00E945C190E94BD13C05C57
:10332000DF4F0FB6F894DEBF0FBECDBFDF91CF9158
:103330000895EF92FF920F931F93CF93DF93EB01CA
:1033400077FF04C0CC27DD27C61BD70BCF3FD105A5
:1033500069F064F064E771E080ED92E0DF91CF9175
:103360001F910F91FF90EF900C945C198B017C01E1
:10337000FC01818161E017FD60E00E94BB05F7015F
:10338000F08061E08F2D0E94E905012B51F460E08F
:103390008F2DDF91CF911F910F91FF90EF900C94A3
:1033A000BB05CF3FD10511F461E0F2CFEF2DF0E086
:1033B000E256F54FE491E33049F140F4E130B1F0E9
:1033C000E230F9F0C038D1057CF7E1CFE73041F1C8
:1033D000E83071F1E430B1F7809180008062809331
:1033E0008000D0938B00C0938A0004C084B58068AD
:1033F00084BDC7BDDF91CF911F910F91FF90EF90DA
:10340000089584B5806284BDC8BDF4CF80918000EA
:10341000806880938000D0938900C0938800EACFB1
:103420008091B00080688093B000C093B300E2CF79
:103430008091B00080628093B000C093B400DACF76
:103440002F923F924F925F926F927F928F929F92B4
:10345000AF92BF92CF92DF92EF92FF920F931F93A2
:10346000CF93DF93CDB7DEB72A970FB6F894DEBFC0
:103470000FBECDBF1C010E941816F101C6A4D7A42F
:10348000E0A8F1A8A7019601C701B6010E94C529CD
:1034900069837A838B839C83F10186A097A0A0A483
:1034A000B1A4A5019401C501B4010E94C5292981D7
:1034B0003A814B815C810E9454270E94382A6D8397
:1034C0007E838F839887F10142A453A464A475A4DA
:1034D00001E010E020E030E0A901C701B6010E9440
:1034E000B82987FF02C010E000E021E030E03A8711
:1034F000298720E030E0A901C701B6010E943228E7
:1035000087FD02C01A861986B80149855A85641B51
:10351000750B072E000C880B990B0E94E1282D815A
:103520003E814F8158850E94C5299B01AC01C30192
:10353000B2010E94D327F101FE96FA87E98721EEB6
:103540003EE245E652E40E94C529E985FA8560839A
:10355000718382839383A3019201C301B2010E940C
:10356000C52929813A814B815C810E9454270E94A0
:10357000382A9B01AC01C501B4010E94D3279101F7
:103580002E5B3F4F3A832983905821EE3EE245E679
:1035900052E40E94C529E981FA81608371838283A4
:1035A00093830E9471064B015C0181010E5A1F4FEB
:1035B000F80180819181A281B381A5019401281B2A
:1035C000390B4A0B5B0BCA01B9010E94DF282FE6B9
:1035D00032E143E85AE30E94C5296B017C01F801FE
:1035E00080829182A282B382349680809180A28070
:1035F000B380A501940160E070E080E89FE30E9441
:1036000053272B013C010C501109F10122A933A9C8
:1036100044A955A9C701B6010E94C529F801208116
:103620003181428153810E945427A50194010E9457
:10363000C5296D837E838F839887E985FA852081EC
:10364000318142815381C301B2010E94C5299B018E
:10365000AC016D817E818F8198850E945427F8018D
:1036600060837183828393839101265B3F4F3E8306
:103670002D83F10126A937A940AD51ADC701B6018F
:103680000E94C529ED81FE812081318142815381D3
:103690000E945427A50194010E94C5294B015C0199
:1036A000E981FA812081318142815381C301B201D4
:1036B0000E94C5299B01AC01C501B4010E94542799
:1036C000ED81FE8160837183828393839101225B0C
:1036D0003F4F3A832983F10122AD33AD44AD55AD5F
:1036E000C701B6010E94C529E981FA812081318193
:1036F000428153810E945427E981FA81608371835A
:10370000828393832A960FB6F894DEBF0FBECDBF97
:10371000DF91CF911F910F91FF90EF90DF90CF90AD
:10372000BF90AF909F908F907F906F905F904F90E1
:103730003F902F9008952F923F924F925F926F92F9
:103740007F928F929F92AF92BF92CF92DF92EF9231
:10375000FF920F931F93CF93DF93CDB7DEB76097A0
:103760000FB6F894DEBF0FBECDBF10921C041092AE
:103770001D0410921E0410921F0410922004109237
:103780002104109222041092230480E090E0A4EB24
:10379000B2EC8093180490931904A0931A04B09388
:1037A0001B040E941A066B837C838D839E83209169
:1037B0008204309183044091840450918504609187
:1037C00076047091770480917804909179040E9436
:1037D00053279B01AC0160E070E084EB92EC0E9407
:1037E00053276B017C018B809C80AD80BE801F8243
:1037F000188619861A8620E030E040E250E4C701BE
:10380000B6019F770E94B829181674F020E030E0C6
:1038100040E751E46F81788589859A859F770E947A
:10382000B82918160CF015C10E941A062B813C818C
:103830004D815E81621B730B840B950B603C764C53
:103840008D42910508F005C10E941A066B877C879E
:103850008D879E87681979098A099B090E94DF284C
:103860002DEB37E346E855E30E94C5294B015C0187
:1038700088E294E00E94201A20918204309183040F
:10388000409184045091850460917604709177048E
:1038900080917804909179040E9453279B01AC0198
:1038A00060E070E084EB92EC0E945327362E272EC6
:1038B000888B9F8720E030E0A901C501B4010E94F8
:1038C000B82918160CF4E9C0232D322D48895F85DC
:1038D000C501B4010E94C52920911C0430911D042A
:1038E00040911E0450911F040E9454278B0189832C
:1038F0009A83409024045090250460902604709090
:10390000270473016201F7FAF094F7F8F094A70125
:1039100096010E94322887FD0EC0A3019201B801D2
:1039200089819A810E94B8296801E980FA80181675
:1039300014F473016201C0921C04D0921D04E09241
:103940001E04F0921F042091200430912104409124
:10395000220450912304632D722D88899F850E9433
:103960005327A50194010E9437284B015C01832D48
:10397000922DA889BF858093200490932104A09361
:103980002204B093230420910C0430910D04409143
:103990000E0450910F04632D722DCD010E94C52994
:1039A0002B013C012091100430911104409112042C
:1039B00050911304C701B6010E94C5299B01AC01B7
:1039C000C301B2010E9454276B017C0120911404B1
:1039D000309115044091160450911704C501B401AB
:1039E0000E94C5299B01AC01C701B6010E94542762
:1039F0006B017C0120E030E040EA52EC0E9432286A
:103A000087FD5CC020E030E040EA52E4C701B60127
:103A10000E94B829181634F4C12CD12C90EAE92E52
:103A200092E4F92EC701B6010E94A9286B018FE824
:103A300094E00E949919B60186E894E00E949919D1
:103A4000C32CD22CE888FF848B849C84AD84BE84F4
:103A5000D2CE70E060E08FE894E00E94991970E0A7
:103A600060E086E894E060960FB6F894DEBF0FBE83
:103A7000CDBFDF91CF911F910F91FF90EF90DF901D
:103A8000CF90BF90AF909F908F907F906F905F90FE
:103A90004F903F902F900C949919A7019601632D98
:103AA000722D88899F850E945327A50194010E9449
:103AB00037286F83788789879A8706CFC12CD12CC6
:103AC00080EAE82E82ECF82EADCF85ED8093BC0025
:103AD0008091A8029091A902A091AA02B091AB0294
:103AE0000796A11DB11D23E0B695A79597958795DB
:103AF0002A95D1F72091BC0024FD03C01092A602A4
:103B000008954091A8025091A9026091AA02709173
:103B1000AB02452B462B472B69F30097A105B10556
:103B200041F02AE22A95F1F700C00197A109B109F5
:103B3000E1CF8091A7020C9429101F920F920FB62B
:103B40000F9211242F933F938F939F93AF93BF9323
:103B50008091580290915902A0915A02B0915B0253
:103B60003091570223E0230F2D3758F50196A11D00
:103B7000B11D209357028093580290935902A0934D
:103B80005A02B0935B0280915C0290915D02A09119
:103B90005E02B0915F020196A11DB11D80935C028F
:103BA00090935D02A0935E02B0935F02BF91AF91CC
:103BB0009F918F913F912F910F900FBE0F901F906B
:103BC000189526E8230F0296A11DB11DD2CF1F9292
:103BD0000F920FB60F9211242F933F934F935F9341
:103BE0006F937F938F939F93AF93BF93EF93FF93C5
:103BF000E0910201F09103010995FF91EF91BF91CE
:103C0000AF919F918F917F916F915F914F913F9174
:103C10002F910F900FBE0F901F9018951F920F922B
:103C20000FB60F9211242F933F934F935F936F938F
:103C30007F938F939F93AF93BF93EF93FF93E09105
:103C40000001F09101010995FF91EF91BF91AF91B2
:103C50009F918F917F916F915F914F913F912F91A4
:103C60000F900FBE0F901F9018951F920F920FB6D6
:103C70000F9211242F933F934F935F936F937F93F2
:103C80008F939F93AF93BF93EF93FF9380ED92E059
:103C90000E94FE06FF91EF91BF91AF919F918F918E
:103CA0007F916F915F914F913F912F910F900FBE38
:103CB0000F901F9018951F920F920FB60F9211241C
:103CC0002F938F939F93EF93FF93E091E002F091F6
:103CD000E1028081E091E602F091E70282FD1BC0E3
:103CE00090818091E9028F5F8F732091EA028217A1
:103CF00041F0E091E902F0E0E053FD4F958F8093B1
:103D0000E902FF91EF919F918F912F910F900FBE3C
:103D10000F901F9018958081F4CF1F920F920FB6CD
:103D20000F9211242F933F934F935F936F937F9341
:103D30008F939F93AF93BF93EF93FF938091B900BD
:103D4000887F803609F44AC0F0F5883209F4A7C0AC
:103D500018F5803109F49BC0B8F4882309F4F9C040
:103D6000883009F494C0FF91EF91BF91AF919F917A
:103D70008F917F916F915F914F913F912F910F9014
:103D80000FBE0F901F901895883109F488C08032BB
:103D900051F78093A40214C0803409F49DC040F40C
:103DA0008033B9F38833F9F68093A40285ECB0C070
:103DB000803509F485C0883509F496C0883499F6B1
:103DC0000E94651DD0CF883909F48CC038F588373A
:103DD00029F050F4883611F0803729F683E080937B
:103DE000A60210924F0257C0883809F47BC0803970
:103DF00019F0803809F0B7CF80914F02803208F077
:103E000071C0E0914F0281E08E0F80934F0280914C
:103E1000BB00F0E0E15DFD4F80833DC0803B39F0A9
:103E2000E0F4803A09F479C0883A09F09CCF84E044
:103E30008093A60210922E0210922D02E09153025E
:103E4000F0915402099580912D0281110FC081E0FB
:103E500080932D0210920D0209C0803C09F4A6CF78
:103E6000883C09F4A3CF883B09F07DCFE0912E0276
:103E700081E08E0F80932E02F0E0E35FFD4F8081A2
:103E80008093BB0090912E0280912D0229C08091D9
:103E900081028093BB0085EC8093BC0064CF90913D
:103EA000A3028091A202981758F5E091A30281E045
:103EB0008E0F8093A302F0E0EE57FD4F8081E9CF93
:103EC000E091A30281E08E0F8093A3028091BB005A
:103ED000F0E0EE57FD4F80839091A3028091A20203
:103EE0009817C8F285E8D8CFE091A30281E08E0F41
:103EF0008093A3028091BB00F0E0EE57FD4F8083DA
:103F00008091A50281115CCF81E08093800284EAD8
:103F10008093BC001092A60226CF85EC8093BC0053
:103F20001092A60280914F02803230F4E0914F024D
:103F3000F0E0E15DFD4F108260914F0270E0E09192
:103F40005102F09152028FE292E0099510924F02D5
:103F50000ACF1092A40234CF8230B8F4E82FF0E0F8
:103F6000EE0FFF1FE050FF4F71836083813039F007
:103F700080916900836080936900E89A0895809138
:103F800069008C6080936900E99A0895CF92DF926E
:103F9000EF920F931F93CF93DF93EC016B01842F6C
:103FA000488329830A83EB821C821D821E821F8222
:103FB000188661E00E94E90561E089810E94E905B7
:103FC000188161E0812F0E94E90560E0812F0E9445
:103FD000BB0560E089810E94BB0562E08A810E9486
:103FE000E90562E08B810E94E9058A81CD28C1F450
:103FF000D0930902C0930802823071F0833071F0CF
:104000008FEF6FE076E1DF91CF911F910F91EF90ED
:10401000DF90CF900C94AC1F80E0F3CF81E0F1CF24
:10402000D0930B02C0930A02823031F0833031F01A
:104030008FEF66E076E1E7CF80E0FBCF81E0F9CF5C
:10404000EF920F931F93CF93DF93E0EDF2E0138293
:10405000128288EE93E0A0E0B0E084839583A6838B
:10406000B7832EE031E03183208325EC30E03587C3
:10407000248724EC30E03787268720EC30E0318B32
:10408000208B21EC30E0338B228B22EC30E0358B1F
:10409000248B26EC30E0378B268B118E128E138EFC
:1040A000148ECDE6D3E01B821A828C839D83AE836F
:1040B000BF8380E291E09983888387E0E82E02E065
:1040C0002CE04BE070E060E08FE894E00E94C61FB7
:1040D00098E0E92E03E02AE049E061E070E086E83C
:1040E00094E00E94C61FE8E2F4E0D183C08388E434
:1040F00091EEAAE7BFE380937E0490937F04A093A0
:104100008004B09381041286138614861586168661
:104110001786108A118A128A138A148A158A168AB7
:10412000178A108E118E128E138E148E158E168E87
:10413000178E10A211A21092820410928304109282
:10414000840410928504ECE0F4E080E090E0A0EAC2
:10415000B0E480839183A283B38380E090E0A0E801
:10416000BEE384839583A683B78340E050E060E09C
:104170007FE340875187628773871486158616868A
:104180001786108A118A128A138A148A158A168A47
:10419000178A80E090E0A8ECB2E4808F918FA28F24
:1041A000B38FE0EFF3E000E010E020E232E40083C0
:1041B0001183228333830AE919E929E93EE3048361
:1041C0001583268337830AE919E929E13EE300874D
:1041D0001187228733871486158616861786108ADC
:1041E000118A128A138A148A158A168A178A808F6E
:1041F000918FA28FB38FE4EDF3E000E010E020E2B6
:1042000031E4008311832283338314821582168262
:1042100017824087518762877387148615861686B2
:104220001786108A118A128A138A148A158A168AA6
:10423000178A808F918FA28FB38FE9EBF3E0D2833F
:10424000C18389E2838314821582178216821086C5
:10425000D387C287848715861686108A1786118AA7
:10426000D48BC38B858B168A178A118E108E128E73
:10427000E9E7F3E01382128220E830E035832483FB
:1042800080E490E0978386833187208793878287B5
:10429000168A158614861786168681E0858B848B90
:1042A0002FEF3FEF338B228B318B208B878B108E40
:1042B000128E118E82E391E091838083148E138E8F
:1042C000D68FC58F10A2178E8FEF84A385A386A3E8
:1042D00087A380A780E89AE1A6E0B0E085AB96AB23
:1042E000A7ABB0AF80EA96E8A1E0B0E081AF92AFB3
:1042F000A3AFB4AF80E586AF17AEDF91CF911F912A
:104300000F91EF900895CF93DF93CDB7DEB72E973F
:104310000FB6F894DEBF0FBECDBF789484B582602F
:1043200084BD84B5816084BD85B5826085BD85B559
:10433000816085BD80916E00816080936E001092D7
:104340008100809181008260809381008091810052
:1043500081608093810080918000816080938000E3
:104360008091B10084608093B1008091B000816041
:104370008093B00080917A00846080937A0080916D
:104380007A00826080937A0080917A0081608093C5
:104390007A0080917A00806880937A001092C10040
:1043A000E091E002F091E10282E08083E091DC02A2
:1043B000F091DD021082E091DE02F091DF028FECDD
:1043C00080831092E802E091E402F091E50286E039
:1043D0008083E091E202F091E3028081806180833A
:1043E000E091E202F091E302808188608083E091B5
:1043F000E202F091E302808180688083E091E20232
:10440000F091E30280818F7D808366E871E080ED2A
:1044100092E00E945C19109256021092550210927E
:10442000AD021092CF020E940B108DE796E09093A0
:104430005402809353028EE796E090935202809349
:10444000510264E971E080ED92E00E945C1968EE2F
:1044500073E080E090E00E943F0660E089E10E9406
:10446000911260E08AE10E94911280E090E0A3E85E
:10447000B2E480932A0490932B04A0932C04B0936D
:104480002D0468E08BE10E94911280E090E0A0E8AA
:10449000B6E480932E0490932F04A0933004B0933D
:1044A000310460E08CE10E94911261E08BE60E9491
:1044B0009112898388E294E00E94201A8091660418
:1044C00090916704A0916804B091690480936E0490
:1044D00090936F04A0937004B093710480916A0468
:1044E00090916B04A0916C04B0916D048093720460
:1044F00090937304A0937404B09375040E947106A2
:1045000060937A0470937B0480937C0490937D0481
:104510002981222339F060EA71E080ED92E00E9467
:104520005C19FFCF88E60E9487056BE18DE693E07A
:104530000E945F1268E08DE693E00E945F128DE6B4
:1045400093E00E948E121092320410923304109263
:1045500034041092350410923604109237041092ED
:1045600038041092390410923A0410923B041092CD
:104570003C0410923D0410923E0410923F041092AD
:10458000400410924104109242041092430410928D
:10459000440410924504109246041092470410926D
:1045A00048041092490444EF51E05E874D87198614
:1045B0001A861B861C861D821E821F8218861982FF
:1045C0001A821B821C82C12CD12C76014601570114
:1045D0002601370188E294E00E94181620914E04CB
:1045E00030914F044091500450915104C301B201E5
:1045F0000E9454272B013C01209152043091530416
:104600004091540450915504C501B4010E945427AF
:104610004B015C0120E030E040E85FE3609156042C
:104620007091570480915804909159040E94532727
:104630009B01AC01C701B6010E9454276B017C01AC
:1046400020915A0430915B0440915C0450915D04C8
:1046500069817A818B819C810E94542769837A8346
:104660008B839C8320915E0430915F0440916004B1
:10467000509161046D817E818F8198850E945427BD
:104680006D837E838F8398872091620430916304C9
:10469000409164045091650469857A858B859C8579
:1046A0000E94542769877A878B879C8761E070E036
:1046B00080E090E00E943F068D859E8501979E8751
:1046C0008D87892B09F086CF20E030E04AEF53E454
:1046D000C301B2010E94372860933E0470933F04E7
:1046E000809340049093410420E030E04AEF53E48B
:1046F000C501B4010E9437286093420470934304BB
:10470000809344049093450420E030E04AEF53E462
:10471000C701B6010E94372860934604709347048E
:10472000809348049093490420E030E04AEF53E43A
:1047300069817A818B819C810E9437286093320441
:1047400070933304809334049093350420E030E078
:104750004AEF53E46D817E818F8198850E943728CE
:10476000609336047093370480933804909339042F
:1047700020E030E04AEF53E469857A858B859C859B
:104780000E94372860933A0470933B0480933C0462
:1047900090933D046DEB71E080ED92E00E945C1916
:1047A0008091980390919903892B09F0B4C02091CE
:1047B0007F0330918003C901079697FD0796B3E008
:1047C00095958795BA95E1F720917D0330917E0309
:1047D000AC01429FC001439F900D529F900D112448
:1047E0000E94912A9093990380939803892B09F052
:1047F00092C06EEC71E080ED92E00E945C196EEE6A
:1048000071E080ED92E00E945C191F9283E08F932B
:104810001F9282E08F931F9281E08F938DE591E04C
:104820009F938F9389E793E09F938F930E947019D2
:1048300044E560E170E089EB93E00E94731745E581
:104840006EE070E082EC93E00E94731746E56FE043
:1048500070E08BEC93E00E9473176AEF71E080EDDB
:1048600092E00E945C190FB6F894DEBF0FBECDBF78
:1048700088E294E00E94201A809166049091670477
:10488000A0916804B091690480936E0490936F04C2
:10489000A0937004B093710480916A0490916B04AA
:1048A000A0916C04B0916D04809372049093730492
:1048B000A0937404B0937504109276041092770458
:1048C00010927804109279040E94710660937A0421
:1048D00070937B0480937C0490937D040E949B1BC7
:1048E0000E9471066B017C010E9471066C197D09A2
:1048F0008E099F09693873418105910508F05FC2EF
:1049000088E294E00E94201A65E070E080E090E088
:104910000E943F06E9CF0E942B1920917F0330911E
:10492000800380917D0390917E03B901213231058E
:104930000CF4B8C06054710977FF02C06F5F7F4FFD
:10494000759567958255910997FD019600E410E0F1
:1049500022E530E042EA57E0959587950E94D50E12
:1049600082E080939B038091960390919703892B1B
:1049700009F4ABC08CE380939A0310925602109214
:1049800055021092AD021092CF020E940B108DE7DB
:1049900096E090935402809353028EE796E09093B2
:1049A0005202809351028091A10387FD1EC061E0F5
:1049B0000E94E90561E08091A1030E94BB0561E0CE
:1049C00070E080E090E00E943F0660E08091A103EB
:1049D0000E94BB056AE070E080E090E00E943F0624
:1049E00061E08091A1030E94BB05809196039091A4
:1049F0009703892B09F42AC12091AE033091AF03AC
:104A00004091B0035091B10360E074E284EF90E014
:104A10000E941727205131094109510956954795A0
:104A2000379527952093B80064E08EEB95E00E94BF
:104A3000B81260917F03615089E793E00E94601390
:104A400064E08AEB95E00E94B81280919B0364E1D8
:104A5000813009F460E189E793E00E94601364E02B
:104A600086EB95E00E94B8128FE88093B6038091A0
:104A70007D0390917E038038910509F000C18091FB
:104A80007F03909180038034910509F086C1809165
:104A90009B03813009F4F1C08FEC8093B60392E15F
:104AA000998317C16052710977FF02C06F5F7F4F12
:104AB000759567958357910997FD019600E210E07F
:104AC00023E730E042EC55E047CF61E080919F035F
:104AD0000E94E90561E08091A0030E94E9058091B0
:104AE0009F03082E000C990BFC01EA58F54FE49146
:104AF000F0E0EE0FFF1FE459F54F2591349130930C
:104B0000A7032093A603FC01E657F54FE491E09339
:104B1000AC038091A003082E000C990BFC01EA580D
:104B2000F54FE491F0E0EE0FFF1FE459F54FA5912A
:104B3000B491B093A903A093A803FC01E657F54FE5
:104B4000E491E093AD038C91E82BEC938091940376
:104B500090919503892B09F436C05FB75983F89477
:104B600080915002811127C0E0E8FAE08491E4E9E5
:104B7000FAE09491E82FF0E0EE0FFF1FEE59F54FA9
:104B8000A591B491EC91E92321F461E08AE00E94BF
:104B9000BB0561E08AE00E94E9058CB580618CBDAF
:104BA0008CB580648CBD61E08DE00E94E90561E018
:104BB0008BE00E94E905809150028F5F8093500244
:104BC00089818FBFF0CE61E080919D030E94E9054D
:104BD00061E080919E030E94E90580919D03082E6B
:104BE000000C990BFC01EA58F54FE491F0E0EE0F50
:104BF000FF1FE459F54F259134913093A30320937F
:104C0000A203FC01E657F54FE491E093AA038091DB
:104C10009E03082E000C990BFC01EA58F54FE49115
:104C2000F0E0EE0FFF1FE459F54FA591B491B0935A
:104C3000A503A093A403FC01E657F54FE491E0938C
:104C4000AB038C91E095E823EC93ADCE8091940377
:104C500090919503892B31F08091B7039091B8031F
:104C60000E94EB09E091A803F091A9039081809143
:104C7000AD03809589238083D7CE8FE90ECF803610
:104C8000910599F480917F0390918003409709F0FA
:104C900087C080919B03813031F08FEA8093B60307
:104CA00022E0298316C080E1F9CF8034910509F014
:104CB0007AC080917F0390918003809789F78091DB
:104CC0009B03813009F467C08FEC8093B60342E107
:104CD00049836AED89E793E00E946013698189E75F
:104CE00093E00E94601361E889E793E00E946013FB
:104CF0006091B60389E793E00E94601369ED89E74C
:104D000093E00E94601380919B0361EF813009F46E
:104D100062E289E793E00E94601366E080EB95E031
:104D20000E94B8128091960390919703892BE9F124
:104D30002091B2033091B3034091B4035091B50375
:104D400060E074E284EF90E00E941727205131095F
:104D50004109510956954795379527952093B800F5
:104D60000E942B1981E090E090938C0380938B0339
:104D700090938A038093890380938D0380938E039D
:104D80001092860310928503109288031092870375
:104D90000E94BD1334CD80E198CF52E0598399CF62
:104DA00082E0898396CF92E07BCEE091A803F091D8
:104DB000A90380819091AD03892B8083D1CF0E947C
:104DC0009B1B68E873E180E090E00E943F0680E072
:104DD00090E0892B09F44CCD0E94EA06882309F45F
:104DE00047CD0E94000044CD82E391E090937A0386
:104DF000809379038091980390919903009711F023
:104E00000C942D2B089597FB072E16F4009407D0D1
:104E100077FD09D00E94392707FC05D03EF4909514
:104E200081959F4F0895709561957F4F0895A1E2F8
:104E30001A2EAA1BBB1BFD010DC0AA1FBB1FEE1F14
:104E4000FF1FA217B307E407F50720F0A21BB30B5F
:104E5000E40BF50B661F771F881F991F1A9469F7DB
:104E600060957095809590959B01AC01BD01CF0137
:104E70000895AA1BBB1B51E107C0AA1FBB1FA617A1
:104E8000B70710F0A61BB70B881F991F5A95A9F7F3
:104E900080959095BC01CD010895EE0FFF1F059000
:104EA000F491E02D09945058BB27AA270E946B2744
:104EB0000C947E290E94702938F00E94772920F0F6
:104EC00039F49F3F19F426F40C9446290EF4E0952A
:104ED000E7FB0C944029E92F0E948F2958F3BA1759
:104EE000620773078407950720F079F4A6F50C9400
:104EF000B1290EF4E0950B2EBA2FA02D0B01B901AC
:104F000090010C01CA01A0011124FF27591B99F03F
:104F1000593F50F4503E68F11A16F040A22F232F4B
:104F2000342F4427585FF3CF469537952795A7959B
:104F3000F0405395C9F77EF41F16BA0B620B730B42
:104F4000840BBAF09150A1F0FF0FBB1F661F771FB3
:104F5000881FC2F70EC0BA0F621F731F841F48F468
:104F6000879577956795B795F7959E3F08F0B0CFF1
:104F70009395880F08F09927EE0F979587950895D8
:104F80000E94702960F080E891E009F49EEF0E9491
:104F9000772928F040E851E071F45EEF0CC00C94E2
:104FA00046290C94B129E92FE0780E948F2940F31B
:104FB000092E052AB1F3261737074807590738F095
:104FC0000E2E07F8E02569F0E025E0640AC0EF63E3
:104FD00007F8009407FADB01B9019D01DC01CA0161
:104FE000AD01EF930E944E280E947E290E94032863
:104FF0005F91552339F02BED3FE049E450FD49EC3A
:105000000C9454270895DF93DD27B92FBF7740E82C
:105010005FE31616170648075B0718F4D92F0E949E
:10502000BD299F938F937F936F930E94782AE8E620
:10503000F0E00E9449290E947E292F913F914F91D3
:105040005F910E94D829DD2351F09058A2EA2AED01
:105050003FE049EC5FE3D0785D270E946B27DF914A
:105060000C947E290E941C2908F481E008950E9476
:105070004B280C947E290E94772958F00E947029B1
:1050800040F029F45F3F29F00C94402951110C9411
:10509000B2290C9446290E948F2968F39923B1F311
:1050A000552391F3951B550BBB27AA27621773074E
:1050B000840738F09F5F5F4F220F331F441FAA1FE2
:1050C000A9F335D00E2E3AF0E0E832D0915050409E
:1050D000E695001CCAF72BD0FE2F29D0660F771F4C
:1050E000881FBB1F261737074807AB07B0E809F032
:1050F000BB0B802DBF01FF2793585F4F3AF09E3FB7
:10510000510578F00C9440290C94B2295F3FE4F3E8
:10511000983ED4F3869577956795B795F7959F5FF9
:10512000C9F7880F911D9695879597F90895E1E045
:10513000660F771F881FBB1F621773078407BA07A4
:1051400020F0621B730B840BBA0BEE1F88F7E095FF
:1051500008950E94B0286894B1110C94B229089562
:105160000E94972988F09F5798F0B92F9927B75137
:10517000B0F0E1F0660F771F881F991F1AF0BA95FB
:10518000C9F714C0B13091F00E94B129B1E008957F
:105190000C94B129672F782F8827B85F39F0B93F71
:1051A000CCF3869577956795B395D9F73EF49095AE
:1051B0008095709561957F4F8F4F9F4F0895E8942C
:1051C00009C097FB3EF490958095709561957F4F4F
:1051D0008F4F9F4F9923A9F0F92F96E9BB279395FD
:1051E000F695879577956795B795F111F8CFFAF40D
:1051F000BB0F11F460FF1BC06F5F7F4F8F4F9F4F3E
:1052000016C0882311F096E911C0772321F09EE89B
:10521000872F762F05C0662371F096E8862F70E001
:1052200060E02AF09A95660F771F881FDAF7880FDB
:105230009695879597F90895990F0008550FAA0B31
:10524000E0E8FEEF16161706E807F907C0F0121699
:105250001306E407F50798F0621B730B840B950B9C
:1052600039F40A2661F0232B242B252B21F40895F1
:105270000A2609F4A140A6958FEF811D811D08958E
:1052800097F99F6780E870E060E008959FEF80ECF9
:105290000895DF93CF931F930F93FF92EF92DF92C6
:1052A0007B018C01689406C0DA2EEF010E94D82998
:1052B000FE01E894A5912591359145915591A6F36C
:1052C000EF010E946B27FE019701A801DA9469F7AC
:1052D000DF90EF90FF900F911F91CF91DF91089594
:1052E00000240A94161617061806090608950024C5
:1052F0000A9412161306140605060895092E03943F
:10530000000C11F4882352F0BB0F40F4BF2B11F4B2
:1053100060FF04C06F5F7F4F8F4F9F4F089557FD11
:105320009058440F551F59F05F3F71F04795880F13
:1053300097FB991F61F09F3F79F0879508951216AA
:1053400013061406551FF2CF4695F1DF08C0161656
:1053500017061806991FF1CF869571056105089407
:105360000895E894BB2766277727CB0197F908951E
:105370000E941C2908F48FEF08959B01AC0160E0A6
:1053800070E080E89FE30C9437280E94D8290C94A1
:105390007E290E94702938F00E94772920F09523F9
:1053A00011F00C9440290C94462911240C94B22934
:1053B0000E948F2970F3959FC1F3950F50E0551F00
:1053C000629FF001729FBB27F00DB11D639FAA275A
:1053D000F00DB11DAA1F649F6627B00DA11D661FA9
:1053E000829F2227B00DA11D621F739FB00DA11DCA
:1053F000621F839FA00D611D221F749F3327A00D84
:10540000611D231F849F600D211D822F762F6A2F1F
:1054100011249F5750409AF0F1F088234AF0EE0F84
:10542000FF1FBB1F661F771F881F91505040A9F7B1
:105430009E3F510580F00C9440290C94B2295F3FA7
:10544000E4F3983ED4F3869577956795B795F795ED
:10545000E7959F5FC1F7FE2B880F911D9695879565
:1054600097F9089519F416F40C9446290C947C2AA3
:105470000E949729B8F39923C9F3B6F39F57550BA8
:1054800087FF0E948A2A0024A0E640EA9001805803
:105490005695979528F4805C660F771F881F20F03B
:1054A00026173707480730F4621B730B840B20293B
:1054B00031294A2BA69517940794202531254A2790
:1054C00058F7660F771F881F20F026173707480701
:1054D00030F4620B730B840B200D311D411DA09520
:1054E00081F7B901842F9158880F96958795089573
:1054F0009B01AC010C94C5299F3F31F0915020F4E1
:10550000879577956795B795880F911D969587959F
:1055100097F9089591505040660F771F881FD2F772
:1055200008950F931F93CF93DF938230910510F46A
:1055300082E090E0E0919A04F0919B0430E020E05A
:10554000B0E0A0E0309799F42115310509F44AC084
:10555000281B390B24303105D8F58A819B816115D0
:10556000710589F1FB0193838283FE0111C04081A3
:1055700051810281138148175907E0F048175907F4
:1055800099F4109761F012960C93129713961C934E
:105590003296CF01DF91CF911F910F910895009323
:1055A0009A0410939B04F4CF2115310551F0421752
:1055B000530738F0A901DB019A01BD01DF01F801B1
:1055C000C1CFEF01F9CF90939B0480939A04CDCF84
:1055D000FE01E20FF31F8193919322503109398329
:1055E0002883D7CF2091980430919904232B41F43C
:1055F000209106013091070130939904209398047B
:1056000020910401309105012115310541F42DB798
:105610003EB74091080150910901241B350BE091E0
:105620009804F0919904E217F307A0F42E1B3F0BA6
:105630002817390778F0AC014E5F5F4F2417350704
:1056400048F04E0F5F1F5093990440939804819344
:1056500091939FCFF0E0E0E09CCFCF93DF93009752
:10566000E9F0FC01329713821282A0919A04B09162
:105670009B04ED0130E020E01097A1F420813181FE
:10568000820F931F209198043091990428173907AD
:1056900009F061C0F0939904E0939804DF91CF91F1
:1056A0000895EA01CE17DF07E8F54A815B819E0184
:1056B00041155105B1F7E901FB83EA8349915991FD
:1056C000C40FD51FEC17FD0761F48081918102960C
:1056D000840F951FE90199838883828193819B833D
:1056E0008A83F0E0E0E012968D919C9113970097E9
:1056F000B9F52D913C911197CD010296820F931F20
:1057000020919804309199042817390739F6309779
:1057100051F510929B0410929A04B0939904A093AF
:105720009804BCCFD383C28340815181840F951FDD
:10573000C817D90761F44E5F5F4F88819981480F80
:10574000591F518340838A819B81938382832115D2
:10575000310509F0B0CFF0939B04E0939A049ECFFB
:10576000FD01DC01C0CF13821282D7CF81E090E02F
:10577000F8940C94A32EDC0101C06D93415050406D
:10578000E0F70895AEE0B0E0E8ECFBE20C947A2E8E
:105790008C01FA0186E08C831A83098377FF02C0AB
:1057A00060E070E8615071097E836D83A901BF01DB
:1057B000CE0101960E94EE2B4D815E8157FD0AC0FD
:1057C0002F813885421753070CF49A01020F131FDB
:1057D000F80110822E96E4E00C94962EABE0B0E037
:1057E000E4EFFBE20C946C2E7C013B018A01FC018E
:1057F00017821682838181FFC8C1CE0101965C01A8
:10580000F7019381F30193FD859193FF81913F010E
:10581000882309F453C1853239F493FD859193FFB0
:1058200081913F01853229F4B70190E00E94DE2D7D
:10583000E7CF912C212C312CFFE1F31538F08B327E
:1058400011F190F4803209F1833229F137FC3CC028
:1058500020ED280F2A3050F536FE20C08AE0989EB1
:10586000200D1124922E06C08D3291F0803371F7F5
:10587000689430F8F30193FD859193FF81913F0186
:105880008111DACF21C0689431F8689432F8F2CFF0
:10589000689433F8EFCF689434F8ECCFEAE02E9EAA
:1058A000200D1124222E689435F8E4CF8E3229F48D
:1058B00036FC04C1689436F8DDCF8C3619F4689450
:1058C00037F8D8CF8836B1F2982F9F7D9554933012
:1058D000E0F08336A1F18337C1F1833509F063C06D
:1058E0002801F2E04F0E511CF801C080D180692DD3
:1058F00070E036FC02C06FEF7FEFC6010E94C82D3A
:105900004C01689437F882010AC00C5F1F4FFFE317
:10591000F98388248394912C6501E89437F833FE49
:105920002DC0522C8114910471F5552009F468CFD3
:10593000B70180E290E00E94DE2D5A94F6CFF80184
:10594000808189830E5F1F4FE4CF2801F2E04F0E64
:10595000511CF801C080D180692D70E036FC02C076
:105960006FEF7FEFC6010E94D32D4C018201D5CF8E
:10597000B70180E290E00E94DE2D2A9428141904D9
:1059800009F0B0F7CECFF60137FC859137FE819153
:105990006F01B70190E00E94DE2D51105A94F1E0A2
:1059A0008F1A9108BFCF843619F0893609F077C075
:1059B000F80137FE6BC060817181828193810C5F39
:1059C0001F4FF32DFF763F2E97FF09C090958095CE
:1059D000709561957F4F8F4F9F4F689437F82AE0FD
:1059E00030E0A5010E940E2EC82ECA188C2C432C24
:1059F00036FE0CC0E89440F8C91440F434FE05C0EB
:105A000032FC03C0F32DFE7E4F2E892C44FE95C040
:105A1000FE01EC0DF11D8081803309F087C0242D3B
:105A2000297E422E842D8870582E43FC95C040FE5E
:105A30008FC09C2C821418F42C0C922C981844FEC5
:105A400091C0B70180E390E00E94DE2D42FE09C0C4
:105A500088E790E041FE02C088E590E0B7010E942F
:105A6000DE2DC91408F48AC0CA94D12C9FEFC91A3C
:105A7000D90ACA0CDB1CF60182916F01B70190E0D4
:105A80000E94DE2DAC14BD04B1F74FCF608171814F
:105A9000072E000C880B990B0E5F1F4F92CFD32C53
:105AA000E894D4F82AE030E0853739F1232D297FB6
:105AB000D22E8F3601F148F48835A9F0F70186819E
:105AC00097812B96E2E10C94882E803749F0883735
:105AD000A9F7D4FE02C06894D2F820E130E00DC0EE
