:100000000C9401030C94251D0C94FE1C0C942903E4
:100010000C9429030C9429030C9429030C942903B0
:100020000C9429030C9429030C9429030C942903A0
:100030000C9429030C9429030C9429030C94290390
:100040000C94B41C0C9429030C94721D0C944C1D3C
:100050000C9429030C9429030C9429030C94290370
:100060000C94A41D0C942903084AD73B3BCE016E87
:1000700084BCBFFDC12F3D6C74319ABD56833DDAFF
:100080003D00C77F11BED9E4BB4C3E916BAAAABE0E
:10009000000000803F00000000002300260029002F
:1000A000000103070F1F3F7F0080C0E0F0F8FCFE57
:1000B00000000000240027002A00000000002500A6
:1000C00028002B00040404040404040402020202B5
:1000D000020203030303030301020408102040800B
:1000E000010204081020010204081020000000088A
:1000F00000020100000304070000000000000000EF
:1001000000000000003E5B4F5B3E3E6B4F6B3E1CB1
:100110003E7C3E1C183C7E3C181C577D571C1C5EC8
:100120007F5E1C00183C1800FFE7C3E7FF0018249F
:100130001800FFE7DBE7FF30483A060E2629792949
:1001400026407F050507407F05253F5A3CE73C5A7E
:100150007F3E1C1C08081C1C3E7F14227F22145F5B
:100160005F005F5F06097F017F006689956A6060B6
:1001700060606094A2FFA29408047E040810207EB0
:10018000201008082A1C08081C2A08081E10101035
:10019000100C1E0C1E0C30383E3830060E3E0E067B
:1001A000000000000000005F0000000700070014CE
:1001B0007F147F14242A7F2A12231308646236498D
:1001C0005620500008070300001C22410000412275
:1001D0001C002A1C7F1C2A08083E0808008070307A
:1001E00000080808080800006060002010080402E9
:1001F0003E5149453E00427F4000724949494621EF
:1002000041494D331814127F1027454545393C4A62
:100210004949314121110907364949493646494979
:10022000291E0000140000004034000000081422C1
:10023000411414141414004122140802015909062F
:100240003E415D594E7C1211127C7F494949363E30
:10025000414141227F4141413E7F494949417F0916
:100260000909013E414151737F0808087F00417F21
:1002700041002040413F017F081422417F4040401F
:10028000407F021C027F7F0408107F3E4141413EB7
:100290007F090909063E4151215E7F091929462639
:1002A0004949493203017F01033F4040403F1F203D
:1002B00040201F3F4038403F631408146303047814
:1002C00004036159494D43007F4141410204081034
:1002D00020004141417F040201020440404040406F
:1002E000000307080020545478407F2844443838DD
:1002F00044444428384444287F385454541800084F
:100300007E090218A4A49C787F0804047800447D28
:1003100040002040403D007F1028440000417F40C5
:10032000007C047804787C08040478384444443819
:10033000FC1824241818242418FC7C0804040848F9
:100340005454542404043F44243C4040207C1C204A
:1003500040201C3C4030403C44281028444C9090A5
:10036000907C4464544C44000836410000007700FF
:1003700000004136080002010204023C2623263C0C
:100380001EA1A161123A4040207A38545455592197
:10039000555579412254547842215554784020547F
:1003A0005579400C1E5272123955555559395454CD
:1003B000545939555454580000457C410002457D3C
:1003C000420001457C407D1211127DF0282528F065
:1003D0007C545545002054547C547C0A097F493292
:1003E000494949323A4444443A324A4848303A4109
:1003F00041217A3A42402078009DA0A07D3D4242B2
:10040000423D3D4040403D3C24FF2424487E49433A
:10041000662B2FFC2F2BFF0929F620C0887E0903AD
:1004200020545479410000447D413048484A3238D4
:100430004040227A007A0A0A727D0D19317D262900
:10044000292F28262929292630484D4020380808F8
:10045000080808080808382F10C8ACBA2F1028342C
:10046000FA00007B000008142A142222142A14081F
:100470005500550055AA55AA55AAFF55FF55FF002E
:100480000000FF00101010FF00141414FF001010E3
:10049000FF00FF1010F010F0141414FC001414F7F7
:1004A00000FF0000FF00FF1414F404FC14141710E4
:1004B0001F10101F101F1414141F00101010F00034
:1004C0000000001F101010101F10101010F010006E
:1004D0000000FF101010101010101010FF1000007E
:1004E00000FF140000FF00FF00001F10170000FCB9
:1004F00004F414141710171414F404F40000FF008B
:10050000F714141414141414F700F7141414171413
:1005100010101F101F141414F4141010F010F00019
:10052000001F101F0000001F14000000FC1400003A
:10053000F010F01010FF10FF141414FF141010101E
:100540001F00000000F010FFFFFFFFFFF0F0F0F0D1
:10055000F0FFFFFF0000000000FFFF0F0F0F0F0F65
:100560003844443844FC4A4A4A347E0202060602B1
:100570007E027E0263554941633844443C04407E18
:10058000201E2006027E020299A5E7A5991C2A4991
:100590002A1C4C7201724C304A4D4D30304878481C
:1005A00030BC625A463D3E494949007E0101017E08
:1005B0002A2A2A2A2A44445F444440514A4440405B
:1005C000444A51400000FF0103E080FF000008089A
:1005D0006B6B083612362436060F090F060000181A
:1005E000180000001010003040FF0101001F010141
:1005F0001E00191D1712003C3C3C3C00000000008E
:10060000C31E11241FBECFEFD8E0DEBFCDBF11E067
:10061000A0E0B1E0E8EFFDE402C005900D92AA3D34
:10062000B107D9F724E0AAEDB1E001C01D92AB36C5
:10063000B207E1F713E0C1E0D3E004C02197FE0167
:100640000E94AC23C030D107C9F70E94FC1E0C9455
:10065000FA260C9400008230B8F4E82FF0E0EE0F98
:10066000FF1FE050FF4F71836083813039F080912C
:100670006900836080936900E89A08958091690019
:100680008C6080936900E99A089591E090939E03AD
:100690008093C00310929F031092C10308950895A0
:1006A000FC016370668B848195812681378161307E
:1006B00039F0633029F09187808733872287089546
:1006C000318720879387828708952F923F924F9298
:1006D0005F926F927F928F929F92AF92BF92CF92D2
:1006E000DF92EF92FF920F931F93CF93DF93CDB7DB
:1006F000DEB76A970FB6F894DEBF0FBECDBF9A8FF4
:10070000898F7A8369834A01D22E18870F83370134
:10071000BC2CDC0159962D913C915A97211531053D
:1007200009F015C118968D919C9119976817790752
:100730000CF0D7C11A968D919C91481759070CF06F
:10074000D0C14C2C512CB6E0CB9E600D711D1124F4
:100750007C876B87161617060CF0C3C1EA2DF0E0F4
:10076000FA87E98793E0EE0FFF1F9A95E1F7F88B80
:10077000EF87CF01840F951F181619060CF0B1C131
:10078000A98DBA8D58968C91811104C0BFEABD1510
:1007900008F4D394A98DBA8DED91FC911197028440
:1007A000F385E02DCD010995B5E0DB9EC001112454
:1007B000E981FA81FC83EB83312C212C9C012050B0
:1007C0003F4F388F2F8B4A2D50E05E8B4D8BEF893A
:1007D000F88DE20DF31D44919E828D82D12CC12CA7
:1007E00069817A81620D731D7A8B698B842F90E009
:1007F0009C8B8B8BE98DFA8DA081B18140FF82C0EB
:10080000F1E0BF126FC0AF126DC01C96ED91FC916C
:100810002F813885A4014C0D5D1D69897A89898DE8
:100820009A8D0995EB89FC89F595E7954E2F5FEF39
:10083000C51AD50A6D817E818D899E89680F791FC1
:100840007E836D8398E0C916D10481F6AFEF2A1A32
:100850003A0AEB81FC81E40DF51DFC83EB83F5E0A6
:100860002F16310409F0B3CF2F81388526153705AF
:10087000B9F0A98DBA8DED91FC91B1E0BB1257C0D2
:10088000AB1255C069817A816B5F7F4F0088F18917
:10089000E02D830128E030E0A401898D9A8D09952F
:1008A000A98DBA8DED91FC9111970688F789E02DFD
:1008B000CD016A960FB6F894DEBF0FBECDBFDF91B3
:1008C000CF911F910F91FF90EF90DF90CF90BF904D
:1008D000AF909F908F907F906F905F904F903F90E0
:1008E0002F9009941E96ED91FC91EF80F884098574
:1008F0001A8592014D815E816B817C81898D9A8DF3
:10090000099590CF2F8138852615370509F48ACFB0
:1009100031E0B31207C0A31205C01C96ED91FC9103
:10092000930178CF1E96ED91FC917301E0CF6B851A
:100930007C85641975090684F785E02D73010F85A0
:1009400018899201A401898D9A8D0995A9CFF90181
:1009500034969491329745915491D91AB7E0DB9E21
:10096000400D511D1124F901259134913C8B2B8BA5
:10097000FA0125903490FA013296749031963491B0
:10098000398B329664903196449041E04C1518F0C2
:100990004A1508F07FC0662D062C000C770B7C836F
:1009A0006B83842D042C000C990B9E838D83A98D61
:1009B000BA8DED91FC9111970284F385E02DCD0164
:1009C0000995512CD12CC12CEA2DF0E0FA87E9874A
:1009D0002B2D30E03C872B87A401440D511D47FC93
:1009E0005A95588F4F8B69817A81660D711D67FC0E
:1009F0007A957E876D877989C71608F051CF2C2D9F
:100A000030E04D815E81420F531FA985BA854A9F10
:100A1000C0014B9F900D5A9F900D1124FC01E80DD1
:100A2000F91DF88BEF87852D612C4F89588D420F6A
:100A3000531F5E8B4D8B671408F050C044244394C1
:100A4000480E877041F4C1010196EB89FC89E20DE3
:100A5000F31DD4901C01D7FE19C0A98DBA8DED915C
:100A6000FC91662D70E0B1E0BB1219C0AB1217C04B
:100A70002D853E85620F731F0484F585E02D2F813F
:100A800038854D895E89898D9A8D0995DD0C639431
:100A9000842DD1CF1E821D821C821B8288CF4B8168
:100AA0005C81640F751FAB85BC856A9FC0016B9F1D
:100AB000900D7A9F900D112469817A81680F791FBA
:100AC0000684F785E02DEF80F88409851A859D015D
:100AD0004F855889898D9A8D0995D8CF570CC39425
:100AE0008ACF6A960FB6F894DEBF0FBECDBFDF91F6
:100AF000CF911F910F91FF90EF90DF90CF90BF901B
:100B0000AF909F908F907F906F905F904F903F90AD
:100B10002F9008958F929F92AF92CF92EF92FF9273
:100B20000F931F93CF93DF93EC01262F898D9A8D1E
:100B3000009709F051C06A30D1F41D861C868D895A
:100B400048E0849F900111248E859F85820F931F1A
:100B50009F878E8781E090E0DF91CF911F910F9169
:100B6000FF90EF90CF90AF909F908F9008956D3051
:100B700089F3CC88AD888F898823C1F08C859D85C9
:100B800036E0C39E800D911D112448855985481774
:100B9000590764F44E855F851D861C8638E0A39E48
:100BA000C0011124840F951F9F878E87EA88FB88D8
:100BB000088919894E855F856C857D85CE010E94E7
:100BC00065032C898C859D8546E0249F800D911DB1
:100BD00011249D878C87BECF6A3069F41D861C86E0
:100BE000FC013896E4912D898E859F85E29F800DCA
:100BF000911D1124ADCF6D3009F4ACCFFC013496BA
:100C00003491631708F4A6CF3296E491E61708F4FE
:100C1000A1CFFC01329685909490462F431B342F30
:100C200047E0349F800C911C1124F40132963491DA
:100C30003196E4913323A9F1EE2399F1CC88F401A4
:100C40003596E491AD884F89442301F10E2E000CB6
:100C5000FF0BE30FF11DCE9EA001CF9E500D11247E
:100C60006C857D85460F571F6885798564177507E4
:100C70006CF44E855F851D861C86FC013896E491D8
:100C8000AE9E400D511D11245F874E87EA88FB8878
:100C9000088919894E855F856C857D85CE010E9406
:100CA0006503F4013496E4912C898C859D85E29F3F
:100CB000800D911D11248DCF6F927F928F929F9204
:100CC000AF92BF92CF92DF92EF92FF920F931F935A
:100CD000CF93DF93EC016B015A0139014801E881A0
:100CE000F9810284F385E02D0995E881F981028874
:100CF000F389E02D87019301A501B601CE01099585
:100D0000A501480D591D41505109E881F98102881A
:100D1000F389E02D9301B601CE010995E881F981AF
:100D20000088F189E02D9401A501B601CE01099555
:100D3000C60CD71CB60161507109E881F9810088A1
:100D4000F189E02D9401A501CE010995E881F98191
:100D50000688F789E02DCE01DF91CF911F910F9189
:100D6000FF90EF90DF90CF90BF90AF909F908F90CB
:100D70007F906F9009946F927F928F929F92AF9223
:100D8000BF92CF92DF92EF92FF920F931F93CF9378
:100D9000DF935C01EB016A01490138018701DC0145
:100DA000ED91FC916217730719F5641675062CF026
:100DB000962D872D3A01C92ED82E9601261937096E
:100DC0002F5F3F4F048CF58DE02DA301BE01C501BF
:100DD0000995DF91CF911F910F91FF90EF90DF90D8
:100DE000CF90BF90AF909F908F907F906F9008951D
:100DF0004615570591F42617370724F0892D4B0126
:100E0000C22FD82F9E01281939092F5F3F4F068C1A
:100E1000F78DE02DA601B401DACF0284F385E02D31
:100E20000995D501ED91FC910488F589E02D8301A8
:100E30009401A601BE01C5010995D501ED91FC9172
:100E40000688F789E02DC501DF91CF911F910F91A1
:100E5000FF90EF90DF90CF90BF90AF909F908F90DA
:100E60007F906F900994EF92FF920F931F93DC0194
:100E70001A960D911C911B9718962D913C911997DC
:100E8000ED91FC9100A0F1A1E02D7B0150E040E04C
:100E900070E060E009951F910F91FF90EF90089529
:100EA0004F925F926F927F928F929F92AF92BF927A
:100EB000CF92DF92EF92FF920F931F93CF93DF9326
:100EC0006C012B015A0139014801DC01ED91FC91C3
:100ED0000284F385E02D0995E201640C751CD601AE
:100EE000ED91FC91C615D7055CF40088F189E02DE1
:100EF00087019401A501BE01C60109952196EFCF96
:100F00000688F789E02DC601DF91CF911F910F91DF
:100F1000FF90EF90DF90CF90BF90AF909F908F9019
:100F20007F906F905F904F9009948F929F92AF92B5
:100F3000BF92CF92DF92EF92FF920F931F93CF93C6
:100F4000DF93EC015B014A016901E881F9810284C8
:100F5000F385E02D099595012C0D3D1D215031099A
:100F6000E881F9810488F589E02D78018401A401E4
:100F7000B501CE010995E881F9810688F789E02D50
:100F8000CE01DF91CF911F910F91FF90EF90DF90F5
:100F9000CF90BF90AF909F908F9009948F929F9227
:100FA000AF92BF92CF92DF92EF92FF920F931F9377
:100FB000CF93DF93EC015B014A0169017801E8817D
:100FC000F9810284F385E02D0995C80CD91C8601AE
:100FD00001501109E881F9810488F589E02D950116
:100FE000A401B501CE010995E881F9810688F78948
:100FF000E02DCE01DF91CF911F910F91FF90EF90E7
:10100000DF90CF90BF90AF909F908F9009940895FC
:10101000EF92FF920F931F93DC01ED91FC9100A0E2
:10102000F1A1E02D09951F910F91FF90EF90089588
:101030000F931F93DC01ED91FC91068CF78DE02D51
:1010400009951F910F9108950F931F93DC01ED9166
:10105000FC91048CF58DE02D09951F910F91089559
:10106000DC01ED91FC910084F185E02D09942F9233
:101070003F924F925F926F927F928F929F92AF9228
:10108000BF92CF92DF92EF92FF920F931F93CF9375
:10109000DF9300D000D000D0CDB7DEB73C016A01AD
:1010A0003E832D83FC82EB825801A41AB50AB7FE59
:1010B00003C0B194A194B1088D809E80861A970ACE
:1010C00097FE03C09194819491088A149B045CF06C
:1010D000902F812F0D811E819D838E839C2D8D2DC0
:1010E0006B01692F782F0C151D055CF09D818E8199
:1010F0007E836D83692F782F902F812F8601C92ED3
:10110000D82E1601201A310A2B012D813E81421A58
:10111000530A57FE03C0519441945108710137FEA0
:1011200003C03FEFE31AF30AF594E7948D819E81A3
:10113000861797075CF5A1E0B0E0BA83A983C016D3
:10114000D1064CF1D301ED91FC910484F585E02D9D
:101150002B813C81A8016D817E818A149B041CF047
:101160004D815E81B801C3010995E418F508F7FEC9
:101170000AC02D813E8189819A81280F391F3E83C3
:101180002D83E20CF31C0F5F1F4FD9CF2FEF3FEFE2
:101190003A832983D4CF26960FB6F894DEBF0FBECC
:1011A000CDBFDF91CF911F910F91FF90EF90DF9016
:1011B000CF90BF90AF909F908F907F906F905F90F7
:1011C0004F903F902F900895833081F028F4813024
:1011D00099F08230A9F008958730A9F08830C9F0DD
:1011E0008430B1F4809180008F7D03C080918000B5
:1011F0008F7780938000089584B58F7784BD08959C
:1012000084B58F7DFBCF8091B0008F778093B00045
:1012100008958091B0008F7DF9CF1F93CF93DF9316
:10122000282F30E0F901E451FF4F8491F901E85291
:10123000FF4FD491F901EC53FF4FC491CC23A9F097
:10124000162F81110E94E408EC2FF0E0EE0FFF1F33
:10125000E654FF4FA591B4918FB7F894EC9111111A
:1012600008C0D095DE23DC938FBFDF91CF911F9113
:101270000895DE2BF8CFCF93DF9390E0FC01E85286
:10128000FF4F24918C539F4FFC0184918823D1F010
:1012900090E0880F991FFC01E055FF4FA591B49194
:1012A000FC01E654FF4FC591D491623071F49FB7B1
:1012B000F8943C91822F809583238C93E8812E2B88
:1012C00028839FBFDF91CF9108958FB7F894EC9159
:1012D0002E2B2C938FBFF6CF3FB7F89480914A0303
:1012E00090914B03A0914C03B0914D0326B5A89B60
:1012F00005C02F3F19F00196A11DB11D3FBFBA2FA8
:10130000A92F982F8827BC01CD01620F711D811D67
:10131000911D42E0660F771F881F991F4A95D1F7EC
:1013200008958F929F92AF92BF92CF92DF92EF92E9
:10133000FF924B015C010E946C096B017C010E94D1
:101340006C096C197D098E099F09683E73408105FF
:101350009105A8F321E0821A9108A108B10888EE4E
:10136000C80E83E0D81EE11CF11C81149104A10475
:10137000B10429F7FF90EF90DF90CF90BF90AF902E
:101380009F908F900895089508950895AF92BF9209
:10139000CF92DF92EF92FF920F931F93CF93DF9341
:1013A0006C017B018B01040F151FEB015E01AE1870
:1013B000BF08C017D10759F06991D601ED91FC9192
:1013C0000190F081E02DC6010995892B79F7C501BF
:1013D000DF91CF911F910F91FF90EF90DF90CF9011
:1013E000BF90AF900895FC01538D448D252F30E0C0
:1013F000842F90E0821B930B541710F0CF96089522
:1014000001970895FC01918D828D981761F0A28D4E
:10141000AE0FBF2FB11D5D968C91928D9F5F9F7314
:10142000928F90E008958FEF9FEF0895FC01918DCA
:10143000828D981731F0828DE80FF11D858D90E037
:1014400008958FEF9FEF0895FC01918D228D892FD4
:1014500090E0805C9F4F821B91098F7399270895BC
:1014600082EC93E00E94240A21E0892B09F420E019
:10147000822F089580E090E0892B29F00E94300AA5
:1014800081110C9400000895FC01A48DA80FB92FC0
:10149000B11DA35ABF4F2C91848D90E001968F739C
:1014A0009927848FA689B7892C93A089B1898C91BB
:1014B000837080648C93938D848D981306C002880A
:1014C000F389E02D80818F7D80830895EF92FF92D4
:1014D0000F931F93CF93DF93EC0181E0888F9B8D57
:1014E0008C8D98131AC0E889F989808185FF15C011
:1014F0009FB7F894EE89FF896083E889F989808134
:101500008370806480839FBF81E090E0DF91CF9102
:101510001F910F91FF90EF900895F62E0B8D10E024
:101520000F5F1F4F0F731127E02E8C8D8E110CC093
:101530000FB607FCFACFE889F989808185FFF5CFDE
:10154000CE010E94440AF1CFEB8DEC0FFD2FF11D6F
:10155000E35AFF4FF0829FB7F8940B8FEA89FB891B
:1015600080818062CFCFCF93DF93EC01888D882379
:10157000B9F0AA89BB89E889F9898C9185FD03C0F6
:10158000808186FD0DC00FB607FCF7CF8C9185FFDB
:10159000F2CF808185FFEDCFCE010E94440AE9CFD2
:1015A000DF91CF910895EF92FF920F931F93CF9306
:1015B000DF93EC01EC80FD806E157F050CF070C0B0
:1015C00057FF04C0240F351F50E040E08E819F81FB
:1015D000FA01E20FF31F8E179F071CF49C01241BD6
:1015E000350B121613060CF05BC0922F842F8695D4
:1015F000869586958E9DD0018F9DB00D11246A0F22
:101600007B1FAF8DB8A1A60FB71F477049F188E0C7
:10161000841B482F682F70E0FB01E855FF4FE491D1
:10162000281708F063C0621B71092FEF30E002C079
:10163000359527956A95E2F7E2230130110539F0D7
:10164000B0F10230110561F58C91E82702C08C9150
:10165000E82BEC93941720F12C813D81A20FB31F4E
:10166000E92FE41BE83078F00230110521F58E2FC8
:101670009C9190959C932C813D81A20FB31F885023
:101680008830B0F7E770EE2359F0F0E0E056FF4FF6
:10169000E49101301105F9F010F10230110519F152
:1016A000DF91CF911F910F91FF90EF900895E095FA
:1016B0008C91E823CECF81E00115110509F480E07B
:1016C00081959E2F8C932C813D81A20FB31F985042
:1016D0009830C0F7D7CF8C91E82BEC93E1CFE09511
:1016E0008C91E823FACF8C91E827F7CF01301105D0
:1016F00009F4ADCFE0F20230110509F4A5CFAE0D2B
:10170000BF1DAECF0F931F93CF93DF9377FF04C01E
:10171000260F371F70E060E0DC011496CD91DC915C
:10172000FB01E20FF31FCE17DF071CF49E01261BFF
:10173000370B121613064CF5FA0157FD3796A3E046
:10174000F595E795AA95E1F7EC9FD001ED9FB00DD7
:10175000FC9FB00D11246A0F7B1FDC015F96ED9199
:10176000FC91E60FF71F4770552781E090E001C01C
:10177000880F4A95EAF7482F0130110559F0A8F073
:101780002E0F3F1F02301105E1F0DF91CF911F9125
:101790000F9108952E0F3F1FE217F307B1F38191C8
:1017A000DF011197842B8C93F7CF80952E0F3F1F6D
:1017B000E217F30751F39191DF01119798239C935E
:1017C000F7CFE217F30709F38191DF01119784271F
:1017D0008C93F7CF0F931F93FA01DC0156964C912F
:1017E00056974230E9F04330A1F1413061F514964B
:1017F0004D915C91DA01AE1BBF0BFD01E21BF30BB7
:1018000077FD0BC0DC0116964D915C91641775074E
:1018100024F4AB01BF010E94820B1F910F91089528
:1018200014964D915C91DA01A61BB70BBD01615076
:101830007109DC0116964D915C91DA01AE1BBF0B6C
:10184000FD01E21BF30B77FDE8CFAF010E94D30A45
:10185000E4CF16964D915C91DA01A61BB70BBD0142
:1018600061507109CDCF0F931F93FA01DC01569699
:101870004C9156974230A9F0433091F1413019F51F
:1018800014964D915C91DA01AE1BBF0BFD013197AF
:10189000F7FD04C0AB01BF010E94D30A1F910F9155
:1018A000089516964D915C91DA01AE1BBF0BFD01B8
:1018B0003197DC0114964D915C91DA01A61BB70BB0
:1018C000BD01621B730BF7FDE9CFDC0116964D914C
:1018D0005C91E417F50714F7AF010E94820BDECF8D
:1018E00016964D915C91DA01A61BB70BBD01621BE8
:1018F000730BCECFFC0177FD64C08085918568179E
:1019000079070CF05EC057FD5CC08285938548174F
:1019100059070CF056C086898230B1F0833029F126
:10192000813041F484819581841B950BAB01BC010E
:10193000615071092130310509F108F443C02230AA
:10194000310509F463C0089584819581DC01A61BEB
:10195000B70BBD016150710986819781DC01A41B21
:10196000B50BAD0141505109E5CF86819781861BAA
:10197000970BBA01AC0141505109DCCFCA0157FDA8
:101980000796A3E095958795AA95E1F7A481B5817F
:101990008A9F90018B9F300D9A9F300D1124620F0A
:1019A000731F078CF0A1E02DE60FF71F4770552736
:1019B00021E030E001C0220F4A95EAF78081822BB6
:1019C00080830895CA0157FD079633E09595879562
:1019D0003A95E1F7A481B5818A9F90018B9F300DE4
:1019E0009A9F300D1124620F731F078CF0A1E02D18
:1019F000E60FF71F4770552781E090E001C0880F80
:101A00004A95EAF7809590818923DACFCA0157FD7C
:101A1000079623E0959587952A95E1F7A481B581EE
:101A20008A9F90018B9F300D9A9F300D1124620F79
:101A3000731F078CF0A1E02DE60FF71F47705527A5
:101A400021E030E001C0220F4A95EAF78081822729
:101A5000B7CF089520912003260F3327331F21325B
:101A60003105ECF420919803FC0190E080E02430F3
:101A700069F082E00895A09120032191AC014050CB
:101A80005D4FA40FB52FB11D2C930196861798F3C7
:101A900080912003680F6093200380E0089581E027
:101AA00008951092980381E0809397031092720337
:101AB00061E082E10E940D0961E083E10E940D096D
:101AC000E9EBF0E080818E7F808380818D7F808351
:101AD00088E48093B80085E48093BC000895CF9398
:101AE000DF9391E09093FF028823B9F0C091B80092
:101AF000D091BA008091BC008A7B8093BC0060E0EA
:101B000082E10E940D0960E083E10E940D090E94BC
:101B1000510DD093BA00C093B800DF91CF910895D2
:101B20008F929F92AF92BF92CF92DF92EF92FF92ED
:101B30000F931F93CF93DF93D091C103D13208F05D
:101B4000D7C0182FC091C0030E946C096B017C01A3
:101B50008091980381116BC082E080939803109369
:101B600097038FEF8093960310929503D09394037D
:101B7000A0EAB3E0E4E7F3E080E0D81391C010926C
:101B8000730380917303CC0FC82BC09373038091B0
:101B90007203813009F088C0109272030E946C09B0
:101BA0006B017C01809173038093BB0080919A0349
:101BB00090919B03A0919C03B0919D03892B8A2B4C
:101BC0008B2BA1F00E946C0900919A0310919B034A
:101BD00020919C0330919D036C197D098E099F090A
:101BE000061717072807390708F442C08091BC0080
:101BF00083FDD8CF85EC8093BC000E946C096B01FB
:101C00007C0180919803823009F450C08091960342
:101C10008F3F09F46FC080919603803209F46CC045
:101C200080919603803309F469C084E026C08091D6
:101C30009A0390919B03A0919C03B0919D03892BE3
:101C40008A2B8B2B09F484CF0E946C0980909A0315
:101C500090909B03A0909C03B0909D036C197D090C
:101C60008E099F0986169706A806B90608F070CF58
:101C7000809199030E946F0D85E010929F0310924E
:101C8000C10310929E03DF91CF911F910F91FF909E
:101C9000EF90DF90CF90BF90AF909F908F9008957E
:101CA0009D9191938F5F69CF85EEA5CF80919A0327
:101CB00090919B03A0919C03B0919D03892B8A2B4B
:101CC0008B2B09F49ECF0E946C0900919A0310910E
:101CD0009B0320919C0330919D036C197D098E0913
:101CE0009F09061717072807390708F08ACFC0CFC2
:101CF00081E0C3CF80E0C1CF82E0BFCF83E0BDCF22
:101D0000CF92DF92EF92FF920F931F93CF93DF93C7
:101D1000D82FC62F613208F098C00E946C096B0161
:101D20007C018091980381116BC081E080939803BE
:101D3000809397039FEF90939603109295039C0FC7
:101D4000909394038093730380917303DD0FD82BDA
:101D5000D093730380917203813009F078C01092A0
:101D600072030E946C096B017C0180917303809364
:101D7000BB0080919A0390919B03A0919C03B0912A
:101D80009D03892B8A2B8B2BA1F00E946C0900915B
:101D90009A0310919B0320919C0330919D036C1931
:101DA0007D098E099F09061717072807390708F4C8
:101DB00048C08091BC0083FDD8CF85EC8093BC00E7
:101DC0000E946C096B017C0180919803813009F4B9
:101DD00040C0809195038C1710F4C0919503E4E7FF
:101DE000F3E0A2E5B3E080E08C1355C08C2FDF91C7
:101DF000CF911F910F91FF90EF90DF90CF900895BA
:101E000080919A0390919B03A0919C03B0919D03B4
:101E1000892B8A2B8B2B09F484CF0E946C090091AB
:101E20009A0310919B0320919C0330919D036C19A0
:101E30007D098E099F09061717072807390708F03B
:101E400070CF809199030E946F0DC0E0CFCF85EED7
:101E5000B5CF80919A0390919B03A0919C03B09180
:101E60009D03892B8A2B8B2B09F4AECF0E946C0922
:101E700000919A0310919B0320919C0330919D0344
:101E80006C197D098E099F0906171707280739075E
:101E900008F09ACFD6CF91919D938F5FA5CFE09117
:101EA000480380914703E81730F4F0E0EE5AFC4F06
:101EB000808190E008958FEF9FEF089590914803FF
:101EC000809147032FEF3FEF981748F4E92FF0E098
:101ED000EE5AFC4F208130E09F5F90934803C90188
:101EE00008958091470390914803891B990B0895A9
:101EF000CF92DF92EF92FF920F931F93CF93DF93D6
:101F00007C01CB018A0120919E03222389F0EB0101
:101F10006B01C40ED51ECC15DD0569F06991D701A2
:101F2000ED91FC910190F081E02DC7010995F3CF6F
:101F3000642F0E942A0DC801DF91CF911F910F914C
:101F4000FF90EF90DF90CF900895CF93DF931F9293
:101F5000CDB7DEB7698320919E032223F9F020914B
:101F6000C103203258F021E030E0FC0133832283AA
:101F700090E080E00F90DF91CF91089580919F03D2
:101F8000E82FF0E0E056FC4F998190838F5F8093BB
:101F90009F038093C10381E090E0ECCF61E0CE012C
:101FA00001960E942A0DF7CF81E00C94900D1F93AB
:101FB000CF93DF93EC01162F8D8D9E8D892B09F425
:101FC00055C02DA93EA94FA958AD60E074E284EF39
:101FD00090E00E947623205131094109510956951C
:101FE0004795379527952093B800112309F44EC0E3
:101FF00017EA8D8D9E8D892B09F44AC089A10E9414
:1020000045038D8D9E8DDC01ED91FC910190F08159
:10201000E02D60E009958D8D9E8DDC01ED91FC91A8
:102020000190F081E02D612F09958D8D9E8D0E948C
:10203000D40F8D8D9E8D892B09F45EC029AD3AADEC
:102040004BAD5CAD60E074E284EF90E00E947623DB
:1020500020513109410951095695479537952795E2
:102060002093B800DF91CF911F9108958B8D9C8DA7
:10207000892B21F09EAD8FAD9CBD8DBDEFA5F8A93C
:1020800090818CA9809589238083AFCF16EAB1CF48
:10209000EDA5FEA590818BA98095892380838B8DEA
:1020A0009C8D892B39F01EBD00000DB407FEFDCFBD
:1020B0008EB5BFCF28E030E090E8E9A5FAA589A960
:1020C000412F4923A9F04081842B8083EBA5FCA5F7
:1020D00080814AA9842B8083EBA5FCA540818AA935
:1020E00080958423808396952150310931F7A1CFC3
:1020F000408180958423E9CFEFA5F8A980819CA930
:10210000892B8083AFCFFF920F931F93CF93DF93E1
:10211000EC01F62E142F052F8B810E944503898137
:102120009A81DC01ED91FC910190F081E02D60E05D
:10213000099589819A81DC01ED91FC910190F081F2
:10214000E02D6F2D099589819A81DC01ED91FC913B
:102150000190F081E02D602F099589819A81DC0141
:10216000ED91FC910190F081E02D612F099589811D
:102170009A810E94D40F8883DF91CF911F910F9194
:10218000FF900895FF920F931F93CF93DF93EC017D
:10219000062FF72E142F8B810E94450389819A8187
:1021A000DC01ED91FC910190F081E02D6F2D0995FE
:1021B00089819A81DC01ED91FC910190F081E02D03
:1021C000602F099589819A81DC01ED91FC91019044
:1021D000F081E02D612F099589819A810E94D40FA9
:1021E0008883DF91CF911F910F91FF9008950F93F6
:1021F0001F93CF93DF93EC01062F142F88E60E94E4
:10220000450388819981DC01ED91FC910190F08179
:10221000E02D602F099588819981DC01ED91FC9179
:102220000190F081E02D612F099588819981DF91DE
:10223000CF911F910F910C94D40F90E080E00895FE
:102240002F923F924F925F926F927F928F929F92C6
:10225000AF92BF92CF92DF92EF92FF920F931F93B4
:10226000CF93DF93CDB7DEB72A970FB6F894DEBFD2
:102270000FBECDBF9A8789874A015B0109831A8304
:102280002B833C83FE82ED82D886CF82A901980100
:10229000CB01B4010E942426E985FA852485358581
:1022A000468557850E94B3231B018C01E985FA8579
:1022B000448855886688778873016201F7FAF0943C
:1022C000F7F8F094A70196010E94912487FD0CC0B5
:1022D000A3019201B101C8010E9417266101780192
:1022E000181614F473016201E985FA85C486D5864F
:1022F000E686F7862089318942895389C501B40170
:102300000E94B22329813A814B815C810E949624EC
:102310002B013C01E985FA85808A918AA28AB38AD9
:102320002081318142815381C501B4010E9424265C
:102330004B015C01E985FA8524813581468157810D
:10234000C701B6010E9424269B01AC01C501B4015E
:102350000E94B3236B017C01E985FA8520853185D4
:1023600042855385C301B2010E9424269B01AC0122
:10237000C701B6010E94B3235B01D82EF92E2D812F
:102380003E81B901330F880B990B0E9440258B01C8
:102390008D8399839B01AC01B5018D2D9F2D0E94EA
:1023A000912487FD17C0EF81F885BF01FF0F880BCF
:1023B000990B0E9440258B018D8399839B01AC0171
:1023C000B5018D2D9F2D0E94172618161CF0850132
:1023D000DD82F982B8018D8199810E940825CB01A7
:1023E0002A960FB6F894DEBF0FBECDBFDF91CF9116
:1023F0001F910F91FF90EF90DF90CF90BF90AF9023
:102400009F908F907F906F905F904F903F902F9014
:1024100008950F931F93CF93DF93EC012B8130E04E
:10242000F901E451FF4F8491F901E852FF4F049103
:10243000F901EC53FF4F1491112301F181110E9416
:10244000E408E12FF0E0EE0FFF1FEA56FF4FA591E1
:10245000B491EC910E2391F08D819E81AF81B8856E
:102460000196A11DB11D8D839E83AF83B88781E046
:102470008C83DF91CF911F910F9108958D819E8163
:10248000AF81B8850197A109B1098D839E83AF8380
:10249000B8878FEFEDCF8091DC019091DD0100973F
:1024A00011F00C94091208958091DA019091DB01EA
:1024B000009711F00C9409120895FC01019000207E
:1024C000E9F73197AF01481B590BBC0182EC93E04F
:1024D0000C94C6098F929F92AF92BF920F931F9355
:1024E000CF93DF93CDB7DEB7A1970FB6F894DEBFD9
:1024F0000FBECDBF19A2423008F44AE08E010F5D35
:102500001F4F842E912CB12CA12CA50194010E9467
:102510007623E62FB901CA01EA30F4F4E05DD80170
:10252000EE938D01232B242B252B79F790E080E06F
:10253000109719F0CD010E945D12A1960FB6F89484
:10254000DEBF0FBECDBFDF91CF911F910F91BF9026
:10255000AF909F908F900895E95CE1CFCF93DF9388
:102560000E945D12EC0184E591E00E945D128C0FE7
:102570009D1FDF91CF910895EF92FF920F931F93CC
:10258000CF93DF93EB0177FF04C0CC27DD27C61B79
:10259000D70BCF3FD10559F054F087E591E0DF919B
:1025A000CF911F910F91FF90EF900C94AE128B0181
:1025B0007C01FC01818161E017FD60E00E940D0952
:1025C000F701F08061E08F2D0E943B09012B51F44F
:1025D00060E08F2DDF91CF911F910F91FF90EF90D1
:1025E0000C940D09CF3FD10511F461E0F2CFEF2D2E
:1025F000F0E0E451FF4FE491E33049F140F4E13081
:10260000B1F0E230F9F0C038D1057CF7E1CFE73026
:1026100041F1E83071F1E430B1F7809180008062DF
:1026200080938000D0938B00C0938A0004C084B54F
:10263000806884BDC7BDDF91CF911F910F91FF903E
:10264000EF90089584B5806284BDC8BDF4CF8091B9
:102650008000806880938000D0938900C0938800B8
:10266000EACF8091B00080688093B000C093B3003F
:10267000E2CF8091B00080628093B000C093B4003C
:10268000DACF4F925F926F927F928F929F92AF922A
:10269000BF92CF92DF92EF92FF920F931F93CF934F
:1026A0006B017C01742EAC019B010E94DB26882308
:1026B00099F089E691E0CF911F910F91FF90EF90F3
:1026C000DF90CF90BF90AF909F908F907F906F9052
:1026D0005F904F900C945D1246015701E894B7F853
:1026E0002FEF3FEF4FE75FE7C501B4010E94DB2604
:1026F00081110DC02FEF3FEF4FE75FE7C501B40138
:102700000E94912418161CF48DE691E0D4CF2FEF8F
:102710003FEF4FE75FE4C701B6010E941726181686
:102720001CF481E791E0C7CF2FEF3FEF4FE75FEC5D
:10273000C701B6010E94912487FDF3CF20E030E06D
:10274000A901C701B6010E94912410E000E087FFB3
:102750000AC06DE282EC93E00E94660A8C01F7FAEF
:10276000F094F7F8F094C0E060E070E080E09FE360
:102770007C1641F020E030E040E251E40E949624D3
:10278000CF5FF6CFA70196010E94B3232B013C0136
:102790000E940F254B015C014AE00E946A127C01F5
:1027A000E00EF11ECC23C1F1C501B4010E943E250B
:1027B0009B01AC01C301B2010E94B2234B015C0139
:1027C0006EE282EC93E00E94660AE80EF91EC150A8
:1027D00018F120E030E040E251E4C501B4010E946C
:1027E00024262B013C010E940F254B01B12CA12C6A
:1027F0004AE0C501B4010E946A12E80EF91EC50143
:10280000B4010E943E259B01AC01C301B2010E94AC
:10281000B2234B015C01DBCFC701CF911F910F9118
:10282000FF90EF90DF90CF90BF90AF909F908F90F0
:102830007F906F905F904F9008951F93CF93DF9399
:10284000EC01162F8B810E94450389819A81DC015E
:10285000ED91FC910190F081E02D60E00995898176
:102860009A81DC01ED91FC910190F081E02D612FC6
:10287000099589819A810E94D40F888361E08B81B8
:102880000E94800E109248038093470389819A81A9
:10289000DC01ED91FC910284F385E02D0995DF9137
:1028A000CF911F910895FF920F931F93CF93DF93C2
:1028B000EC01162FF42E61E0812F0E943B0960E0AD
:1028C000812F0E940D0962E370E080E090E00E9499
:1028D000910961E0812F0E940D0962E370E080E0C0
:1028E00090E00E94910964E270E0CE010E941D1404
:1028F0008D8366E170E0CE010E941D14813009F0E5
:102900003EC18C8341E067E072E0CE010E94C210BC
:1029100041E068E072E0CE010E94C21040E066E94A
:1029200070E0CE010E94C2104DEF67E970E0CE0169
:102930000E94C21041E063EE70E0CE010E94C2101E
:1029400043E064EE70E0CE010E94C21042E065EE0A
:1029500070E0CE010E94C21041E066EE70E0CE0150
:102960000E94C21043E067EE70E0CE010E94C210E8
:1029700042E065EF70E0CE010E94C21045E069EDD3
:1029800070E0CE010E94C2104EEC6BED70E0CE0103
:102990000E94C21043E06CED70E0CE010E94C210B4
:1029A00048EF6DED70E0CE010E94C21040E06FE98B
:1029B00070E0CE010E94C2104CE363EA70E0CE01E9
:1029C0000E94C21040E067EB70E0CE010E94C2108E
:1029D0004CE36BEB70E0CE010E94C21049E062EB69
:1029E00070E0CE010E94C21049E06AEC70E0CE01B6
:1029F0000E94C21041E068E971E0CE010E94C2105D
:102A000047E160EB71E0CE010E94C21040E06DEA48
:102A100071E0CE010E94C21045E06FEF70E0CE0180
:102A20000E94C21045E060E071E0CE010E94C21039
:102A300045E069E971E0CE010E94C2104BE166EA0F
:102A400071E0CE010E94C2104EE36CEA71E0CE014B
:102A50000E94C2104FE167EA71E0CE010E94C210ED
:102A600040E060E370E0CE010E94C21040E066E109
:102A700070E0CE010E94C2104F2D4F7762E172E0EC
:102A8000CE010E94C210FB8240E36AE071E0CE01F9
:102A90000E94C21046E46FE370E0CE010E94C210B3
:102AA0004FEF61E370E0CE010E94C21043E650E0B8
:102AB00060E470E0CE010E94831041E06EE270E0BD
:102AC000CE010E94C21049E06BE170E0CE010E948D
:102AD000C21041E36EE370E0CE010E94C21044E2F6
:102AE00064E170E0CE010E94C21041E36CE170E04D
:102AF000CE010E94C21040E063EA72E0CE010E9463
:102B0000C21081E08C834DEF50E066E970E0CE01A9
:102B10000E9483108D81082E000C990B6C8170E04F
:102B20000E946223462F64E270E0CE010E94C21030
:102B30006C8170E084E190E00E946223462F61E2A4
:102B400070E0CE010E94C2106DE270E0CE010E94E2
:102B50001D1441E09C81913009F040E08E7F482BAC
:102B60006DE270E0CE010E94C2108AEF90E09F8378
:102B70008E83DF91CF911F910F91FF9008958B81EC
:102B80000E94450389819A81DC01ED91FC910190BD
:102B9000F081E02D60E0099589819A81DC01ED9159
:102BA000FC910190F081E02D66E9099589819A8177
:102BB0000E94D40F888362E08B810E94800E109265
:102BC00048038093470389819A81DC01ED91FC9150
:102BD0000284F385E02D099500E0182F89819A8100
:102BE000DC01ED91FC910284F385E02D0995802BA9
:102BF000912B8435910549F483E08C838D819C81F0
:102C0000899F802D11248D8337CF8F37910511F443
:102C100082E0F3CF81E0F1CF9F92AF92BF92CF924B
:102C2000DF92EF92FF920F931F93CF93DF93CDB775
:102C3000DEB72E970FB6F894DEBF0FBECDBF8C0166
:102C400088E60E944503D8018D919C91DC01ED91AD
:102C5000FC910190F081E02D6BE3099580E00E94EA
:102C6000900D6EE088E60E94800E109248038093DB
:102C70004703FE0131967F015E01FFE0AF0EB11CFC
:102C8000D8018D919C91DC01ED91FC910284F3853A
:102C9000E02D0995982EF80180819181DC01ED915C
:102CA000FC910284F385E02D0995C12C8C2999298A
:102CB000F701819391937F01AE16BF0609F7D80102
:102CC0001696CD90DD90ED90FC90199769817A81F0
:102CD000072E000C880B990B0E944025A701960136
:102CE0000E949624F80126893789408D518D0E94D3
:102CF000B223D80196966D937D938D939C9399976B
:102D00006B817C81072E000C880B990B0E9440255B
:102D1000A70196010E949624F801228D338D448DDF
:102D2000558D0E94B223D8019A966D937D938D9311
:102D30009C939D976D817E81072E000C880B990BCB
:102D40000E944025A70196010E949624F801268D35
:102D5000378D40A151A10E94B223D8019E966D9358
:102D60007D938D939C93D1976F817885072E000C6E
:102D7000880B990B0E94402520E030EF41E456E497
:102D80000E94B32320E030E04AEA53E40E949624F4
:102D9000F80162A373A384A395A3C280D380E480C7
:102DA000F58069857A85072E000C880B990B0E94A7
:102DB0004025A70196010E949624D8011A962D91CC
:102DC0003D914D915C911D970E94B223F80162AB39
:102DD00073AB84AB95AB6B857C85072E000C880BA1
:102DE000990B0E944025A70196010E949624D801C4
:102DF0001E962D913D914D915C9151970E94B22369
:102E0000F80166AB77AB80AF91AF6D857E85072EFD
:102E1000000C880B990B0E944025A70196010E9487
:102E20009624D80152962D913D914D915C915597E4
:102E30000E94B223F80162AF73AF84AF95AF2E96B4
:102E40000FB6F894DEBF0FBECDBFDF91CF911F91BB
:102E50000F91FF90EF90DF90CF90BF90AF909F9039
:102E60000895CF92DF92EF920F931F93CF93DF934A
:102E7000EC016B01842F488329830A83EB821C8237
:102E80001D821E821F82188661E00E943B0961E05C
:102E900089810E943B09188161E0812F0E943B09D2
:102EA00060E0812F0E940D0960E089810E940D0978
:102EB00062E08A810E943B0962E08B810E943B09AB
:102EC0008A81CD28C1F4D093DB01C093DA0182302E
:102ED00071F0833071F08FEF64E572E1DF91CF9193
:102EE0001F910F91EF90DF90CF900C942B0380E017
:102EF000F3CF81E0F1CFD093DD01C093DC018230CC
:102F000031F0833031F08FEF6BE472E1E7CF80E096
:102F1000FBCF81E0F9CFCF92DF92EF92FF920F9338
:102F20001F938091F7028111D3C187E0E82E02E060
:102F30002CE04BE070E060E08EED91E00E943117F4
:102F400098E0E92E03E02AE049E061E070E087EED6
:102F500091E00E94311710924A0210924B02109297
:102F60004C0210924D028FE594E09093F101809312
:102F7000F00148E451EE6AE77FE340934602509344
:102F8000470260934802709349021092FA0110922E
:102F9000FB011092FC011092FD011092FE011092B3
:102FA000FF01109200021092010210920202109290
:102FB000030210920402109205021092060210926F
:102FC0000702109208021092090210920A0210924F
:102FD0000B0210920C0210920D0210920E0210922F
:102FE0000F02109210021092110240E050E060ECCB
:102FF00070E440934E0250934F02609350027093DE
:10300000510243E353E363EB7EE340935202509358
:103010005302609354027093550200E010E020E0E8
:103020003FE30093560210935702209358023093C7
:10303000590210925A0210925B0210925C02109296
:103040005D0210925E0210925F0210926002109276
:10305000610240E050E068EC72E4409362025093F9
:1030600063026093640270936502C12CD12CECE57D
:10307000EE2EE2E4FE2EC0926602D0926702E0924B
:103080006802F0926902FAE9CF2EF9E9DF2EED2C01
:10309000FEE3FF2EC0926A02D0926B02E0926C02B5
:1030A000F0926D02AAE9CA2EA9E9DA2EA9E1EA2E68
:1030B000AEE3FA2EC0926E02D0926F02E0927002DE
:1030C000F0927102109272021092730210927402C6
:1030D0001092750210927602109277021092780286
:1030E0001092790240937A0250937B0260937C02A3
:1030F00070937D02C12CD12CB0E2EB2EB1E4FB2EFB
:10310000C0927E02D0927F02E0928002F092810211
:103110001092820210928302109284021092850211
:1031200000938602109387022093880230938902CD
:1031300010928A0210928B0210928C0210928D02D1
:1031400010928E0210928F021092900210929102B1
:10315000409392025093930260939402709395026D
:1031600020E12093960224E5209397022EE02093FD
:10317000980225E5209399022FE020939A0226E5F4
:1031800020939B0290939E0280939D0229E22093BC
:103190009F021092A0021092A1021092A30210921C
:1031A000A2021092A4029093A7028093A6022093F9
:1031B000A8021092A9021092AA021092AC021092D8
:1031C000AB021092AD029093B0028093AF022093B5
:1031D000B1021092B2021092B3021092B502109294
:1031E000B4021092B6021092BA021092B90240E8EC
:1031F00050E05093BC024093BB0220E430E0309397
:10320000BE022093BD025093C0024093BF02309390
:10321000C2022093C1021092CD021092C4021092F9
:10322000C3021092C6021092C50221E02093CC0284
:103230002093CB024FEF5FEF5093CA024093C90235
:103240005093C8024093C7022093CE021092CF023F
:103250001092D1021092D00248E051E05093B8028F
:103260004093B7021092D3021092D2029093D502EB
:103270008093D4021092D7021092D6028FEF8093DF
:10328000DB028093DC028093DD028093DE02809378
:10329000DF0280E89AE1A6E0B0E08093EC02909330
:1032A000ED02A093EE02B093EF0280EA96E8A1E06F
:1032B000B0E08093F0029093F102A093F202B093F9
:1032C000F30280E58093F5021092F6022093F70254
:1032D0008EED91E01F910F91FF90EF90DF90CF90D6
:1032E00008950E94F5262F923F924F925F926F921F
:1032F0007F928F929F92AF92BF92CF92DF92EF9286
:10330000FF920F931F93CF93DF93CDB7DEB72A972A
:103310000FB6F894DEBF0FBECDBF1C010E940C1685
:10332000F101C6A4D7A4E0A8F1A8A7019601C7019E
:10333000B6010E94242669837A838B839C83F101E2
:1033400086A097A0A0A4B1A4A5019401C501B401D1
:103350000E94242629813A814B815C810E94B323FB
:103360000E9497266D837E838F839887F10142A404
:1033700053A464A475A401E010E020E030E0A901AA
:10338000C701B6010E94172687FF02C010E000E0C7
:1033900021E030E03A87298720E030E0A901C70129
:1033A000B6010E94912487FD02C01A861986B801D1
:1033B00049855A85641B750B072E000C880B990BE9
:1033C0000E9440252D813E814F8158850E942426F0
:1033D0009B01AC01C301B2010E943224F101FE96AF
:1033E000FA87E98721EE3EE245E652E40E94242670
:1033F000E985FA856083718382839383A3019201B7
:10340000C301B2010E94242629813A814B815C814B
:103410000E94B3230E9497269B01AC01C501B40111
:103420000E94322491012E5B3F4F3A8329839058AA
:1034300021EE3EE245E652E40E942426E981FA812B
:1034400060837183828393838FB7F89480904E0357
:1034500090904F03A0905003B09051038FBF810113
:103460000E5A1F4FF80180819181A281B381A5017D
:103470009401281B390B4A0B5B0BCA01B9010E944E
:103480003E252FE632E143E85AE30E9424266B01F1
:103490007C01F80180829182A282B382349680807E
:1034A0009180A280B380A501940160E070E080E883
:1034B0009FE30E94B2232B013C010C501109F10142
:1034C00022A933A944A955A9C701B6010E942426FF
:1034D000F80120813181428153810E94B323A501EB
:1034E00094010E9424266D837E838F839887E985CB
:1034F000FA852081318142815381C301B2010E944A
:1035000024269B01AC016D817E818F8198850E946C
:10351000B323F80160837183828393839101265BD7
:103520003F4F3E832D83F10126A937A940AD51AD10
:10353000C701B6010E942426ED81FE8120813181E0
:10354000428153810E94B323A50194010E94242645
:103550004B015C01E981FA812081318142815381F3
:10356000C301B2010E9424269B01AC01C501B40134
:103570000E94B323ED81FE816083718382839383F4
:103580009101225B3F4F3A832983F10122AD33AD94
:1035900044AD55ADC701B6010E942426E981FA81E8
:1035A00020813181428153810E94B323E981FA81D4
:1035B00060837183828393832A960FB6F894DEBF6B
:1035C0000FBECDBFDF91CF911F910F91FF90EF9074
:1035D000DF90CF90BF90AF909F908F907F906F9033
:1035E0005F904F903F902F9008952F923F924F926F
:1035F0005F926F927F928F929F92AF92BF92CF9283
:10360000DF92EF92FF920F931F93CF93DF93CDB78B
:10361000DEB76A970FB6F894DEBF0FBECDBF9C83AE
:103620008B834F87588B698B7A8B0E948B171C0179
:10363000EB81FC811486158616861786108A118AFE
:10364000128A138A9C012E5E3F4F3E832D83C9014F
:103650000E947319F101E85AFF4FD101A05BBF4FDF
:103660008D919D910D90BC91A02D80839183A2831B
:10367000B3833496D101AC5ABF4F8D919D910D907B
:10368000BC91A02D80839183A283B383A101405A72
:103690005F4F5C8B4B8BFA01108211821282138276
:1036A0002FB7F89480914E0390914F03A09150034F
:1036B000B09151032FBF349680839183A283B3834B
:1036C0000E946C096F83788789879A8781010459E2
:1036D0001F4FF8012081318142815381EB89FC89A0
:1036E00060817181828193810E94B2239B01AC0130
:1036F0006F85788989899A890E94B2236B017C0140
:103700008F809884A984BA84412C512C32011E8B5D
:103710000D8B9101275F3F4F388F2F8B20E030E0DA
:1037200040E05FE3C701B6019F770E941726181695
:1037300064F020E030E040E751E4C301B2019F773C
:103740000E94172618160CF0A5C00E946C092F8144
:10375000388549855A85621B730B840B950B603C39
:10376000764C8D42910508F095C00E946C096B87DC
:103770007C878D879E87681979098A099B090E9431
:103780003E252DEB37E346E855E30E9424264B0106
:103790005C018D819E810E947319ED89FE892081D3
:1037A000318142815381EB89FC8960817181828101
:1037B00093810E94B2239B01AC016F85788989892E
:1037C0009A890E94B2236A8F798F89839A8320E035
:1037D00030E0A901C501B4010E94172618160CF4A7
:1037E0007CC080E5C82ED12C90EBE92EFF24FA9402
:1037F000950184014A8D598D69817A818B819C81E3
:103800000E9420115C0185E791E00E945D1242E078
:103810006A8D798D89819A810E9441138DE791E0AB
:103820000E945D1242E0C301B2010E94411386E88A
:1038300091E00E945D1265010B2C000CEE08FF0860
:103840004AE0C701B601F7FE0DC06DE282EC93E0DD
:103850000E94660A66277727CB016C197D098E09BD
:103860009F094AE00E946A1284E591E00E945D127D
:10387000B501C1010E94BC12B5018F89988D0E94CB
:10388000BC12CA8CD98CE980FA808B849C84AD846C
:10389000BE8444CF70E060E0C1010E94BC1270E0C1
:1038A00060E0C10109966A960FB6F894DEBF0FBEBC
:1038B000CDBFDF91CF911F910F91FF90EF90DF90DF
:1038C000CF90BF90AF909F908F907F906F905F90C0
:1038D0004F903F902F900C94BC12A70196016A8DD7
:1038E000798D89819A810E94B223A50194010E9459
:1038F00096242B013C0175CF85ED8093BC0080910F
:103900009A0390919B03A0919C03B0919D0307960D
:10391000A11DB11D23E0B695A795979587952A958A
:10392000D1F72091BC0024FD03C0109298030895A4
:1039300040919A0350919B0360919C0370919D0369
:10394000452B462B472B69F30097A105B10541F0A4
:103950002AE22A95F1F700C00197A109B109E1CF48
:10396000809199030C946F0D1F920F920FB60F92D6
:1039700011242F933F938F939F93AF93BF93809185
:103980004E0390914F03A0915003B0915103309199
:10399000490323E0230F2D3758F50196A11DB11DD2
:1039A0002093490380934E0390934F03A0935003B9
:1039B000B093510380914A0390914B03A0914C0323
:1039C000B0914D030196A11DB11D80934A039093C0
:1039D0004B03A0934C03B0934D03BF91AF919F91C4
:1039E0008F913F912F910F900FBE0F901F901895C0
:1039F00026E8230F0296A11DB11DD2CF1F920F9270
:103A00000FB60F9211242F933F934F935F936F93B1
:103A10007F938F939F93AF93BF93EF93FF93E09127
:103A20000201F09103010995FF91EF91BF91AF91D0
:103A30009F918F917F916F915F914F913F912F91C6
:103A40000F900FBE0F901F9018951F920F920FB6F8
:103A50000F9211242F933F934F935F936F937F9314
:103A60008F939F93AF93BF93EF93FF93E0910001E8
:103A7000F09101010995FF91EF91BF91AF919F9155
:103A80008F917F916F915F914F913F912F910F9007
:103A90000FBE0F901F9018951F920F920FB60F92A6
:103AA00011242F933F934F935F936F937F938F9343
:103AB0009F93AF93BF93EF93FF9382EC93E00E94A9
:103AC000440AFF91EF91BF91AF919F918F917F91A8
:103AD0006F915F914F913F912F910F900FBE0F907B
:103AE0001F9018951F920F920FB60F9211242F93CB
:103AF0008F939F93EF93FF93E091D203F091D303C1
:103B00008081E091D803F091D90382FD1BC09081A0
:103B10008091DB038F5F8F732091DC03821741F06C
:103B2000E091DB03F0E0EE53FC4F958F8093DB03D5
:103B3000FF91EF919F918F912F910F900FBE0F905A
:103B40001F9018958081F4CF1F920F920FB60F929D
:103B500011242F933F934F935F936F937F938F9392
:103B60009F93AF93BF93EF93FF938091B900887FAA
:103B7000803609F44AC0F0F5883209F4A7C018F578
:103B8000803109F49BC0B8F4882309F4F9C0883067
:103B900009F494C0FF91EF91BF91AF919F918F91E4
:103BA0007F916F915F914F913F912F910F900FBE39
:103BB0000F901F901895883109F488C0803251F712
:103BC0008093960314C0803409F49DC040F4803380
:103BD000B9F38833F9F68093960385ECB0C080354D
:103BE00009F485C0883509F496C0883499F60E9496
:103BF0007C1CD0CF883909F48CC038F5883729F07F
:103C000050F4883611F0803729F683E080939803CA
:103C10001092420357C0883809F47BC0803919F0EC
:103C2000803809F0B7CF80914203803208F071C02C
:103C3000E091420381E08E0F809342038091BB00AC
:103C4000F0E0EE5DFC4F80833DC0803B39F0E0F456
:103C5000803A09F479C0883A09F09CCF84E08093D7
:103C600098031092210310922003E0914503F091F4
:103C7000460309958091200381110FC081E0809354
:103C800020031092000309C0803C09F4A6CF883CB1
:103C900009F4A3CF883B09F07DCFE091210381E0B7
:103CA0008E0F80932103F0E0E050FD4F80818093E0
:103CB000BB00909121038091200329C08091730360
:103CC0008093BB0085EC8093BC0064CF90919503FA
:103CD00080919403981758F5E091950381E08E0F39
:103CE00080939503F0E0EC58FC4F8081E9CFE091A0
:103CF000950381E08E0F809395038091BB00F0E0E7
:103D0000EC58FC4F80839091950380919403981711
:103D1000C8F285E8D8CFE091950381E08E0F8093BB
:103D200095038091BB00F0E0EC58FC4F80838091BC
:103D3000970381115CCF81E08093720384EA8093C2
:103D4000BC001092980326CF85EC8093BC001092A3
:103D5000980380914203803230F4E0914203F0E016
:103D6000EE5DFC4F10826091420370E0E0914303EE
:103D7000F091440382E293E00995109242030ACF46
:103D80001092960334CFE2ECF3E01382128288EEB5
:103D900093E0A0E0B0E084839583A683B78324E317
:103DA00031E03183208325EC30E03587248724EC13
:103DB00030E03787268720EC30E0318B208B21ECF8
:103DC00030E0338B228B22EC30E0358B248B26ECD9
:103DD00030E0378B268B118E128E138E148EEFE50A
:103DE000F4E01382128284839583A683B78386E4EA
:103DF00091E0918380830895CF93DF93CDB7DEB7B1
:103E0000A6970FB6F894DEBF0FBECDBF789484B5E9
:103E1000826084BD84B5816084BD85B5826085BDC6
:103E200085B5816085BD80916E00816080936E0054
:103E30001092810080918100826080938100809146
:103E400081008160809381008091800081608093F7
:103E500080008091B10084608093B1008091B000B7
:103E600081608093B00080917A00846080937A00B2
:103E700080917A00826080937A0080917A008160DC
:103E800080937A0080917A00806880937A00109203
:103E9000C100E091D203F091D30382E08083E091EE
:103EA000CE03F091CF031082E091D003F091D103C3
:103EB0008FEC80831092DA03E091D603F091D70360
:103EC00086E08083E091D403F091D5038081806106
:103ED0008083E091D403F091D50380818860808352
:103EE000E091D403F091D503808180688083E091D4
:103EF000D403F091D50380818F7D80831092480395
:103F00001092470310929F031092C1030E94510D1B
:103F100083EC99E0909346038093450384EC99E009
:103F200090934403809343030E948B179E878D8751
:103F30008C0108541F4FF801608170E04181825468
:103F40009F4F0E945314F801628170E04381C801C1
:103F50000F960E945314F801648170E04581C801F6
:103F600048960E94531464EF71E080E090E00E9454
:103F700091090D851E850E5E1F4F40E069E1C80165
:103F80000E94F71040E06AE1C8010E94F71080E04B
:103F900090E0A3E8B2E4ED85FE85848B958BA68B3B
:103FA000B78B48E06BE1C8010E94F71080E090E019
:103FB000A0E8B6E4ED85FE85808F918FA28FB38F48
:103FC00040E06CE1C8010E94F71041E06BE6C801D7
:103FD0000E94F710F82EC8010E947319ED85FE8526
:103FE000E85AFF4FAD85BE85A05BBF4F8D919D9177
:103FF0000D90BC91A02D80839183A283B383ED8526
:10400000FE85E45AFF4FAD85BE85AC5ABF4F8D91FA
:104010009D910D90BC91A02D80839183A283B38349
:104020002FB7F89480914E0390914F03A0915003C5
:10403000B09151032FBFED85FE85EC59FF4F808372
:104040009183A283B383FF2029F080E991E00E944D
:10405000AE12FFCF88E60E9445036BE18FE594E046
:104060000E94A50F68E08FE594E00E94A50F8FE500
:1040700094E00E94D40FED85FE85148E158E168E69
:10408000178E10A211A212A213A214A215A216A298
:1040900017A210A611A612A613A614A615A616A658
:1040A00017A610AA11AA12AA13AA44EF242E332489
:1040B00033941D821E821F82188619861A861B86DB
:1040C0001C8619821A821B821C82C12CD12C76017B
:1040D0004601570126013701E05CFF4FFA8BE98B5F
:1040E0002D853E852C5B3F4F3C8B2B8B4D855E8514
:1040F000485B5F4F5E8B4D8B8D859E85845B9F4FAC
:10410000988F8F8BC8010E940C16ED85FE8520AD1F
:1041100031AD42AD53ADC301B2010E94B3232B01B7
:104120003C01ED85FE8524AD35AD46AD57ADC501ED
:10413000B4010E94B3234B015C0120E030E040E871
:104140005FE3E989FA8960817181828193810E94AC
:10415000B2239B01AC01C701B6010E94B3236B01DE
:104160007C01EB89FC892081318142815381698105
:104170007A818B819C810E94B32369837A838B83AC
:104180009C83ED89FE89208131814281538169853B
:104190007A858B859C850E94B32369877A878B8774
:1041A0009C87EF89F88D20813181428153816D8117
:1041B0007E818F8198850E94B3236D837E838F8358
:1041C000988761E070E080E090E00E949109F1E062
:1041D0002F1A310809F096CF20E030E04AEF53E47F
:1041E000C301B2010E949624ED85FE8560A771A7E8
:1041F00082A793A720E030E04AEF53E4C501B40161
:104200000E949624ED85FE8564A775A786A797A7CB
:1042100020E030E04AEF53E4C701B6010E94962443
:10422000ED85FE8560AB71AB82AB93AB20E030E0F7
:104230004AEF53E469817A818B819C810E949624A4
:10424000ED85FE85648F758F868F978F20E030E037
:104250004AEF53E469857A858B859C850E94962474
:10426000ED85FE8560A371A382A393A320E030E0D7
:104270004AEF53E46D817E818F8198850E94962458
:10428000ED85FE8564A375A386A397A38DEA91E0CF
:104290000E94AE120E948B172DEB31E03A8B298BD6
:1042A000AC0140595F4F58A34F8FFC01E056FF4FC0
:1042B000FE83ED839C0128573F4F3A872987E98980
:1042C000FA898191FA8BE98B882309F4EEC186364D
:1042D00009F0D5C10E948B171C01F894FC011582CE
:1042E00016821782108678949C01275F3F4F3C8B83
:1042F0002B8BF89416861786108A118A7894E98594
:10430000FA851486158616861786108A118A128AEF
:10431000138AED81FE811486158616861786108A0B
:10432000118A128A138A275F3F4F3E8B2D8BC9015A
:104330000E947319F101E85AFF4FD101A05BBF4FF2
:104340008D919D910D90BC91A02D80839183A2832E
:10435000B3833496D101AC5ABF4F8D919D910D908E
:10436000BC91A02D80839183A283B383A101405A85
:104370005F4F5AA349A3FA0110821182128213825D
:104380002FB7F89480914E0390914F03A091500362
:10439000B09151032FBF349680839183A283B3835E
:1043A0000E946C096F8B788F898F9A8FF894F10136
:1043B00066857785808991897894F8948580968040
:1043C000A780B08478940E9440252BED3FE049EC13
:1043D00050E40E94242620E030E04FE254E40E94A2
:1043E00096246B017C01C501B4010E9440252BED90
:1043F0003FE049EC50E40E94242620E030E04FE208
:1044000054E40E9496249B01AC01C701B6010E94AE
:10441000B22320E030E040E05FE30E9424269B01CD
:10442000AC0160E070E088E491E40E94B22369830B
:104430007A838B839C83CF88D88CE98CFA8C1B8EF3
:104440001C8E1D8E1E8E910124593F4F3CA32BA321
:104450002DEC3CEC4CE45EE369817A818B819C819C
:104460009F770E941726181674F020E030E040E293
:1044700050E46B8D7C8D8D8D9E8D9F770E941726CD
:1044800018160CF0DDC00E946C092F89388D498DFB
:104490005A8D621B730B840B950B6038734C894CDF
:1044A000914008F0CDC00E946C096D877E878F8790
:1044B000988B6C197D098E099F090E943E252DEB72
:1044C00037E346E855E30E9424264B015C01F8944B
:1044D000F10166857785808991897894F894458083
:1044E00056806780708478940E9440252BED3FE0D1
:1044F00049EC50E40E94242620E030E04FE254E4EE
:104500000E9496246B017C01C301B2010E944025E8
:104510002BED3FE049EC50E40E94242620E030E0FF
:104520004FE254E40E9496249B01AC01C701B601FE
:104530000E94B22320E030E040E05FE30E942426A6
:104540009B01AC0160E070E088E491E40E94B2233A
:104550006EA37DA3782E692E20E030E0A901C5016D
:10456000B4010E94172618160CF476C080E5C82EF8
:10457000D12C90EBE92EFF24FA94950184014EA1F1
:104580005DA1672D762D89859A850E9420112C01C9
:104590008D899E890E947319EBA1FCA12081318134
:1045A00042815381E9A1FAA1608171818281938165
:1045B0000E94B2239B01AC0160E070E0CB010E943D
:1045C000B223AB01BC012CE3C22ED12C34ECE32E80
:1045D000FF24FA9495018D819E810E9420118C0107
:1045E000BC01641975096536710514F064E670E064
:1045F0006C39FFEF7F0714F46CE97FEFC1010E9473
:10460000BC12B201600F711F6536710514F064E6CB
:1046100070E06C392FEF720714F46CE97FEF8B892F
:104620009C890E94BC128EA19DA1A72DB62D8983C5
:104630009A83AB83BC83CD84DE84EF84F88808CF73
:1046400070E060E0C1010E94BC1270E060E08B8904
:104650009C890E94BC1233CE29813A814B815C81B6
:104660006EA17DA1872D962D0E94B223A5019401F4
:104670000E9496246B8F7C8F8D8F9E8F77CF40E02A
:1046800050E064EB72EC823731F08C3649F440E054
:1046900050E064EB72E48F8D98A10E94F51A0FCE62
:1046A00086EC91E00E94AE120ACE40E050E0452B2D
:1046B00009F4F0CD0E94300A882309F4EBCD0E9462
:1046C0000000E8CD97FB072E16F4009407D077FD85
:1046D00009D00E94982307FC05D03EF4909581955F
:1046E0009F4F0895709561957F4F0895A1E21A2E0E
:1046F000AA1BBB1BFD010DC0AA1FBB1FEE1FFF1F86
:10470000A217B307E407F50720F0A21BB30BE40BD5
:10471000F50B661F771F881F991F1A9469F760951C
:104720007095809590959B01AC01BD01CF010895D6
:10473000AA1BBB1B51E107C0AA1FBB1FA617B707C7
:1047400010F0A61BB70B881F991F5A95A9F78095E3
:104750009095BC01CD010895EE0FFF1F0590F491D7
:10476000E02D09945058BB27AA270E94CA230C9415
:10477000DD250E94CF2538F00E94D62520F039F49F
:104780009F3F19F426F40C94A5250EF4E095E7FB61
:104790000C949F25E92F0E94EE2558F3BA17620763
:1047A00073078407950720F079F4A6F50C9410267A
:1047B0000EF4E0950B2EBA2FA02D0B01B90190013C
:1047C0000C01CA01A0011124FF27591B99F0593F80
:1047D00050F4503E68F11A16F040A22F232F342FC8
:1047E0004427585FF3CF469537952795A795F04016
:1047F0005395C9F77EF41F16BA0B620B730B840B2B
:10480000BAF09150A1F0FF0FBB1F661F771F881FE2
:10481000C2F70EC0BA0F621F731F841F48F487953A
:1048200077956795B795F7959E3F08F0B0CF93952C
:10483000880F08F09927EE0F9795879508950E94A5
:10484000CF2560F080E891E009F49EEF0E94D62524
:1048500028F040E851E071F45EEF0CC00C94A525FF
:104860000C941026E92FE0780E94EE2540F3092EE3
:10487000052AB1F3261737074807590738F00E2ED7
:1048800007F8E02569F0E025E0640AC0EF6307F867
:10489000009407FADB01B9019D01DC01CA01AD01F9
:1048A000EF930E94AD240E94DD250E9462245F9157
:1048B000552339F02BED3FE049E450FD49EC0C94D1
:1048C000B3230895DF93DD27B92FBF7740E85FE377
:1048D0001616170648075B0718F4D92F0E941C26E6
:1048E0009F938F937F936F930E94D726E8E6F0E023
:1048F0000E94A8250E94DD252F913F914F915F9145
:104900000E943726DD2351F09058A2EA2AED3FE0BD
:1049100049EC5FE3D0785D270E94CA23DF910C94B5
:10492000DD250E947B2508F481E008950E94AA24D9
:104930000C94DD250E94D62558F00E94CF2540F02A
:1049400029F45F3F29F00C949F2551110C941126F6
:104950000C94A5250E94EE2568F39923B1F3552305
:1049600091F3951B550BBB27AA2762177307840782
:1049700038F09F5F5F4F220F331F441FAA1FA9F318
:1049800035D00E2E3AF0E0E832D091505040E69506
:10499000001CCAF72BD0FE2F29D0660F771F881F67
:1049A000BB1F261737074807AB07B0E809F0BB0B5A
:1049B000802DBF01FF2793585F4F3AF09E3F51056E
:1049C00078F00C949F250C9411265F3FE4F3983EF9
:1049D000D4F3869577956795B795F7959F5FC9F757
:1049E000880F911D9695879597F90895E1E0660FD8
:1049F000771F881FBB1F621773078407BA0720F051
:104A0000621B730B840BBA0BEE1F88F7E0950895B9
:104A10000E940F256894B1110C94112608950E94EC
:104A2000F62588F09F5798F0B92F9927B751B0F025
:104A3000E1F0660F771F881F991F1AF0BA95C9F722
:104A400014C0B13091F00E941026B1E008950C948A
:104A50001026672F782F8827B85F39F0B93FCCF33D
:104A6000869577956795B395D9F73EF4909580959F
:104A7000709561957F4F8F4F9F4F0895E89409C0BF
:104A800097FB3EF490958095709561957F4F8F4F81
:104A90009F4F9923A9F0F92F96E9BB279395F69597
:104AA000879577956795B795F111F8CFFAF4BB0F15
:104AB00011F460FF1BC06F5F7F4F8F4F9F4F16C079
:104AC000882311F096E911C0772321F09EE8872F03
:104AD000762F05C0662371F096E8862F70E060E0BF
:104AE0002AF09A95660F771F881FDAF7880F969538
:104AF000879597F90895990F0008550FAA0BE0E8DC
:104B0000FEEF16161706E807F907C0F0121613068F
:104B1000E407F50798F0621B730B840B950B39F4CF
:104B20000A2661F0232B242B252B21F408950A2635
:104B300009F4A140A6958FEF811D811D089597F975
:104B40009F6780E870E060E008959FEF80EC089533
:104B5000DF93CF931F930F93FF92EF92DF927B012E
:104B60008C01689406C0DA2EEF010E943726FE0100
:104B7000E894A5912591359145915591A6F3EF01C2
:104B80000E94CA23FE019701A801DA9469F7DF9019
:104B9000EF90FF900F911F91CF91DF910895002426
:104BA0000A941616170618060906089500240A9492
:104BB00012161306140605060895092E0394000C18
:104BC00011F4882352F0BB0F40F4BF2B11F460FFA7
:104BD00004C06F5F7F4F8F4F9F4F089557FD9058D0
:104BE000440F551F59F05F3F71F04795880F97FBB1
:104BF000991F61F09F3F79F087950895121613066B
:104C00001406551FF2CF4695F1DF08C01616170699
:104C10001806991FF1CF86957105610508940895CE
:104C2000E894BB2766277727CB0197F908950E9460
:104C30007B2508F48FEF08959B01AC0160E070E0E4
:104C400080E89FE30C9496240E9437260C94DD257F
:104C50000E94CF2538F00E94D62520F0952311F030
:104C60000C949F250C94A52511240C9411260E94C8
:104C7000EE2570F3959FC1F3950F50E0551F629F8D
:104C8000F001729FBB27F00DB11D639FAA27F00DA5
:104C9000B11DAA1F649F6627B00DA11D661F829FCC
:104CA0002227B00DA11D621F739FB00DA11D621FB1
:104CB000839FA00D611D221F749F3327A00D611DCE
:104CC000231F849F600D211D822F762F6A2F1124B0
:104CD0009F5750409AF0F1F088234AF0EE0FFF1FE3
:104CE000BB1F661F771F881F91505040A9F79E3F3A
:104CF000510580F00C949F250C9411265F3FE4F33E
:104D0000983ED4F3869577956795B795F795E7958F
:104D10009F5FC1F7FE2B880F911D9695879597F998
:104D2000089519F416F40C94A5250C94E0260E941D
:104D3000F625B8F39923C9F3B6F39F57550B87FFB0
:104D40000E94EE260024A0E640EA90018058569585
:104D5000979528F4805C660F771F881F20F0261730
:104D60003707480730F4621B730B840B2029312965
:104D70004A2BA69517940794202531254A2758F7E2
:104D8000660F771F881F20F026173707480730F473
:104D9000620B730B840B200D311D411DA09581F713
:104DA000B901842F9158880F9695879508959B0196
:104DB000AC010C9424260E947B25880B990B089546
:104DC0009F3F31F0915020F4879577956795B7957F
:104DD000880F911D9695879597F9089591505040A9
:104DE000660F771F881FD2F7089581E090E0F8944E
:084DF0000C94FA26F894FFCFA1
:104DF800C509C509000000008A05C6091D11290D4D
:104E08007A0C070830080808240818083708070823
:104E18005003D70FEA0B330C50073307BB065C0669
:104E280000000000660AC609F309B30A240A020A48
:104E3800160A00000000A50F780F1D110708710F52
:104E48005E0F4F0F0D0A00496E76616C6964205041
:104E5800574D2076616C7565006E616E00696E66EF
:104E6800006F7666006572726F723A200020646582
:104E78007269763A2000206F75747075743A200054
:104E8800436F756C64206E6F7420636F6E6E65631C
:104E98007420746F204D505536303530005365748A
:104EA800757020636F6D706C65746521006672663D
:104EB800666C6672660042414420494E535452550E
:0A4EC8004354494F4E212121000000
:00000001FF
