:100000000C9458050C9494180C946D180C9480055D
:100010000C9480050C9480050C9480050C9480054C
:100020000C9480050C9480050C9480050C9480053C
:100030000C9480050C9480050C9480050C9480052C
:100040000C9423180C9480050C94E1180C94BB18A4
:100050000C9480050C9480050C9480050C9480050C
:100060000C9413190C948005084AD73B3BCE016EC3
:1000700084BCBFFDC12F3D6C74319ABD56833DDAFF
:100080003D00C77F11BED9E4BB4C3E916BAAAABE0E
:10009000000000803F0000000000003E5B4F5B3E20
:1000A0003E6B4F6B3E1C3E7C3E1C183C7E3C181C3D
:1000B000577D571C1C5E7F5E1C00183C1800FFE734
:1000C000C3E7FF0018241800FFE7DBE7FF30483ADA
:1000D000060E2629792926407F050507407F05253C
:1000E0003F5A3CE73C5A7F3E1C1C08081C1C3E7FC4
:1000F00014227F22145F5F005F5F06097F017F008B
:100100006689956A606060606094A2FFA2940804AA
:100110007E040810207E201008082A1C08081C2ACB
:1001200008081E101010100C1E0C1E0C30383E3823
:1001300030060E3E0E06000000000000005F0000CA
:100140000007000700147F147F14242A7F2A12233B
:100150001308646236495620500008070300001C4B
:100160002241000041221C002A1C7F1C2A08083E54
:100170000808008070300008080808080000606067
:100180000020100804023E5149453E00427F4000D5
:1001900072494949462141494D331814127F1027AD
:1001A000454545393C4A49493141211109073649FC
:1001B000494936464949291E0000140000004034D0
:1001C00000000008142241141414141400412214D5
:1001D0000802015909063E415D594E7C1211127CFC
:1001E0007F494949363E414141227F4141413E7F5D
:1001F000494949417F090909013E414151737F083D
:1002000008087F00417F41002040413F017F0814E2
:1002100022417F404040407F021C027F7F04081043
:100220007F3E4141413E7F090909063E4151215E21
:100230007F09192946264949493203017F01033FB5
:100240004040403F1F2040201F3F4038403F631444
:1002500008146303047804036159494D43007F4146
:1002600041410204081020004141417F0402010283
:1002700004404040404000030708002054547840A8
:100280007F284444383844444428384444287F383C
:100290005454541800087E090218A4A49C787F08BE
:1002A00004047800447D40002040403D007F102839
:1002B000440000417F40007C047804787C080404FA
:1002C000783844444438FC1824241818242418FC92
:1002D0007C08040408485454542404043F44243C37
:1002E0004040207C1C2040201C3C4030403C4428A6
:1002F0001028444C9090907C4464544C4400083640
:1003000041000000770000004136080002010204AD
:10031000023C2623263C1EA1A161123A4040207ACD
:100320003854545559215555794122545478422115
:100330005554784020545579400C1E52721239554C
:100340005555593954545459395554545800004549
:100350007C410002457D420001457C407D12111226
:100360007DF0282528F07C545545002054547C54B9
:100370007C0A097F4932494949323A4444443A3275
:100380004A4848303A4141217A3A42402078009D1B
:10039000A0A07D3D4242423D3D4040403D3C24FFC7
:1003A0002424487E4943662B2FFC2F2BFF0929F676
:1003B00020C0887E090320545479410000447D41C7
:1003C0003048484A32384040227A007A0A0A727D20
:1003D0000D19317D2629292F28262929292630483B
:1003E0004D4020380808080808080808382F10C8A9
:1003F000ACBA2F102834FA00007B000008142A142D
:100400002222142A14085500550055AA55AA55AAA7
:10041000FF55FF55FF000000FF00101010FF0014F3
:100420001414FF001010FF00FF1010F010F014144F
:1004300014FC001414F700FF0000FF00FF1414F474
:1004400004FC141417101F10101F101F1414141F75
:1004500000101010F0000000001F101010101F10EE
:10046000101010F010000000FF10101010101010ED
:100470001010FF10000000FF140000FF00FF00003C
:100480001F10170000FC04F414141710171414F4B0
:1004900004F40000FF00F714141414141414F700EB
:1004A000F7141414171410101F101F141414F4143C
:1004B0001010F010F000001F101F0000001F1400AB
:1004C0000000FC140000F010F01010FF10FF1414D6
:1004D00014FF141010101F00000000F010FFFFFFA9
:1004E000FFFFF0F0F0F0F0FFFFFF0000000000FF62
:1004F000FF0F0F0F0F0F3844443844FC4A4A4A3468
:100500007E02020606027E027E026355494163387E
:1005100044443C04407E201E2006027E020299A52F
:10052000E7A5991C2A492A1C4C7201724C304A4D8D
:100530004D303048784830BC625A463D3E494949C2
:10054000007E0101017E2A2A2A2A2A44445F44446B
:1005500040514A444040444A51400000FF0103E0FA
:1005600080FF000008086B6B083612362436060F31
:10057000090F06000018180000001010003040FF9E
:100580000101001F01011E00191D1712003C3C3C17
:100590003C0000000000000103070F1F3F7F0080A8
:1005A000C0E0F0F8FCFE2200FF21DB40A4A62EAF45
:1005B0002000A1C8D300408DAED580A80000600007
:1005C00000000000000000000000000000E000004B
:1005D000000000000000000000000001E00000003A
:1005E0000000000000000000000001F0000000001A
:1005F00000000000000000000003F0000000000008
:10060000000000000000000007F0000000000000F3
:100610000000000000000007F800000000000000DB
:100620000000000000000FF800000003C0007E0082
:100630000001E0007F0FF800000003C000FE000092
:1006400001E000FFEFF800000003C000FE00000121
:10065000E000FFFFF800000003C000F00000000F02
:10066000007FFE7FC0000003C000F00000000F000C
:100670003FFE7FF83FF1FBCFFCFEF3BC3DEFE01FF8
:10068000FE7FFF7FFBFFDFFEFEFFBC3DEFE01FC6EE
:10069000FFFF7FFBFFDFFEFEFFBC3DEFE00FE3C788
:1006A000FE787BC3DE1EF0FFBC3DEF0007FF87FC3A
:1006B000787BC3DE1EF0F83C3DEF0001FFFFF00049
:1006C0007BC3C01EF0F03C3DEF0001F37FE03FFB39
:1006D000C3CFFEF0F03C3DEF0003E33F807FFBC360
:1006E000DFFEF0F03C3DEF0007E73C00787BC3DE27
:1006F0001EF0F03C3DEF0007FFBE00787BC3DE1E1E
:10070000F0F03C3DEF0007FFFE00787BC3DE1EF0FB
:10071000F03C3DEF000FFFFE007FFBFFDFFEF0F03F
:100720003FFDEFE00FFFFF007FFBFFDFFEF0F03F3C
:10073000FDEFE00FF9FF003E79F9CF9EF0F01F3D8D
:10074000E7E01FF1FF0000000000000000000000D3
:10075000001F80FF007FFFFFFFFFFFFFFFFFFFE0A5
:100760001C007F007FFFFFFFFEB46D888D18E00046
:10077000001F007FFFFFFFFE95AD7DB577E0000015
:100780000F007FFFFFFFFEA5AD9D8D19E000000665
:10079000007FFFFFFFFEB5ADEDB57EE0000000007D
:1007A0000001800000000000000000000380000045
:1007B0000000000000000007C00000000000000072
:1007C000000007C00000000000000000000FC00093
:1007D00000000000000000001FE00000000000001A
:1007E0000000001FE00000000000000000003FE0EB
:1007F0000000000000000000003FF00000000000CA
:10080000000000007FF0000000000000001FF87FE3
:10081000F0000000000000003FFE7FF0000000003C
:100820000000003FFF7FF0000000000000001FFFFD
:10083000FBE0000000000000000FFFF9FFC0000017
:10084000000000000FFFF9FFF800000000000007A3
:10085000FFF1FFFF00000000000003FC73FFFF80BA
:10086000000000000001FE3FFFFF800000000000CC
:1008700000FF1E0FFF000000000000007FFE1FFCB5
:10088000000000000000003FFFFFF8000000000033
:1008900000000FDFFFE0000000000000001F19FF54
:1008A000C0000000000000003F3CFF00000000000E
:1008B0000000007E7CF800000000000000007FFEC9
:1008C0007C0000000000000000FFFFFC00000000B2
:1008D00000000000FFFFFE0000000000000000FF1D
:1008E000FFFE0000000000000001FFEFFE0000001E
:1008F0000000000001FFCFFE000000000000000328
:10090000FF07FE0000000000000003FC07FE0000DF
:10091000000000000003F003FE00000000000000E3
:10092000018000FE000000000000000000007E00CA
:100930000000000000000000003E00000000000079
:10094000000000000C000000000000078000FC0018
:100950000003C0000000078001FC000003C000008D
:1009600000078001FC000003C0000000078001E0D8
:100970000000001E000000078001E00000001E00D3
:100980007FE3F79FF9FDE7787BDFC0FFF7FFBFFD4F
:10099000FDFF787BDFC0FFF7FFBFFDFDFF787BDF4A
:1009A000C0F0F787BC3DE1FF787BDE00F0F787BC45
:1009B0003DE1F0787BDE0000F787803DE1E0787B69
:1009C000DE007FF7879FFDE1E0787BDE00FFF787A1
:1009D000BFFDE1E0787BDE00F0F787BC3DE1E07829
:1009E0007BDE00F0F787BC3DE1E0787BDE00F0F7CE
:1009F00087BC3DE1E0787BDE00FFF7FFBFFDE1E073
:100A00007FFBDFC0FFF7FFBFFDE1E07FFBDFC07CC6
:100A1000F3F39F3DE1E03E7BCFC00000000000000B
:100A20000000000000FFFFFFFFFFFFFFFFFFFFC010
:100A3000FFFFFFFFFD68DB111A31C0FFFFFFFFFD65
:100A40002B5AFB6AEFC0FFFFFFFFFD4B5B3B1A33E6
:100A5000C0FFFFFFFFFD6B5BDB6AFDC00000000015
:100A6000240027002A0000000000250028002B0099
:100A70000404040404040404020202020202030344
:100A8000030303030102040810204080010204084C
:100A900010200102040810200000000800020100DC
:100AA0000003040700000000000000009E1AB122AD
:100AB00011241FBECFEFD8E0DEBFCDBF11E0A0E014
:100AC000B1E0ECEAFEE402C005900D92A23DB10750
:100AD000D9F724E0A2EDB1E001C01D92AA32B2071D
:100AE000E1F715E0C7E5D5E004C02197FE010E94BB
:100AF0000A23C635D107C9F70E94AF1B0C944927BA
:100B00000C94000091E090937202809394021092F2
:100B100073021092950208950895833081F028F4AD
:100B2000813099F08230A9F008958730A9F088309B
:100B3000C9F08430B1F4809180008F7D03C0809132
:100B400080008F7780938000089584B58F7784BD6F
:100B5000089584B58F7DFBCF8091B0008F7780930F
:100B6000B00008958091B0008F7DF9CF1F93CF938F
:100B7000DF93282F30E0F901E856F54F8491F90111
:100B8000EC57F54FD491F901E059F54FC491CC23BE
:100B9000A9F0162F81110E948D05EC2FF0E0EE0FC9
:100BA000FF1FEA59F54FA591B4918FB7F894EC91D6
:100BB000111108C0D095DE23DC938FBFDF91CF9158
:100BC0001F910895DE2BF8CFCF93DF9390E0FC01C7
:100BD000EC57F54F24918059954FFC01849188235F
:100BE000D1F090E0880F991FFC01E45AF54FA591D0
:100BF000B491FC01EA59F54FC591D491623071F47A
:100C00009FB7F8943C91822F809583238C93E88141
:100C10002E2B28839FBFDF91CF9108958FB7F89433
:100C2000EC912E2B2C938FBFF6CF3FB7F894809189
:100C3000200290912102A0912202B091230226B5B8
:100C4000A89B05C02F3F19F00196A11DB11D3FBF04
:100C5000BA2FA92F982F8827BC01CD01620F711DD3
:100C6000811D911D42E0660F771F881F991F4A95CD
:100C7000D1F708958F929F92AF92BF92CF92DF9259
:100C8000EF92FF924B015C010E9415066B017C0103
:100C90000E9415066C197D098E099F09683E7340F4
:100CA00081059105A8F321E0821A9108A108B108F5
:100CB00088EEC80E83E0D81EE11CF11C811491045B
:100CC000A104B10429F7FF90EF90DF90CF90BF907F
:100CD000AF909F908F900895089508950895AF92D2
:100CE000BF92CF92DF92EF92FF920F931F93CF9319
:100CF000DF936C017B018B01040F151FEB015E017B
:100D0000AE18BF08C017D10759F06991D601ED910F
:100D1000FC910190F081E02DC6010995892B79F7AE
:100D2000C501DF91CF911F910F91FF90EF90DF9060
:100D3000CF90BF90AF900895FC01538D448D252F27
:100D400030E0842F90E0821B930B541710F0CF9665
:100D5000089501970895FC01918D828D981761F097
:100D6000A28DAE0FBF2FB11D5D968C91928D9F5FAE
:100D70009F73928F90E008958FEF9FEF0895FC018D
:100D8000918D828D981731F0828DE80FF11D858D40
:100D900090E008958FEF9FEF0895FC01918D228DD3
:100DA000892F90E0805C9F4F821B91098F73992758
:100DB000089586E992E00E94CD0621E0892B09F48E
:100DC00020E0822F089580E090E0892B29F00E9496
:100DD000D90681110C9400000895FC01A48DA80F80
:100DE000B92FB11DA35ABF4F2C91848D90E001966D
:100DF0008F739927848FA689B7892C93A089B1898D
:100E00008C91837080648C93938D848D981306C02D
:100E10000288F389E02D80818F7D80830895EF9291
:100E2000FF920F931F93CF93DF93EC0181E0888FA4
:100E30009B8D8C8D98131AC0E889F989808185FF74
:100E400015C09FB7F894EE89FF896083E889F98916
:100E500080818370806480839FBF81E090E0DF9118
:100E6000CF911F910F91FF90EF900895F62E0B8D6B
:100E700010E00F5F1F4F0F731127E02E8C8D8E1126
:100E80000CC00FB607FCFACFE889F989808185FF8D
:100E9000F5CFCE010E94ED06F1CFEB8DEC0FFD2FCB
:100EA000F11DE35AFF4FF0829FB7F8940B8FEA8948
:100EB000FB8980818062CFCFCF93DF93EC01888D57
:100EC0008823B9F0AA89BB89E889F9898C9185FDC5
:100ED00003C0808186FD0DC00FB607FCF7CF8C9153
:100EE00085FFF2CF808185FFEDCFCE010E94ED0618
:100EF000E9CFDF91CF910895EF92FF920F931F9367
:100F0000CF93DF93EC01EC80FD806E157F050CF034
:100F100070C057FF04C0240F351F50E040E08E81A1
:100F20009F81FA01E20FF31F8E179F071CF49C01AB
:100F3000241B350B121613060CF05BC0922F842F66
:100F40008695869586958E9DD0018F9DB00D112436
:100F50006A0F7B1FAF8DB8A1A60FB71F477049F16D
:100F600088E0841B482F682F70E0FB01E256FA4F9F
:100F7000E491281708F063C0621B71092FEF30E07D
:100F800002C0359527956A95E2F7E22301301105F5
:100F900039F0B0F10230110561F58C91E82702C0FB
:100FA0008C91E82BEC93941720F12C813D81A20FBA
:100FB000B31FE92FE41BE83078F00230110521F56A
:100FC0008E2F9C9190959C932C813D81A20FB31FF5
:100FD00088508830B0F7E770EE2359F0F0E0EA5619
:100FE000FA4FE49101301105F9F010F102301105CA
:100FF00019F1DF91CF911F910F91FF90EF9008951C
:10100000E0958C91E823CECF81E00115110509F41C
:1010100080E081959E2F8C932C813D81A20FB31F80
:1010200098509830C0F7D7CF8C91E82BEC93E1CF54
:10103000E0958C91E823FACF8C91E827F7CF013027
:10104000110509F4ADCFE0F20230110509F4A5CF86
:10105000AE0DBF1DAECF0F931F93CF93DF9377FFDE
:1010600004C0260F371F70E060E0DC011496CD91BC
:10107000DC91FB01E20FF31FCE17DF071CF49E018A
:10108000261B370B121613064CF5FA0157FD37963F
:10109000A3E0F595E795AA95E1F7EC9FD001ED9FC8
:1010A000B00DFC9FB00D11246A0F7B1FDC015F9611
:1010B000ED91FC91E60FF71F4770552781E090E016
:1010C00001C0880F4A95EAF7482F0130110559F001
:1010D000A8F02E0F3F1F02301105E1F0DF91CF91F4
:1010E0001F910F9108952E0F3F1FE217F307B1F3E1
:1010F0008191DF011197842B8C93F7CF80952E0F70
:101100003F1FE217F30751F39191DF0111979823E5
:101110009C93F7CFE217F30709F38191DF01119751
:1011200084278C93F7CF0F931F93FA01DC01569617
:101130004C9156974230E9F04330A1F1413061F5CE
:1011400014964D915C91DA01AE1BBF0BFD01E21BC1
:10115000F30B77FD0BC0DC0116964D915C91641783
:10116000750724F4AB01BF010E942B081F910F915A
:10117000089514964D915C91DA01A61BB70BBD0141
:1011800061507109DC0116964D915C91DA01AE1B3C
:10119000BF0BFD01E21BF30B77FDE8CFAF010E940F
:1011A0007C07E4CF16964D915C91DA01A61BB70B34
:1011B000BD0161507109CDCF0F931F93FA01DC017E
:1011C00056964C9156974230A9F0433091F14130F8
:1011D00019F514964D915C91DA01AE1BBF0BFD0120
:1011E0003197F7FD04C0AB01BF010E947C071F913E
:1011F0000F91089514964D915C91DA01A61BB70BDF
:10120000BD01DC0116964D915C91DA01AE1BBF0B5E
:10121000FD013197621B730BF7FDE9CFDC011696D8
:101220004D915C91E417F50714F7AF010E942B086C
:10123000DECF16964D915C91DA01A61BB70BBD016E
:10124000621B730BCECFFC0177FD64C08085918556
:10125000681779070CF05EC057FD5CC082859385E6
:10126000481759070CF056C086898230B1F0833098
:1012700029F1813041F484819581841B950BAB0168
:10128000BC01615071092130310509F108F443C0F6
:101290002230310509F463C0089584819581DC0111
:1012A000A61BB70BBD016150710986819781DC01D6
:1012B000A41BB50BAD0141505109E5CF8681978143
:1012C000861B970BBA01AC0141505109DCCFCA0112
:1012D00057FD0796A3E095958795AA95E1F7A48118
:1012E000B5818A9F90018B9F300D9A9F300D1124FC
:1012F000620F731F078CF0A1E02DE60FF71F4770F8
:10130000552721E030E001C0220F4A95EAF780819D
:10131000822B80830895CA0157FD079633E0959587
:1013200087953A95E1F7A481B5818A9F90018B9FBB
:10133000300D9A9F300D1124620F731F078CF0A19E
:10134000E02DE60FF71F4770552781E090E001C0C0
:10135000880F4A95EAF7809590818923DACFCA01F0
:1013600057FD079623E0959587952A95E1F7A48187
:10137000B5818A9F90018B9F300D9A9F300D11246B
:10138000620F731F078CF0A1E02DE60FF71F477067
:10139000552721E030E001C0220F4A95EAF780810D
:1013A0008227B7CF08958EBD00000DB407FEFDCF94
:1013B0008EB508958CBD9DBD08950895FC016370A0
:1013C000668B8481958126813781613039F0633065
:1013D00029F0918780873387228708953187208776
:1013E0009387828708952F923F924F925F926F92D8
:1013F0007F928F929F92AF92BF92CF92DF92EF92A5
:10140000FF920F931F93CF93DF93CDB7DEB76A9709
:101410000FB6F894DEBF0FBECDBF9A8F898F7A8347
:1014200069834A01D22E18870F833701BC2CDC0157
:1014300059962D913C915A972115310509F015C106
:1014400018968D919C911997681779070CF0D7C160
:101450001A968D919C91481759070CF0D0C14C2CCD
:10146000512CB6E0CB9E600D711D11247C876B87DB
:10147000161617060CF0C3C1EA2DF0E0FA87E987CB
:1014800093E0EE0FFF1F9A95E1F7F88BEF87CF01FE
:10149000840F951F181619060CF0B1C1A98DBA8DCD
:1014A00058968C91811104C0BFEABD1508F4D394FD
:1014B000A98DBA8DED91FC9111970284F385E02DF1
:1014C000CD010995B5E0DB9EC0011124E981FA81C7
:1014D000FC83EB83312C212C9C012A563F4F388F03
:1014E0002F8B4A2D50E05E8B4D8BEF89F88DE20DEE
:1014F000F31D44919E828D82D12CC12C69817A8109
:10150000620D731D7A8B698B842F90E09C8B8B8B83
:10151000E98DFA8DA081B18140FF82C0F1E0BF1258
:101520006FC0AF126DC01C96ED91FC912F81388574
:10153000A4014C0D5D1D69897A89898D9A8D099563
:10154000EB89FC89F595E7954E2F5FEFC51AD50A13
:101550006D817E818D899E89680F791F7E836D8361
:1015600098E0C916D10481F6AFEF2A1A3A0AEB8146
:10157000FC81E40DF51DFC83EB83F5E02F163104AF
:1015800009F0B3CF2F81388526153705B9F0A98D1D
:10159000BA8DED91FC91B1E0BB1257C0AB1255C0B2
:1015A00069817A816B5F7F4F0088F189E02D83012B
:1015B00028E030E0A401898D9A8D0995A98DBA8D16
:1015C000ED91FC9111970688F789E02DCD016A967F
:1015D0000FB6F894DEBF0FBECDBFDF91CF911F9144
:1015E0000F91FF90EF90DF90CF90BF90AF909F90C2
:1015F0008F907F906F905F904F903F902F900994C5
:101600001E96ED91FC91EF80F88409851A85920170
:101610004D815E816B817C81898D9A8D099590CFFA
:101620002F8138852615370509F48ACF31E0B312AA
:1016300007C0A31205C01C96ED91FC91930178CFD1
:101640001E96ED91FC917301E0CF6B857C8564194A
:1016500075090684F785E02D73010F8518899201BD
:10166000A401898D9A8D0995A9CFF9013496949199
:10167000329745915491D91AB7E0DB9E400D511D28
:101680001124F901259134913C8B2B8BFA01259083
:101690003490FA013296749031963491398B3296A7
:1016A00064903196449041E04C1518F04A1508F0CA
:1016B0007FC0662D062C000C770B7C836B83842DFA
:1016C000042C000C990B9E838D83A98DBA8DED910E
:1016D000FC9111970284F385E02DCD010995512CE1
:1016E000D12CC12CEA2DF0E0FA87E9872B2D30E0D0
:1016F0003C872B87A401440D511D47FC5A95588FF8
:101700004F8B69817A81660D711D67FC7A957E87A2
:101710006D877989C71608F051CF2C2D30E04D81A7
:101720005E81420F531FA985BA854A9FC0014B9F16
:10173000900D5A9F900D1124FC01E80DF91DF88BB6
:10174000EF87852D612C4F89588D420F531F5E8B7B
:101750004D8B671408F050C044244394480E8770A2
:1017600041F4C1010196EB89FC89E20DF31DD4908F
:101770001C01D7FE19C0A98DBA8DED91FC91662D83
:1017800070E0B1E0BB1219C0AB1217C02D853E85C9
:10179000620F731F0484F585E02D2F8138854D89F4
:1017A0005E89898D9A8D0995DD0C6394842DD1CF46
:1017B0001E821D821C821B8288CF4B815C81640F3C
:1017C000751FAB85BC856A9FC0016B9F900D7A9F8A
:1017D000900D112469817A81680F791F0684F7853D
:1017E000E02DEF80F88409851A859D014F85588981
:1017F000898D9A8D0995D8CF570CC3948ACF6A9654
:101800000FB6F894DEBF0FBECDBFDF91CF911F9111
:101810000F91FF90EF90DF90CF90BF90AF909F908F
:101820008F907F906F905F904F903F902F90089592
:101830008F929F92AF92CF92EF92FF920F931F934E
:10184000CF93DF93EC01262F898D9A8D009709F0B5
:1018500051C06A30D1F41D861C868D8948E0849F72
:10186000900111248E859F85820F931F9F878E87FD
:1018700081E090E0DF91CF911F910F91FF90EF9069
:10188000CF90AF909F908F9008956D3089F3CC8862
:10189000AD888F898823C1F08C859D8536E0C39EF5
:1018A000800D911D1124488559854817590764F406
:1018B0004E855F851D861C8638E0A39EC0011124DD
:1018C000840F951F9F878E87EA88FB88088919896E
:1018D0004E855F856C857D85CE010E94F3092C893C
:1018E0008C859D8546E0249F800D911D11249D8748
:1018F0008C87BECF6A3069F41D861C86FC01389641
:10190000E4912D898E859F85E29F800D911D112484
:10191000ADCF6D3009F4ACCFFC0134963491631730
:1019200008F4A6CF3296E491E61708F4A1CFFC01A3
:10193000329685909490462F431B342F47E0349F76
:10194000800C911C1124F401329634913196E4916B
:101950003323A9F1EE2399F1CC88F4013596E49173
:10196000AD884F89442301F10E2E000CFF0BE30FCD
:10197000F11DCE9EA001CF9E500D11246C857D855A
:10198000460F571F68857985641775076CF44E8577
:101990005F851D861C86FC013896E491AE9E400D45
:1019A000511D11245F874E87EA88FB8808891989B1
:1019B0004E855F856C857D85CE010E94F309F4011B
:1019C0003496E4912C898C859D85E29F800D911D34
:1019D00011248DCF6F927F928F929F92AF92BF9280
:1019E000CF92DF92EF92FF920F931F93CF93DF93EB
:1019F000EC016B015A0139014801E881F981028447
:101A0000F385E02D0995E881F9810288F389E02DBD
:101A100087019301A501B601CE010995A501480DE5
:101A2000591D41505109E881F9810288F389E02D5F
:101A30009301B601CE010995E881F9810088F18909
:101A4000E02D9401A501B601CE010995C60CD71C65
:101A5000B60161507109E881F9810088F189E02DB2
:101A60009401A501CE010995E881F9810688F789DD
:101A7000E02DCE01DF91CF911F910F91FF90EF905C
:101A8000DF90CF90BF90AF909F908F907F906F909E
:101A900009946F927F928F929F92AF92BF92CF9252
:101AA000DF92EF92FF920F931F93CF93DF935C012E
:101AB000EB016A01490138018701DC01ED91FC91DC
:101AC0006217730719F5641675062CF0962D872D8D
:101AD0003A01C92ED82E9601261937092F5F3F4F9C
:101AE000048CF58DE02DA301BE01C5010995DF91A0
:101AF000CF911F910F91FF90EF90DF90CF90BF900B
:101B0000AF909F908F907F906F90089546155705E6
:101B100091F42617370724F0892D4B01C22FD82FB7
:101B20009E01281939092F5F3F4F068CF78DE02D54
:101B3000A601B401DACF0284F385E02D0995D50121
:101B4000ED91FC910488F589E02D83019401A601B3
:101B5000BE01C5010995D501ED91FC910688F78973
:101B6000E02DC501DF91CF911F910F91FF90EF9074
:101B7000DF90CF90BF90AF909F908F907F906F90AD
:101B80000994EF92FF920F931F93DC011A960D9127
:101B90001C911B9718962D913C911997ED91FC91F2
:101BA00000A0F1A1E02D7B0150E040E070E060E09A
:101BB00009951F910F91FF90EF9008954F925F92BA
:101BC0006F927F928F929F92AF92BF92CF92DF924D
:101BD000EF92FF920F931F93CF93DF936C012B0132
:101BE0005A0139014801DC01ED91FC910284F38531
:101BF000E02D0995E201640C751CD601ED91FC9174
:101C0000C615D7055CF40088F189E02D87019401A1
:101C1000A501BE01C60109952196EFCF0688F78977
:101C2000E02DC601DF91CF911F910F91FF90EF90B2
:101C3000DF90CF90BF90AF909F908F907F906F90EC
:101C40005F904F9009948F929F92AF92BF92CF92E4
:101C5000DF92EF92FF920F931F93CF93DF93EC01EC
:101C60005B014A016901E881F9810284F385E02D75
:101C7000099595012C0D3D1D21503109E881F9810F
:101C80000488F589E02D78018401A401B501CE0115
:101C90000995E881F9810688F789E02DCE01DF9169
:101CA000CF911F910F91FF90EF90DF90CF90BF9059
:101CB000AF909F908F9009948F929F92AF92BF9216
:101CC000CF92DF92EF92FF920F931F93CF93DF9308
:101CD000EC015B014A0169017801E881F981028424
:101CE000F385E02D0995C80CD91C86010150110916
:101CF000E881F9810488F589E02D9501A401B501F9
:101D0000CE010995E881F9810688F789E02DCE0199
:101D1000DF91CF911F910F91FF90EF90DF90CF90C7
:101D2000BF90AF909F908F900994EF92FF920F9386
:101D30001F93DC01ED91FC9100A0F1A1E02D09952C
:101D40001F910F91FF90EF9008950F931F93DC0167
:101D5000ED91FC91068CF78DE02D09951F910F9167
:101D600008950F931F93DC01ED91FC91048CF58D88
:101D7000E02D09951F910F910895DC01ED91FC91E3
:101D80000084F185E02D09943F924F925F926F920B
:101D90007F928F929F92AF92BF92CF92DF92EF92FB
:101DA000FF920F931F93CF93DF935C017B014A0156
:101DB0006901390187E0680E711C93E0759467949E
:101DC0009A95E1F72B01400E511E10E000E0312CF6
:101DD000D0E0C0E0CE0187709927330C892B59F4ED
:101DE000FE0183E0F595E7958A95E1F7E00FF11F95
:101DF000E80DF91D349037FE0AC021E030E0A7015C
:101E0000B5016C0F7D1F8FE393E00E94BD0E2196FC
:101E1000CC16DD06F9F68FEFE81AF80A060D171D45
:101E2000E414F504A9F6DF91CF911F910F91FF9073
:101E3000EF90DF90CF90BF90AF909F908F907F906A
:101E40006F905F904F903F9008952F923F924F92E6
:101E50005F926F927F928F929F92AF92BF92CF923A
:101E6000DF92EF92FF920F931F93CF93DF9300D0F7
:101E700000D000D0CDB7DEB73C016A013E832D8390
:101E8000FC82EB825801A41AB50AB7FE03C0B194D4
:101E9000A194B1088D809E80861A970A97FE03C090
:101EA0009194819491088A149B045CF0902F812F67
:101EB0000D811E819D838E839C2D8D2D6B01692F3D
:101EC000782F0C151D055CF09D818E817E836D83BE
:101ED000692F782F902F812F8601C92ED82E1601B9
:101EE000201A310A2B012D813E81421A530A57FED6
:101EF00003C0519441945108710137FE03C03FEF74
:101F0000E31AF30AF594E7948D819E81861797076B
:101F10005CF5A1E0B0E0BA83A983C016D1064CF10C
:101F2000D301ED91FC910484F585E02D2B813C815A
:101F3000A8016D817E818A149B041CF04D815E8115
:101F4000B801C3010995E418F508F7FE0AC02D8110
:101F50003E8189819A81280F391F3E832D83E20CAF
:101F6000F31C0F5F1F4FD9CF2FEF3FEF3A83298329
:101F7000D4CF26960FB6F894DEBF0FBECDBFDF914B
:101F8000CF911F910F91FF90EF90DF90CF90BF9076
:101F9000AF909F908F907F906F905F904F903F9009
:101FA0002F90089508952091F301260F3327331FB2
:101FB00021323105ECF420916C02FC0190E080E0CC
:101FC000243069F082E00895A091F3012191AC01E1
:101FD0004D525E4FA40FB52FB11D2C93019686175D
:101FE00098F38091F301680F6093F30180E0089506
:101FF00081E0089510926C0281E080936B02109250
:10200000460261E082E10E94B60561E083E10E9440
:10201000B605E9EBF0E080818E7F808380818D7F43
:10202000808388E48093B80085E48093BC000895A1
:10203000CF93DF9391E09093D2018823B9F0C091C0
:10204000B800D091BA008091BC008A7B8093BC001C
:1020500060E082E10E94B60560E083E10E94B6057F
:102060000E94FA0FD093BA00C093B800DF91CF91CD
:1020700008958F929F92AF92BF92CF92DF92EF928C
:10208000FF920F931F93CF93DF93D0919502D1329C
:1020900008F0D7C0182FC09194020E9415066B015A
:1020A0007C0180916C0281116BC082E080936C0294
:1020B00010936B028FEF80936A0210926902D093A3
:1020C0006802A4E7B2E0E8E4F2E080E0D81391C04F
:1020D0001092470280914702CC0FC82BC093470251
:1020E00080914602813009F088C0109246020E9419
:1020F00015066B017C01809147028093BB008091A3
:102100006E0290916F02A0917002B0917102892BC2
:102110008A2B8B2BA1F00E94150600916E02109164
:102120006F0220917002309171026C197D098E0945
:102130009F09061717072807390708F442C080913E
:10214000BC0083FDD8CF85EC8093BC000E941506AF
:102150006B017C0180916C02823009F450C0809147
:102160006A028F3F09F46FC080916A02803209F4DD
:102170006CC080916A02803309F469C084E026C093
:1021800080916E0290916F02A0917002B0917102E5
:10219000892B8A2B8B2B09F484CF0E941506809003
:1021A0006E0290906F02A0907002B09071026C1954
:1021B0007D098E099F0986169706A806B90608F0BC
:1021C00070CF80916D020E94181085E0109273020A
:1021D0001092950210927202DF91CF911F910F9190
:1021E000FF90EF90DF90CF90BF90AF909F908F9037
:1021F00008959D9191938F5F69CF85EEA5CF8091D2
:102200006E0290916F02A0917002B0917102892BC1
:102210008A2B8B2B09F49ECF0E94150600916E022B
:1022200010916F0220917002309171026C197D093A
:102230008E099F09061717072807390708F08ACF64
:10224000C0CF81E0C3CF80E0C1CF82E0BFCF83E0C9
:10225000BDCFCF92DF92EF92FF920F931F93CF9358
:10226000DF93D82FC62F613208F098C00E94150660
:102270006B017C0180916C0281116BC081E08093C5
:102280006C0280936B029FEF90936A021092690236
:102290009C0F909368028093470280914702DD0F64
:1022A000D82BD093470280914602813009F078C044
:1022B000109246020E9415066B017C018091470234
:1022C0008093BB0080916E0290916F02A09170028A
:1022D000B0917102892B8A2B8B2BA1F00E941506DD
:1022E00000916E0210916F02209170023091710284
:1022F0006C197D098E099F090617170728073907EA
:1023000008F448C08091BC0083FDD8CF85EC809351
:10231000BC000E9415066B017C0180916C0281302B
:1023200009F440C0809169028C1710F4C0916902D1
:10233000E8E4F2E0A6E2B2E080E08C1355C08C2F16
:10234000DF91CF911F910F91FF90EF90DF90CF9091
:10235000089580916E0290916F02A0917002B091E9
:102360007102892B8A2B8B2B09F484CF0E941506CE
:1023700000916E0210916F022091700230917102F3
:102380006C197D098E099F09061717072807390759
:1023900008F070CF80916D020E941810C0E0CFCF7E
:1023A00085EEB5CF80916E0290916F02A091700280
:1023B000B0917102892B8A2B8B2B09F4AECF0E942E
:1023C000150600916E0210916F02209170023091FB
:1023D00071026C197D098E099F09061717072807D6
:1023E000390708F09ACFD6CF91919D938F5FA5CFF3
:1023F000E091250280912402E81730F4F0E0EA5DD4
:10240000FD4F808190E008958FEF9FEF08959091A8
:102410002502809124022FEF3FEF981748F4E92F0F
:10242000F0E0EA5DFD4F208130E09F5F9093250250
:10243000C90108958091240290912502891B990B6E
:102440000895CF92DF92EF92FF920F931F93CF9355
:10245000DF937C01CB018A0120917202222389F053
:10246000EB016B01C40ED51ECC15DD0569F0699139
:10247000D701ED91FC910190F081E02DC701099504
:10248000F3CF642F0E94D30FC801DF91CF911F912A
:102490000F91FF90EF90DF90CF900895CF93DF934F
:1024A0001F92CDB7DEB76983209172022223F9F023
:1024B00020919502203258F021E030E0FC01338376
:1024C000228390E080E00F90DF91CF91089580917A
:1024D0007302E82FF0E0EC58FD4F998190838F5FF5
:1024E000809373028093950281E090E0ECCF61E0ED
:1024F000CE0101960E94D30FF7CF81E00C943910E2
:102500000F931F93CF93DF93082F162F88E60E9417
:102510008205C6EBD3E088819981DC01ED91FC91C5
:102520000190F081E02D602F099588819981DC016F
:10253000ED91FC910190F081E02D612F099588814A
:102540009981DF91CF911F910F910C947D12EF92A1
:10255000FF920F931F93CF937C01C62F80915C0352
:1025600090915D03892B09F44EC0809160030E9415
:10257000820580915C0390915D03DC01ED91FC91FB
:102580000190F081E02D60E009958701EE24E3944D
:10259000F12CC15080915C0390915D03CF3F61F1BC
:1025A000B0E2EB16F104A8F00E947D128091600366
:1025B0000E94820580915C0390915D03DC01ED91A6
:1025C000FC910190F081E02D60E00995EE24E39408
:1025D000F12C80915C0390915D03F8016491DC0122
:1025E000ED91FC910190F081E02D0995BFEFEB1A80
:1025F000FB0A0F5F1F4FCDCFCF911F910F91FF901F
:10260000EF900C947D12E0916C03F0916D0390813A
:10261000809172038095892380838701C15008F4DB
:1026200038C0F801849120915A0330915B03232B29
:1026300029F00E94D3090F5F1F4FF0CF28E030E050
:1026400040E8E0916803F091690390917003582F7E
:102650005423D9F05081952B9083E0916A03F09137
:102660006B03908150917103952B9083E0916A03E5
:10267000F0916B0350819091710390959523908315
:10268000469521503109E9F6D6CF50819095952392
:10269000E3CFCF911F910F91FF90EF9008951F937B
:1026A000CF93DF93EC018D8D9E8D892BF9F0162F42
:1026B00089A10E9482058D8D9E8DDC01ED91FC919A
:1026C0000190F081E02D60E009958D8D9E8DDC01FB
:1026D000ED91FC910190F081E02D612F09958D8D98
:1026E0009E8DDF91CF911F910C947D12ADA5BEA55B
:1026F0009C918BA9809589238C938B8D9C8D892BA4
:1027000031F0862FDF91CF911F910C94D30928E0EF
:1027100030E080E8A9A5BAA599A9462F4823C1F0C1
:102720004C91942B9C93ABA5BCA59C914AA9942B4E
:102730009C93ABA5BCA54C919AA9909594239C938E
:1027400086952150310931F7DF91CF911F9108957E
:102750004C9190959423E6CF1F93CF93DF93EC0198
:10276000162F8D8D9E8D892BB1F12DA93EA94FA9D4
:1027700058AD60E074E284EF90E00E94D4222051D2
:102780003109410951095695479537952795209369
:10279000B80066EA111167EACE010E944F138D8DD1
:1027A0009E8D892B41F129AD3AAD4BAD5CAD60E01A
:1027B00074E284EF90E00E94D42220513109410953
:1027C000510956954795379527952093B800DF9185
:1027D000CF911F9108958B8D9C8D892B21F08EAD0B
:1027E0009FAD0E94DA09EFA5F8A990818CA9809588
:1027F00089238083CECFEFA5F8A980819CA9892B5E
:102800008083E5CFFF920F931F93CF93DF93EC016B
:10281000F62E142F052F8B810E94820589819A81C3
:10282000DC01ED91FC910190F081E02D60E00995D3
:1028300089819A81DC01ED91FC910190F081E02D7C
:102840006F2D099589819A81DC01ED91FC910190B0
:10285000F081E02D602F099589819A81DC01ED914D
:10286000FC910190F081E02D612F099589819A8179
:102870000E947D128883DF91CF911F910F91FF906D
:102880000895FF920F931F93CF93DF93EC01062FD0
:10289000F72E142F8B810E94820589819A81DC0199
:1028A000ED91FC910190F081E02D6F2D09958981CA
:1028B0009A81DC01ED91FC910190F081E02D602F77
:1028C000099589819A81DC01ED91FC910190F0815B
:1028D000E02D612F099589819A810E947D1288835C
:1028E000DF91CF911F910F91FF90089590E080E0CC
:1028F000089508950895BF92CF92DF92EF92FF92CC
:102900000F931F93CF93DF93CDB7DEB72E970FB6FC
:10291000F894DEBF0FBECDBF88E60E94820580918D
:10292000B6039091B703DC01ED91FC910190F08129
:10293000E02D6BE3099580E00E9439106EE088E697
:102940000E94291110922502809324028E010F5FAC
:102950001F4F6E01BFE0CB0ED11C8091B60390914A
:10296000B703DC01ED91FC910284F385E02D09951C
:10297000B82E8091B6039091B703DC01ED91FC91E4
:102980000284F385E02D0995E12C8E299B29F8011D
:10299000819391938F01CE16DF06F9F6C090BC03A8
:1029A000D090BD03E090BE03F090BF0369817A81AF
:1029B000072E000C880B990B0E946824A701960132
:1029C0000E94F4232091CC033091CD034091CE039B
:1029D0005091CF030E9410236093DC037093DD03BA
:1029E0008093DE039093DF036B817C81072E000CC4
:1029F000880B990B0E946824A70196010E94F4237A
:102A00002091D0033091D1034091D2035091D30350
:102A10000E9410236093E0037093E1038093E2032C
:102A20009093E3036D817E81072E000C880B990B38
:102A30000E946824A70196010E94F4232091D403E8
:102A40003091D5034091D6035091D7030E941023B3
:102A50006093E4037093E5038093E6039093E703A8
:102A60006F817885072E000C880B990B0E946824D3
:102A700020E030EF41E456E40E94112320E030E0F2
:102A80004AEA53E40E94F4236093D8037093D90375
:102A90008093DA039093DB03C090B803D090B9031E
:102AA000E090BA03F090BB0369857A85072E000C8D
:102AB000880B990B0E946824A70196010E94F423B9
:102AC0002091C0033091C1034091C2035091C303D0
:102AD0000E9410236093E8037093E9038093EA0354
:102AE0009093EB036B857C85072E000C880B990B6C
:102AF0000E946824A70196010E94F4232091C40338
:102B00003091C5034091C6035091C7030E94102322
:102B10006093EC037093ED038093EE039093EF03C7
:102B20006D857E85072E000C880B990B0E9468240A
:102B3000A70196010E94F4232091C8033091C90394
:102B40004091CA035091CB030E9410236093F0037D
:102B50007093F1038093F2039093F3032E960FB6D4
:102B6000F894DEBF0FBECDBFDF91CF911F910F91C3
:102B7000FF90EF90DF90CF90BF9008951F93CF9379
:102B8000DF93EC01162F8B810E94820589819A8147
:102B9000DC01ED91FC910190F081E02D60E0099560
:102BA00089819A81DC01ED91FC910190F081E02D09
:102BB000612F099589819A810E947D12888361E045
:102BC0008B810E9429111092250280932402898111
:102BD0009A81DC01ED91FC910284F385E02D099549
:102BE000DF91CF911F910895FF920F931F93CF9381
:102BF000DF93EC01162FF42E61E0812F0E94E40593
:102C000060E0812F0E94B60562E370E080E090E012
:102C10000E943A0661E0812F0E94B60562E370E0EF
:102C200080E090E00E943A0664E270E0CE010E94EB
:102C3000BE158D8366E170E0CE010E94BE15813025
:102C400009F03DC18C8341E067E072E0CE010E9453
:102C5000411441E068E072E0CE010E94411440E07E
:102C600066E970E0CE010E9441144DEF67E970E023
:102C7000CE010E94411441E063EE70E0CE010E945B
:102C8000411443E064EE70E0CE010E94411442E042
:102C900065EE70E0CE010E94411441E066EE70E006
:102CA000CE010E94411443E067EE70E0CE010E9425
:102CB000411442E065EF70E0CE010E94411445E00E
:102CC00069ED70E0CE010E9441144EEC6BED70E0B6
:102CD000CE010E94411443E06CED70E0CE010E94F1
:102CE000411448EF6DED70E0CE010E94411440E0C8
:102CF0006FE970E0CE010E9441144CE363EA70E09A
:102D0000CE010E94411440E067EB70E0CE010E94CA
:102D100041144CE36BEB70E0CE010E94411449E09A
:102D200062EB70E0CE010E94411449E06AEC70E071
:102D3000CE010E94411441E068E971E0CE010E9499
:102D4000411447E160EB71E0CE010E94411440E084
:102D50006DEA71E0CE010E94411445E06FEF70E032
:102D6000CE010E94411445E060E071E0CE010E9476
:102D7000411445E069E971E0CE010E9441144BE144
:102D800066EA71E0CE010E9441144EE36CEA71E004
:102D9000CE010E9441144FE167EA71E0CE010E942A
:102DA000411440E060E370E0CE010E94411440E035
:102DB00066E170E0CE010E9441144F2D62E172E0A5
:102DC000CE010E944114FB8240E36AE071E0CE0133
:102DD0000E94411446E46FE370E0CE010E9441146A
:102DE0004FEF61E370E0CE010E94411443E650E0F2
:102DF00060E470E0CE010E94021441E06EE270E0F7
:102E0000CE010E94411449E06BE170E0CE010E94C6
:102E1000411441E36EE370E0CE010E94411444E2AC
:102E200064E170E0CE010E94411441E36CE170E086
:102E3000CE010E94411440E063EA72E0CE010E949C
:102E4000411481E08C834DEF50E066E970E0CE01E3
:102E50000E9402148D81082E000C990B6C8170E089
:102E60000E94C022462F64E270E0CE010E9441140D
:102E70006C8170E084E190E00E94C022462F61E204
:102E800070E0CE010E9441146DE270E0CE010E941C
:102E9000BE1541E09C81913009F040E08E7F482BC7
:102EA0006DE270E0CE010E9441148AEF90E09F83B2
:102EB0008E83DF91CF911F910F91FF9008958B81A9
:102EC0000E94820589819A81DC01ED91FC9101903B
:102ED000F081E02D60E0099589819A81DC01ED9116
:102EE000FC910190F081E02D66E9099589819A8134
:102EF0000E947D12888362E08B810E9429111092CA
:102F000025028093240289819A81DC01ED91FC9154
:102F10000284F385E02D099500E0182F89819A81BC
:102F2000DC01ED91FC910284F385E02D0995802B65
:102F3000912B8435910549F483E08C838D819C81AC
:102F4000899F802D11248D8338CF8F37910511F4FF
:102F500082E0F3CF81E0F1CFCF93DF93FC010190CA
:102F60000020E9F73197AF01481B590BBC0186E9F6
:102F700092E00E946F06EC0142E050E06AE571E0E9
:102F800086E992E00E946F068C0F9D1FDF91CF9122
:102F900008952091450330914603C901079697FD96
:102FA000079623E0959587952A95E1F720914303AD
:102FB00030914403829FA001839F500D929F500D3A
:102FC000112470E060E080915E0390915F030C94A7
:102FD00042270E943D2785ED8093BC0080916E02C0
:102FE00090916F02A0917002B09171020796A11D9D
:102FF000B11D23E0B695A795979587952A95D1F7AA
:103000002091BC0024FD03C010926C0208954091F1
:103010006E0250916F026091700270917102452BA7
:10302000462B472B69F30097A105B10541F02AE231
:103030002A95F1F700C00197A109B109E1CF80916C
:103040006D020C9418101F920F920FB60F9211245C
:103050002F933F938F939F93AF93BF9380911C02C5
:1030600090911D02A0911E02B0911F0230911B028F
:1030700023E0230F2D3758F50196A11DB11D209394
:103080001B0280931C0290931D02A0931E02B0931A
:103090001F028091200290912102A0912202B09102
:1030A00023020196A11DB11D80932002909321025D
:1030B000A0932202B0932302BF91AF919F918F9171
:1030C0003F912F910F900FBE0F901F90189526E8FB
:1030D000230F0296A11DB11DD2CF1F920F920FB6E2
:1030E0000F9211242F933F934F935F936F937F938E
:1030F0008F939F93AF93BF93EF93FF93E091020160
:10310000F09103010995FF91EF91BF91AF919F91CC
:103110008F917F916F915F914F913F912F910F9080
:103120000FBE0F901F9018951F920F920FB60F921F
:1031300011242F933F934F935F936F937F938F93BC
:103140009F93AF93BF93EF93FF93E0910001F091B2
:1031500001010995FF91EF91BF91AF919F918F91DF
:103160007F916F915F914F913F912F910F900FBE83
:103170000F901F9018951F920F920FB60F92112467
:103180002F933F934F935F936F937F938F939F936F
:10319000AF93BF93EF93FF9386E992E00E94ED0611
:1031A000FF91EF91BF91AF919F918F917F916F911F
:1031B0005F914F913F912F910F900FBE0F901F90F5
:1031C00018951F920F920FB60F9211242F938F9381
:1031D0009F93EF93FF93E091A602F091A702808165
:1031E000E091AC02F091AD0282FD1BC09081809114
:1031F000AF028F5F8F732091B002821741F0E09190
:10320000AF02F0E0EA56FD4F958F8093AF02FF9139
:10321000EF919F918F912F910F900FBE0F901F9064
:1032200018958081F4CF1F920F920FB60F92112440
:103230002F933F934F935F936F937F938F939F93BE
:10324000AF93BF93EF93FF938091B900887F80364F
:1032500009F44AC0F0F5883209F4A7C018F58031A6
:1032600009F49BC0B8F4882309F4F9C0883009F444
:1032700094C0FF91EF91BF91AF919F918F917F91FA
:103280006F915F914F913F912F910F900FBE0F90D3
:103290001F901895883109F488C0803251F78093C7
:1032A0006A0214C0803409F49DC040F48033B9F33D
:1032B0008833F9F680936A0285ECB0C0803509F452
:1032C00085C0883509F496C0883499F60E94EB17BA
:1032D000D0CF883909F48CC038F5883729F050F4FC
:1032E000883611F0803729F683E080936C021092C3
:1032F000150257C0883809F47BC0803919F080382E
:1033000009F0B7CF80911502803208F071C0E091CA
:10331000150281E08E0F809315028091BB00F0E0D2
:10332000EB50FE4F80833DC0803B39F0E0F4803AA3
:1033300009F479C0883A09F09CCF84E080936C024C
:103340001092F4011092F301E0911902F0911A0227
:1033500009958091F30181110FC081E08093F30101
:103360001092D30109C0803C09F4A6CF883C09F42F
:10337000A3CF883B09F07DCFE091F40181E08E0F6F
:103380008093F401F0E0ED52FE4F80818093BB000A
:103390009091F4018091F30129C0809147028093BC
:1033A000BB0085EC8093BC0064CF90916902809152
:1033B0006802981758F5E091690281E08E0F8093BA
:1033C0006902F0E0E85BFD4F8081E9CFE09169029E
:1033D00081E08E0F809369028091BB00F0E0E85B92
:1033E000FD4F808390916902809168029817C8F21E
:1033F00085E8D8CFE091690281E08E0F8093690261
:103400008091BB00F0E0E85BFD4F808380916B0210
:1034100081115CCF81E08093460284EA8093BC00F6
:1034200010926C0226CF85EC8093BC0010926C0247
:1034300080911502803230F4E0911502F0E0EB50FB
:10344000FE4F10826091150270E0E0911702F0913A
:10345000180285EF91E00995109215020ACF10929B
:103460006A0234CF8230B8F4E82FF0E0EE0FFF1F8D
:10347000E050FF4F71836083813039F080916900A3
:10348000836080936900E89A0895809169008C6058
:1034900080936900E99A0895CF92DF92EF920F939B
:1034A0001F93CF93DF93EC016B01842F4883298313
:1034B0000A83EB821C821D821E821F82188661E0B5
:1034C0000E94E40561E089810E94E405188161E0C1
:1034D000812F0E94E40560E0812F0E94B60560E024
:1034E00089810E94B60562E08A810E94E40562E05B
:1034F0008B810E94E4058A81CD28A1F4823071F08D
:10350000833071F08FEF6AE774E1DF91CF911F9103
:103510000F91EF90DF90CF900C94321A80E0F3CFB0
:1035200081E0F1CF823031F0833031F08FEF69E705
:1035300074E1EBCF80E0FBCF81E0F9CFEF920F9306
:10354000CF93DF93E6E9F2E01382128288EE93E0F4
:10355000A0E0B0E084839583A683B7832EE031E0BA
:103560003183208325EC30E03587248724EC30E05C
:103570003787268720EC30E0318B208B21EC30E040
:10358000338B228B22EC30E0358B248B26EC30E021
:10359000378B268B118E128E138E148EC3E3D3E0DD
:1035A0001B821A828C839D83AE83BF8380E291E06D
:1035B0009983888387E0E82E02E02CE04BE070E0FE
:1035C00060E08DE194E00E944C1A98E0E92E03E05F
:1035D0002AE049E061E070E084E194E00E944C1A46
:1035E000E6EBF3E0D183C08388E491EEAAE7BFE382
:1035F00080930C0490930D04A0930E04B0930F04D9
:10360000128613861486158616861786108A118AE6
:10361000128A138A148A158A168A178A108E118EB6
:10362000128E138E148E158E168E178E10A211A266
:1036300010921004109211041092120410921304AC
:10364000EAE9F3E080E090E0A0EEB0E480839183CB
:10365000A283B3838DEC9CECACECBDE384839583B7
:10366000A683B78310861186128613861486158664
:1036700016861786108A118A128A138A148A158A66
:10368000168A178A80E090E0A8ECB2E4808F918FD0
:10369000A28FB38FEFE7F3E0D283C18389E2838304
:1036A00014821582178216821086D387C287848778
:1036B00015861686108A1786118AD48BC38B858B44
:1036C000168A178A118E108E128EEFE3F3E01382A2
:1036D000128220E830E03583248380E490E09783F1
:1036E00086833187208793878287168A158614867A
:1036F0001786168681E0858B848B2FEF3FEF338B07
:10370000228B318B208B878B108E128E118E82E351
:1037100091E091838083148E138ED68FC58F10A273
:10372000178E8FEF84A385A386A387A380A780E845
:103730009AE1A6E0B0E085AB96ABA7ABB0AF80EA6C
:1037400096E8A1E0B0E081AF92AFA3AFB4AF80E55F
:1037500086AF17AEDF91CF910F91EF900895CF9381
:10376000DF93CDB7DEB72E970FB6F894DEBF0FBE4E
:10377000CDBF789484B5826084BD84B5816084BDFA
:1037800085B5826085BD85B5816085BD80916E00FF
:10379000816080936E001092810080918100826030
:1037A000809381008091810081608093810080916D
:1037B00080008160809380008091B100846080935C
:1037C000B1008091B00081608093B00080917A0058
:1037D000846080937A0080917A00826080937A007E
:1037E00080917A00816080937A0080917A0080686D
:1037F00080937A001092C100E091A602F091A70296
:1038000082E08083E091A202F091A3021082E09115
:10381000A402F091A5028FEC80831092AE02E09199
:10382000AA02F091AB0286E08083E091A802F091B9
:10383000A902808180618083E091A802F091A902B1
:10384000808188608083E091A802F091A902808144
:1038500080688083E091A802F091A90280818F7D29
:1038600080838DE591E00E94AC17109225021092A2
:10387000240210927302109295020E94FA0F8CE6B5
:1038800096E090931A02809319028DE696E0909349
:103890001802809317028BE691E00E94AC1764EF48
:1038A00071E080E090E00E943A0660E089E10E94C9
:1038B000801260E08AE10E94801280E090E0A3E83C
:1038C000B2E48093B8039093B903A093BA03B09382
:1038D000BB0368E08BE10E94801280E090E0A0E8EA
:1038E000B6E48093BC039093BD03A093BE03B09352
:1038F000BF0360E08CE10E94801261E08BE60E94D1
:103900008012182F0E947B14C090E403D090E5032E
:10391000E090E603F090E703A7019601C701B60126
:103920000E944C2569837A838B839C838090DC037F
:103930009090DD03A090DE03B090DF03A501940119
:10394000C501B4010E944C2529813A814B815C81DB
:103950000E9411230E94BF256D837E838F839887E9
:103960004090E0035090E1036090E2037090E30325
:1039700022242394312C20E030E0A901C701B601B4
:103980000E943F2587FF02C0312C212C21E030E02E
:103990003A87298720E030E0A901C701B6010E94DB
:1039A000EF2387FD02C01A861986B10149855A8521
:1039B000641B750B072E000C880B990B0E94682462
:1039C0002D813E814F8158850E944C259B01AC0181
:1039D000C301B2010E94902321EE3EE245E652E48B
:1039E0000E944C256093F4037093F5038093F603D3
:1039F0009093F703A3019201C301B2010E944C25E9
:103A000029813A814B815C810E9411230E94BF254C
:103A10009B01AC01C501B4010E949023905821EE96
:103A20003EE245E652E40E944C256093F803709311
:103A3000F9038093FA039093FB038FB7F894C09037
:103A40001C02D0901D02E0901E02F0901F028FBF5A
:103A50008091080490910904A0910A04B0910B048C
:103A6000A7019601281B390B4A0B5B0BCA01B90150
:103A70000E9466242FE632E143E85AE30E944C2577
:103A8000C0920804D0920904E0920A04F0920B0458
:103A90008090F4039090F503A090F603B090F703A4
:103AA000C090F803D090F903E090FA03F090FB0384
:103AB0002091F0033091F1034091F2035091F30310
:103AC0000E944C2520910404309105044091060485
:103AD000509107040E94112360930404709305041D
:103AE00080930604909307048092FC039092FD0358
:103AF000A092FE03B092FF03C0920004D092010492
:103B0000E0920204F09203042FB7F89480911C0213
:103B100090911D02A0911E02B0911F022FBF8093B1
:103B2000080490930904A0930A04B0930B04112392
:103B300029F087E791E00E94AC17FFCF88E60E944A
:103B400082056BE183E393E00E944E1268E083E319
:103B500093E00E944E1283E393E00E947D12109244
:103B6000C0031092C1031092C2031092C3031092BB
:103B7000C4031092C5031092C6031092C70310929B
:103B8000C8031092C9031092CA031092CB0310927B
:103B9000CC031092CD031092CE031092CF0310925B
:103BA000D0031092D1031092D2031092D30310923B
:103BB000D4031092D5031092D6031092D70344EF8A
:103BC00051E05E874D8719861A861B861C861D82EA
:103BD0001E821F82188619821A821B821C82C12CA7
:103BE000D12C760146015701260137010E947B1432
:103BF0002091DC033091DD034091DE035091DF031F
:103C0000C301B2010E9411232B013C012091E0036A
:103C10003091E1034091E2035091E303C501B40107
:103C20000E9411234B015C0120E030E040E85FE39B
:103C30006091E4037091E5038091E6039091E703BE
:103C40000E9410239B01AC01C701B6010E94112301
:103C50006B017C012091E8033091E9034091EA0374
:103C60005091EB0369817A818B819C810E941123A1
:103C700069837A838B839C832091EC033091ED03DD
:103C80004091EE035091EF036D817E818F81988585
:103C90000E9411236D837E838F8398872091F00388
:103CA0003091F1034091F2035091F30369857A85D5
:103CB0008B859C850E94112369877A878B879C87D7
:103CC00061E070E080E090E00E943A068D859E857C
:103CD00001979E878D87892B09F088CF20E030E0FF
:103CE0004AEF53E4C301B2010E94F4236093CC0372
:103CF0007093CD038093CE039093CF0320E030E008
:103D00004AEF53E4C501B4010E94F4236093D00349
:103D10007093D1038093D2039093D30320E030E0DB
:103D20004AEF53E4C701B6010E94F4236093D40321
:103D30007093D5038093D6039093D70320E030E0AF
:103D40004AEF53E469817A818B819C810E94F4233C
:103D50006093C0037093C1038093C2039093C30325
:103D600020E030E04AEF53E46D817E818F819885B9
:103D70000E94F4236093C4037093C5038093C60329
:103D80009093C70320E030E04AEF53E469857A85D9
:103D90008B859C850E94F4236093C8037093C903AC
:103DA0008093CA039093CB0384E991E00E94AC17FF
:103DB00080915E0390915F03892B09F049C02091A7
:103DC000450330914603C901079697FD0796B3E076
:103DD00095958795BA95E1F7209143033091440377
:103DE000DC01A29FC001A39F900DB29F900D1124F2
:103DF0000E94182690935F0380935E03892B41F500
:103E000085EA91E00E94AC1785EC91E00E94AC1726
:103E100044E560E170E08FE793E00E94F41545E52A
:103E20006EE070E088E893E00E94F41546E56FE0EC
:103E300070E081E993E00E94F41520E030E0232B4C
:103E4000E1F30E94D9068823C1F30E940000F5CF58
:103E50000E94C91720914503309146038091430386
:103E600090914403B901213231050CF4BCC1605476
:103E7000710977FF02C06F5F7F4F75956795825517
:103E8000910997FD019600E410E022E530E04CE94D
:103E900057E0959587950E94C40E82E08093610358
:103EA00080915C0390915D03892B09F4AFC18CE391
:103EB00080936003109225021092240210927302E4
:103EC000109295020E94FA0F8CE696E090931A02E7
:103ED000809319028DE696E0909318028093170262
:103EE0008091670387FD1EC061E00E94E40561E0E8
:103EF000809167030E94B60561E070E080E090E089
:103F00000E943A0660E0809167030E94B6056AE06D
:103F100070E080E090E00E943A0661E080916703E3
:103F20000E94B60580915C0390915D03892B09F492
:103F30002EC2209174033091750340917603509105
:103F4000770360E074E284EF90E00E94D422205175
:103F50003109410951095695479537952795209381
:103F6000B80064E088EB95E00E94A71260914503D9
:103F700061508FE393E00E944F1364E084EB95E07F
:103F80000E94A7128091610360E1813009F064E131
:103F90008FE393E00E944F1364E080EB95E00E9472
:103FA000A7128FE880937C03809143039091440390
:103FB0008038910509F004C2809145039091460331
:103FC0008034910509F026C280916103813009F0A7
:103FD000F5C18FE980937C03F2E1F9836AED8FE309
:103FE00093E00E944F1369818FE393E00E944F1387
:103FF00061E88FE393E00E944F1360917C038FE3AD
:1040000093E00E944F1369ED8FE393E00E944F13FA
:104010008091610362E2813009F061EF8FE393E008
:104020000E944F1366E08AEA95E00E94A7128091F1
:104030005C0390915D03892B09F4F8C1209178030A
:104040003091790340917A0350917B0360E074E2F0
:1040500084EF90E00E94D422205131094109510996
:1040600056954795379527952093B8000E94C91714
:1040700081E090E09093520380935103909350031A
:1040800080934F03809353038093540310924C0307
:1040900010924B0310924E0310924D0380915C03DB
:1040A00090915D03892B09F4CBC120917403309169
:1040B0007503409176035091770360E074E284EFDA
:1040C00090E00E94D42220513109410951095695AE
:1040D0004795379527952093B80064E086EA95E0E8
:1040E0000E94A7128091430390914403803491056C
:1040F00009F0BDC160E28FE393E00E944F1360912D
:104100004303615E8FE393E00E944F1320914503C8
:1041100030914603C901079697FD079623E09595D0
:1041200087952A95E1F72091430330914403829FBC
:104130007001839FF00C929FF00C1124A0915E03FC
:10414000B0915F03BA83A98380915C0390915D0372
:10415000EA0EFB1E892B09F4B5C1809160030E9411
:10416000820580915C0390915D03DC01ED91FC91EF
:104170000190F081E02D60E4099501E010E080916C
:104180005C0390915D03E981FA81EE16FF0609F464
:1041900077C100321105A0F00E947D12809160036A
:1041A0000E94820580915C0390915D03DC01ED919A
:1041B000FC910190F081E02D60E4099501E010E0B0
:1041C00080915C0390915D03E981FA816191FA83AA
:1041D000E983DC01ED91FC910190F081E02D0995DE
:1041E0000F5F1F4FCCCF6052710977FF02C06F5F26
:1041F0007F4F759567958357910997FD019600E26A
:1042000010E023E730E04CEB55E043CE61E08091D5
:1042100065030E94E40561E0809166030E94E40565
:1042200080916503082E000C990BFC01E059F54FB5
:10423000E491F0E0EE0FFF1FEA59F54F259134911C
:1042400030936D0320936C03FC01EC57F54FE49120
:10425000E093720380916603082E000C990BFC0119
:10426000E059F54FE491F0E0EE0FFF1FEA59F54FEA
:10427000A591B491B0936F03A0936E03FC01EC572A
:10428000F54FE491E09373038C91E82BEC938091CC
:104290005A0390915B03892B09F436C0BFB7B983E9
:1042A000F89480911602811127C0EAE7FAE0849120
:1042B000EEE8FAE09491E82FF0E0EE0FFF1FE45AE9
:1042C000F54FA591B491EC91E92321F461E08AE0E6
:1042D0000E94B60561E08AE00E94E4058CB5806129
:1042E0008CBD8CB580648CBD61E08DE00E94E405DE
:1042F00061E08BE00E94E405809116028F5F80935D
:104300001602E981EFBFECCD61E0809163030E946A
:10431000E40561E0809164030E94E40580916303F9
:10432000082E000C990BFC01E059F54FE491F0E0E8
:10433000EE0FFF1FEA59F54F259134913093690331
:1043400020936803FC01EC57F54FE491E093700370
:1043500080916403082E000C990BFC01E059F54F85
:10436000E491F0E0EE0FFF1FEA59F54FA591B491EB
:10437000B0936B03A0936A03FC01EC57F54FE491F3
:10438000E09371038C91E095E823EC93A9CD8091A3
:104390005A0390915B03892B31F080917D039091BA
:1043A0007E030E94DA09E0916E03F0916F03908121
:1043B00080917303809589238083D3CD8FEC0ACEBF
:1043C0008036910591F48091450390914603409782
:1043D00021F580916103813031F480E180937C0389
:1043E00022E02983FBCD8FEAF9CF80349105C1F417
:1043F00080914503909146038097A9F480916103D1
:10440000813031F480E180937C0332E13983E6CD61
:104410008FECF9CF42E04983E1CD52E05983DECD04
:1044200082E08983DBCD92E09983D8CDE0916E0361
:10443000F0916F03808190917303892B808316CE56
:1044400080915A0390915B03892B31F080917D0319
:1044500090917E030E94DA09E0916E03F0916F0360
:1044600090818091730380958923808336CE60E0AC
:104470008FE393E00E944F1360914303615042CE5B
:104480000E947D1280915C0390915D03892B09F459
:104490005EC0209178033091790340917A03509166
:1044A0007B0360E074E284EF90E00E94D42220510C
:1044B000310941095109569547953795279520931C
:1044C000B800A2CCE0916C03F0916D0380819091D3
:1044D0007203892B8083E981FA81EE16FF0691F23F
:1044E0008191FA83E98320915A0330915B03232B56
:1044F00019F00E94D309EFCF28E030E040E8E091C6
:104500006803F091690390917003582F5423D9F0F8
:104510005081952B9083E0916A03F0916B03908119
:1045200050917103952B9083E0916A03F0916B0396
:1045300050819091710390959523908346952150D9
:104540003109E9F6C8CF508190959523E3CFE091EA
:104550006E03F0916F03808190917303892B8083A8
:1045600053CC82E391E09093400380933F0380918A
:104570005E0390915F03009711F00C94B4260895A8
:1045800097FB072E16F4009407D077FD09D00E9400
:10459000F62207FC05D03EF4909581959F4F089533
:1045A000709561957F4F0895A1E21A2EAA1BBB1B3F
:1045B000FD010DC0AA1FBB1FEE1FFF1FA217B307EF
:1045C000E407F50720F0A21BB30BE40BF50B661F05
:1045D000771F881F991F1A9469F7609570958095C9
:1045E00090959B01AC01BD01CF010895AA1BBB1B97
:1045F00051E107C0AA1FBB1FA617B70710F0A61BE3
:10460000B70B881F991F5A95A9F780959095BC0103
:10461000CD010895EE0FFF1F0590F491E02D099450
:104620005058BB27AA270E9428230C9405250E94D6
:10463000F72438F00E94FE2420F039F49F3F19F44B
:1046400026F40C94CD240EF4E095E7FB0C94C724DB
:10465000E92F0E94162558F3BA17620773078407DB
:10466000950720F079F4A6F50C9438250EF4E09522
:104670000B2EBA2FA02D0B01B90190010C01CA011C
:10468000A0011124FF27591B99F0593F50F4503EC7
:1046900068F11A16F040A22F232F342F4427585FB9
:1046A000F3CF469537952795A795F0405395C9F7D1
:1046B0007EF41F16BA0B620B730B840BBAF0915089
:1046C000A1F0FF0FBB1F661F771F881FC2F70EC028
:1046D000BA0F621F731F841F48F4879577956795FB
:1046E000B795F7959E3F08F0B0CF9395880F08F0E7
:1046F0009927EE0F9795879508950E94F72460F00B
:1047000080E891E009F49EEF0E94FE2428F040E842
:1047100051E071F45EEF0CC00C94CD240C9438255C
:10472000E92FE0780E94162540F3092E052AB1F3FF
:10473000261737074807590738F00E2E07F8E025E7
:1047400069F0E025E0640AC0EF6307F8009407FA17
:10475000DB01B9019D01DC01CA01AD01EF930E94AB
:104760000B240E9405250E94C0235F91552339F038
:104770002BED3FE049E450FD49EC0C9411230895E2
:10478000DF93DD27B92FBF7740E85FE316161706E2
:1047900048075B0718F4D92F0E9444259F938F93F5
:1047A0007F936F930E94FF25E8E6F0E00E94D024FB
:1047B0000E9405252F913F914F915F910E945F25A7
:1047C000DD2351F09058A2EA2AED3FE049EC5FE387
:1047D000D0785D270E942823DF910C9405250E9444
:1047E000A32408F481E008950E9408240C94052570
:1047F0000E94FE2458F00E94F72440F029F45F3F05
:1048000029F00C94C72451110C9439250C94CD2413
:104810000E94162568F39923B1F3552391F3951B54
:10482000550BBB27AA2762177307840738F09F5FD1
:104830005F4F220F331F441FAA1FA9F335D00E2E3E
:104840003AF0E0E832D091505040E695001CCAF7AB
:104850002BD0FE2F29D0660F771F881FBB1F26176E
:1048600037074807AB07B0E809F0BB0B802DBF0145
:10487000FF2793585F4F3AF09E3F510578F00C9414
:10488000C7240C9439255F3FE4F3983ED4F3869512
:1048900077956795B795F7959F5FC9F7880F911D35
:1048A0009695879597F90895E1E0660F771F881F21
:1048B000BB1F621773078407BA0720F0621B730BD4
:1048C000840BBA0BEE1F88F7E0950895E89409C0B1
:1048D00097FB3EF490958095709561957F4F8F4F33
:1048E0009F4F9923A9F0F92F96E9BB279395F69549
:1048F000879577956795B795F111F8CFFAF4BB0FC7
:1049000011F460FF1BC06F5F7F4F8F4F9F4F16C02A
:10491000882311F096E911C0772321F09EE8872FB4
:10492000762F05C0662371F096E8862F70E060E070
:104930002AF09A95660F771F881FDAF7880F9695E9
:10494000879597F90895990F0008550FAA0BE0E88D
:10495000FEEF16161706E807F907C0F01216130641
:10496000E407F50798F0621B730B840B950B39F481
:104970000A2661F0232B242B252B21F408950A26E7
:1049800009F4A140A6958FEF811D811D089597F927
:104990009F6780E870E060E008959FEF80EC0895E5
:1049A000DF93CF931F930F93FF92EF92DF927B01E0
:1049B0008C01689406C0DA2EEF010E945F25FE018B
:1049C000E894A5912591359145915591A6F3EF0174
:1049D0000E942823FE019701A801DA9469F7DF906D
:1049E000EF90FF900F911F91CF91DF9108950024D8
:1049F0000A941616170618060906089500240A9444
:104A000012161306140605060895092E0394000CC9
:104A100011F4882352F0BB0F40F4BF2B11F460FF58
:104A200004C06F5F7F4F8F4F9F4F089557FD905881
:104A3000440F551F59F05F3F71F04795880F97FB62
:104A4000991F61F09F3F79F087950895121613061C
:104A50001406551FF2CF4695F1DF08C0161617064B
:104A60001806991FF1CF8695710561050894089580
:104A7000E894BB2766277727CB0197F908950E9412
:104A8000A32408F48FEF08959B01AC0160E070E06F
:104A900080E89FE30C94F4230E945F250C94052585
:104AA0000E94F72438F00E94FE2420F0952311F094
:104AB0000C94C7240C94CD2411240C9439250E9405
:104AC000162570F3959FC1F3950F50E0551F629F17
:104AD000F001729FBB27F00DB11D639FAA27F00D57
:104AE000B11DAA1F649F6627B00DA11D661F829F7E
:104AF0002227B00DA11D621F739FB00DA11D621F63
:104B0000839FA00D611D221F749F3327A00D611D7F
:104B1000231F849F600D211D822F762F6A2F112461
:104B20009F5750409AF0F1F088234AF0EE0FFF1F94
:104B3000BB1F661F771F881F91505040A9F79E3FEB
:104B4000510580F00C94C7240C9439255F3FE4F3A1
:104B5000983ED4F3869577956795B795F795E79541
:104B60009F5FC1F7FE2B880F911D9695879597F94A
:104B7000089519F416F40C94CD240C9403260E9485
:104B80001E25B8F39923C9F3B6F39F57550B87FF3A
:104B90000E9411260024A0E640EA90018058569514
:104BA000979528F4805C660F771F881F20F02617E2
:104BB0003707480730F4621B730B840B2029312917
:104BC0004A2BA69517940794202531254A2758F794
:104BD000660F771F881F20F026173707480730F425
:104BE000620B730B840B200D311D411DA09581F7C5
:104BF000B901842F9158880F9695879508959B0148
:104C0000AC010C944C259F3F31F0915020F48795D6
:104C100077956795B795880F911D9695879597F924
:104C2000089591505040660F771F881FD2F708955E
:104C30000F931F93CF93DF938230910510F482E09E
:104C400090E0E0912804F091290430E020E0B0E009
:104C5000A0E0309799F42115310509F44AC0281BCA
:104C6000390B24303105D8F58A819B816115710596
:104C700089F1FB0193838283FE0111C04081518140
:104C80000281138148175907E0F04817590799F432
:104C9000109761F012960C93129713961C9332960C
:104CA000CF01DF91CF911F910F91089500932804B8
:104CB00010932904F4CF2115310551F04217530701
:104CC00038F0A901DB019A01BD01DF01F801C1CF74
:104CD000EF01F9CF9093290480932804CDCFFE01F2
:104CE000E20FF31F81939193225031093983288376
:104CF000D7CF2091260430912704232B41F4209113
:104D00000601309107013093270420932604209157
:104D10000401309105012115310541F42DB73EB74D
:104D20004091080150910901241B350BE0912604A4
:104D3000F0912704E217F307A0F42E1B3F0B28176E
:104D4000390778F0AC014E5F5F4F2417350748F004
:104D50004E0F5F1F50932704409326048193919335
:104D60009FCFF0E0E0E09CCFCF93DF930097E9F096
:104D7000FC01329713821282A0912804B091290479
:104D8000ED0130E020E01097A1F420813181820F05
:104D9000931F20912604309127042817390709F022
:104DA00061C0F0932704E0932604DF91CF9108952A
:104DB000EA01CE17DF07E8F54A815B819E014115C4
:104DC0005105B1F7E901FB83EA8349915991C40F79
:104DD000D51FEC17FD0761F4808191810296840F45
:104DE000951FE90199838883828193819B838A83BC
:104DF000F0E0E0E012968D919C9113970097B9F541
:104E00002D913C911197CD010296820F931F209115
:104E10002604309127042817390739F6309751F5C1
:104E20001092290410922804B0932704A09326041A
:104E3000BCCFD383C28340815181840F951FC81793
:104E4000D90761F44E5F5F4F88819981480F591FE0
:104E5000518340838A819B8193838283211531050D
:104E600009F0B0CFF0932904E09328049ECFFD0110
:104E7000DC01C0CF13821282D7CF81E090E0F8949A
:104E80000C944927DC0101C06D9341505040E0F77C
:104E9000089515E0C7E5D5E004C0FE010E940A238D
:0C4EA0002196C835D107C9F7F894FFCF60
:104EAC006E066E0600002A048000000000000F074A
:104EBC006F069C065C07CD06AB06BF060000000023
:104ECC004E12211276148C051A120712F8110000DA
:104EDC000000180C6F067614D20F23098C05BD0E3A
:104EEC00950EB10EA50E250F8C05DE09AC1393089B
:104EFC00DC08DE0DC10D490DEA0C0D0A0042656798
:104F0C00616E2053657269616C2100426567616E48
:104F1C0020576972652100436F756C64206E6F7445
:104F2C0020636F6E6E65637420746F204D50553620
:104F3C0030353000426567616E204779726F73635C
:104F4C006F706521004F4C45443A20535344313324
:104F5C00303620616C6C6F636174696F6E206661B2
:104F6C00696C656400426567616E204F4C45442155
:024F7C00000033
:00000001FF
