:100000000C9425020C94FE150C94D7150C944D02FB
:100010000C944D020C944D020C944D020C944D0224
:100020000C944D020C944D020C944D020C944D0214
:100030000C944D020C944D020C944D020C944D0204
:100040000C948D150C944D020C944B160C942516A3
:100050000C944D020C944D020C944D020C944D02E4
:100060000C947D160C944D02084AD73B3BCE016E92
:1000700084BCBFFDC12F3D6C74319ABD56833DDAFF
:100080003D00C77F11BED9E4BB4C3E916BAAAABE0E
:10009000000000803F00207F010100000000000000
:1000A00000000000005E00000000000006000006E6
:1000B000000000247E24247E240000246B2A2A6B66
:1000C0001200004626100864620000344A4A542098
:1000D000500000000000060000000000003C42004C
:1000E0000000000000423C000000002A1C3E1C2AC8
:1000F00000000008083E0808000000004030000032
:10010000000000080808080808000000004000007F
:1001100000000040201008040200003C62524A46E1
:100120003C000040447E4040000000645252525265
:100130004C000024424A4A4A340000382422227EDD
:100140002000002E4A4A4A4A3200003C4A4A4A4AA3
:10015000300000020262120A060000344A4A4A4A8B
:100160003400000C525252523C00000000240000A7
:1001700000000000402400000000000008142200DD
:1001800000000014141414141400000000221408B9
:100190000000000402520A0400000018245A5A24E5
:1001A0001800007C121212127C00007E4A4A4A4A51
:1001B0003400003C424242422400007E424242421D
:1001C0003C00007E4A4A4A424200007E0A0A0A0275
:1001D0000200003C424252523400007E08080808E7
:1001E0007E000000427E420000000020404040406F
:1001F0003E00007E080808146200007E4040404037
:100200004000007E040808047E00007E04081020E0
:100210007E00003C424242423C00007E121212121A
:100220000C00003C425262423C00007E121212322C
:100230004C0000244A4A4A4A30000002027E020270
:100240000000003E404040403E00001E2040402054
:100250001E00007E201010207E000042241818246A
:1002600042000002047804020000004262524A4642
:10027000420000007E4242000000000204081020FC
:10028000400000000042427E000000000004020422
:100290000000808080808080808000000002040058
:1002A00000000020545454780000007E4848483034
:1002B0000000003844444428000000304848487E8C
:1002C000000000385454544800000000087C0A0222
:1002D00000000018A4A4A47C0000007E0808087098
:1002E00000000000487A4000000000408080887ACA
:1002F0000000007E1010284400000000427E4000F4
:100300000000007C047804780000007C0404047879
:100310000000003844444438000000FC44444438A1
:1003200000000038444444FC0000007C080404043D
:10033000000000485454542400000000043E4400CF
:100340000000003C4040207C0000001C2040201C9D
:100350000000001C601C601C0000004428102844A1
:100360000000001CA0A0A07C0000004464544C4489
:1003700000000000083641000000000000FF0000FF
:1003800000000000413608000000080404081010B6
:1003900008000000000000000000436F756C64203E
:1003A0006E6F7420636F6E6E65637420746F204D82
:1003B00050553630353000536574757020636F6D5D
:1003C000706C657465210066666C6672666C667238
:1003D000666C6666666C66726672666672666C6687
:1003E00066667266666672667266666C66000000B5
:1003F0000000240027002A0000000000250028003B
:100400002B0000000000230026002900040404043F
:1004100004040404020202020202030303030303AE
:10042000010204081020408001020408102001028B
:100430000408102000000008000201000003040767
:1004400000000000000000009C1711241FBECFEF29
:10045000D8E0DEBFCDBF11E0A0E0B1E0ECEAF0E40F
:1004600002C005900D92AC39B107D9F724E0ACE990
:10047000B1E001C01D92A036B207E1F712E0C5E27B
:10048000D2E004C02197FE010E94011DC432D107B1
:10049000C9F70E94F7170C9454200C940000823086
:1004A000B8F4E82FF0E0EE0FFF1FE050FF4F71832C
:1004B0006083813039F080916900836080936900A6
:1004C000E89A0895809169008C6080936900E99AA8
:1004D000089591E090937B0380939D0310927C0399
:1004E00010929E0308959B01DC011896ED91FC91FA
:1004F00041E067E10994833081F028F4813099F07C
:100500008230A9F008958730A9F08830C9F084308E
:10051000B1F4809180008F7D03C0809180008F773F
:1005200080938000089584B58F7784BD089584B545
:100530008F7DFBCF8091B0008F778093B0000895BE
:100540008091B0008F7DF9CFCF93DF93282F30E0DB
:10055000F901EC5CFB4F8491F901E05EFB4FD49113
:10056000F901E45FFB4FC491CC23A1F081110E94FB
:100570007B02EC2FF0E0EE0FFF1FEE5FFB4FA5912B
:10058000B491EC91ED2381E090E009F480E0DF91FB
:10059000CF91089580E090E0FACF1F93CF93DF933F
:1005A000282F30E0F901EC5CFB4F8491F901E05E0B
:1005B000FB4FD491F901E45FFB4FC491CC23A9F028
:1005C000162F81110E947B02EC2FF0E0EE0FFF1F2F
:1005D000E850FC4FA591B4918FB7F894EC911111AC
:1005E00008C0D095DE23DC938FBFDF91CF911F91A0
:1005F0000895DE2BF8CFCF93DF9390E0FC01E05E0F
:10060000FB4F2491845F9B4FFC0184918823D1F0A0
:1006100090E0880F991FFC01E251FC4FA591B49125
:10062000FC01E850FC4FC591D491623071F49FB742
:10063000F8943C91822F809583238C93E8812E2B14
:1006400028839FBFDF91CF9108958FB7F894EC91E5
:100650002E2B2C938FBFF6CF3FB7F89480912703B2
:1006600090912803A0912903B0912A0326B5A89B55
:1006700005C02F3F19F00196A11DB11D3FBFBA2F34
:10068000A92F982F8827BC01CD01620F711D811DF4
:10069000911D42E0660F771F881F991F4A95D1F779
:1006A00008958F929F92AF92BF92CF92DF92EF9276
:1006B000FF926B017C010E942C034B015C01C11471
:1006C000D104E104F104B9F00E942C0368197909FE
:1006D0008A099B09683E73408105910580F321E0FA
:1006E000C21AD108E108F10888EE880E83E0981E4E
:1006F000A11CB11CE4CFFF90EF90DF90CF90BF9092
:10070000AF909F908F900895089508950895AF92A7
:10071000BF92CF92DF92EF92FF920F931F93CF93EE
:10072000DF936C017B018B01040F151FEB015E0150
:10073000AE18BF08C017D10759F06991D601ED91E5
:10074000FC910190F081E02DC6010995892B79F784
:10075000C501DF91CF911F910F91FF90EF90DF9036
:10076000CF90BF90AF900895FC01538D448D252FFD
:1007700030E0842F90E0821B930B541710F0CF963B
:10078000089501970895FC01918D828D981761F06D
:10079000A28DAE0FBF2FB11D5D968C91928D9F5F84
:1007A0009F73928F90E008958FEF9FEF0895FC0163
:1007B000918D828D981731F0828DE80FF11D858D16
:1007C00090E008958FEF9FEF0895FC01918D228DA9
:1007D000892F90E0805C9F4F821B91098F7399272E
:1007E00008958FE993E00E94E50321E0892B09F445
:1007F00020E0822F089580E090E0892B29F00E946C
:10080000F10381110C9400000895FC01A48DA80F40
:10081000B92FB11DA35ABF4F2C91848D90E0019642
:100820008F739927848FA689B7892C93A089B18962
:100830008C91837080648C93938D848D981306C003
:100840000288F389E02D80818F7D80830895EF9267
:10085000FF920F931F93CF93DF93EC0181E0888F7A
:100860009B8D8C8D98131AC0E889F989808185FF4A
:1008700015C09FB7F894EE89FF896083E889F989EC
:1008800080818370806480839FBF81E090E0DF91EE
:10089000CF911F910F91FF90EF900895F62E0B8D41
:1008A00010E00F5F1F4F0F731127E02E8C8D8E11FC
:1008B0000CC00FB607FCFACFE889F989808185FF63
:1008C000F5CFCE010E940504F1CFEB8DEC0FFD2F8B
:1008D000F11DE35AFF4FF0829FB7F8940B8FEA891E
:1008E000FB8980818062CFCF0F931F93CF93DF93DB
:1008F0008C01D0E0C0E0F801EC0FFD1F649166238D
:1009000041F08FE993E00E942704892B11F0219692
:10091000F2CF42E050E069E971E08FE993E00E9494
:1009200087038C0F9D1FDF91CF911F910F91089529
:10093000CF93DF93EC01888D8823B9F0AA89BB8916
:10094000E889F9898C9185FD03C0808186FD0DC001
:100950000FB607FCF7CF8C9185FFF2CF808185FF22
:10096000EDCFCE010E940504E9CFDF91CF9108952C
:1009700080E00895DC011A96ED91FC9130E020E0D2
:100980000994CF92DF92FF920F931F93CF93DF933F
:1009900000D000D01F92CDB7DEB78C011C8281E061
:1009A0008B837A836983D801ED91FC91F1881D8254
:1009B000F801A081B181C480D5809E012F5F3F4F97
:1009C00050964C916FE0C801F60109958D818F5FBB
:1009D0008D838F1568F30F900F900F900F900F90ED
:1009E000DF91CF911F910F91FF90DF90CF900895ED
:1009F000DC011696ED91FC9130E020E040E069E1E9
:100A00000994DC011696ED91FC9130E020E040E085
:100A100068E109949A01DC011696ED91FC91462F4C
:100A200067E10994EF92FF920F931F93CF93DF93A7
:100A30001F92CDB7DEB77C018B01D8016C91673175
:100A400029F150F46531A0F40F90DF91CF911F91FF
:100A50000F91FF90EF9008956A3118F16E3FA1F762
:100A6000F8014181498369E2C7010E94BA040BC0C1
:100A7000F80141814983D7011696ED91FC9130E050
:100A800020E0C70109950E5F1F4FD7CFF801818184
:100A90008983AE014F5F5F4F61E0C7010E940A0585
:100AA000F2CF0F5F1F4FD7011696ED91FC9130E00A
:100AB00020E040E0C7010995C0CF462FDC01169623
:100AC000ED91FC9130E020E066E10994462FDC01D5
:100AD0001696ED91FC9130E020E065E10994EF92EB
:100AE000FF920F931F93CF93DF93EC01042F7901B3
:100AF0006D3009F446C050F46B30C9F1693009F427
:100B00009FC06A3009F465C080E046C06E3009F4C9
:100B100052C06F3099F70E940105F7011381110F40
:100B2000110F110F6C89160F60E4CE010E9466054B
:100B3000612F62956F706061CE010E946605612F22
:100B40006F70CE010E945D05F7016481606BCE017C
:100B50000E945D05F701408151816281660F660F39
:100B6000660FCE010E940A050150A1F72EC063E274
:100B700071E0442311F06EE171E0CE010E94120594
:100B80000AC0411110C067E171E00E941205E881BE
:100B9000F98182898C8B81E0DF91CF911F910F9138
:100BA000FF90EF90089560E171E00E941205E881E6
:100BB000F9818389EFCF0E94010561E8CE010E948F
:100BC0006605602FCE010E945D05CE010E94F804EB
:100BD000E2CFEA85FB8530E020E040E068E2CE012C
:100BE0000995EE81FF8130E020E040E064E1CE0134
:100BF000099541E06BE4CE010E94BA04E881F981D5
:100C0000448169E2CE010E94BA0440E06BE4CE0167
:100C10000E94BA04E881F981448169E2CE010E9410
:100C2000BA0441E06BE4CE010E94BA04E881F98184
:100C3000458169E2CE010E94BA0468E271E09DCF6D
:100C40008DE591E0998388831C8AA5CFDC011896F5
:100C5000ED91FC9130E020E040E069E10994DC0195
:100C60001896ED91FC9130E020E040E068E10994B5
:100C7000CF93DF931F92CDB7DEB76983BE016F5F5D
:100C80007F4F0E9473020F90DF91CF910895EF92F2
:100C9000FF921F93CF93DF93EC01162F7A010E94EE
:100CA0002F0660E4CE010E943806E885F985970199
:100CB000412F67E1CE010995CE01DF91CF911F91C0
:100CC000FF90EF900C942606EF92FF921F93CF9324
:100CD000DF93EC01142F7901663181F138F464312E
:100CE00009F44BC0653179F080E022C06831C9F168
:100CF00050F16931C9F780911F03882391F1CE012A
:100D00000E9426062EC080911F03882319F0CE0171
:100D10000E942606CE010E942F0660E0CE010E94AE
:100D20003806612FCE010E94380681E080931F03B0
:100D3000DF91CF911F91FF90EF900895642F0E9453
:100D4000380681E0F5CF80911F03882319F0CE018A
:100D50000E942606A701193138F4612FCE010E94A6
:100D6000470610921F03EDCF68E1CE010E944706AF
:100D7000185188E1E80EF11CEDCF8E898F3F11F4F8
:100D800088E78E8BE885F9859701412F64E1CE01D4
:100D9000DF91CF911F91FF90EF900994CF93DF9354
:100DA000EC01A889B989FD0134913196949131966D
:100DB00084911396FD01A4916317A8F1961798F1F9
:100DC000631B770B8A9FE02D1124E69FC001E79FEC
:100DD000900D1124280F392F311D83E0220F331F6E
:100DE0008A95E1F7C9010496DA01245F3F4FE8894B
:100DF000F989E80FF91FE491ED93019682179307A3
:100E0000B1F78D89882361F0FA019A01285F3F4F7D
:100E10008191DF01119780958C932E173F07C1F7C1
:100E2000DF91CF910895FA01CA0108961192E8174F
:100E3000F907E1F7E6CF0F931F93CF93DF938C0170
:100E4000C62F642FCC32B0F4CA32D0F5C83239F193
:100E5000C932E1F180E0C034A0F1CF73F801EC0FAA
:100E6000F11D868D8F3F61F1C03108F045C00E94B1
:100E7000CD0226C0CD3281F168F384EB8C0F823035
:100E800048F7CF73C00FD12FD11D8E8D411132C0C5
:100E90000E94CD0261E08E8D0E94FB0211C0025EB5
:100EA0001F4FD0E0F80181918F018F3F31F061E059
:100EB000D03108F062E00E94FB02DF5FD63191F78B
:100EC00081E0DF91CF911F910F91089570E090E044
:100ED00080E00E945103F4CF85E090E0433010F0B1
:100EE00082E090E0880F991F880F991F059701975E
:100EF000F1F7E6CF62E0D0CF0E94A40221E0892B77
:100F000009F420E0F801218FDBCF2F923F924F921E
:100F10005F926F927F928F929F92AF92BF92CF9289
:100F2000DF92EF92FF920F931F93CF93DF93CDB792
:100F3000DEB72D970FB6F894DEBF0FBECDBFDC0134
:100F40005496ED91FC915597D996DC90D997CF01A5
:100F500003966A3019F5FC018491D80ED996DC927B
:100F6000D997D8961C9281E090E02D960FB6F89410
:100F7000DEBF0FBECDBFDF91CF911F910F91FF90CC
:100F8000EF90DF90CF90BF90AF909F908F907F9029
:100F90006F905F904F903F902F90089532962490DD
:100FA000D8965C90D8975D0124E0A20EB11CF49015
:100FB000FC01E490352C3F0CED0C81E0850D3816DA
:100FC00010F4FF24F394C62E8D01612CCE010196FE
:100FD0004C01462C752C242DA4016C2DC5010E94BA
:100FE000CE067C86DD8691E09B879A868986D8012D
:100FF0001896ED91FC919E01275F3F4F41E06FE015
:10100000C501099543947394731428F3D3946F0C1A
:10101000DE14F8F2F80180AD820D80AFA4CF2091EC
:10102000FC02260F3327331F21323105ECF42091C7
:101030007503FC0190E080E0243069F082E00895BF
:10104000A091FC022191AC0144525D4FA40FB52F39
:10105000B11D2C930196861798F38091FC02680FBE
:101060006093FC0280E0089581E00895109275037A
:1010700081E08093740310924F0361E082E10E944B
:10108000CD0261E083E10E94CD02E9EBF0E08081D6
:101090008E7F808380818D7F808388E48093B800F9
:1010A00085E48093BC000895CF93DF9391E0909303
:1010B000DB028823B9F0C091B800D091BA008091CA
:1010C000BC008A7B8093BC0060E082E10E94CD027C
:1010D00060E083E10E94CD020E943608D093BA00FE
:1010E000C093B800DF91CF9108958F929F92AF92F5
:1010F000BF92CF92DF92EF92FF920F931F93CF9305
:10110000DF93D0919E03D13208F0D7C0182FC09141
:101110009D030E942C036B017C018091750381115A
:101120006BC082E080937503109374038FEF8093FC
:10113000730310927203D0937103ADE7B3E0E1E55E
:10114000F3E080E0D81391C01092500380915003D7
:10115000CC0FC82BC093500380914F03813009F00E
:1011600088C010924F030E942C036B017C01809178
:1011700050038093BB008091770390917803A091F6
:101180007903B0917A03892B8A2B8B2BA1F00E94D3
:101190002C0300917703109178032091790330910B
:1011A0007A036C197D098E099F090617170728070E
:1011B000390708F442C08091BC0083FDD8CF85EC8C
:1011C0008093BC000E942C036B017C01809175030D
:1011D000823009F450C0809173038F3F09F46FC0CF
:1011E00080917303803209F46CC080917303803363
:1011F00009F469C084E026C0809177039091780358
:10120000A0917903B0917A03892B8A2B8B2B09F457
:1012100084CF0E942C038090770390907803A09055
:101220007903B0907A036C197D098E099F0986169F
:101230009706A806B90608F070CF809176030E9441
:10124000540885E010927C0310929E0310927B0359
:10125000DF91CF911F910F91FF90EF90DF90CF9092
:10126000BF90AF909F908F9008959D9191938F5FC5
:1012700069CF85EEA5CF8091770390917803A091F7
:101280007903B0917A03892B8A2B8B2B09F49ECF9B
:101290000E942C0300917703109178032091790329
:1012A00030917A036C197D098E099F09061717077B
:1012B0002807390708F08ACFC0CF81E0C3CF80E08C
:1012C000C1CF82E0BFCF83E0BDCFCF92DF92EF925C
:1012D000FF920F931F93CF93DF93D82FC62F6132C6
:1012E00008F098C00E942C036B017C01809175036B
:1012F00081116BC081E080937503809374039FEF2D
:1013000090937303109272039C0F909371038093D8
:10131000500380915003DD0FD82BD0935003809160
:101320004F03813009F078C010924F030E942C03C4
:101330006B017C01809150038093BB008091770307
:1013400090917803A0917903B0917A03892B8A2B2D
:101350008B2BA1F00E942C0300917703109178034E
:101360002091790330917A036C197D098E099F09C8
:10137000061717072807390708F448C08091BC00F2
:1013800083FDD8CF85EC8093BC000E942C036B01B9
:101390007C0180917503813009F440C08091720313
:1013A0008C1710F4C0917203E1E5F3E0AFE2B3E013
:1013B00080E08C1355C08C2FDF91CF911F910F913E
:1013C000FF90EF90DF90CF900895809177039091F8
:1013D0007803A0917903B0917A03892B8A2B8B2B08
:1013E00009F484CF0E942C030091770310917803B5
:1013F0002091790330917A036C197D098E099F0938
:10140000061717072807390708F070CF8091760371
:101410000E945408C0E0CFCF85EEB5CF809177030E
:1014200090917803A0917903B0917A03892B8A2B4C
:101430008B2B09F4AECF0E942C03009177031091FF
:1014400078032091790330917A036C197D098E0914
:101450009F09061717072807390708F09ACFD6CF34
:1014600091919D938F5FA5CF0895E0912503809181
:101470002403E81730F4F0E0E15DFC4F808190E058
:1014800008958FEF9FEF0895909125038091240395
:101490002FEF3FEF981748F4E92FF0E0E15DFC4FA4
:1014A000208130E09F5F90932503C90108958091CA
:1014B000240390912503891B990B0895CF92DF9205
:1014C000EF92FF920F931F93CF93DF937C01CB0199
:1014D0008A0120917B03222389F0EB016B01C40E6A
:1014E000D51ECC15DD0569F06991D701ED91FC9110
:1014F0000190F081E02DC7010995F3CF642F0E9480
:101500000F08C801DF91CF911F910F91FF90EF90CD
:10151000DF90CF900895CF93DF931F92CDB7DEB7C2
:10152000698320917B032223F9F020919E032032CE
:1015300058F021E030E0FC013383228390E080E02A
:101540000F90DF91CF91089580917C03E82FF0E018
:10155000E358FC4F998190838F5F80937C03809345
:101560009E0381E090E0ECCF61E0CE0101960E9405
:101570000F08F7CF81E00C947508CF93DF93EC014F
:10158000683109F444C030F46431A1F0673159F096
:1015900080E006C0693109F453C06032C9F781E0C8
:1015A000DF91CF91089550E0B9018CE394E00E945F
:1015B0005E0AF5CF8C859D85AE85BF85892B8A2BEC
:1015C0008B2B71F4E881F981A585B0E020EA36E83B
:1015D00041E050E00E94E21C6C877D878E879F87E8
:1015E000109225031092240310927C0310929E0304
:1015F0000E94360884E893E09093210380932003AF
:1016000085E893E09093230380932203C8CF2C8531
:101610003D854E855F8560E074E284EF90E00E9436
:10162000C01C2051310941095109569547953795FC
:1016300027952093B8008E8986950E946902AFCFC6
:101640008CE394E00E94BA0AAACFFF920F931F93F3
:10165000CF93DF93EC01F62E142F052F8B810E9480
:10166000690289819A81DC01ED91FC910190F08100
:10167000E02D60E0099589819A81DC01ED91FC9172
:101680000190F081E02D6F2D099589819A81DC010F
:10169000ED91FC910190F081E02D602F09958981F9
:1016A0009A81DC01ED91FC910190F081E02D612F98
:1016B000099589819A810E94BA0A8883DF91CF9126
:1016C0001F910F91FF900895FF920F931F93CF9357
:1016D000DF93EC01062FF72E142F8B810E946902F5
:1016E00089819A81DC01ED91FC910190F081E02DDE
:1016F0006F2D099589819A81DC01ED91FC91019012
:10170000F081E02D602F099589819A81DC01ED91AE
:10171000FC910190F081E02D612F099589819A81DA
:101720000E94BA0A8883DF91CF911F910F91FF9099
:1017300008950F931F93CF93DF93EC01062F142F7F
:1017400088E60E94690288819981DC01ED91FC9113
:101750000190F081E02D602F099588819981DC014D
:10176000ED91FC910190F081E02D612F0995888128
:101770009981DF91CF911F910F910C94BA0ACF926A
:10178000DF92EF92FF920F931F93CF93DF936C0141
:10179000EB017B01E40EF51E10E000E0CE15DF0545
:1017A00061F06991D601ED91FC910190F081E02DFD
:1017B000C6010995080F191FF1CFC801DF91CF911C
:1017C0001F910F91FF90EF90DF90CF9008952F928F
:1017D0003F924F925F926F927F928F929F92AF92C1
:1017E000BF92CF92DF92EF92FF920F931F93CF930E
:1017F000DF93CDB7DEB72A970FB6F894DEBF0FBEE2
:10180000CDBF9A8789874A015B0109831A832B839D
:101810003C83FE82ED82D886CF82A9019801CB015C
:10182000B4010E94881FE985FA852485358546859F
:1018300057850E94171D1B018C01E985FA85448894
:1018400055886688778873016201F7FAF094F7F893
:10185000F094A70196010E94F51D87FD0CC0A3011D
:101860009201B101C8010E947B1F61017801181625
:1018700014F473016201E985FA85C486D586E6868B
:10188000F7862089318942895389C501B4010E94B4
:10189000161D29813A814B815C810E94FA1D2B0122
:1018A0003C01E985FA85808A918AA28AB38A2081DF
:1018B000318142815381C501B4010E94881F4B01CF
:1018C0005C01E985FA852481358146815781C7010C
:1018D000B6010E94881F9B01AC01C501B4010E94A2
:1018E000171D6B017C01E985FA85208531854285CC
:1018F0005385C301B2010E94881F9B01AC01C7013F
:10190000B6010E94171D5B01D82EF92E2D813E8154
:10191000B901330F880B990B0E94A41E8B018D8394
:1019200099839B01AC01B5018D2D9F2D0E94F51D62
:1019300087FD17C0EF81F885BF01FF0F880B990B5A
:101940000E94A41E8B018D8399839B01AC01B5017C
:101950008D2D9F2D0E947B1F18161CF08501DD82A6
:10196000F982B8018D8199810E946C1ECB012A9663
:101970000FB6F894DEBF0FBECDBFDF91CF911F91A0
:101980000F91FF90EF90DF90CF90BF90AF909F901E
:101990008F907F906F905F904F903F902F90089521
:1019A000CF93DF93EC018B810E94A402019781F415
:1019B0008D819E81AF81B8850196A11DB11D8D835A
:1019C0009E83AF83B88781E08C83DF91CF910895A8
:1019D0008D819E81AF81B8850197A109B1098D8361
:1019E0009E83AF83B8878FEFEFCF8091C201909134
:1019F000C301009711F00C94D00C08958091C001A0
:101A00009091C101009711F00C94D00C08950F93A0
:101A10001F93CF93DF938C01EB01FC01818161E087
:101A2000D7FD60E00E94CD02F801108161E0812FB6
:101A30000E94FB02209741F460E0812FDF91CF915B
:101A40001F910F910C94CD02D7FF03C0D195C19582
:101A5000D109CF3FD10511F461E0EFCFE12FF0E0E4
:101A6000EC5CFB4FE491E33039F140F4E130B1F04C
:101A7000E230E9F0C038D1057CF7DECFE73031F154
:101A8000E83061F1E430B1F78091800080628093AA
:101A90008000D0938B00C0938A0004C084B5806816
:101AA00084BDC7BDDF91CF911F910F91089584B57B
:101AB000806284BDC8BDF6CF80918000806880932D
:101AC0008000D0938900C0938800ECCF8091B00053
:101AD00080688093B000C093B300E4CF8091B000E1
:101AE00080628093B000C093B400DCCF089590E092
:101AF00080E008951F93CF93DF93EC01162F8B8125
:101B00000E94690289819A81DC01ED91FC9101902A
:101B1000F081E02D60E0099589819A81DC01ED91E9
:101B2000FC910190F081E02D612F099589819A81C6
:101B30000E94BA0A888361E08B810E946509109235
:101B400025038093240389819A81DC01ED91FC9126
:101B50000284F385E02D0995DF91CF911F910895BF
:101B6000FF920F931F93CF93DF93EC01862FF42EF8
:101B700061E00E94CD0262E370E080E090E00E94AC
:101B8000510364E270E0CE010E947A0D8D8366E11C
:101B900070E0CE010E947A0D813009F03EC18C8345
:101BA00041E067E072E0CE010E94640B41E068E032
:101BB00072E0CE010E94640B40E066E970E0CE0165
:101BC0000E94640B4DEF67E970E0CE010E94640B48
:101BD00041E063EE70E0CE010E94640B43E064EEEE
:101BE00070E0CE010E94640B42E065EE70E0CE0131
:101BF0000E94640B41E066EE70E0CE010E94640B2F
:101C000043E067EE70E0CE010E94640B42E065EFB6
:101C100070E0CE010E94640B45E069ED70E0CE01FA
:101C20000E94640B4EEC6BED70E0CE010E94640BE1
:101C300043E06CED70E0CE010E94640B48EF6DED67
:101C400070E0CE010E94640B40E06FE970E0CE01CD
:101C50000E94640B4CE363EA70E0CE010E94640BC7
:101C600040E067EB70E0CE010E94640B4CE36BEB4D
:101C700070E0CE010E94640B49E062EB70E0CE019F
:101C80000E94640B49E06AEC70E0CE010E94640B94
:101C900041E068E971E0CE010E94640B47E160EB2E
:101CA00071E0CE010E94640B40E06DEA71E0CE016C
:101CB0000E94640B45E06FEF70E0CE010E94640B60
:101CC00045E060E071E0CE010E94640B45E069E907
:101CD00071E0CE010E94640B4BE166EA71E0CE0137
:101CE0000E94640B4EE36CEA71E0CE010E94640B2B
:101CF0004FE167EA71E0CE010E94640B40E060E3CF
:101D000070E0CE010E94640B40E066E170E0CE011D
:101D10000E94640B4F2D4F7762E172E0CE010E946A
:101D2000640BFB8240E36AE071E0CE010E94640B29
:101D300046E46FE370E0CE010E94640B4FEF61E375
:101D400070E0CE010E94640B43E650E060E470E076
:101D5000CE010E94250B41E06EE270E0CE010E94B0
:101D6000640B49E06BE170E0CE010E94640B41E33B
:101D70006EE370E0CE010E94640B44E264E170E027
:101D8000CE010E94640B41E36CE170E0CE010E9441
:101D9000640B40E063EA72E0CE010E94640B81E0D4
:101DA0008C834DEF50E066E970E0CE010E94250B78
:101DB0008D81082E000C990B6C8170E00E94AC1C88
:101DC000462F64E270E0CE010E94640B6C8170E0EB
:101DD00084E190E00E94AC1C462F61E270E0CE01ED
:101DE0000E94640B6DE270E0CE010E947A0D41E02A
:101DF0009C81913009F040E08E7F482B6DE270E0CD
:101E0000CE010E94640B8AEF90E09F838E83DF9166
:101E1000CF911F910F91FF9008958B810E946902CD
:101E200089819A81DC01ED91FC910190F081E02D96
:101E300060E0099589819A81DC01ED91FC91019026
:101E4000F081E02D66E9099589819A810E94BA0A9C
:101E5000888362E08B810E9465091092250380933C
:101E6000240389819A81DC01ED91FC910284F38540
:101E7000E02D099500E0182F89819A81DC01ED9110
:101E8000FC910284F385E02D0995802B912B8435FC
:101E9000910549F483E08C838D819C81899F802DFD
:101EA00011248D8337CF8F37910511F482E0F3CF62
:101EB00081E0F1CF9F92AF92BF92CF92DF92EF92EB
:101EC000FF920F931F93CF93DF93CDB7DEB72E977B
:101ED0000FB6F894DEBF0FBECDBF8C0188E60E941E
:101EE0006902D8018D919C91DC01ED91FC910190EA
:101EF000F081E02D6BE3099580E00E9475086EE0AB
:101F000088E60E9465091092250380932403FE0150
:101F100031967F015E01FFE0AF0EB11CD8018D91BB
:101F20009C91DC01ED91FC910284F385E02D0995F3
:101F3000982EF80180819181DC01ED91FC91028461
:101F4000F385E02D0995C12C8C299929F7018193FE
:101F500091937F01AE16BF0609F7D8011696CD9072
:101F6000DD90ED90FC90199769817A81072E000C25
:101F7000880B990B0E94A41EA70196010E94FA1DCE
:101F8000F80126893789408D518D0E94161DD80190
:101F900096966D937D938D939C9399976B817C819D
:101FA000072E000C880B990B0E94A41EA701960116
:101FB0000E94FA1DF801228D338D448D558D0E94AB
:101FC000161DD8019A966D937D938D939C939D9742
:101FD0006D817E81072E000C880B990B0E94A41E38
:101FE000A70196010E94FA1DF801268D378D40A1A8
:101FF00051A10E94161DD8019E966D937D938D93DD
:102000009C93D1976F817885072E000C880B990BD4
:102010000E94A41E20E030EF41E456E40E94171D08
:1020200020E030E04AEA53E40E94FA1DF80162A37E
:1020300073A384A395A3C280D380E480F5806985CF
:102040007A85072E000C880B990B0E94A41EA7010D
:1020500096010E94FA1DD8011A962D913D914D913D
:102060005C911D970E94161DF80162AB73AB84ABA7
:1020700095AB6B857C85072E000C880B990B0E9415
:10208000A41EA70196010E94FA1DD8011E962D914B
:102090003D914D915C9151970E94161DF80166ABE0
:1020A00077AB80AF91AF6D857E85072E000C880BD6
:1020B000990B0E94A41EA70196010E94FA1DD80147
:1020C00052962D913D914D915C9155970E94161D10
:1020D000F80162AF73AF84AF95AF2E960FB6F89448
:1020E000DEBF0FBECDBFDF91CF911F910F91FF904B
:1020F000EF90DF90CF90BF90AF909F900895CF92D8
:10210000DF92EF920F931F93CF93DF93EC016B015C
:10211000842F488329830A83EB821C821D821E82BE
:102120001F82188661E00E94FB0261E089810E94A3
:10213000FB02188161E0812F0E94FB0260E0812F89
:102140000E94CD0260E089810E94CD0262E08A8116
:102150000E94FB0262E08B810E94FB028A81CD28F3
:10216000C1F4D093C101C093C001823071F08330BB
:1021700071F08FEF6EEF7CE0DF91CF911F910F91A7
:10218000EF90DF90CF900C944F0280E0F3CF81E08E
:10219000F1CFD093C301C093C201823031F08330BC
:1021A00031F08FEF65EF7CE0E7CF80E0FBCF81E09F
:1021B000F9CFCF92DF92EF92FF920F931F93CF93BD
:1021C0008091D3028111ABC187E0E82E02E02CE0C0
:1021D0004BE070E060E084EC91E00E947F1098E0BA
:1021E000E92E03E02AE049E061E070E08DEC91E047
:1021F0000E947F108CE394E09093D7018093D601E6
:1022000048E451EE6AE77FE340932C0250932D029D
:1022100060932E0270932F021092E0011092E10160
:102220001092E2011092E3011092E4011092E50194
:102230001092E6011092E7011092E8011092E90174
:102240001092EA011092EB011092EC011092ED0154
:102250001092EE011092EF011092F0011092F10134
:102260001092F2011092F3011092F4011092F50114
:102270001092F6011092F70140E050E060EC70E43B
:1022800040933002509331026093320270933302D4
:1022900043E353E363EB7EE3409334025093350210
:1022A000609336027093370200E010E020E03FE3D5
:1022B000009338021093390220933A0230933B0284
:1022C00010923C0210923D0210923E0210923F0288
:1022D0001092400210924102109242021092430268
:1022E00040E050E068EC72E44093440250934502B1
:1022F0006093460270934702C12CD12CECE5EE2E80
:10230000E2E4FE2EC0924802D0924902E0924A02D4
:10231000F0924B02FAE9CF2EF9E9DF2EED2CFEE325
:10232000FF2EC0924C02D0924D02E0924E02F092EB
:102330004F02AAE9CA2EA9E9DA2EA9E1EA2EAEE3F4
:10234000FA2EC0925002D0925102E0925202F092C4
:10235000530210925402109255021092560210929B
:102360005702109258021092590210925A0210927B
:102370005B0240935C0250935D0260935E02709337
:102380005F02C12CD12CB0E2EB2EB1E4FB2EC09247
:102390006002D0926102E0926202F09263021092B7
:1023A0006402109265021092660210926702009316
:1023B00068021093690220936A0230936B021092B4
:1023C0006C0210926D0210926E0210926F021092C7
:1023D0007002109271021092720210927302409376
:1023E000740250937502609376027093770220E135
:1023F0002093780224E5209379022EE020937A023C
:1024000025E520937B022FE020937C0226E5209394
:102410007D029093800280937F0229E220938102C3
:10242000109282021092830210928502109284020E
:1024300010928602909389028093880220938A02E8
:1024400010928B0210928C0210928E0210928D02CA
:1024500010928F02909392028093910220939302A4
:102460001092940210929502109297021092960286
:102470001092980210929C0210929B021092D1022C
:102480001092D20288E091E090939A028093990290
:1024900010929E0210929D021092B2021092B5020A
:1024A0001092A9021092AA021092AB021092AC02F2
:1024B0008FEF8093B3028093B702EBEBF2E081EDF4
:1024C00092E0CFEFC1938E179F07E1F78FE695E07B
:1024D0009093A2028093A10284E696E09093A402D6
:1024E0008093A3028DEB9AE09093A6028093A502BD
:1024F0008BE197E09093A8028093A70230E020E060
:1025000040E069E08DE992E00E946F05C093C60249
:10251000C093C702C093C80281E08093D30284ECC9
:1025200091E0CF911F910F91FF90EF90DF90CF90AE
:1025300008952F923F924F925F926F927F928F9267
:102540009F92AF92BF92CF92DF92EF92FF920F9342
:102550001F93CF93DF93CDB7DEB72A970FB6F894CA
:10256000DEBF0FBECDBF1C010E945A0FF101C6A4F1
:10257000D7A4E0A8F1A8A7019601C701B6010E945F
:10258000881F69837A838B839C83F10186A097A03F
:10259000A0A4B1A4A5019401C501B4010E94881FA3
:1025A00029813A814B815C810E94171D0E94FB1F8B
:1025B0006D837E838F839887F10142A453A464A422
:1025C00075A401E010E020E030E0A901C701B601E8
:1025D0000E947B1F87FF02C010E000E021E030E096
:1025E0003A87298720E030E0A901C701B6010E949F
:1025F000F51D87FD02C01A861986B80149855A85DE
:10260000641B750B072E000C880B990B0E94A41EEF
:102610002D813E814F8158850E94881F9B01AC010E
:10262000C301B2010E94961DF101FE96FA87E98767
:1026300021EE3EE245E652E40E94881FE985FA85D4
:102640006083718382839383A3019201C301B201EA
:102650000E94881F29813A814B815C810E94171D4D
:102660000E94FB1F9B01AC01C501B4010E94961D95
:1026700091012E5B3F4F3A832983905821EE3EE231
:1026800045E652E40E94881FE981FA8160837183E4
:10269000828393838FB7F89480902B0390902C03C0
:1026A000A0902D03B0902E038FBF81010E5A1F4FB3
:1026B000F80180819181A281B381A5019401281B39
:1026C000390B4A0B5B0BCA01B9010E94A21E2FE60F
:1026D00032E143E85AE30E94881F6B017C01F80154
:1026E00080829182A282B382349680809180A2807F
:1026F000B380A501940160E070E080E89FE30E9450
:10270000161D2B013C010C501109F10122A933A91E
:1027100044A955A9C701B6010E94881FF80120816C
:102720003181428153810E94171DA50194010E94AD
:10273000881F6D837E838F839887E985FA85208142
:10274000318142815381C301B2010E94881F9B01E4
:10275000AC016D817E818F8198850E94171DF801E3
:1027600060837183828393839101265B3F4F3E8315
:102770002D83F10126A937A940AD51ADC701B6019E
:102780000E94881FED81FE81208131814281538129
:102790000E94171DA50194010E94881F4B015C0136
:1027A000E981FA812081318142815381C301B201E3
:1027B0000E94881F9B01AC01C501B4010E94171D36
:1027C000ED81FE8160837183828393839101225B1B
:1027D0003F4F3A832983F10122AD33AD44AD55AD6E
:1027E000C701B6010E94881FE981FA8120813181E9
:1027F000428153810E94171DE981FA8160837183B0
:10280000828393832A960FB6F894DEBF0FBECDBFA6
:10281000DF91CF911F910F91FF90EF90DF90CF90BC
:10282000BF90AF909F908F907F906F905F904F90F0
:102830003F902F9008952F923F924F925F926F9208
:102840007F928F929F92AF92BF92CF92DF92EF9240
:10285000FF920F931F93CF93DF93CDB7DEB76897A7
:102860000FB6F894DEBF0FBECDBF9B838A834F8720
:10287000588B698B7A8B0E94D9101C01EA81FB81ED
:102880001486158616861786108A118A128A138A6C
:102890009C012E5E3F4F3E832D83C9010E949912F9
:1028A000F101E85AFF4FD101A05BBF4F8D919D917F
:1028B0000D90BC91A02D80839183A283B383349625
:1028C000D101AC5ABF4F8D919D910D90BC91A02D1F
:1028D00080839183A283B383A101405A5F4F5C8BB5
:1028E0004B8BFA0110821182128213822FB7F89457
:1028F00080912B0390912C03A0912D03B0912E0376
:102900002FBF349680839183A283B3830E942C03CC
:102910006F83788789879A87EB89FC892081318149
:10292000428153816F85788989899A890E94161D11
:102930006B017C018F809884A984BA84412C512C2E
:1029400032019101275F3F4F3E8B2D8B20E030E01D
:1029500040E05FE3C701B6019F770E947B1F181616
:1029600064F020E030E040E751E4C301B2019F771A
:102970000E947B1F18160CF066C00E942C032F814A
:10298000388549855A85621B730B840B950B603C17
:10299000764C8D42910508F056C00E942C036B873F
:1029A0007C878D879E87681979098A099B090E940F
:1029B000A21E2DEB37E346E855E30E94881F4B012A
:1029C0005C018D819E810E949912EB89FC89208196
:1029D0003181428153816F85788989899A890E94E2
:1029E000161D688F7F8B89839C8320E030E0A901CE
:1029F000C501B4010E947B1F18160CF447C080E586
:102A0000C82ED12C90EBE92EFF24FA949501840175
:102A1000488D5F8969817C818A819B810E94E70B57
:102A20007C01BC01C1010E94070DB7018D899E89FF
:102A30000E94070DC88CDF88E980FC808B849C8411
:102A4000AD84BE8483CF70E060E0C1010E94070DB9
:102A500070E060E0C101099668960FB6F894DEBF99
:102A60000FBECDBFDF91CF911F910F91FF90EF90DF
:102A7000DF90CF90BF90AF909F908F907F906F909E
:102A80005F904F903F902F900C94070DA7019601F7
:102A9000688D7F8989819C810E94161DA501940102
:102AA0000E94FA1D2B013C01AACF85ED8093BC004A
:102AB0008091770390917803A0917903B0917A0384
:102AC0000796A11DB11D23E0B695A795979587950B
:102AD0002A95D1F72091BC0024FD03C01092750304
:102AE0000895409177035091780360917903709134
:102AF0007A03452B462B472B69F30097A105B105B7
:102B000041F02AE22A95F1F700C00197A109B10925
:102B1000E1CF809176030C9454081F920F920FB668
:102B20000F9211242F933F938F939F93AF93BF9353
:102B300080912B0390912C03A0912D03B0912E0333
:102B40003091260323E0230F2D3758F50196A11D60
:102B5000B11D2093260380932B0390932C03A09305
:102B60002D03B0932E038091270390912803A09109
:102B70002903B0912A030196A11DB11D809327035B
:102B800090932803A0932903B0932A03BF91AF9198
:102B90009F918F913F912F910F900FBE0F901F909B
:102BA000189526E8230F0296A11DB11DD2CF1F92C2
:102BB0000F920FB60F9211242F933F934F935F9371
:102BC0006F937F938F939F93AF93BF93EF93FF93F5
:102BD000E0910201F09103010995FF91EF91BF91FE
:102BE000AF919F918F917F916F915F914F913F91A5
:102BF0002F910F900FBE0F901F9018951F920F925C
:102C00000FB60F9211242F933F934F935F936F93BF
:102C10007F938F939F93AF93BF93EF93FF93E09135
:102C20000001F09101010995FF91EF91BF91AF91E2
:102C30009F918F917F916F915F914F913F912F91D4
:102C40000F900FBE0F901F9018951F920F920FB606
:102C50000F9211242F933F934F935F936F937F9322
:102C60008F939F93AF93BF93EF93FF938FE993E07D
:102C70000E940504FF91EF91BF91AF919F918F91B9
:102C80007F916F915F914F913F912F910F900FBE68
:102C90000F901F9018951F920F920FB60F9211244C
:102CA0002F938F939F93EF93FF93E091AF03F09156
:102CB000B0038081E091B503F091B60382FD1BC0A3
:102CC00090818091B8038F5F8F732091B903821731
:102CD00041F0E091B803F0E0E156FC4F958F80930E
:102CE000B803FF91EF919F918F912F910F900FBE9D
:102CF0000F901F9018958081F4CF1F920F920FB6FE
:102D00000F9211242F933F934F935F936F937F9371
:102D10008F939F93AF93BF93EF93FF938091B900ED
:102D2000887F803609F44AC0F0F5883209F4A7C0DC
:102D300018F5803109F49BC0B8F4882309F4F9C070
:102D4000883009F494C0FF91EF91BF91AF919F91AA
:102D50008F917F916F915F914F913F912F910F9044
:102D60000FBE0F901F901895883109F488C08032EB
:102D700051F78093730314C0803409F49DC040F46C
:102D80008033B9F38833F9F68093730385ECB0C0D0
:102D9000803509F485C0883509F496C0883499F6E1
:102DA0000E945515D0CF883909F48CC038F5883782
:102DB00029F050F4883611F0803729F683E08093AB
:102DC000750310921E0357C0883809F47BC0803900
:102DD00019F0803809F0B7CF80911E03803208F0D7
:102DE00071C0E0911E0381E08E0F80931E038091DD
:102DF000BB00F0E0E250FD4F80833DC0803B39F0E6
:102E0000E0F4803A09F479C0883A09F09CCF84E074
:102E1000809375031092FD021092FC02E091200352
:102E2000F091210309958091FC0281110FC081E08E
:102E30008093FC021092DC0209C0803C09F4A6CF0A
:102E4000883C09F4A3CF883B09F07DCFE091FD02D7
:102E500081E08E0F8093FD02F0E0E452FD4F80810F
:102E60008093BB009091FD028091FC0229C080916B
:102E700050038093BB0085EC8093BC0064CF90919D
:102E8000720380917103981758F5E091720381E005
:102E90008E0F80937203F0E0EF5AFC4F8081E9CFF0
:102EA000E091720381E08E0F809372038091BB00EA
:102EB000F0E0EF5AFC4F8083909172038091710390
:102EC0009817C8F285E8D8CFE091720381E08E0FA1
:102ED000809372038091BB00F0E0EF5AFC4F808337
:102EE0008091740381115CCF81E080934F0384EA69
:102EF0008093BC001092750326CF85EC8093BC00B4
:102F00001092750380911E03803230F4E0911E030D
:102F1000F0E0E250FD4F108260911E0370E0E091FE
:102F20002203F09123038EEF92E0099510921E0385
:102F30000ACF1092730334CFEFE9F3E013821282C9
:102F400088EE93E0A0E0B0E084839583A683B78306
:102F500029E731E03183208325EC30E03587248771
:102F600024EC30E03787268720EC30E0318B208B53
:102F700021EC30E0338B228B22EC30E0358B248B3C
:102F800026EC30E0378B268B118E128E138E148E2A
:102F9000ECE3F4E01382128284839583A683B783E3
:102FA0008BE891E091838083E8E4F4E08DEC9CEC85
:102FB000ACE4BFE380839183A283B3831482158240
:102FC000168217821086118612861386148615863D
:102FD00016861786108A118A128A138A80E090E07A
:102FE000A8ECB2E4848B958BA68BB78B0895CF9316
:102FF000DF93CDB7DEB7A8970FB6F894DEBF0FBE4C
:10300000CDBF789484B5826084BD84B5816084BD71
:1030100085B5826085BD85B5816085BD80916E0076
:10302000816080936E0010928100809181008260A7
:1030300080938100809181008160809381008091E4
:1030400080008160809380008091B10084608093D3
:10305000B1008091B00081608093B00080917A00CF
:10306000846080937A0080917A00826080937A00F5
:1030700080917A00816080937A0080917A008068E4
:1030800080937A001092C100E091AF03F091B003F9
:1030900082E08083E091AB03F091AC031082E09179
:1030A000AD03F091AE038FEC80831092B703E091F3
:1030B000B303F091B40386E08083E091B103F09113
:1030C000B203808180618083E091B103F091B2030B
:1030D000808188608083E091B103F091B2038081A8
:1030E00080688083E091B103F091B20380818F7D8D
:1030F0008083109225031092240310927C03109277
:103100009E030E94360884E893E090932103809305
:10311000200385E893E090932303809322030E9489
:10312000D9108C015C0125EDA20EB11C750134E0B3
:10313000E30EF11C4C0149ED840E911CD401149650
:10314000ED91FC9130E020E040E06AE0C701099594
:1031500048E0742EFE0131966F01DF01E72D1D92CC
:10316000EA95E9F7B601C7010E94C104D40114969B
:10317000ED91FC9130E020E040E06BE0C701099563
:1031800086E990E0F401918B808BD6011D927A94B0
:10319000E9F7B601C7010E94C104F50110AE11AEF6
:1031A0007801F4EBEF0EF11C61E0D7018C910E94E5
:1031B000FB0261E0F70182810E94FB0261E0D7011E
:1031C00014968C910E94FB0260E0F70180810E94BE
:1031D000CD0260E0D70112968C910E94CD0260E092
:1031E000F70184810E94CD0262E370E080E090E00C
:1031F0000E945103D7016C9170E011964C91C70168
:1032000006960E94B00DF701628170E04381C7010C
:103210000F960E94B00DD70114966C91149770E030
:1032200015964C91C70148960E94B00D64EF71E06D
:1032300080E090E00E9451031801B2E12B0E311C96
:1032400040E069E1C1010E94990B40E06AE1C101DF
:103250000E94990B80E090E0A3E8B2E4F801848B2F
:10326000958BA68BB78B48E06BE1C1010E94990B4F
:1032700080E090E0A0E8B6E4F801808F918FA28F03
:10328000B38F40E06CE1C1010E94990B41E06BE615
:10329000C1010E94990BF82EC1010E949912F801F8
:1032A000E85AFF4FD801A05BBF4F8D919D910D90C3
:1032B000BC91A02D80839183A283B3833496D801DF
:1032C000AC5ABF4F8D919D910D90BC91A02D8083E4
:1032D0009183A283B3832FB7F89480912B039091AD
:1032E0002C03A0912D03B0912E032FBF389680831D
:1032F0009183A283B383FF2029F08AE993E00E949F
:103300007404FFCF88E60E9469026BE18CE394E0CD
:103310000E948B0A68E08CE394E00E948B0A8CE3A5
:1033200094E00E94BA0AD8015C961D921D921D92EB
:103330001C925F97F80110A211A212A213A29496F8
:103340001D921D921D921C92979710A611A612A66F
:1033500013A69C961D921D921D921C929F9710AAD7
:1033600011AA12AA13AA24EF31E03E8B2D8B198AE1
:103370001A8A1B8A1C8A19861A861B861C861D8639
:103380001E861F86188AC12CD12C76014601570152
:1033900026013701A801405C5F4F588F4F8BC80151
:1033A0008C5B9F4F9A8F898FA85BBF4FBC8FAB8F71
:1033B000E45BFF4FFE8FED8FC1010E945A0FD801D1
:1033C000D8962D913D914D915C91DB97C301B2014F
:1033D0000E94171D2B013C01F80124AD35AD46AD0F
:1033E00057ADC501B4010E94171D4B015C0120E0DF
:1033F00030E040E85FE3AF89B88D6D917D918D91AC
:103400009C910E94161D9B01AC01C701B6010E9450
:10341000171D6B017C01E98DFA8D2081318142817C
:1034200053816D857E858F8598890E94171D6D87D4
:103430007E878F87988BAB8DBC8D2D913D914D9163
:103440005C9169857A858B859C850E94171D6987AB
:103450007A878B879C87ED8DFE8D2081318142811B
:10346000538169897A898B899C890E94171D698B90
:103470007A8B8B8B9C8B61E070E080E090E00E9407
:1034800051032D893E89215031093E8B2D8B232BF1
:1034900009F092CF20E030E04AEF53E4C301B201DB
:1034A0000E94FA1DD80198966D937D938D939C93FD
:1034B0009B9720E030E04AEF53E4C501B4010E943D
:1034C000FA1DF80164A775A786A797A720E030E04A
:1034D0004AEF53E4C701B6010E94FA1DD801D09605
:1034E0006D937D938D939C93D39720E030E04AEFCA
:1034F00053E46D857E858F8598890E94FA1DF801B9
:10350000648F758F868F978F20E030E04AEF53E409
:1035100069857A858B859C850E94FA1DD8019096D5
:103520006D937D938D939C93939720E030E04AEFC9
:1035300053E469897A898B899C890E94FA1DF80174
:1035400064A375A386A397A387EB93E00E947404FA
:103550000E94D91027EC33E0388F2F8BAC014459EF
:103560005F4F5EA34DA3DC01A456BF4FBA8BA98B5E
:10357000FC01EC57FF4FFE8BED8BAF89B88D8D9121
:10358000B88FAF8B882309F4E6C18C3609F4DDC10E
:10359000823709F4D1C1863609F0DCC10E94D91006
:1035A0001C01F894FC01158216821782108678940B
:1035B0009C01275F3F4F3A8F298FF8941686178614
:1035C000108A118A7894ED89FE89148615861686EC
:1035D0001786108A118A128A138AE989FA89148651
:1035E000158616861786108A118A128A138AFC019C
:1035F0007296FC8FEB8FCF010E949912F101E85A6D
:10360000FF4FD101A05BBF4F8D919D910D90BC915B
:10361000A02D80839183A283B3833496D101AC5AC9
:10362000BF4F8D919D910D90BC91A02D8083918372
:10363000A283B3838101005A1F4FD8011D921D92AE
:103640001D921C9213972FB7F89480912B039091A1
:103650002C03A0912D03B0912E032FBF38968083A9
:103660009183A283B3830E942C036D8F7E8F8F8FF3
:1036700098A3F894F101668577858089918978947B
:10368000F89485809680A780B08478940E94A41EC8
:103690002BED3FE049EC50E40E94881F20E030E031
:1036A0004FE254E40E94FA1D6B017C01C501B40194
:1036B0000E94A41E2BED3FE049EC50E40E94881FBD
:1036C00020E030E04FE254E40E94FA1D9B01AC017F
:1036D000C701B6010E94161D20E030E040E05FE324
:1036E0000E94881F9B01AC0160E070E080E391E4E0
:1036F0000E94161D69877A878B879C87CD8CDE8C0C
:10370000EF8CF8A019A21AA21BA21CA218A70FA343
:103710002DEC3CEC4CE45EE369857A858B859C85D9
:103720009F770E947B1F181674F020E030E040E283
:1037300050E469A17AA18BA19CA19F770E947B1F75
:1037400018160CF0DAC00E942C032D8D3E8D4F8D83
:1037500058A1621B730B840B950B6038734C894C1A
:10376000914008F0CAC00E942C036D877E878F8726
:10377000988B6C197D098E099F090E94A21E2DEB62
:1037800037E346E855E30E94881F4B015C01F8943B
:10379000D1011E966D917D918D919C915197789458
:1037A000F894F101458056806780708478940E9477
:1037B000A41E2BED3FE049EC50E40E94881F20E05E
:1037C00030E04FE254E40E94FA1D6B017C01C3011A
:1037D000B2010E94A41E2BED3FE049EC50E40E9490
:1037E000881F20E030E04FE254E40E94FA1D9B0164
:1037F000AC01C701B6010E94161D20E030E040E098
:103800005FE30E94881F9B01AC0160E070E080E3F1
:1038100091E40E94161D762E672E582E492E20E028
:1038200030E0A901C501B4010E947B1F18160CF4F9
:1038300070C080E5C82ED12C90EBE92EFF24FA94BD
:1038400095018401472D562D652D742D8D899E89F6
:103850000E94E70B9A8789878B8D9C8D0E94991215
:10386000AFA1B8A52D913D914D915C9160E070E0C4
:10387000CB010E94161DAB01BC012CE3C22ED12C42
:1038800034ECE32EFF24FA94950189899A890E94E9
:10389000E70B8C01BC01E985FA856E1B7F0B653651
:1038A000710514F064E670E06C39FFEF7F0714F4E3
:1038B0006CE97FEFC1010E94070D69857A85600F71
:1038C000711F6536710514F064E670E06C392FEFF6
:1038D000720714F46CE97FEF898D9A8D0E94070DB1
:1038E000872D962DA52DB42D89879A87AB87BC8708
:1038F000CD84DE84EF84F8880BCF70E060E0C101F6
:103900000E94070D70E060E0898D9A8D0E94070D7E
:1039100034CE29853A854B855C85672D762D852D9E
:10392000942D0E94161DA50194010E94FA1D69A301
:103930007AA38BA39CA37DCF40E050E064EB72ECB4
:103940008DA19EA10E941B1418CE40E050E064EBB4
:1039500072E4F6CFFFCFFFCF97FB072E16F400944B
:1039600007D077FD09D00E94ED1C07FC05D03EF47E
:10397000909581959F4F0895709561957F4F08951B
:10398000A1E21A2EAA1BBB1BFD010DC0AA1FBB1F63
:10399000EE1FFF1FA217B307E407F50720F0A21BD5
:1039A000B30BE40BF50B661F771F881F991F1A9442
:1039B00069F760957095809590959B01AC01BD016C
:1039C000CF0108950E94071DA59F900DB49F900DF3
:1039D000A49F800D911D11240895AA1BBB1B51E1CA
:1039E00007C0AA1FBB1FA617B70710F0A61BB70B6F
:1039F000881F991F5A95A9F780959095BC01CD0114
:103A00000895EE0FFF1F0590F491E02D0994A29FF9
:103A1000B001B39FC001A39F700D811D1124911DA2
:103A2000B29F700D811D1124911D08955058BB2720
:103A3000AA270E942E1D0C94411F0E94331F38F0AC
:103A40000E943A1F20F039F49F3F19F426F40C9499
:103A5000091F0EF4E095E7FB0C94031FE92F0E9469
:103A6000521F58F3BA17620773078407950720F0AF
:103A700079F4A6F50C94741F0EF4E0950B2EBA2F72
:103A8000A02D0B01B90190010C01CA01A001112464
:103A9000FF27591B99F0593F50F4503E68F11A1610
:103AA000F040A22F232F342F4427585FF3CF4695A1
:103AB00037952795A795F0405395C9F77EF41F16C3
:103AC000BA0B620B730B840BBAF09150A1F0FF0F8D
:103AD000BB1F661F771F881FC2F70EC0BA0F621F79
:103AE000731F841F48F4879577956795B795F79569
:103AF0009E3F08F0B0CF9395880F08F09927EE0FFE
:103B00009795879508950E94331F60F080E891E0B3
:103B100009F49EEF0E943A1F28F040E851E071F44A
:103B20005EEF0CC00C94091F0C94741FE92FE07811
:103B30000E94521F40F3092E052AB1F326173707BA
:103B40004807590738F00E2E07F8E02569F0E02500
:103B5000E0640AC0EF6307F8009407FADB01B901DB
:103B60009D01DC01CA01AD01EF930E94111E0E946C
:103B7000411F0E94C61D5F91552339F02BED3FE098
:103B800049E450FD49EC0C94171D0895DF93DD279F
:103B9000B92FBF7740E85FE31616170648075B07A3
:103BA00018F4D92F0E94801F9F938F937F936F9358
:103BB0000E943B20E8E6F0E00E940C1F0E94411F9B
:103BC0002F913F914F915F910E949B1FDD2351F0F8
:103BD0009058A2EA2AED3FE049EC5FE3D0785D27F8
:103BE0000E942E1DDF910C94411F0E94DF1E08F4DD
:103BF00081E008950E940E1E0C94411F0E943A1FFE
:103C000058F00E94331F40F029F45F3F29F00C94D4
:103C1000031F51110C94751F0C94091F0E94521F11
:103C200068F39923B1F3552391F3951B550BBB27EB
:103C3000AA2762177307840738F09F5F5F4F220F30
:103C4000331F441FAA1FA9F335D00E2E3AF0E0E827
:103C500032D091505040E695001CCAF72BD0FE2F71
:103C600029D0660F771F881FBB1F26173707480705
:103C7000AB07B0E809F0BB0B802DBF01FF279358BD
:103C80005F4F3AF09E3F510578F00C94031F0C945F
:103C9000751F5F3FE4F3983ED4F38695779567955B
:103CA000B795F7959F5FC9F7880F911D96958795F2
:103CB00097F90895E1E0660F771F881FBB1F621711
:103CC00073078407BA0720F0621B730B840BBA0BCF
:103CD000EE1F88F7E09508950E94731E6894B11155
:103CE0000C94751F08950E945A1F88F09F5798F0F2
:103CF000B92F9927B751B0F0E1F0660F771F881FF1
:103D0000991F1AF0BA95C9F714C0B13091F00E940A
:103D1000741FB1E008950C94741F672F782F8827C3
:103D2000B85F39F0B93FCCF3869577956795B39531
:103D3000D9F73EF490958095709561957F4F8F4FA0
:103D40009F4F0895E89409C097FB3EF490958095A5
:103D5000709561957F4F8F4F9F4F9923A9F0F92F51
:103D600096E9BB279395F695879577956795B795CF
:103D7000F111F8CFFAF4BB0F11F460FF1BC06F5FB5
:103D80007F4F8F4F9F4F16C0882311F096E911C0C7
:103D9000772321F09EE8872F762F05C0662371F0E8
:103DA00096E8862F70E060E02AF09A95660F771FFC
:103DB000881FDAF7880F9695879597F90895990FD8
:103DC0000008550FAA0BE0E8FEEF16161706E807E5
:103DD000F907C0F012161306E407F50798F0621B06
:103DE000730B840B950B39F40A2661F0232B242BDB
:103DF000252B21F408950A2609F4A140A6958FEFFA
:103E0000811D811D089597F99F6780E870E060E04B
:103E100008959FEF80EC0895DF93CF931F930F9346
:103E2000FF92EF92DF927B018C01689406C0DA2E3C
:103E3000EF010E949B1FFE01E894A5912591359109
:103E400045915591A6F3EF010E942E1DFE019701A9
:103E5000A801DA9469F7DF90EF90FF900F911F911E
:103E6000CF91DF91089500240A94161617061806BC
:103E70000906089500240A9412161306140605066E
:103E80000895092E0394000C11F4882352F0BB0FFF
:103E900040F4BF2B11F460FF04C06F5F7F4F8F4F62
:103EA0009F4F089557FD9058440F551F59F05F3F9D
:103EB00071F04795880F97FB991F61F09F3F79F04C
:103EC00087950895121613061406551FF2CF4695CE
:103ED000F1DF08C0161617061806991FF1CF869550
:103EE0007105610508940895E894BB276627772734
:103EF000CB0197F908950E94DF1E08F48FEF089513
:103F00009B01AC0160E070E080E89FE30C94FA1D37
:103F10000E949B1F0C94411F0E94331F38F00E9487
:103F20003A1F20F0952311F00C94031F0C94091FE5
:103F300011240C94751F0E94521F70F3959FC1F3BA
:103F4000950F50E0551F629FF001729FBB27F00D47
:103F5000B11D639FAA27F00DB11DAA1F649F66279C
:103F6000B00DA11D661F829F2227B00DA11D621FEB
:103F7000739FB00DA11D621F839FA00D611D221FA5
:103F8000749F3327A00D611D231F849F600D211D89
:103F9000822F762F6A2F11249F5750409AF0F1F00C
:103FA00088234AF0EE0FFF1FBB1F661F771F881F75
:103FB00091505040A9F79E3F510580F00C94031F8B
:103FC0000C94751F5F3FE4F3983ED4F38695779584
:103FD0006795B795F795E7959F5FC1F7FE2B880F1B
:103FE000911D9695879597F9089519F416F40C94F8
:103FF000091F0C943F200E945A1FB8F39923C9F35C
:10400000B6F39F57550B87FF0E944D200024A0E672
:1040100040EA900180585695979528F4805C660F89
:10402000771F881F20F026173707480730F4621BD8
:10403000730B840B202931294A2BA69517940794DA
:10404000202531254A2758F7660F771F881F20F053
:1040500026173707480730F4620B730B840B200DCB
:10406000311D411DA09581F7B901842F9158880F0A
:104070009695879508959B01AC010C94881F9F3FEE
:1040800031F0915020F4879577956795B795880F13
:10409000911D9695879597F9089591505040660F18
:0C40A000771F881FD2F70895F894FFCF17
:1040AC0086038603000000008507BF0B770D760D95
:1040BC001815A015C019FF1815A115C819FF18154A
:1040CC00AE19FF1815AF19FF1815AE15D5168015BA
:1040DC00A8163F15D316001540158D16141520166D
:1040EC000015A115C815DA1612158116CF15D9169B
:1040FC00F115DB1640152E15A415A619FF00011499
:10410C000A6464323200127A000004289610080007
:10411C0000800040000000000027048703B40398CF
:10412C0004E503C303D703000000008B0A5E0A7783
:0C413C000D340A570A440A350A0D0A0027
:00000001FF
