:100000000C945D050C944D1E0C94261E0C948505D5
:100010000C9485050C9485050C9485050C94850538
:100020000C9485050C9485050C9485050C94850528
:100030000C9485050C9485050C9485050C94850518
:100040000C94DC1D0C9485050C949A1E0C94741E63
:100050000C9485050C9485050C9485050C948505F8
:100060000C94CC1E0C948505084AD73B3BCE016E00
:1000700084BCBFFDC12F3D6C74319ABD56833DDAFF
:100080003D00C77F11BED9E4BB4C3E916BAAAABE0E
:10009000000000803F00000000002300260029002F
:1000A00000000000003E5B4F5B3E3E6B4F6B3E1C12
:1000B0003E7C3E1C183C7E3C181C577D571C1C5E29
:1000C0007F5E1C00183C1800FFE7C3E7FF00182400
:1000D0001800FFE7DBE7FF30483A060E26297929AA
:1000E00026407F050507407F05253F5A3CE73C5ADF
:1000F0007F3E1C1C08081C1C3E7F14227F22145FBC
:100100005F005F5F06097F017F006689956A606016
:1001100060606094A2FFA29408047E040810207E10
:10012000201008082A1C08081C2A08081E10101095
:10013000100C1E0C1E0C30383E3830060E3E0E06DB
:10014000000000000000005F00000007000700142E
:100150007F147F14242A7F2A1223130864623649ED
:100160005620500008070300001C224100004122D5
:100170001C002A1C7F1C2A08083E080800807030DA
:100180000008080808080000606000201008040249
:100190003E5149453E00427F40007249494946214F
:1001A00041494D331814127F1027454545393C4AC3
:1001B00049493141211109073649494936464949DA
:1001C000291E000014000000403400000008142222
:1001D0004114141414140041221408020159090690
:1001E0003E415D594E7C1211127C7F494949363E91
:1001F000414141227F4141413E7F494949417F0977
:100200000909013E414151737F0808087F00417F81
:1002100041002040413F017F081422417F4040407F
:10022000407F021C027F7F0408107F3E4141413E17
:100230007F090909063E4151215E7F091929462699
:100240004949493203017F01033F4040403F1F209D
:1002500040201F3F4038403F631408146303047874
:1002600004036159494D43007F4141410204081094
:1002700020004141417F04020102044040404040CF
:10028000000307080020545478407F28444438383D
:1002900044444428384444287F38545454180008AF
:1002A0007E090218A4A49C787F0804047800447D89
:1002B00040002040403D007F1028440000417F4026
:1002C000007C047804787C0804047838444444387A
:1002D000FC1824241818242418FC7C08040408485A
:1002E0005454542404043F44243C4040207C1C20AB
:1002F00040201C3C4030403C44281028444C909006
:10030000907C4464544C440008364100000077005F
:1003100000004136080002010204023C2623263C6C
:100320001EA1A161123A4040207A385454555921F7
:1003300055557941225454784221555478402054DF
:100340005579400C1E52721239555555593954542D
:10035000545939555454580000457C410002457D9C
:10036000420001457C407D1211127DF0282528F0C5
:100370007C545545002054547C547C0A097F4932F2
:10038000494949323A4444443A324A4848303A4169
:1003900041217A3A42402078009DA0A07D3D424212
:1003A000423D3D4040403D3C24FF2424487E49439B
:1003B000662B2FFC2F2BFF0929F620C0887E09030E
:1003C00020545479410000447D413048484A323835
:1003D0004040227A007A0A0A727D0D19317D262961
:1003E000292F28262929292630484D402038080859
:1003F000080808080808382F10C8ACBA2F1028348D
:10040000FA00007B000008142A142222142A14087F
:100410005500550055AA55AA55AAFF55FF55FF008E
:100420000000FF00101010FF00141414FF00101043
:10043000FF00FF1010F010F0141414FC001414F757
:1004400000FF0000FF00FF1414F404FC1414171044
:100450001F10101F101F1414141F00101010F00094
:100460000000001F101010101F10101010F01000CE
:100470000000FF101010101010101010FF100000DE
:1004800000FF140000FF00FF00001F10170000FC19
:1004900004F414141710171414F404F40000FF00EB
:1004A000F714141414141414F700F7141414171474
:1004B00010101F101F141414F4141010F010F0007A
:1004C000001F101F0000001F14000000FC1400009B
:1004D000F010F01010FF10FF141414FF141010107F
:1004E0001F00000000F010FFFFFFFFFFF0F0F0F032
:1004F000F0FFFFFF0000000000FFFF0F0F0F0F0FC6
:100500003844443844FC4A4A4A347E020206060211
:100510007E027E0263554941633844443C04407E78
:10052000201E2006027E020299A5E7A5991C2A49F1
:100530002A1C4C7201724C304A4D4D30304878487C
:1005400030BC625A463D3E494949007E0101017E68
:100550002A2A2A2A2A44445F444440514A444040BB
:10056000444A51400000FF0103E080FF00000808FA
:100570006B6B083612362436060F090F060000187A
:10058000180000001010003040FF0101001F0101A1
:100590001E00191D1712003C3C3C3C0000000000EE
:1005A000000103070F1F3F7F0080C0E0F0F8FCFE52
:1005B000DB40A4A62EAF2000A1C8D300408DAED54D
:1005C00080A80000600000000000000000000000A3
:1005D000000000E00000000000000000000000003B
:1005E0000001E0000000000000000000000000002A
:1005F00001F0000000000000000000000000000307
:10060000F00000000000000000000000000007F003
:100610000000000000000000000000000007F800DB
:100620000000000000000000000000000FF80000C3
:100630000003C0007E000001E0007F0FF800000012
:1006400003C000FE000001E000FFEFF8000000031F
:10065000C000FE000001E000FFFFF800000003C042
:1006600000F00000000F007FFE7FC0000003C0000C
:10067000F00000000F003FFE7FF83FF1FBCFFCFED3
:10068000F3BC3DEFE01FFE7FFF7FFBFFDFFEFEFFC1
:10069000BC3DEFE01FC6FFFF7FFBFFDFFEFEFFBCA0
:1006A0003DEFE00FE3C7FE787BC3DE1EF0FFBC3DED
:1006B000EF0007FF87FC787BC3DE1EF0F83C3DEFC0
:1006C0000001FFFFF0007BC3C01EF0F03C3DEF00D7
:1006D00001F37FE03FFBC3CFFEF0F03C3DEF0003B2
:1006E000E33F807FFBC3DFFEF0F03C3DEF0007E718
:1006F0003C00787BC3DE1EF0F03C3DEF0007FFBE00
:1007000000787BC3DE1EF0F03C3DEF0007FFFE00EB
:10071000787BC3DE1EF0F03C3DEF000FFFFE007F54
:10072000FBFFDFFEF0F03FFDEFE00FFFFF007FFB80
:10073000FFDFFEF0F03FFDEFE00FF9FF003E79F93B
:10074000CF9EF0F01F3DE7E01FF1FF00000000002A
:10075000000000000000001F80FF007FFFFFFFFF80
:10076000FFFFFFFFFFE01C007F007FFFFFFFFEB4E5
:100770006D888D18E000001F007FFFFFFFFE95AD24
:100780007DB577E000000F007FFFFFFFFEA5AD9D68
:100790008D19E0000006007FFFFFFFFEB5ADEDB54F
:1007A0007EE000000000000180000000000000006A
:1007B0000000038000000000000000000007C000EF
:1007C000000000000000000007C000000000000062
:1007D0000000000FC00000000000000000001FE04B
:1007E0000000000000000000001FE000000000000A
:1007F000000000003FE00000000000000000003F9B
:10080000F00000000000000000007FF00000000089
:100810000000001FF87FF0000000000000003FFE15
:100820007FF0000000000000003FFF7FF0000000AC
:10083000000000001FFFFBE0000000000000000FB0
:10084000FFF9FFC00000000000000FFFF9FFF800F3
:10085000000000000007FFF1FFFF000000000000A3
:1008600003FC73FFFF80000000000001FE3FFFFF5C
:1008700080000000000000FF1E0FFF0000000000CD
:1008800000007FFE1FFC000000000000003FFFFF93
:10089000F8000000000000000FDFFFE00000000093
:1008A0000000001F19FFC0000000000000003F3CD6
:1008B000FF00000000000000007E7CF80000000047
:1008C000000000007FFE7C0000000000000000FF30
:1008D000FFFC0000000000000000FFFFFE00000021
:1008E0000000000000FFFFFE00000000000000010B
:1008F000FFEFFE0000000000000001FFCFFE00003F
:10090000000000000003FF07FE00000000000000E0
:1009100003FC07FE0000000000000003F003FE00DF
:10092000000000000000018000FE00000000000048
:10093000000000007E000000000000000000003EFB
:10094000000000000000000000000C00000000009B
:1009500000078000FC000003C0000000078001FCCD
:10096000000003C0000000078001FC000003C0007D
:100970000000078001E00000001E00000007800169
:10098000E00000001E007FE3F79FF9FDE7787BDFC2
:10099000C0FFF7FFBFFDFDFF787BDFC0FFF7FFBFA4
:1009A000FDFDFF787BDFC0F0F787BC3DE1FF787B82
:1009B000DE00F0F787BC3DE1F0787BDE0000F787D2
:1009C000803DE1E0787BDE007FF7879FFDE1E07806
:1009D0007BDE00FFF787BFFDE1E0787BDE00F0F70C
:1009E00087BC3DE1E0787BDE00F0F787BC3DE1E0CD
:1009F000787BDE00F0F787BC3DE1E0787BDE00FF2E
:100A0000F7FFBFFDE1E07FFBDFC0FFF7FFBFFDE1C8
:100A1000E07FFBDFC07CF3F39F3DE1E03E7BCFC096
:100A20000000000000000000000000FFFFFFFFFFCB
:100A3000FFFFFFFFFFC0FFFFFFFFFD68DB111A3163
:100A4000C0FFFFFFFFFD2B5AFB6AEFC0FFFFFFFF58
:100A5000FD4B5B3B1A33C0FFFFFFFFFD6B5BDB6AA7
:100A6000FDC000000000240027002A000000000054
:100A7000250028002B0004040404040404040202DA
:100A8000020202020303030303030102040810200D
:100A90004080010204081020010204081020000018
:100AA000000800020100000304070000000000002D
:100AB00000002200FF215F20352711241FBECFEF49
:100AC000D8E0DEBFCDBF11E0A0E0B1E0E2EEFDE591
:100AD00002C005900D92AA3FB107D9F724E0AAEF12
:100AE000B1E001C01D92AE38B207E1F715E0CCE5E8
:100AF000D5E004C02197FE010E948E27CB35D10797
:100B0000C9F70E94C2210C94E42E0C94000091E0DD
:100B100090939E028093C00210929F021092C10295
:100B200008950895833081F028F4813099F082305F
:100B3000A9F008958730A9F08830C9F08430B1F465
:100B4000809180008F7D03C0809180008F7780939B
:100B50008000089584B58F7784BD089584B58F7D16
:100B6000FBCF8091B0008F778093B0000895809183
:100B7000B0008F7DF9CF1F93CF93DF93282F30E004
:100B8000F901E256F54F8491F901E657F54FD491FA
:100B9000F901EA58F54FC491CC23A9F0162F811121
:100BA0000E949205EC2FF0E0EE0FFF1FE459F54F85
:100BB000A591B4918FB7F894EC91111108C0D0951C
:100BC000DE23DC938FBFDF91CF911F910895DE2B41
:100BD000F8CFCF93DF9390E0FC01E657F54F2491D7
:100BE0008A58954FFC0184918823D1F090E0880FBA
:100BF000991FFC01EE59F54FA591B491FC01E45900
:100C0000F54FC591D491623071F49FB7F8943C913F
:100C1000822F809583238C93E8812E2B28839FBF7E
:100C2000DF91CF9108958FB7F894EC912E2B2C93F0
:100C30008FBFF6CF3FB7F89480914A0290914B0254
:100C4000A0914C02B0914D0226B5A89B05C02F3F44
:100C500019F00196A11DB11D3FBFBA2FA92F982FE2
:100C60008827BC01CD01620F711D811D911D42E0DD
:100C7000660F771F881F991F4A95D1F708958F92A5
:100C80009F92AF92BF92CF92DF92EF92FF924B0171
:100C90005C010E941A066B017C010E941A066C1905
:100CA0007D098E099F09683E734081059105A8F36F
:100CB00021E0821A9108A108B10888EEC80E83E0ED
:100CC000D81EE11CF11C81149104A104B10429F780
:100CD000FF90EF90DF90CF90BF90AF909F908F905C
:100CE0000895089508950895AF92BF92CF92DF922C
:100CF000EF92FF920F931F93CF93DF936C017B01D1
:100D00008B01040F151FEB015E01AE18BF08C01761
:100D1000D10759F06991D601ED91FC910190F081D4
:100D2000E02DC6010995892B79F7C501DF91CF9197
:100D30001F910F91FF90EF90DF90CF90BF90AF90F9
:100D40000895FC01538D448D252F30E0842F90E0D1
:100D5000821B930B541710F0CF96089501970895B6
:100D6000FC01918D828D981761F0A28DAE0FBF2F7F
:100D7000B11D5D968C91928D9F5F9F73928F90E0D5
:100D800008958FEF9FEF0895FC01918D828D981744
:100D900031F0828DE80FF11D858D90E008958FEF81
:100DA0009FEF0895FC01918D228D892F90E0805C4A
:100DB0009F4F821B91098F739927089582EC92E0CF
:100DC0000E94D20621E0892B09F420E0822F0895A9
:100DD00080E090E0892B29F00E94DE0681110C94BE
:100DE00000000895FC01A48DA80FB92FB11DA35ACE
:100DF000BF4F2C91848D90E001968F739927848F3B
:100E0000A689B7892C93A089B1898C91837080645D
:100E10008C93938D848D981306C00288F389E02DFE
:100E200080818F7D80830895EF92FF920F931F93AF
:100E3000CF93DF93EC0181E0888F9B8D8C8D98138D
:100E40001AC0E889F989808185FF15C09FB7F89499
:100E5000EE89FF896083E889F989808183708064E5
:100E600080839FBF81E090E0DF91CF911F910F9130
:100E7000FF90EF900895F62E0B8D10E00F5F1F4F3F
:100E80000F731127E02E8C8D8E110CC00FB607FC4E
:100E9000FACFE889F989808185FFF5CFCE010E94DC
:100EA000F206F1CFEB8DEC0FFD2FF11DE35AFF4F52
:100EB000F0829FB7F8940B8FEA89FB89808180626A
:100EC000CFCFCF93DF93EC01888D8823B9F0AA8927
:100ED000BB89E889F9898C9185FD03C0808186FDF5
:100EE0000DC00FB607FCF7CF8C9185FFF2CF808144
:100EF00085FFEDCFCE010E94F206E9CFDF91CF91C1
:100F00000895EF92FF920F931F93CF93DF93EC011D
:100F1000EC80FD806E157F050CF070C057FF04C09B
:100F2000240F351F50E040E08E819F81FA01E20FCF
:100F3000F31F8E179F071CF49C01241B350B121600
:100F400013060CF05BC0922F842F869586958695AC
:100F50008E9DD0018F9DB00D11246A0F7B1FAF8D28
:100F6000B8A1A60FB71F477049F188E0841B482F2E
:100F7000682F70E0FB01E855FA4FE491281708F05C
:100F800063C0621B71092FEF30E002C035952795D1
:100F90006A95E2F7E2230130110539F0B0F1023031
:100FA000110561F58C91E82702C08C91E82BEC9338
:100FB000941720F12C813D81A20FB31FE92FE41B70
:100FC000E83078F00230110521F58E2F9C91909534
:100FD0009C932C813D81A20FB31F88508830B0F7BD
:100FE000E770EE2359F0F0E0E056FA4FE49101305B
:100FF0001105F9F010F10230110519F1DF91CF91CF
:101000001F910F91FF90EF900895E0958C91E82348
:10101000CECF81E00115110509F480E081959E2F66
:101020008C932C813D81A20FB31F98509830C0F74C
:10103000D7CF8C91E82BEC93E1CFE0958C91E8230E
:10104000FACF8C91E827F7CF0130110509F4ADCF25
:10105000E0F20230110509F4A5CFAE0DBF1DAECFF1
:101060000F931F93CF93DF9377FF04C0260F371F93
:1010700070E060E0DC011496CD91DC91FB01E20FA1
:10108000F31FCE17DF071CF49E01261B370B121629
:1010900013064CF5FA0157FD3796A3E0F595E79551
:1010A000AA95E1F7EC9FD001ED9FB00DFC9FB00D2C
:1010B00011246A0F7B1FDC015F96ED91FC91E60F16
:1010C000F71F4770552781E090E001C0880F4A95CF
:1010D000EAF7482F0130110559F0A8F02E0F3F1FF5
:1010E00002301105E1F0DF91CF911F910F9108952A
:1010F0002E0F3F1FE217F307B1F38191DF01119724
:10110000842B8C93F7CF80952E0F3F1FE217F307A8
:1011100051F39191DF01119798239C93F7CFE21738
:10112000F30709F38191DF01119784278C93F7CF9F
:101130000F931F93FA01DC0156964C91569742305B
:10114000E9F04330A1F1413061F514964D915C9185
:10115000DA01AE1BBF0BFD01E21BF30B77FD0BC0E9
:10116000DC0116964D915C916417750724F4AB0170
:10117000BF010E9430081F910F91089514964D9160
:101180005C91DA01A61BB70BBD0161507109DC014E
:1011900016964D915C91DA01AE1BBF0BFD01E21B6F
:1011A000F30B77FDE8CFAF010E948107E4CF1696DD
:1011B0004D915C91DA01A61BB70BBD01615071091D
:1011C000CDCF0F931F93FA01DC0156964C915697A1
:1011D0004230A9F0433091F1413019F514964D9108
:1011E0005C91DA01AE1BBF0BFD013197F7FD04C026
:1011F000AB01BF010E9481071F910F9108951496C2
:101200004D915C91DA01A61BB70BBD01DC0116966E
:101210004D915C91DA01AE1BBF0BFD013197621B52
:10122000730BF7FDE9CFDC0116964D915C91E41745
:10123000F50714F7AF010E943008DECF16964D91E6
:101240005C91DA01A61BB70BBD01621B730BCECFFD
:10125000FC0177FD64C080859185681779070CF0E3
:101260005EC057FD5CC082859385481759070CF016
:1012700056C086898230B1F0833029F1813041F443
:1012800084819581841B950BAB01BC016150710970
:101290002130310509F108F443C02230310509F449
:1012A00063C0089584819581DC01A61BB70BBD0145
:1012B0006150710986819781DC01A41BB50BAD01DA
:1012C00041505109E5CF86819781861B970BBA0162
:1012D000AC0141505109DCCFCA0157FD0796A3E08C
:1012E00095958795AA95E1F7A481B5818A9F90018C
:1012F0008B9F300D9A9F300D1124620F731F078C46
:10130000F0A1E02DE60FF71F4770552721E030E0F0
:1013100001C0220F4A95EAF78081822B80830895CD
:10132000CA0157FD079633E0959587953A95E1F701
:10133000A481B5818A9F90018B9F300D9A9F300DBB
:101340001124620F731F078CF0A1E02DE60FF71F29
:101350004770552781E090E001C0880F4A95EAF771
:10136000809590818923DACFCA0157FD079623E043
:10137000959587952A95E1F7A481B5818A9F90017B
:101380008B9F300D9A9F300D1124620F731F078CB5
:10139000F0A1E02DE60FF71F4770552721E030E060
:1013A00001C0220F4A95EAF780818227B7CF0895BE
:1013B0008EBD00000DB407FEFDCF8EB508958CBD27
:1013C0009DBD08950895FC016370668B84819581AD
:1013D00026813781613039F0633029F09187808729
:1013E00033872287089531872087938782870895DE
:1013F0002F923F924F925F926F927F928F929F9225
:10140000AF92BF92CF92DF92EF92FF920F931F9312
:10141000CF93DF93CDB7DEB76A970FB6F894DEBFF0
:101420000FBECDBF9A8F898F7A8369834A01D22EEE
:1014300018870F833701BC2CDC0159962D913C9104
:101440005A972115310509F015C118968D919C9177
:101450001997681779070CF0D7C11A968D919C914E
:10146000481759070CF0D0C14C2C512CB6E0CB9E3C
:10147000600D711D11247C876B87161617060CF002
:10148000C3C1EA2DF0E0FA87E98793E0EE0FFF1F72
:101490009A95E1F7F88BEF87CF01840F951F181607
:1014A00019060CF0B1C1A98DBA8D58968C91811195
:1014B00004C0BFEABD1508F4D394A98DBA8DED918F
:1014C000FC9111970284F385E02DCD010995B5E0DB
:1014D000DB9EC0011124E981FA81FC83EB83312C6E
:1014E000212C9C0120563F4F388F2F8B4A2D50E0E6
:1014F0005E8B4D8BEF89F88DE20DF31D44919E823A
:101500008D82D12CC12C69817A81620D731D7A8BF9
:10151000698B842F90E09C8B8B8BE98DFA8DA08159
:10152000B18140FF82C0F1E0BF126FC0AF126DC049
:101530001C96ED91FC912F813885A4014C0D5D1D09
:1015400069897A89898D9A8D0995EB89FC89F59548
:10155000E7954E2F5FEFC51AD50A6D817E818D8983
:101560009E89680F791F7E836D8398E0C916D10428
:1015700081F6AFEF2A1A3A0AEB81FC81E40DF51DE2
:10158000FC83EB83F5E02F16310409F0B3CF2F81F4
:10159000388526153705B9F0A98DBA8DED91FC91E6
:1015A000B1E0BB1257C0AB1255C069817A816B5F45
:1015B0007F4F0088F189E02D830128E030E0A4010D
:1015C000898D9A8D0995A98DBA8DED91FC91119710
:1015D0000688F789E02DCD016A960FB6F894DEBF34
:1015E0000FBECDBFDF91CF911F910F91FF90EF9074
:1015F000DF90CF90BF90AF909F908F907F906F9033
:101600005F904F903F902F9009941E96ED91FC9122
:10161000EF80F88409851A8592014D815E816B8186
:101620007C81898D9A8D099590CF2F8138852615DB
:10163000370509F48ACF31E0B31207C0A31205C001
:101640001C96ED91FC91930178CF1E96ED91FC9143
:101650007301E0CF6B857C85641975090684F78575
:10166000E02D73010F8518899201A401898D9A8D4F
:101670000995A9CFF90134969491329745915491E7
:10168000D91AB7E0DB9E400D511D1124F9012591B7
:1016900034913C8B2B8BFA0125903490FA013296D1
:1016A000749031963491398B32966490319644908F
:1016B00041E04C1518F04A1508F07FC0662D062C45
:1016C000000C770B7C836B83842D042C000C990B0E
:1016D0009E838D83A98DBA8DED91FC911197028423
:1016E000F385E02DCD010995512CD12CC12CEA2D8B
:1016F000F0E0FA87E9872B2D30E03C872B87A401A7
:10170000440D511D47FC5A95588F4F8B69817A8142
:10171000660D711D67FC7A957E876D877989C7167E
:1017200008F051CF2C2D30E04D815E81420F531FC8
:10173000A985BA854A9FC0014B9F900D5A9F900D75
:101740001124FC01E80DF91DF88BEF87852D612C24
:101750004F89588D420F531F5E8B4D8B671408F0D5
:1017600050C044244394480E877041F4C10101964F
:10177000EB89FC89E20DF31DD4901C01D7FE19C042
:10178000A98DBA8DED91FC91662D70E0B1E0BB1290
:1017900019C0AB1217C02D853E85620F731F0484DC
:1017A000F585E02D2F8138854D895E89898D9A8D4B
:1017B0000995DD0C6394842DD1CF1E821D821C827D
:1017C0001B8288CF4B815C81640F751FAB85BC8504
:1017D0006A9FC0016B9F900D7A9F900D11246981C3
:1017E0007A81680F791F0684F785E02DEF80F884F1
:1017F00009851A859D014F855889898D9A8D09958E
:10180000D8CF570CC3948ACF6A960FB6F894DEBF30
:101810000FBECDBFDF91CF911F910F91FF90EF9041
:10182000DF90CF90BF90AF909F908F907F906F9000
:101830005F904F903F902F9008958F929F92AF921C
:10184000CF92EF92FF920F931F93CF93DF93EC0110
:10185000262F898D9A8D009709F051C06A30D1F4F6
:101860001D861C868D8948E0849F900111248E85F9
:101870009F85820F931F9F878E8781E090E0DF9185
:10188000CF911F910F91FF90EF90CF90AF909F90CD
:101890008F9008956D3089F3CC88AD888F89882327
:1018A000C1F08C859D8536E0C39E800D911D11246D
:1018B000488559854817590764F44E855F851D860C
:1018C0001C8638E0A39EC0011124840F951F9F87BA
:1018D0008E87EA88FB88088919894E855F856C8523
:1018E0007D85CE010E94F8092C898C859D8546E076
:1018F000249F800D911D11249D878C87BECF6A3057
:1019000069F41D861C86FC013896E4912D898E852C
:101910009F85E29F800D911D1124ADCF6D3009F49C
:10192000ACCFFC0134963491631708F4A6CF3296FD
:10193000E491E61708F4A1CFFC01329685909490CB
:10194000462F431B342F47E0349F800C911C1124F9
:10195000F401329634913196E4913323A9F1EE23C8
:1019600099F1CC88F4013596E491AD884F894423F0
:1019700001F10E2E000CFF0BE30FF11DCE9EA00116
:10198000CF9E500D11246C857D85460F571F6885AD
:101990007985641775076CF44E855F851D861C86F6
:1019A000FC013896E491AE9E400D511D11245F87D5
:1019B0004E87EA88FB88088919894E855F856C8582
:1019C0007D85CE010E94F809F4013496E4912C89BA
:1019D0008C859D85E29F800D911D11248DCF6F9286
:1019E0007F928F929F92AF92BF92CF92DF92EF92AF
:1019F000FF920F931F93CF93DF93EC016B015A017A
:101A000039014801E881F9810284F385E02D0995C7
:101A1000E881F9810288F389E02D87019301A5010E
:101A2000B601CE010995A501480D591D4150510936
:101A3000E881F9810288F389E02D9301B601CE0196
:101A40000995E881F9810088F189E02D9401A501CB
:101A5000B601CE010995C60CD71CB60161507109BB
:101A6000E881F9810088F189E02D9401A501CE017A
:101A70000995E881F9810688F789E02DCE01DF918B
:101A8000CF911F910F91FF90EF90DF90CF90BF907B
:101A9000AF909F908F907F906F9009946F927F92FC
:101AA0008F929F92AF92BF92CF92DF92EF92FF926E
:101AB0000F931F93CF93DF935C01EB016A01490100
:101AC00038018701DC01ED91FC916217730719F56C
:101AD000641675062CF0962D872D3A01C92ED82E46
:101AE0009601261937092F5F3F4F048CF58DE02DA5
:101AF000A301BE01C5010995DF91CF911F910F91FF
:101B0000FF90EF90DF90CF90BF90AF909F908F901D
:101B10007F906F9008954615570591F42617370763
:101B200024F0892D4B01C22FD82F9E012819390985
:101B30002F5F3F4F068CF78DE02DA601B401DACF61
:101B40000284F385E02D0995D501ED91FC9104887F
:101B5000F589E02D83019401A601BE01C501099517
:101B6000D501ED91FC910688F789E02DC501DF9143
:101B7000CF911F910F91FF90EF90DF90CF90BF908A
:101B8000AF909F908F907F906F900994EF92FF920B
:101B90000F931F93DC011A960D911C911B971896B9
:101BA0002D913C911997ED91FC9100A0F1A1E02DB0
:101BB0007B0150E040E070E060E009951F910F91DB
:101BC000FF90EF9008954F925F926F927F928F9265
:101BD0009F92AF92BF92CF92DF92EF92FF920F93BC
:101BE0001F93CF93DF936C012B015A0139014801F8
:101BF000DC01ED91FC910284F385E02D0995E20171
:101C0000640C751CD601ED91FC91C615D7055CF4EA
:101C10000088F189E02D87019401A501BE01C6016C
:101C200009952196EFCF0688F789E02DC601DF914F
:101C3000CF911F910F91FF90EF90DF90CF90BF90C9
:101C4000AF909F908F907F906F905F904F9009948E
:101C50008F929F92AF92BF92CF92DF92EF92FF92BC
:101C60000F931F93CF93DF93EC015B014A0169014E
:101C7000E881F9810284F385E02D099595012C0D09
:101C80003D1D21503109E881F9810488F589E02D55
:101C900078018401A401B501CE010995E881F9819B
:101CA0000688F789E02DCE01DF91CF911F910F912A
:101CB000FF90EF90DF90CF90BF90AF909F908F906C
:101CC00009948F929F92AF92BF92CF92DF92EF9240
:101CD000FF920F931F93CF93DF93EC015B014A01B7
:101CE00069017801E881F9810284F385E02D099585
:101CF000C80CD91C860101501109E881F9810488BA
:101D0000F589E02D9501A401B501CE010995E88181
:101D1000F9810688F789E02DCE01DF91CF911F91DF
:101D20000F91FF90EF90DF90CF90BF90AF909F907A
:101D30008F900994EF92FF920F931F93DC01ED9126
:101D4000FC9100A0F1A1E02D09951F910F91FF904A
:101D5000EF9008950F931F93DC01ED91FC91068C99
:101D6000F78DE02D09951F910F9108950F931F9303
:101D7000DC01ED91FC91048CF58DE02D09951F910E
:101D80000F910895DC01ED91FC910084F185E02D27
:101D900009943F924F925F926F927F928F929F929F
:101DA000AF92BF92CF92DF92EF92FF920F931F9369
:101DB000CF93DF935C017B014A016901390187E020
:101DC000680E711C93E0759467949A95E1F72B0166
:101DD000400E511E10E000E0312CD0E0C0E0CE01FA
:101DE00087709927330C892B59F4FE0183E0F59510
:101DF000E7958A95E1F7E00FF11FE80DF91D3490A2
:101E000037FE0AC021E030E0A701B5016C0F7D1F4D
:101E10008BE693E00E94C20E2196CC16DD06F9F601
:101E20008FEFE81AF80A060D171DE414F504A9F659
:101E3000DF91CF911F910F91FF90EF90DF90CF90A6
:101E4000BF90AF909F908F907F906F905F904F90DA
:101E50003F9008952F923F924F925F926F927F92A0
:101E60008F929F92AF92BF92CF92DF92EF92FF92AA
:101E70000F931F93CF93DF9300D000D000D0CDB746
:101E8000DEB73C016A013E832D83FC82EB82580160
:101E9000A41AB50AB7FE03C0B194A194B1088D800D
:101EA0009E80861A970A97FE03C0919481949108A8
:101EB0008A149B045CF0902F812F0D811E819D83DD
:101EC0008E839C2D8D2D6B01692F782F0C151D0590
:101ED0005CF09D818E817E836D83692F782F902F9A
:101EE000812F8601C92ED82E1601201A310A2B0106
:101EF0002D813E81421A530A57FE03C051944194EA
:101F00005108710137FE03C03FEFE31AF30AF5945D
:101F1000E7948D819E81861797075CF5A1E0B0E07C
:101F2000BA83A983C016D1064CF1D301ED91FC917F
:101F30000484F585E02D2B813C81A8016D817E8193
:101F40008A149B041CF04D815E81B801C301099580
:101F5000E418F508F7FE0AC02D813E8189819A8137
:101F6000280F391F3E832D83E20CF31C0F5F1F4F98
:101F7000D9CF2FEF3FEF3A832983D4CF26960FB6E0
:101F8000F894DEBF0FBECDBFDF91CF911F910F91AF
:101F9000FF90EF90DF90CF90BF90AF909F908F9089
:101FA0007F906F905F904F903F902F90089508958D
:101FB00020911F02260F3327331F21323105ECF405
:101FC00020919802FC0190E080E0243069F082E0EA
:101FD0000895A0911F022191AC0141505E4FA40FC2
:101FE000B52FB11D2C930196861798F380911F028F
:101FF000680F60931F0280E0089581E008951092B9
:10200000980281E0809397021092720261E082E16F
:102010000E94BB0561E083E10E94BB05E9EBF0E0B3
:1020200080818E7F808380818D7F808388E4809310
:10203000B80085E48093BC000895CF93DF9391E0CE
:102040009093FE018823B9F0C091B800D091BA00F6
:102050008091BC008A7B8093BC0060E082E10E949A
:10206000BB0560E083E10E94BB050E94FF0FD09397
:10207000BA00C093B800DF91CF9108958F929F92DC
:10208000AF92BF92CF92DF92EF92FF920F931F9386
:10209000CF93DF93D091C102D13208F0D7C0182F6F
:1020A000C091C0020E941A066B017C0180919802C7
:1020B00081116BC082E080939802109397028FEF9A
:1020C0008093960210929502D0939402A0EAB2E017
:1020D000E4E7F2E080E0D81391C01092730280919F
:1020E0007302CC0FC82BC0937302809172028130AF
:1020F00009F088C0109272020E941A066B017C01DE
:10210000809173028093BB0080919A0290919B0210
:10211000A0919C02B0919D02892B8A2B8B2BA1F060
:102120000E941A0600919A0210919B0220919C0233
:1021300030919D026C197D098E099F0906171707BA
:102140002807390708F442C08091BC0083FDD8CF2E
:1021500085EC8093BC000E941A066B017C01809183
:102160009802823009F450C0809196028F3F09F4A2
:102170006FC080919602803209F46CC08091960203
:10218000803309F469C084E026C080919A0290915E
:102190009B02A0919C02B0919D02892B8A2B8B2BD4
:1021A00009F484CF0E941A0680909A0290909B02B4
:1021B000A0909C02B0909D026C197D098E099F0928
:1021C00086169706A806B90608F070CF8091990286
:1021D0000E941D1085E010929F021092C102109281
:1021E0009E02DF91CF911F910F91FF90EF90DF90B2
:1021F000CF90BF90AF909F908F9008959D919193B5
:102200008F5F69CF85EEA5CF80919A0290919B0256
:10221000A0919C02B0919D02892B8A2B8B2B09F4F3
:102220009ECF0E941A0600919A0210919B02209163
:102230009C0230919D026C197D098E099F09061739
:1022400017072807390708F08ACFC0CF81E0C3CF2E
:1022500080E0C1CF82E0BFCF83E0BDCFCF92DF92DD
:10226000EF92FF920F931F93CF93DF93D82FC62F38
:10227000613208F098C00E941A066B017C018091BF
:10228000980281116BC081E080939802809397023D
:102290009FEF90939602109295029C0F9093940258
:1022A0008093730280917302DD0FD82BD093730259
:1022B00080917202813009F078C0109272020E94FF
:1022C0001A066B017C01809173028093BB008091A0
:1022D0009A0290919B02A0919C02B0919D02892B41
:1022E0008A2B8B2BA1F00E941A0600919A02109162
:1022F0009B0220919C0230919D026C197D098E09F0
:102300009F09061717072807390708F448C0809166
:10231000BC0083FDD8CF85EC8093BC000E941A06D8
:102320006B017C0180919802813009F440C080915A
:1023300095028C1710F4C0919502E4E7F2E0A2E553
:10234000B2E080E08C1355C08C2FDF91CF911F91AC
:102350000F91FF90EF90DF90CF90089580919A02B7
:1023600090919B02A0919C02B0919D02892B8A2B97
:102370008B2B09F484CF0E941A0600919A021091C7
:102380009B0220919C0230919D026C197D098E095F
:102390009F09061717072807390708F070CF8091A3
:1023A00099020E941D10C0E0CFCF85EEB5CF80917D
:1023B0009A0290919B02A0919C02B0919D02892B60
:1023C0008A2B8B2B09F4AECF0E941A0600919A0239
:1023D00010919B0220919C0230919D026C197D0905
:1023E0008E099F09061717072807390708F09ACFA3
:1023F000D6CF91919D938F5FA5CFE09148028091B8
:102400004702E81730F4F0E0EE5AFD4F808190E08B
:1024100008958FEF9FEF08959091480280914702B1
:102420002FEF3FEF981748F4E92FF0E0EE5AFD4FF9
:10243000208130E09F5F90934802C9010895809108
:10244000470290914802891B990B0895CF92DF9221
:10245000EF92FF920F931F93CF93DF937C01CB01F9
:102460008A0120919E02222389F0EB016B01C40EA8
:10247000D51ECC15DD0569F06991D701ED91FC9170
:102480000190F081E02DC7010995F3CF642F0E94E0
:10249000D80FC801DF91CF911F910F91FF90EF905E
:1024A000DF90CF900895CF93DF931F92CDB7DEB723
:1024B000698320919E022223F9F02091C1022032EB
:1024C00058F021E030E0FC013383228390E080E08B
:1024D0000F90DF91CF91089580919F02E82FF0E057
:1024E000E056FD4F998190838F5F80939F02809388
:1024F000C10281E090E0ECCF61E0CE0101960E9444
:10250000D80FF7CF81E00C943E100F931F93CF9319
:10251000DF93082F162F88E60E948705CAE1D4E0D2
:1025200088819981DC01ED91FC910190F081E02D91
:10253000602F099588819981DC01ED91FC910190D2
:10254000F081E02D612F099588819981DF91CF91EC
:102550001F910F910C948212EF92FF920F931F9391
:10256000CF937C01C62F8091880390918903892B9A
:1025700009F44EC080918C030E94870580918803E6
:1025800090918903DC01ED91FC910190F081E02DA7
:1025900060E009958701EE24E394F12CC15080910D
:1025A000880390918903CF3F61F1B0E2EB16F1040B
:1025B000A8F00E94821280918C030E94870580916E
:1025C000880390918903DC01ED91FC910190F081E9
:1025D000E02D60E00995EE24E394F12C80918803CE
:1025E00090918903F8016491DC01ED91FC910190D7
:1025F000F081E02D0995BFEFEB1AFB0A0F5F1F4F2B
:10260000CDCFCF911F910F91FF90EF900C9482123C
:10261000E0919803F0919903908180919E038095B9
:10262000892380838701C15008F438C0F801849160
:102630002091860330918703232B29F00E94D8092B
:102640000F5F1F4FF0CF28E030E040E8E0919403A7
:10265000F091950390919C03582F5423D9F0508109
:10266000952B9083E0919603F09197039081509180
:102670009D03952B9083E0919603F09197035081F1
:1026800090919D0390959523908346952150310913
:10269000E9F6D6CF508190959523E3CFCF911F9146
:1026A0000F91FF90EF9008951F93CF93DF93EC016C
:1026B0008D8D9E8D892BF9F0162F89A10E9487059B
:1026C0008D8D9E8DDC01ED91FC910190F081E02DCE
:1026D00060E009958D8D9E8DDC01ED91FC9101905E
:1026E000F081E02D612F09958D8D9E8DDF91CF9129
:1026F0001F910C948212ADA5BEA59C918BA98095CB
:1027000089238C938B8D9C8D892B31F0862FDF91C3
:10271000CF911F910C94D80928E030E080E8A9A55A
:10272000BAA599A9462F4823C1F04C91942B9C93AC
:10273000ABA5BCA59C914AA9942B9C93ABA5BCA529
:102740004C919AA9909594239C9386952150310998
:1027500031F7DF91CF911F9108954C91909594237B
:10276000E6CFEF92FF920F931F93CF93DF93809169
:10277000880390918903892B09F49AC02091A003C2
:102780003091A1034091A2035091A30360E074E251
:1027900084EF90E00E9458272051310941095109E6
:1027A00056954795379527952093B80064E082EBBE
:1027B0009AE00E94AC1280916F0390917003803474
:1027C000910509F08CC060E28BE693E00E945413FF
:1027D00060916F03615E8BE693E00E945413209139
:1027E000710330917203C901079697FD079633E094
:1027F000959587953A95E1F720916F033091700395
:10280000829F8001839F100D929F100D1124C09113
:102810008A03D0918B0380918803909189030C0FD8
:102820001D1F892B09F48CC080918C030E948705A1
:102830008091880390918903DC01ED91FC910190D6
:10284000F081E02D60E40995EE24E394F12C809171
:102850008803909189030C171D0709F449C0B0E261
:10286000EB16F104A8F00E94821280918C030E9462
:1028700087058091880390918903DC01ED91FC919B
:102880000190F081E02D60E40995EE24E394F12CB1
:1028900080918803909189036991DC01ED91FC910D
:1028A0000190F081E02D0995BFEFEB1AFB0ACFCF25
:1028B0008091860390918703892B31F08091A90341
:1028C0009091AA030E94DF09E0919A03F0919B0383
:1028D000908180919F0380958923808367CF60E0FA
:1028E0008BE693E00E94541360916F03615073CFA5
:1028F0000E9482128091880390918903892B09F4A8
:1029000060C02091A4033091A5034091A60350918B
:10291000A70360E074E284EF90E00E945827205102
:1029200031094109510956954795379527952093C7
:10293000B800DF91CF911F910F91FF90EF90089514
:10294000E0919803F0919903808190919E03892BE7
:1029500080830C171D0771F28991209186033091B5
:102960008703232B19F00E94D809F3CF28E030E029
:1029700040E8E0919403F091950390919C03582FC7
:102980005423D9F05081952B9083E0919603F091D8
:102990009703908150919D03952B9083E09196032E
:1029A000F0919703508190919D039095952390838A
:1029B000469521503109E9F6CCCF50819095952369
:1029C000E3CFE0919A03F0919B03808190919F0364
:1029D000892B8083AECF1F93CF93DF93EC01162F0B
:1029E0008D8D9E8D892BB1F12DA93EA94FA958AD92
:1029F00060E074E284EF90E00E9458272051310992
:102A00004109510956954795379527952093B80068
:102A100066EA111167EACE010E9454138D8D9E8DD6
:102A2000892B41F129AD3AAD4BAD5CAD60E074E26C
:102A300084EF90E00E945827205131094109510943
:102A400056954795379527952093B800DF91CF91FC
:102A50001F9108958B8D9C8D892B21F08EAD9FAD9C
:102A60000E94DF09EFA5F8A990818CA980958923A0
:102A70008083CECFEFA5F8A980819CA9892B808384
:102A8000E5CFFF920F931F93CF93DF93EC01F62EC8
:102A9000142F052F8B810E94870589819A81DC0183
:102AA000ED91FC910190F081E02D60E00995898124
:102AB0009A81DC01ED91FC910190F081E02D6F2D68
:102AC000099589819A81DC01ED91FC910190F08159
:102AD000E02D602F099589819A81DC01ED91FC91AF
:102AE0000190F081E02D612F099589819A810E94E2
:102AF00082128883DF91CF911F910F91FF900895EB
:102B0000FF920F931F93CF93DF93EC01062FF72EC5
:102B1000142F8B810E94870589819A81DC01ED91B8
:102B2000FC910190F081E02D6F2D099589819A81AA
:102B3000DC01ED91FC910190F081E02D602F099571
:102B400089819A81DC01ED91FC910190F081E02D69
:102B5000612F099589819A810E9482128883DF9171
:102B6000CF911F910F91FF90089590E080E008951C
:102B70000F931F93CF93DF93EC012B8130E0F9018A
:102B8000E256F54F8491F901E657F54F0491F901AA
:102B9000EA58F54F1491112301F181110E94920519
:102BA000E12FF0E0EE0FFF1FEA56FF4FA591B49121
:102BB000EC910E2391F08D819E81AF81B8850196B5
:102BC000A11DB11D8D839E83AF83B88781E08C8367
:102BD000DF91CF911F910F9108958D819E81AF81DB
:102BE000B8850197A109B1098D839E83AF83B8870A
:102BF0008FEFEDCF8091FC019091FD01009711F0D6
:102C00000C94B81508958091FA019091FB010097FA
:102C100011F00C94B81508951F93CF93DF93EC0136
:102C2000162F8B810E94870589819A81DC01ED91A5
:102C3000FC910190F081E02D60E0099589819A81F5
:102C4000DC01ED91FC910190F081E02D612F09955F
:102C500089819A810E948212888361E08B810E941F
:102C60002E11109248028093470289819A81DC01DB
:102C7000ED91FC910284F385E02D0995DF91CF91D0
:102C80001F910895FF920F931F93CF93DF93EC0151
:102C9000162FF42E61E0812F0E94E90560E0812F5C
:102CA0000E94BB0562E370E080E090E00E943F0676
:102CB00061E0812F0E94BB0562E370E080E090E05C
:102CC0000E943F0664E270E0CE010E940C168D83E4
:102CD00066E170E0CE010E940C16813009F03DC122
:102CE0008C8341E067E072E0CE010E94801541E0F4
:102CF00068E072E0CE010E94801540E066E970E075
:102D0000CE010E9480154DEF67E970E0CE010E9470
:102D1000801541E063EE70E0CE010E94801543E033
:102D200064EE70E0CE010E94801542E065EE70E036
:102D3000CE010E94801541E066EE70E0CE010E9457
:102D4000801543E067EE70E0CE010E94801542E0FE
:102D500065EF70E0CE010E94801545E069ED70E0FE
:102D6000CE010E9480154EEC6BED70E0CE010E940A
:102D7000801543E06CED70E0CE010E94801548EFB5
:102D80006DED70E0CE010E94801540E06FE970E0CB
:102D9000CE010E9480154CE363EA70E0CE010E94F0
:102DA000801540E067EB70E0CE010E9480154CE397
:102DB0006BEB70E0CE010E94801549E062EB70E0A1
:102DC000CE010E94801549E06AEC70E0CE010E94BD
:102DD000801541E068E971E0CE010E94801547E16D
:102DE00060EB71E0CE010E94801540E06DEA71E079
:102DF000CE010E94801545E06FEF70E0CE010E9489
:102E0000801545E060E071E0CE010E94801545E04C
:102E100069E971E0CE010E9480154BE166EA71E03C
:102E2000CE010E9480154EE36CEA71E0CE010E9453
:102E300080154FE167EA71E0CE010E94801540E005
:102E400060E370E0CE010E94801540E066E170E032
:102E5000CE010E9480154F2D62E172E0CE010E94EA
:102E60008015FB8240E36AE071E0CE010E9480158C
:102E700046E46FE370E0CE010E9480154FEF61E3FE
:102E800070E0CE010E94801543E650E060E470E0FF
:102E9000CE010E94411541E06EE270E0CE010E9439
:102EA000801549E06BE170E0CE010E94801541E39E
:102EB0006EE370E0CE010E94801544E264E170E0B0
:102EC000CE010E94801541E36CE170E0CE010E94CA
:102ED000801540E063EA72E0CE010E94801581E037
:102EE0008C834DEF50E066E970E0CE010E94411501
:102EF0008D81082E000C990B6C8170E00E94442794
:102F0000462F64E270E0CE010E9480156C8170E073
:102F100084E190E00E944427462F61E270E0CE01F8
:102F20000E9480156DE270E0CE010E940C1641E017
:102F30009C81913009F040E08E7F482B6DE270E07B
:102F4000CE010E9480158AEF90E09F838E83DF91EF
:102F5000CF911F910F91FF9008958B810E9487055B
:102F600089819A81DC01ED91FC910190F081E02D45
:102F700060E0099589819A81DC01ED91FC910190D5
:102F8000F081E02D66E9099589819A810E9482127B
:102F9000888362E08B810E942E11109248028093F8
:102FA000470289819A81DC01ED91FC910284F385CD
:102FB000E02D099500E0182F89819A81DC01ED91BF
:102FC000FC910284F385E02D0995802B912B8435AB
:102FD000910549F483E08C838D819C81899F802DAC
:102FE00011248D8338CF8F37910511F482E0F3CF10
:102FF00081E0F1CF9F92AF92BF92CF92DF92EF929A
:10300000FF920F931F93CF93DF93CDB7DEB72E9729
:103010000FB6F894DEBF0FBECDBF8C0188E60E94CC
:103020008705D8018D919C91DC01ED91FC91019077
:10303000F081E02D6BE3099580E00E943E106EE088
:1030400088E60E942E111092480280934702FE01EA
:1030500031967F015E01FFE0AF0EB11CD8018D916A
:103060009C91DC01ED91FC910284F385E02D0995A2
:10307000982EF80180819181DC01ED91FC91028410
:10308000F385E02D0995C12C8C299929F7018193AD
:1030900091937F01AE16BF0609F7D8011696CD9021
:1030A000DD90ED90FC90199769817A81072E000CD4
:1030B000880B990B0E942229A70196010E9478286B
:1030C000F80126893789408D518D0E949427D801B7
:1030D00096966D937D938D939C9399976B817C814C
:1030E000072E000C880B990B0E942229A70196013C
:1030F0000E947828F801228D338D448D558D0E94D1
:103100009427D8019A966D937D938D939C939D9768
:103110006D817E81072E000C880B990B0E9422295D
:10312000A70196010E947828F801268D378D40A1CD
:1031300051A10E949427D8019E966D937D938D9303
:103140009C93D1976F817885072E000C880B990B83
:103150000E94222920E030EF41E456E40E949527A6
:1031600020E030E04AEA53E40E947828F80162A3A4
:1031700073A384A395A3C280D380E480F58069857E
:103180007A85072E000C880B990B0E942229A70133
:1031900096010E947828D8011A962D913D914D9163
:1031A0005C911D970E949427F80162AB73AB84ABCE
:1031B00095AB6B857C85072E000C880B990B0E94C4
:1031C0002229A70196010E947828D8011E962D91E8
:1031D0003D914D915C9151970E949427F80166AB07
:1031E00077AB80AF91AF6D857E85072E000C880B85
:1031F000990B0E942229A70196010E947828D801E4
:1032000052962D913D914D915C9155970E94942736
:10321000F80162AF73AF84AF95AF2E960FB6F894F6
:10322000DEBF0FBECDBFDF91CF911F910F91FF90F9
:10323000EF90DF90CF90BF90AF909F900895209136
:10324000710330917203C901079697FD079623E039
:10325000959587952A95E1F720916F03309170033A
:10326000829FA001839F500D929F500D112470E00A
:1032700060E080918A0390918B030C94FC2B0E9458
:10328000F72BFB0101900020E9F73197AF01461BB6
:10329000570BDC01ED91FC910280F381E02D099444
:1032A0000F931F93CF93DF93EC010E9441198C0180
:1032B0006AE571E0CE010E944119800F911FDF91F4
:1032C000CF911F910F910895CF93DF93CDB7DEB7C4
:1032D000C054D1090FB6F894DEBF0FBECDBF9E011A
:1032E000275B3F4F4DE551E060E470E0CE01019671
:1032F0000E94032CBE016F5F7F4F8BE693E00E941C
:1033000050190E94B113C05CDF4F0FB6F894DEBFB6
:103310000FBECDBFDF91CF910895EF92FF920F9333
:103320001F93CF93DF93EB0177FF04C0CC27DD27FA
:10333000C61BD70BCF3FD10569F064F064E771E09D
:1033400082EC92E0DF91CF911F910F91FF90EF906F
:103350000C9450198B017C01FC01818161E017FD07
:1033600060E00E94BB05F701F08061E08F2D0E94B4
:10337000E905012B51F460E08F2DDF91CF911F9172
:103380000F91FF90EF900C94BB05CF3FD10511F446
:1033900061E0F2CFEF2DF0E0E256F54FE491E3303B
:1033A00049F140F4E130B1F0E230F9F0C038D10534
:1033B0007CF7E1CFE73041F1E83071F1E430B1F76B
:1033C00080918000806280938000D0938B00C093B6
:1033D0008A0004C084B5806884BDC7BDDF91CF91E9
:1033E0001F910F91FF90EF90089584B5806284BD86
:1033F000C8BDF4CF80918000806880938000D09316
:103400008900C0938800EACF8091B00080688093E3
:10341000B000C093B300E2CF8091B000806280938F
:10342000B000C093B400DACF2F923F924F925F92D8
:103430006F927F928F929F92AF92BF92CF92DF92C4
:10344000EF92FF920F931F93CF93DF93CDB7DEB729
:103450002A970FB6F894DEBF0FBECDBF1C010E94A5
:10346000FA17F101C6A4D7A4E0A8F1A8A701960114
:10347000C701B6010E94062A69837A838B839C83E5
:10348000F10186A097A0A0A4B1A4A5019401C50153
:10349000B4010E94062A29813A814B815C810E94F5
:1034A00095270E94792A6D837E838F839887F10107
:1034B00042A453A464A475A401E010E020E030E02D
:1034C000A901C701B6010E94F92987FF02C010E0D7
:1034D00000E021E030E03A87298720E030E0A901D0
:1034E000C701B6010E94732887FD02C01A8619869B
:1034F000B80149855A85641B750B072E000C880B93
:10350000990B0E9422292D813E814F8158850E946E
:10351000062A9B01AC01C301B2010E941428F101EB
:10352000FE96FA87E98721EE3EE245E652E40E94E4
:10353000062AE985FA856083718382839383A301D8
:103540009201C301B2010E94062A29813A814B816E
:103550005C810E9495270E94792A9B01AC01C501DC
:10356000B4010E94142891012E5B3F4F3A832983B6
:10357000905821EE3EE245E652E40E94062AE98197
:10358000FA8160837183828393838FB7F8948090EC
:103590004E0290904F02A0905002B09051028FBF07
:1035A00081010E5A1F4FF80180819181A281B38160
:1035B000A5019401281B390B4A0B5B0BCA01B90109
:1035C0000E9420292FE632E143E85AE30E94062AAE
:1035D0006B017C01F80180829182A282B3823496D1
:1035E00080809180A280B380A501940160E070E0AA
:1035F00080E89FE30E9494272B013C010C501109A5
:10360000F10122A933A944A955A9C701B6010E9415
:10361000062AF80120813181428153810E94952739
:10362000A50194010E94062A6D837E838F8398876B
:10363000E985FA852081318142815381C301B2013C
:103640000E94062A9B01AC016D817E818F81988545
:103650000E949527F801608371838283938391018F
:10366000265B3F4F3E832D83F10126A937A940AD4C
:1036700051ADC701B6010E94062AED81FE8120816D
:103680003181428153810E949527A50194010E94B6
:10369000062A4B015C01E981FA8120813181428156
:1036A0005381C301B2010E94062A9B01AC01C501EE
:1036B000B4010E949527ED81FE816083718382832E
:1036C00093839101225B3F4F3A832983F10122AD1D
:1036D00033AD44AD55ADC701B6010E94062AE9815C
:1036E000FA8120813181428153810E949527E981AD
:1036F000FA8160837183828393832A960FB6F8944C
:10370000DEBF0FBECDBFDF91CF911F910F91FF9014
:10371000EF90DF90CF90BF90AF909F908F907F9071
:103720006F905F904F903F902F9008952F923F920F
:103730004F925F926F927F928F929F92AF92BF92C1
:10374000CF92DF92EF92FF920F931F93CF93DF936D
:10375000CDB7DEB764970FB6F894DEBF0FBECDBF0E
:103760006A837B838C839D8310920E0410920F04D6
:10377000109210041092110410921204109213046B
:1037800010921404109215049B01AC0120930A04BA
:1037900030930B0440930C0450930D048AE194E0A1
:1037A0000E94141A8091580490915904A0915A04CF
:1037B000B0915B048093600490936104A0936204D1
:1037C000B093630480915C0490915D04A0915E04C9
:1037D000B0915F048093640490936504A0936604A1
:1037E000B0936704109268041092690410926A04FE
:1037F00010926B042FB7F89480914E0290914F0273
:10380000A0915002B09151022FBF80936C0490930D
:103810006D04A0936E04B0936F040E941A066F8328
:10382000788789879A872091740430917504409134
:1038300076045091770460916804709169048091D6
:103840006A0490916B040E9494279B01AC016A81E9
:103850007B818C819D810E9494276B017C018F80EC
:103860009884A984BA841B861C861D861E8620E047
:1038700030E040E250E4C701B6019F770E94F92989
:10388000181674F020E030E040E751E46B857C8549
:103890008D859E859F770E94F92918160CF018C116
:1038A0000E941A062F81388549855A85621B730B41
:1038B000840B950B603C764C8D42910508F008C155
:1038C0000E941A066F87788B898B9A8B6819790901
:1038D0008A099B090E9420292DEB37E346E855E32E
:1038E0000E94062A4B015C018AE194E00E94141AAE
:1038F00020917404309175044091760450917704BE
:10390000609168047091690480916A0490916B04DD
:103910000E9494279B01AC016A817B818C819D81EF
:103920000E949427362E272E8C8B9B8B20E030E034
:10393000A901C501B4010E94F92918160CF4ECC0C4
:10394000232D322D4C895B89C501B4010E94062AC2
:1039500020910E0430910F044091100450911104F5
:103960000E949527162F79838E83092F4090160485
:10397000509017046090180470901904730162014C
:10398000F7FAF094F7F8F094A70196010E947328D3
:1039900087FD10C0A3019201612F79818E81902F44
:1039A0000E94F92973016201181624F0C12ED980F2
:1039B000EE80F02EC0920E04D0920F04E09210041C
:1039C000F0921104209112043091130440911404D8
:1039D00050911504632D722D8C899B890E94942728
:1039E000A50194010E9478284B015C01832D922D42
:1039F000AC89BB898093120490931304A0931404A0
:103A0000B09315042091FE033091FF034091000410
:103A100050910104632D722DCD010E94062A2B01C5
:103A20003C01209102043091030440910404509120
:103A30000504C701B6010E94062A9B01AC01C3011F
:103A4000B2010E9495276B017C0120910604309100
:103A500007044091080450910904C501B4010E9473
:103A6000062A9B01AC01C701B6010E9495276B0194
:103A70007C0120E030E040EA52EC0E94732887FD90
:103A80005CC020E030E040EA52E4C701B6010E9489
:103A9000F929181634F4C12CD12C90EAE92E92E4BD
:103AA000F92EC701B6010E94EA286B0181E894E073
:103AB0000E948D19B60188E794E00E948D19C32CED
:103AC000D22CEC88FB888F849888A988BA88CFCEBE
:103AD00070E060E081E894E00E948D1970E060E0A1
:103AE00088E794E064960FB6F894DEBF0FBECDBFB2
:103AF000DF91CF911F910F91FF90EF90DF90CF90CA
:103B0000BF90AF909F908F907F906F905F904F90FD
:103B10003F902F900C948D19A7019601632D722D63
:103B20008C899B890E949427A50194010E94782882
:103B30006B877C878D879E8703CFC12CD12C80EA31
:103B4000E82E82ECF82EADCF85ED8093BC008091FD
:103B50009A0290919B02A0919C02B0919D020796BF
:103B6000A11DB11D23E0B695A795979587952A9538
:103B7000D1F72091BC0024FD03C010929802089553
:103B800040919A0250919B0260919C0270919D021B
:103B9000452B462B472B69F30097A105B10541F052
:103BA0002AE22A95F1F700C00197A109B109E1CFF6
:103BB000809199020C941D101F920F920FB60F92D4
:103BC00011242F933F938F939F93AF93BF93809133
:103BD0004E0290914F02A0915002B091510230914B
:103BE000490223E0230F2D3758F50196A11DB11D81
:103BF0002093490280934E0290934F02A09350026B
:103C0000B093510280914A0290914B02A0914C02D4
:103C1000B0914D020196A11DB11D80934A0290936F
:103C20004B02A0934C02B0934D02BF91AF919F9174
:103C30008F913F912F910F900FBE0F901F9018956D
:103C400026E8230F0296A11DB11DD2CF1F920F921D
:103C50000FB60F9211242F933F934F935F936F935F
:103C60007F938F939F93AF93BF93EF93FF93E091D5
:103C70000201F09103010995FF91EF91BF91AF917E
:103C80009F918F917F916F915F914F913F912F9174
:103C90000F900FBE0F901F9018951F920F920FB6A6
:103CA0000F9211242F933F934F935F936F937F93C2
:103CB0008F939F93AF93BF93EF93FF93E091000196
:103CC000F09101010995FF91EF91BF91AF919F9103
:103CD0008F917F916F915F914F913F912F910F90B5
:103CE0000FBE0F901F9018951F920F920FB60F9254
:103CF00011242F933F934F935F936F937F938F93F1
:103D00009F93AF93BF93EF93FF9382EC92E00E9457
:103D1000F206FF91EF91BF91AF919F918F917F91AB
:103D20006F915F914F913F912F910F900FBE0F9028
:103D30001F9018951F920F920FB60F9211242F9378
:103D40008F939F93EF93FF93E091D202F091D30270
:103D50008081E091D802F091D90282FD1BC0908150
:103D60008091DB028F5F8F732091DC02821741F01C
:103D7000E091DB02F0E0EE53FD4F958F8093DB0284
:103D8000FF91EF919F918F912F910F900FBE0F9008
:103D90001F9018958081F4CF1F920F920FB60F924B
:103DA00011242F933F934F935F936F937F938F9340
:103DB0009F93AF93BF93EF93FF938091B900887F58
:103DC000803609F44AC0F0F5883209F4A7C018F526
:103DD000803109F49BC0B8F4882309F4F9C0883015
:103DE00009F494C0FF91EF91BF91AF919F918F9192
:103DF0007F916F915F914F913F912F910F900FBEE7
:103E00000F901F901895883109F488C0803251F7BF
:103E10008093960214C0803409F49DC040F480332E
:103E2000B9F38833F9F68093960285ECB0C08035FB
:103E300009F485C0883509F496C0883499F60E9443
:103E4000A41DD0CF883909F48CC038F5883729F003
:103E500050F4883611F0803729F683E08093980279
:103E60001092410257C0883809F47BC0803919F09C
:103E7000803809F0B7CF80914102803208F071C0DC
:103E8000E091410281E08E0F809341028091BB005E
:103E9000F0E0EF5DFD4F80833DC0803B39F0E0F402
:103EA000803A09F479C0883A09F09CCF84E0809385
:103EB00098021092200210921F02E0914502F091A8
:103EC0004602099580911F0281110FC081E0809305
:103ED0001F021092FF0109C0803C09F4A6CF883C64
:103EE00009F4A3CF883B09F07DCFE091200281E067
:103EF0008E0F80932002F0E0E150FE4F808180938E
:103F0000BB009091200280911F0229C08091730212
:103F10008093BB0085EC8093BC0064CF90919502A8
:103F200080919402981758F5E091950281E08E0FE8
:103F300080939502F0E0EC58FD4F8081E9CFE0914D
:103F4000950281E08E0F809395028091BB00F0E096
:103F5000EC58FD4F808390919502809194029817C0
:103F6000C8F285E8D8CFE091950281E08E0F80936A
:103F700095028091BB00F0E0EC58FD4F808380916A
:103F8000970281115CCF81E08093720284EA809372
:103F9000BC001092980226CF85EC8093BC00109252
:103FA000980280914102803230F4E0914102F0E0C9
:103FB000EF5DFD4F10826091410270E0E09143029D
:103FC000F091440281E292E00995109241020ACFF9
:103FD0001092960234CF8230B8F4E82FF0E0EE0F62
:103FE000FF1FE050FF4F71836083813039F0809173
:103FF0006900836080936900E89A08958091690060
:104000008C6080936900E99A0895CF92DF92EF92D5
:104010000F931F93CF93DF93EC016B01842F4883A1
:1040200029830A83EB821C821D821E821F821886CE
:1040300061E00E94E90561E089810E94E90518813B
:1040400061E0812F0E94E90560E0812F0E94BB059D
:1040500060E089810E94BB0562E08A810E94E905D7
:1040600062E08B810E94E9058A81CD28C1F4D0935A
:10407000FB01C093FA01823071F0833071F08FEF51
:1040800063E076E1DF91CF911F910F91EF90DF9088
:10409000CF900C94EB1F80E0F3CF81E0F1CFD09371
:1040A000FD01C093FC01823031F0833031F08FEF9D
:1040B0006AEF75E1E7CF80E0FBCF81E0F9CFEF92C7
:1040C0000F931F93CF93DF93E2ECF2E013821282FF
:1040D00088EE93E0A0E0B0E084839583A683B78365
:1040E0002EE031E03183208325EC30E035872487D2
:1040F00024EC30E03787268720EC30E0318B208BB2
:1041000021EC30E0338B228B22EC30E0358B248B9A
:1041100026EC30E0378B268B118E128E138E148E88
:10412000CFE5D3E01B821A828C839D83AE83BF834D
:1041300080E291E09983888387E0E82E02E02CE01A
:104140004BE070E060E081E894E00E94052098E098
:10415000E92E03E02AE049E061E070E088E794E0BE
:104160000E940520EAE1F4E0D183C08388E491EE67
:10417000AAE7BFE38093700490937104A093720444
:10418000B0937304128613861486158616861786D6
:10419000108A118A128A138A148A158A168A178A33
:1041A000108E118E128E138E148E158E168E178E03
:1041B00010A211A210927404109275041092760449
:1041C00010927704EEEFF3E080E090E0A0EAB0E434
:1041D00080839183A283B38380E090E0A0E8BEE374
:1041E00084839583A683B78380E090E0A0E0BFE35B
:1041F00080879187A287B3871486158616861786CF
:10420000108A118A128A138A148A158A168A178AC2
:1042100080E090E0A8ECB2E4808F918FA28FB38F02
:10422000E2EEF3E040E050E060E272E4408351836C
:10423000628373834AE959E969E97EE344835583DC
:10424000668377830AE919E929E13EE3008711874C
:10425000228733871486158616861786108A118A58
:10426000128A138A148A158A168A178A808F918F68
:10427000A28FB38FE6ECF3E000E010E020E430E43E
:10428000008311832283338314821582168217825E
:10429000408751876287738714861586168617862E
:1042A000108A118A128A138A148A158A168A178A22
:1042B000808F918FA28FB38FEBEAF3E0D283C1831B
:1042C00089E2838314821582178216821086D3872F
:1042D000C287848715861686108A1786118AD48B22
:1042E000C38B858B168A178A118E108E128EEBE681
:1042F000F3E01382128220E830E03583248380E4E7
:1043000090E0978386833187208793878287168AF8
:10431000158614861786168681E0858B848B2FEF91
:104320003FEF338B228B318B208B878B108E128E3D
:10433000118E82E391E091838083148E138ED68F49
:10434000C58F10A2178E8FEF84A385A386A387A3A2
:1043500080A780E89AE1A6E0B0E085AB96ABA7AB7A
:10436000B0AF80EA96E8A1E0B0E081AF92AFA3AF32
:10437000B4AF80E586AF17AEDF91CF911F910F915B
:10438000EF900895CF93DF93CDB7DEB72E970FB69A
:10439000F894DEBF0FBECDBF789484B5826084BD33
:1043A00084B5816084BD85B5826085BD85B5816039
:1043B00085BD80916E00816080936E0010928100B7
:1043C0008091810082608093810080918100816072
:1043D0008093810080918000816080938000809133
:1043E000B10084608093B1008091B00081608093BF
:1043F000B00080917A00846080937A0080917A0086
:10440000826080937A0080917A00816080937A0044
:1044100080917A00806880937A001092C100E091C8
:10442000D202F091D30282E08083E091CE02F0913B
:10443000CF021082E091D002F091D1028FEC808304
:104440001092DA02E091D602F091D70286E08083E2
:10445000E091D402F091D502808180618083E09167
:10446000D402F091D502808188608083E091D402EB
:10447000F091D502808180688083E091D402F09130
:10448000D50280818F7D808366E871E082EC92E0C6
:104490000E945019109248021092470210929F02F7
:1044A0001092C1020E94FF0F81E796E090934602AE
:1044B0008093450282E796E0909344028093430202
:1044C00064E971E082EC92E00E94501964EF71E0BF
:1044D00080E090E00E943F0660E089E10E94851242
:1044E00060E08AE10E94851280E090E0A3E8B2E4F7
:1044F00080931C0490931D04A0931E04B0931F048A
:1045000068E08BE10E94851280E090E0A0E8B6E4CC
:104510008093200490932104A0932204B093230459
:1045200060E08CE10E94851261E08BE60E948512BA
:1045300089838AE194E00E94141A80915804909132
:104540005904A0915A04B0915B0480936004909345
:104550006104A0936204B093630480915C04909121
:104560005D04A0915E04B0915F0480936404909315
:104570006504A0936604B09367042FB7F894809104
:104580004E0290914F02A0915002B09151022FBF64
:1045900080936C0490936D04A0936E04B0936F04A9
:1045A0004981442339F060EA71E082EC92E00E9494
:1045B0005019FFCF88E60E9487056BE18FE593E0F5
:1045C0000E94531268E08FE593E00E9453128FE53A
:1045D00093E00E94821210922404109225041092FB
:1045E0002604109227041092280410922904109295
:1045F0002A0410922B0410922C0410922D04109275
:104600002E0410922F041092300410923104109254
:104610003204109233041092340410923504109234
:104620003604109237041092380410923904109214
:104630003A0410923B0484EF91E09E878D871982A3
:104640001A821B821C821D821E821F821886198676
:104650001A861B861C86C12CD12C76014601570177
:10466000260137018AE194E00E94FA172091400464
:10467000309141044091420450914304C301B2017E
:104680000E9495272B013C01209144043091450460
:104690004091460450914704C501B4010E949527FA
:1046A0004B015C0120E030E040E85FE360914804AA
:1046B0007091490480914A0490914B040E94942780
:1046C0009B01AC01C701B6010E9495276B017C01DB
:1046D00020914C0430914D0440914E0450914F0470
:1046E00069857A858B859C850E94952769877A875D
:1046F0008B879C8720915004309151044091520443
:10470000509153046D817E818F8198850E949527F9
:104710006D837E838F839887209154043091550454
:10472000409156045091570469817A818B819C8114
:104730000E94952769837A838B839C8361E070E074
:1047400080E090E00E943F064D855E854150510912
:104750005E874D87452B09F085CF20E030E04AEF9A
:1047600053E4C301B2010E9478286093300470932F
:104770003104809332049093330420E030E04AEF18
:1047800053E4C501B4010E94782860933404709307
:104790003504809336049093370420E030E04AEFEC
:1047A00053E4C701B6010E947828609338047093DF
:1047B000390480933A0490933B0420E030E04AEFC0
:1047C00053E469857A858B859C850E94782860935F
:1047D000240470932504809326049093270420E0FA
:1047E00030E04AEF53E46D817E818F8198850E948D
:1047F0007828609328047093290480932A04909366
:104800002B0420E030E04AEF53E469817A818B8108
:104810009C810E94782860932C0470932D048093CF
:104820002E0490932F046DEB71E082EC92E00E94D5
:10483000501980918A0390918B03892B09F0C5C090
:104840002091710330917203C901079697FD079675
:10485000B3E095958795BA95E1F720916F03309174
:104860007003AC01429FC001439F900D529F900D79
:1048700011240E94D22A90938B0380938A03892B60
:1048800009F0A3C06EEC71E082EC92E00E94501936
:104890006EEE71E082EC92E00E9450191F9283E06C
:1048A0008F931F9282E08F931F9281E08F938DE50B
:1048B00091E09F938F938BE693E09F938F930E9459
:1048C000641944E560E170E08BEA93E00E944216CF
:1048D00045E56EE070E084EB93E00E94421646E509
:1048E0006FE070E08DEB93E00E9442160FB6F894F3
:1048F000DEBF0FBECDBF00E010E044E050E05A83C1
:10490000498364EF71E080E090E00E943F0660E040
:1049100070E084EB92E40E94961B89819A81019752
:104920009A838983892B69F744E050E05A8349834D
:1049300064EF71E080E090E00E943F0660E070E08C
:1049400084EB92EC0E94961B89819A8101979A834D
:104950008983892B69F743E050E05A83498364EFE8
:1049600071E080E090E00E943F0660E070E080EF40
:1049700092E40E94961B89819A8101979A83898388
:10498000892B69F743E050E05A83498364EF71E073
:1049900080E090E00E943F0660E070E080EF92ECE3
:1049A0000E94961B89819A8101979A838983892B1A
:1049B00069F70115110509F4A0CF0E94DE068823CE
:1049C00009F49BCF0E94000098CF0E941F192091EC
:1049D00071033091720380916F0390917003B9015C
:1049E000213231050CF4B8C06054710977FF02C060
:1049F0006F5F7F4F759567958255910997FD019679
:104A000000E410E022E530E042EA57E09595879512
:104A10000E94C90E82E080938D038091880390915B
:104A20008903892B09F4ABC08CE380938C0310922B
:104A300048021092470210929F021092C1020E94F7
:104A4000FF0F81E796E0909346028093450282E74C
:104A500096E090934402809343028091930387FDF4
:104A60001EC061E00E94E90561E0809193030E940D
:104A7000BB0561E070E080E090E00E943F0660E0EE
:104A8000809193030E94BB056AE070E080E090E0B3
:104A90000E943F0661E0809193030E94BB058091D4
:104AA000880390918903892B09F42AC12091A003DE
:104AB0003091A1034091A2035091A30360E074E2FE
:104AC00084EF90E00E945827205131094109510993
:104AD00056954795379527952093B80064E08EEB5F
:104AE00095E00E94AC126091710361508BE693E0F7
:104AF0000E94541364E08AEB95E00E94AC1280910E
:104B00008D0364E1813009F460E18BE693E00E945B
:104B1000541364E086EB95E00E94AC128FE880931A
:104B2000A80380916F03909170038038910509F07C
:104B300000C180917103909172038034910509F056
:104B400024C180918D03813009F4F1C08FEC8093F2
:104B5000A80392E199831BC16052710977FF02C0DB
:104B60006F5F7F4F759567958357910997FD019604
:104B700000E210E023E730E042EC55E047CF61E08F
:104B8000809191030E94E90561E0809192030E9467
:104B9000E90580919103082E000C990BFC01EA585D
:104BA000F54FE491F0E0EE0FFF1FE459F54F25912A
:104BB00034913093990320939803FC01E657F54F05
:104BC000E491E0939E0380919203082E000C990BD0
:104BD000FC01EA58F54FE491F0E0EE0FFF1FE459B5
:104BE000F54FA591B491B0939B03A0939A03FC0158
:104BF000E657F54FE491E0939F038C91E82BEC93FB
:104C00008091860390918703892B09F436C05FB7A2
:104C10005983F89480914202811127C0E0E8FAE0BC
:104C20008491E4E9FAE09491E82FF0E0EE0FFF1FA1
:104C3000EE59F54FA591B491EC91E92321F461E08F
:104C40008AE00E94BB0561E08AE00E94E9058CB51C
:104C500080618CBD8CB580648CBD61E08DE00E946C
:104C6000E90561E08BE00E94E905809142028F5FD7
:104C70008093420289818FBFF0CE61E080918F03E3
:104C80000E94E90561E0809190030E94E90580910E
:104C90008F03082E000C990BFC01EA58F54FE491A4
:104CA000F0E0EE0FFF1FE459F54F2591349130935A
:104CB000950320939403FC01E657F54FE491E093AC
:104CC0009C0380919003082E000C990BFC01EA587C
:104CD000F54FE491F0E0EE0FFF1FE459F54FA59179
:104CE000B491B0939703A0939603FC01E657F54F58
:104CF000E491E0939D038C91E095E823EC93ADCE95
:104D00008091860390918703892B31F08091A903CC
:104D10009091AA030E94DF09E0919A03F0919B030E
:104D2000908180919F03809589238083D7CE8FE9DE
:104D30000ECF8036910599F48091710390917203A2
:104D4000409709F086C080918D03813031F08FEA61
:104D50008093A80342E049831AC080E1F9CF8034F0
:104D60009105C1F7809171039091720352E0809791
:104D700041F480918D03813031F08FEC8093A80352
:104D800052E1598304C080E1F9CF82E089836AED62
:104D90008BE693E00E94541369818BE693E00E94B6
:104DA000541361E88BE693E00E9454136091A803CA
:104DB0008BE693E00E94541369ED8BE693E00E942A
:104DC000541380918D0361EF813009F462E28BE628
:104DD00093E00E94541366E080EB95E00E94AC12D1
:104DE0008091880390918903892BA9F12091A403D4
:104DF0003091A5034091A6035091A70360E074E2AF
:104E000084EF90E00E94582720513109410951094F
:104E100056954795379527952093B8000E941F19FE
:104E200081E090E090937E0380937D0390937C03D8
:104E300080937B0380937F03809380031092780399
:104E40001092770310927A03109279030E94B113A3
:104E50001FCD92E07FCEE0919A03F0919B03808179
:104E600090919F03892B8083D9CF82E391E0909327
:104E70006C0380936B0380918A0390918B0300975E
:104E800011F00C946E2B089597FB072E16F40094E6
:104E900007D077FD09D00E947A2707FC05D03EF4A1
:104EA000909581959F4F0895709561957F4F0895D6
:104EB000A1E21A2EAA1BBB1BFD010DC0AA1FBB1F1E
:104EC000EE1FFF1FA217B307E407F50720F0A21B90
:104ED000B30BE40BF50B661F771F881F991F1A94FD
:104EE00069F760957095809590959B01AC01BD0127
:104EF000CF010895AA1BBB1B51E107C0AA1FBB1F0E
:104F0000A617B70710F0A61BB70B881F991F5A9555
:104F1000A9F780959095BC01CD010895EE0FFF1F74
:104F20000590F491E02D09945058BB27AA270E94C0
:104F3000AC270C94BF290E94B12938F00E94B829EF
:104F400020F039F49F3F19F426F40C9487290EF4CD
:104F5000E095E7FB0C948129E92F0E94D02958F3B2
:104F6000BA17620773078407950720F079F4A6F54E
:104F70000C94F2290EF4E0950B2EBA2FA02D0B0104
:104F8000B90190010C01CA01A0011124FF27591B8E
:104F900099F0593F50F4503E68F11A16F040A22F94
:104FA000232F342F4427585FF3CF46953795279505
:104FB000A795F0405395C9F77EF41F16BA0B620B04
:104FC000730B840BBAF09150A1F0FF0FBB1F661F4B
:104FD000771F881FC2F70EC0BA0F621F731F841F8E
:104FE00048F4879577956795B795F7959E3F08F0B4
:104FF000B0CF9395880F08F09927EE0F9795879576
:1050000008950E94B12960F080E891E009F49EEFD4
:105010000E94B82928F040E851E071F45EEF0CC01E
:105020000C9487290C94F229E92FE0780E94D0296A
:1050300040F3092E052AB1F3261737074807590709
:1050400038F00E2E07F8E02569F0E025E0640AC08C
:10505000EF6307F8009407FADB01B9019D01DC0159
:10506000CA01AD01EF930E948F280E94BF290E94C0
:1050700044285F91552339F02BED3FE049E450FD82
:1050800049EC0C9495270895DF93DD27B92FBF775E
:1050900040E85FE31616170648075B0718F4D92F98
:1050A0000E94FE299F938F937F936F930E94B92A4A
:1050B000E8E6F0E00E948A290E94BF292F913F91E3
:1050C0004F915F910E94192ADD2351F09058A2EA76
:1050D0002AED3FE049EC5FE3D0785D270E94AC27E2
:1050E000DF910C94BF290E945D2908F481E00895A6
:1050F0000E948C280C94BF290E94B82958F00E9465
:10510000B12940F029F45F3F29F00C948129511115
:105110000C94F3290C9487290E94D02968F39923D1
:10512000B1F3552391F3951B550BBB27AA276217A3
:105130007307840738F09F5F5F4F220F331F441FB0
:10514000AA1FA9F335D00E2E3AF0E0E832D09150E4
:105150005040E695001CCAF72BD0FE2F29D0660FD1
:10516000771F881FBB1F261737074807AB07B0E814
:1051700009F0BB0B802DBF01FF2793585F4F3AF01A
:105180009E3F510578F00C9481290C94F3295F3FE0
:10519000E4F3983ED4F3869577956795B795F795A0
:1051A0009F5FC9F7880F911D9695879597F9089588
:1051B000E1E0660F771F881FBB1F62177307840724
:1051C000BA0720F0621B730B840BBA0BEE1F88F733
:1051D000E09508950E94F1286894B1110C94F32988
:1051E00008950E94D82988F09F5798F0B92F9927E1
:1051F000B751B0F0E1F0660F771F881F991F1AF0C2
:10520000BA95C9F714C0B13091F00E94F229B1E00B
:1052100008950C94F229672F782F8827B85F39F00A
:10522000B93FCCF3869577956795B395D9F73EF45A
:1052300090958095709561957F4F8F4F9F4F089502
:10524000E89409C097FB3EF4909580957095619520
:105250007F4F8F4F9F4F9923A9F0F92F96E9BB27D6
:105260009395F695879577956795B795F111F8CF52
:10527000FAF4BB0F11F460FF1BC06F5F7F4F8F4FBD
:105280009F4F16C0882311F096E911C0772321F0B3
:105290009EE8872F762F05C0662371F096E8862F4B
:1052A00070E060E02AF09A95660F771F881FDAF7A2
:1052B000880F9695879597F90895990F0008550FCF
:1052C000AA0BE0E8FEEF16161706E807F907C0F08C
:1052D00012161306E407F50798F0621B730B840B94
:1052E000950B39F40A2661F0232B242B252B21F46E
:1052F00008950A2609F4A140A6958FEF811D811D0E
:10530000089597F99F6780E870E060E008959FEF47
:1053100080EC0895DF93CF931F930F93FF92EF924A
:10532000DF927B018C01689406C0DA2EEF010E94A7
:10533000192AFE01E894A591259135914591559141
:10534000A6F3EF010E94AC27FE019701A801DA94B1
:1053500069F7DF90EF90FF900F911F91CF91DF9150
:10536000089500240A9416161706180609060895CB
:1053700000240A9412161306140605060895092E31
:105380000394000C11F4882352F0BB0F40F4BF2BA0
:1053900011F460FF04C06F5F7F4F8F4F9F4F0895E0
:1053A00057FD9058440F551F59F05F3F71F04795D6
:1053B000880F97FB991F61F09F3F79F087950895BB
:1053C000121613061406551FF2CF4695F1DF08C0DA
:1053D000161617061806991FF1CF869571056105F7
:1053E00008940895E894BB2766277727CB0197F99F
:1053F00008950E945D2908F48FEF08959B01AC0188
:1054000060E070E080E89FE30C9478280E94192AFD
:105410000C94BF290E94B12938F00E94B82920F0CD
:10542000952311F00C9481290C94872911240C9454
:10543000F3290E94D02970F3959FC1F3950F50E096
:10544000551F629FF001729FBB27F00DB11D639F36
:10545000AA27F00DB11DAA1F649F6627B00DA11DDC
:10546000661F829F2227B00DA11D621F739FB00D82
:10547000A11D621F839FA00D611D221F749F3327F2
:10548000A00D611D231F849F600D211D822F762F8B
:105490006A2F11249F5750409AF0F1F088234AF068
:1054A000EE0FFF1FBB1F661F771F881F91505040D4
:1054B000A9F79E3F510580F00C9481290C94F329A3
:1054C0005F3FE4F3983ED4F3869577956795B7955B
:1054D000F795E7959F5FC1F7FE2B880F911D969575
:1054E000879597F9089519F416F40C9487290C946C
:1054F000BD2A0E94D829B8F39923C9F3B6F39F5760
:10550000550B87FF0E94CB2A0024A0E640EA9001B9
:1055100080585695979528F4805C660F771F881FF2
:1055200020F026173707480730F4621B730B840BF3
:10553000202931294A2BA695179407942025312537
:105540004A2758F7660F771F881F20F0261737075E
:10555000480730F4620B730B840B200D311D411D85
:10556000A09581F7B901842F9158880F969587955A
:1055700008959B01AC010C94062A9F3F31F0915095
:1055800020F4879577956795B795880F911D969527
:10559000879597F9089591505040660F771F881F9F
:1055A000D2F708950F931F93CF93DF938230910525
:1055B00010F482E090E0E0918C04F0918D0430E0F2
:1055C00020E0B0E0A0E0309799F42115310509F40E
:1055D0004AC0281B390B24303105D8F58A819B81BC
:1055E0006115710589F1FB0193838283FE0111C06E
:1055F000408151810281138148175907E0F0481713
:10560000590799F4109761F012960C93129713961C
:105610001C933296CF01DF91CF911F910F91089586
:1056200000938C0410938D04F4CF2115310551F0B3
:105630004217530738F0A901DB019A01BD01DF01D0
:10564000F801C1CFEF01F9CF90938D0480938C04C2
:10565000CDCFFE01E20FF31F8193919322503109C8
:1056600039832883D7CF20918A0430918B04232B50
:1056700041F4209106013091070130938B0420936F
:105680008A0420910401309105012115310541F46E
:105690002DB73EB74091080150910901241B350BED
:1056A000E0918A04F0918B04E217F307A0F42E1B1B
:1056B0003F0B2817390778F0AC014E5F5F4F241776
:1056C000350748F04E0F5F1F50938B0440938A04B8
:1056D000819391939FCFF0E0E0E09CCFCF93DF9355
:1056E0000097E9F0FC01329713821282A0918C049A
:1056F000B0918D04ED0130E020E01097A1F42081FD
:105700003181820F931F20918A0430918B042817D6
:10571000390709F061C0F0938B04E0938A04DF91AC
:10572000CF910895EA01CE17DF07E8F54A815B8142
:105730009E0141155105B1F7E901FB83EA834991C7
:105740005991C40FD51FEC17FD0761F48081918139
:105750000296840F951FE901998388838281938142
:105760009B838A83F0E0E0E012968D919C911397E1
:105770000097B9F52D913C911197CD010296820FBA
:10578000931F20918A0430918B042817390739F62A
:10579000309751F510928D0410928C04B0938B04C5
:1057A000A0938A04BCCFD383C28340815181840FEC
:1057B000951FC817D90761F44E5F5F4F88819981A3
:1057C000480F591F518340838A819B819383828331
:1057D0002115310509F0B0CFF0938D04E0938C04CE
:1057E0009ECFFD01DC01C0CF13821282D7CF81E0B2
:1057F00090E0F8940C94E42EDC0101C06D934150CC
:105800005040E0F70895AEE0B0E0E9E0FCE20C942F
:10581000BB2E8C01FA0186E08C831A83098377FF03
:1058200002C060E070E8615071097E836D83A90158
:10583000BF01CE0101960E942F2C4D815E8157FD44
:105840000AC02F813885421753070CF49A01020FC2
:10585000131FF80110822E96E4E00C94D72EABE0D3
:10586000B0E0E5E3FCE20C94AD2E7C013B018A0143
:10587000FC0117821682838181FFC8C1CE01019687
:105880005C01F7019381F30193FD859193FF819171
:105890003F01882309F453C1853239F493FD859182
:1058A00093FF81913F01853229F4B70190E00E9476
:1058B0001F2EE7CF912C212C312CFFE1F31538F06E
:1058C0008B3211F190F4803209F1833229F137FCE7
:1058D0003CC020ED280F2A3050F536FE20C08AE06B
:1058E000989E200D1124922E06C08D3291F08033A7
:1058F00071F7689430F8F30193FD859193FF8191DE
:105900003F018111DACF21C0689431F8689432F8F0
:10591000F2CF689433F8EFCF689434F8ECCFEAE034
:105920002E9E200D1124222E689435F8E4CF8E325D
:1059300029F436FC04C1689436F8DDCF8C3619F4AE
:10594000689437F8D8CF8836B1F2982F9F7D955458
:105950009330E0F08336A1F18337C1F1833509F04C
:1059600063C02801F2E04F0E511CF801C080D180C5
:10597000692D70E036FC02C06FEF7FEFC6010E9418
:10598000092E4C01689437F882010AC00C5F1F4F42
:10599000FFE3F98388248394912C6501E89437F818
:1059A00033FE2DC0522C8114910471F5552009F459
:1059B00068CFB70180E290E00E941F2E5A94F6CF84
:1059C000F801808189830E5F1F4FE4CF2801F2E048
:1059D0004F0E511CF801C080D180692D70E036FC5B
:1059E00002C06FEF7FEFC6010E94142E4C018201AE
:1059F000D5CFB70180E290E00E941F2E2A94281490
:105A0000190409F0B0F7CECFF60137FC859137FEC7
:105A100081916F01B70190E00E941F2E51105A949E
:105A2000F1E08F1A9108BFCF843619F0893609F05A
:105A300077C0F80137FE6BC06081718182819381EC
:105A40000C5F1F4FF32DFF763F2E97FF09C09095F7
:105A50008095709561957F4F8F4F9F4F689437F871
:105A60002AE030E0A5010E944F2EC82ECA188C2CC7
:105A7000432C36FE0CC0E89440F8C91440F434FEC0
:105A800005C032FC03C0F32DFE7E4F2E892C44FE50
:105A900095C0FE01EC0DF11D8081803309F087C0B7
:105AA000242D297E422E842D8870582E43FC95C0CB
:105AB00040FE8FC09C2C821418F42C0C922C981849
:105AC00044FE91C0B70180E390E00E941F2E42FE89
:105AD00009C088E790E041FE02C088E590E0B70188
