:100000000C9401030C940C1B0C94E51A0C9429031A
:100010000C9429030C9429030C9429030C942903B0
:100020000C9429030C9429030C9429030C942903A0
:100030000C9429030C9429030C9429030C94290390
:100040000C949B1A0C9429030C94591B0C94331B8D
:100050000C9429030C9429030C9429030C94290370
:100060000C948B1B0C942903084AD73B3BCE016EA2
:1000700084BCBFFDC12F3D6C74319ABD56833DDAFF
:100080003D00C77F11BED9E4BB4C3E916BAAAABE0E
:10009000000000803F00000000002300260029002F
:1000A000000103070F1F3F7F0080C0E0F0F8FCFE57
:1000B00000000000240027002A00000000002500A6
:1000C00028002B00040404040404040402020202B5
:1000D000020203030303030301020408102040800B
:1000E000010204081020010204081020000000088A
:1000F00000020100000304070000000000000000EF
:1001000000000000003E5B4F5B3E3E6B4F6B3E1CB1
:100110003E7C3E1C183C7E3C181C577D571C1C5EC8
:100120007F5E1C00183C1800FFE7C3E7FF0018249F
:100130001800FFE7DBE7FF30483A060E2629792949
:1001400026407F050507407F05253F5A3CE73C5A7E
:100150007F3E1C1C08081C1C3E7F14227F22145F5B
:100160005F005F5F06097F017F006689956A6060B6
:1001700060606094A2FFA29408047E040810207EB0
:10018000201008082A1C08081C2A08081E10101035
:10019000100C1E0C1E0C30383E3830060E3E0E067B
:1001A000000000000000005F0000000700070014CE
:1001B0007F147F14242A7F2A12231308646236498D
:1001C0005620500008070300001C22410000412275
:1001D0001C002A1C7F1C2A08083E0808008070307A
:1001E00000080808080800006060002010080402E9
:1001F0003E5149453E00427F4000724949494621EF
:1002000041494D331814127F1027454545393C4A62
:100210004949314121110907364949493646494979
:10022000291E0000140000004034000000081422C1
:10023000411414141414004122140802015909062F
:100240003E415D594E7C1211127C7F494949363E30
:10025000414141227F4141413E7F494949417F0916
:100260000909013E414151737F0808087F00417F21
:1002700041002040413F017F081422417F4040401F
:10028000407F021C027F7F0408107F3E4141413EB7
:100290007F090909063E4151215E7F091929462639
:1002A0004949493203017F01033F4040403F1F203D
:1002B00040201F3F4038403F631408146303047814
:1002C00004036159494D43007F4141410204081034
:1002D00020004141417F040201020440404040406F
:1002E000000307080020545478407F2844443838DD
:1002F00044444428384444287F385454541800084F
:100300007E090218A4A49C787F0804047800447D28
:1003100040002040403D007F1028440000417F40C5
:10032000007C047804787C08040478384444443819
:10033000FC1824241818242418FC7C0804040848F9
:100340005454542404043F44243C4040207C1C204A
:1003500040201C3C4030403C44281028444C9090A5
:10036000907C4464544C44000836410000007700FF
:1003700000004136080002010204023C2623263C0C
:100380001EA1A161123A4040207A38545455592197
:10039000555579412254547842215554784020547F
:1003A0005579400C1E5272123955555559395454CD
:1003B000545939555454580000457C410002457D3C
:1003C000420001457C407D1211127DF0282528F065
:1003D0007C545545002054547C547C0A097F493292
:1003E000494949323A4444443A324A4848303A4109
:1003F00041217A3A42402078009DA0A07D3D4242B2
:10040000423D3D4040403D3C24FF2424487E49433A
:10041000662B2FFC2F2BFF0929F620C0887E0903AD
:1004200020545479410000447D413048484A3238D4
:100430004040227A007A0A0A727D0D19317D262900
:10044000292F28262929292630484D4020380808F8
:10045000080808080808382F10C8ACBA2F1028342C
:10046000FA00007B000008142A142222142A14081F
:100470005500550055AA55AA55AAFF55FF55FF002E
:100480000000FF00101010FF00141414FF001010E3
:10049000FF00FF1010F010F0141414FC001414F7F7
:1004A00000FF0000FF00FF1414F404FC14141710E4
:1004B0001F10101F101F1414141F00101010F00034
:1004C0000000001F101010101F10101010F010006E
:1004D0000000FF101010101010101010FF1000007E
:1004E00000FF140000FF00FF00001F10170000FCB9
:1004F00004F414141710171414F404F40000FF008B
:10050000F714141414141414F700F7141414171413
:1005100010101F101F141414F4141010F010F00019
:10052000001F101F0000001F14000000FC1400003A
:10053000F010F01010FF10FF141414FF141010101E
:100540001F00000000F010FFFFFFFFFFF0F0F0F0D1
:10055000F0FFFFFF0000000000FFFF0F0F0F0F0F65
:100560003844443844FC4A4A4A347E0202060602B1
:100570007E027E0263554941633844443C04407E18
:10058000201E2006027E020299A5E7A5991C2A4991
:100590002A1C4C7201724C304A4D4D30304878481C
:1005A00030BC625A463D3E494949007E0101017E08
:1005B0002A2A2A2A2A44445F444440514A4440405B
:1005C000444A51400000FF0103E080FF000008089A
:1005D0006B6B083612362436060F090F060000181A
:1005E000180000001010003040FF0101001F010141
:1005F0001E00191D1712003C3C3C3C00000000008E
:10060000AA1C11241FBECFEFD8E0DEBFCDBF11E082
:10061000A0E0B1E0E4E4FBE402C005900D92A4394F
:10062000B107D9F724E0A4E9B1E001C01D92AD33D0
:10063000B207E1F713E0C1E0D3E004C02197FE0167
:100640000E945722C030D107C9F70E94051D0C94A3
:10065000A0250C9400008230B8F4E82FF0E0EE0FF3
:10066000FF1FE050FF4F71836083813039F080912C
:100670006900836080936900E89A08958091690019
:100680008C6080936900E99A089591E090935803F3
:1006900080937A031092590310927B030895089572
:1006A000FC016370668B848195812681378161307E
:1006B00039F0633029F09187808733872287089546
:1006C000318720879387828708952F923F924F9298
:1006D0005F926F927F928F929F92AF92BF92CF92D2
:1006E000DF92EF92FF920F931F93CF93DF93CDB7DB
:1006F000DEB76A970FB6F894DEBF0FBECDBF9A8FF4
:10070000898F7A8369834A01D22E18870F83370134
:10071000BC2CDC0159962D913C915A97211531053D
:1007200009F015C118968D919C9119976817790752
:100730000CF0D7C11A968D919C91481759070CF06F
:10074000D0C14C2C512CB6E0CB9E600D711D1124F4
:100750007C876B87161617060CF0C3C1EA2DF0E0F4
:10076000FA87E98793E0EE0FFF1F9A95E1F7F88B80
:10077000EF87CF01840F951F181619060CF0B1C131
:10078000A98DBA8D58968C91811104C0BFEABD1510
:1007900008F4D394A98DBA8DED91FC911197028440
:1007A000F385E02DCD010995B5E0DB9EC001112454
:1007B000E981FA81FC83EB83312C212C9C012050B0
:1007C0003F4F388F2F8B4A2D50E05E8B4D8BEF893A
:1007D000F88DE20DF31D44919E828D82D12CC12CA7
:1007E00069817A81620D731D7A8B698B842F90E009
:1007F0009C8B8B8BE98DFA8DA081B18140FF82C0EB
:10080000F1E0BF126FC0AF126DC01C96ED91FC916C
:100810002F813885A4014C0D5D1D69897A89898DE8
:100820009A8D0995EB89FC89F595E7954E2F5FEF39
:10083000C51AD50A6D817E818D899E89680F791FC1
:100840007E836D8398E0C916D10481F6AFEF2A1A32
:100850003A0AEB81FC81E40DF51DFC83EB83F5E0A6
:100860002F16310409F0B3CF2F81388526153705AF
:10087000B9F0A98DBA8DED91FC91B1E0BB1257C0D2
:10088000AB1255C069817A816B5F7F4F0088F18917
:10089000E02D830128E030E0A401898D9A8D09952F
:1008A000A98DBA8DED91FC9111970688F789E02DFD
:1008B000CD016A960FB6F894DEBF0FBECDBFDF91B3
:1008C000CF911F910F91FF90EF90DF90CF90BF904D
:1008D000AF909F908F907F906F905F904F903F90E0
:1008E0002F9009941E96ED91FC91EF80F884098574
:1008F0001A8592014D815E816B817C81898D9A8DF3
:10090000099590CF2F8138852615370509F48ACFB0
:1009100031E0B31207C0A31205C01C96ED91FC9103
:10092000930178CF1E96ED91FC917301E0CF6B851A
:100930007C85641975090684F785E02D73010F85A0
:1009400018899201A401898D9A8D0995A9CFF90181
:1009500034969491329745915491D91AB7E0DB9E21
:10096000400D511D1124F901259134913C8B2B8BA5
:10097000FA0125903490FA013296749031963491B0
:10098000398B329664903196449041E04C1518F0C2
:100990004A1508F07FC0662D062C000C770B7C836F
:1009A0006B83842D042C000C990B9E838D83A98D61
:1009B000BA8DED91FC9111970284F385E02DCD0164
:1009C0000995512CD12CC12CEA2DF0E0FA87E9874A
:1009D0002B2D30E03C872B87A401440D511D47FC93
:1009E0005A95588F4F8B69817A81660D711D67FC0E
:1009F0007A957E876D877989C71608F051CF2C2D9F
:100A000030E04D815E81420F531FA985BA854A9F10
:100A1000C0014B9F900D5A9F900D1124FC01E80DD1
:100A2000F91DF88BEF87852D612C4F89588D420F6A
:100A3000531F5E8B4D8B671408F050C044244394C1
:100A4000480E877041F4C1010196EB89FC89E20DE3
:100A5000F31DD4901C01D7FE19C0A98DBA8DED915C
:100A6000FC91662D70E0B1E0BB1219C0AB1217C04B
:100A70002D853E85620F731F0484F585E02D2F813F
:100A800038854D895E89898D9A8D0995DD0C639431
:100A9000842DD1CF1E821D821C821B8288CF4B8168
:100AA0005C81640F751FAB85BC856A9FC0016B9F1D
:100AB000900D7A9F900D112469817A81680F791FBA
:100AC0000684F785E02DEF80F88409851A859D015D
:100AD0004F855889898D9A8D0995D8CF570CC39425
:100AE0008ACF6A960FB6F894DEBF0FBECDBFDF91F6
:100AF000CF911F910F91FF90EF90DF90CF90BF901B
:100B0000AF909F908F907F906F905F904F903F90AD
:100B10002F9008958F929F92AF92CF92EF92FF9273
:100B20000F931F93CF93DF93EC01262F898D9A8D1E
:100B3000009709F051C06A30D1F41D861C868D895A
:100B400048E0849F900111248E859F85820F931F1A
:100B50009F878E8781E090E0DF91CF911F910F9169
:100B6000FF90EF90CF90AF909F908F9008956D3051
:100B700089F3CC88AD888F898823C1F08C859D85C9
:100B800036E0C39E800D911D112448855985481774
:100B9000590764F44E855F851D861C8638E0A39E48
:100BA000C0011124840F951F9F878E87EA88FB88D8
:100BB000088919894E855F856C857D85CE010E94E7
:100BC00065032C898C859D8546E0249F800D911DB1
:100BD00011249D878C87BECF6A3069F41D861C86E0
:100BE000FC013896E4912D898E859F85E29F800DCA
:100BF000911D1124ADCF6D3009F4ACCFFC013496BA
:100C00003491631708F4A6CF3296E491E61708F4FE
:100C1000A1CFFC01329685909490462F431B342F30
:100C200047E0349F800C911C1124F40132963491DA
:100C30003196E4913323A9F1EE2399F1CC88F401A4
:100C40003596E491AD884F89442301F10E2E000CB6
:100C5000FF0BE30FF11DCE9EA001CF9E500D11247E
:100C60006C857D85460F571F6885798564177507E4
:100C70006CF44E855F851D861C86FC013896E491D8
:100C8000AE9E400D511D11245F874E87EA88FB8878
:100C9000088919894E855F856C857D85CE010E9406
:100CA0006503F4013496E4912C898C859D85E29F3F
:100CB000800D911D11248DCF6F927F928F929F9204
:100CC000AF92BF92CF92DF92EF92FF920F931F935A
:100CD000CF93DF93EC016B015A0139014801E881A0
:100CE000F9810284F385E02D0995E881F981028874
:100CF000F389E02D87019301A501B601CE01099585
:100D0000A501480D591D41505109E881F98102881A
:100D1000F389E02D9301B601CE010995E881F981AF
:100D20000088F189E02D9401A501B601CE01099555
:100D3000C60CD71CB60161507109E881F9810088A1
:100D4000F189E02D9401A501CE010995E881F98191
:100D50000688F789E02DCE01DF91CF911F910F9189
:100D6000FF90EF90DF90CF90BF90AF909F908F90CB
:100D70007F906F9009946F927F928F929F92AF9223
:100D8000BF92CF92DF92EF92FF920F931F93CF9378
:100D9000DF935C01EB016A01490138018701DC0145
:100DA000ED91FC916217730719F5641675062CF026
:100DB000962D872D3A01C92ED82E9601261937096E
:100DC0002F5F3F4F048CF58DE02DA301BE01C501BF
:100DD0000995DF91CF911F910F91FF90EF90DF90D8
:100DE000CF90BF90AF909F908F907F906F9008951D
:100DF0004615570591F42617370724F0892D4B0126
:100E0000C22FD82F9E01281939092F5F3F4F068C1A
:100E1000F78DE02DA601B401DACF0284F385E02D31
:100E20000995D501ED91FC910488F589E02D8301A8
:100E30009401A601BE01C5010995D501ED91FC9172
:100E40000688F789E02DC501DF91CF911F910F91A1
:100E5000FF90EF90DF90CF90BF90AF909F908F90DA
:100E60007F906F900994EF92FF920F931F93DC0194
:100E70001A960D911C911B9718962D913C911997DC
:100E8000ED91FC9100A0F1A1E02D7B0150E040E04C
:100E900070E060E009951F910F91FF90EF90089529
:100EA0004F925F926F927F928F929F92AF92BF927A
:100EB000CF92DF92EF92FF920F931F93CF93DF9326
:100EC0006C012B015A0139014801DC01ED91FC91C3
:100ED0000284F385E02D0995E201640C751CD601AE
:100EE000ED91FC91C615D7055CF40088F189E02DE1
:100EF00087019401A501BE01C60109952196EFCF96
:100F00000688F789E02DC601DF91CF911F910F91DF
:100F1000FF90EF90DF90CF90BF90AF909F908F9019
:100F20007F906F905F904F9009948F929F92AF92B5
:100F3000BF92CF92DF92EF92FF920F931F93CF93C6
:100F4000DF93EC015B014A016901E881F9810284C8
:100F5000F385E02D099595012C0D3D1D215031099A
:100F6000E881F9810488F589E02D78018401A401E4
:100F7000B501CE010995E881F9810688F789E02D50
:100F8000CE01DF91CF911F910F91FF90EF90DF90F5
:100F9000CF90BF90AF909F908F9009948F929F9227
:100FA000AF92BF92CF92DF92EF92FF920F931F9377
:100FB000CF93DF93EC015B014A0169017801E8817D
:100FC000F9810284F385E02D0995C80CD91C8601AE
:100FD00001501109E881F9810488F589E02D950116
:100FE000A401B501CE010995E881F9810688F78948
:100FF000E02DCE01DF91CF911F910F91FF90EF90E7
:10100000DF90CF90BF90AF909F908F9009940895FC
:10101000EF92FF920F931F93DC01ED91FC9100A0E2
:10102000F1A1E02D09951F910F91FF90EF90089588
:101030000F931F93DC01ED91FC91068CF78DE02D51
:1010400009951F910F9108950F931F93DC01ED9166
:10105000FC91048CF58DE02D09951F910F91089559
:10106000DC01ED91FC910084F185E02D09942F9233
:101070003F924F925F926F927F928F929F92AF9228
:10108000BF92CF92DF92EF92FF920F931F93CF9375
:10109000DF9300D000D000D0CDB7DEB73C016A01AD
:1010A0003E832D83FC82EB825801A41AB50AB7FE59
:1010B00003C0B194A194B1088D809E80861A970ACE
:1010C00097FE03C09194819491088A149B045CF06C
:1010D000902F812F0D811E819D838E839C2D8D2DC0
:1010E0006B01692F782F0C151D055CF09D818E8199
:1010F0007E836D83692F782F902F812F8601C92ED3
:10110000D82E1601201A310A2B012D813E81421A58
:10111000530A57FE03C0519441945108710137FEA0
:1011200003C03FEFE31AF30AF594E7948D819E81A3
:10113000861797075CF5A1E0B0E0BA83A983C016D3
:10114000D1064CF1D301ED91FC910484F585E02D9D
:101150002B813C81A8016D817E818A149B041CF047
:101160004D815E81B801C3010995E418F508F7FEC9
:101170000AC02D813E8189819A81280F391F3E83C3
:101180002D83E20CF31C0F5F1F4FD9CF2FEF3FEFE2
:101190003A832983D4CF26960FB6F894DEBF0FBECC
:1011A000CDBFDF91CF911F910F91FF90EF90DF9016
:1011B000CF90BF90AF909F908F907F906F905F90F7
:1011C0004F903F902F900895833081F028F4813024
:1011D00099F08230A9F008958730A9F08830C9F0DD
:1011E0008430B1F4809180008F7D03C080918000B5
:1011F0008F7780938000089584B58F7784BD08959C
:1012000084B58F7DFBCF8091B0008F778093B00045
:1012100008958091B0008F7DF9CF1F93CF93DF9316
:10122000282F30E0F901E451FF4F8491F901E85291
:10123000FF4FD491F901EC53FF4FC491CC23A9F097
:10124000162F81110E94E408EC2FF0E0EE0FFF1F33
:10125000E654FF4FA591B4918FB7F894EC9111111A
:1012600008C0D095DE23DC938FBFDF91CF911F9113
:101270000895DE2BF8CFCF93DF9390E0FC01E85286
:10128000FF4F24918C539F4FFC0184918823D1F010
:1012900090E0880F991FFC01E055FF4FA591B49194
:1012A000FC01E654FF4FC591D491623071F49FB7B1
:1012B000F8943C91822F809583238C93E8812E2B88
:1012C00028839FBFDF91CF9108958FB7F894EC9159
:1012D0002E2B2C938FBFF6CF3FB7F8948091080345
:1012E00090910903A0910A03B0910B0326B5A89B26
:1012F00005C02F3F19F00196A11DB11D3FBFBA2FA8
:10130000A92F982F8827BC01CD01620F711D811D67
:10131000911D42E0660F771F881F991F4A95D1F7EC
:1013200008958F929F92AF92BF92CF92DF92EF92E9
:10133000FF924B015C010E946C096B017C010E94D1
:101340006C096C197D098E099F09683E73408105FF
:101350009105A8F321E0821A9108A108B10888EE4E
:10136000C80E83E0D81EE11CF11C81149104A10475
:10137000B10429F7FF90EF90DF90CF90BF90AF902E
:101380009F908F9008952FB7F89460910403709107
:10139000050380910603909107032FBF08950895D8
:1013A00008950895AF92BF92CF92DF92EF92FF928D
:1013B0000F931F93CF93DF936C017B018B01040F7D
:1013C000151FEB015E01AE18BF08C017D10759F019
:1013D0006991D601ED91FC910190F081E02DC6015B
:1013E0000995892B79F7C501DF91CF911F910F9155
:1013F000FF90EF90DF90CF90BF90AF900895FC01E9
:10140000538D448D252F30E0842F90E0821B930B69
:10141000541710F0CF96089501970895FC01918D0F
:10142000828D981761F0A28DAE0FBF2FB11D5D9612
:101430008C91928D9F5F9F73928F90E008958FEFB4
:101440009FEF0895FC01918D828D981731F0828D68
:10145000E80FF11D858D90E008958FEF9FEF0895BF
:10146000FC01918D228D892F90E0805C9F4F821B23
:1014700091098F73992708958CE793E00E94300AB1
:1014800021E0892B09F420E0822F089580E090E08C
:10149000892B29F00E943C0A81110C9400000895C8
:1014A000FC01A48DA80FB92FB11DA35ABF4F2C91D9
:1014B000848D90E001968F739927848FA689B789D0
:1014C0002C93A089B1898C91837080648C93938DC7
:1014D000848D981306C00288F389E02D80818F7D6A
:1014E00080830895EF92FF920F931F93CF93DF9322
:1014F000EC0181E0888F9B8D8C8D98131AC0E88950
:10150000F989808185FF15C09FB7F894EE89FF891E
:101510006083E889F98980818370806480839FBFBC
:1015200081E090E0DF91CF911F910F91FF90EF90BC
:101530000895F62E0B8D10E00F5F1F4F0F731127CC
:10154000E02E8C8D8E110CC00FB607FCFACFE88907
:10155000F989808185FFF5CFCE010E94500AF1CF35
:10156000EB8DEC0FFD2FF11DE35AFF4FF0829FB77B
:10157000F8940B8FEA89FB8980818062CFCFCF936B
:10158000DF93EC01888D8823B9F0AA89BB89E889AB
:10159000F9898C9185FD03C0808186FD0DC00FB651
:1015A00007FCF7CF8C9185FFF2CF808185FFEDCFCF
:1015B000CE010E94500AE9CFDF91CF910895EF92BA
:1015C000FF920F931F93CF93DF93EC01EC80FD808C
:1015D0006E157F050CF070C057FF04C0240F351F37
:1015E00050E040E08E819F81FA01E20FF31F8E17D9
:1015F0009F071CF49C01241B350B121613060CF0DC
:101600005BC0922F842F8695869586958E9DD001FE
:101610008F9DB00D11246A0F7B1FAF8DB8A1A60F4F
:10162000B71F477049F188E0841B482F682F70E08E
:10163000FB01E855FF4FE491281708F063C0621BD7
:1016400071092FEF30E002C0359527956A95E2F7D2
:10165000E2230130110539F0B0F10230110561F5D6
:101660008C91E82702C08C91E82BEC93941720F121
:101670002C813D81A20FB31FE92FE41BE83078F0E5
:101680000230110521F58E2F9C9190959C932C8111
:101690003D81A20FB31F88508830B0F7E770EE236A
:1016A00059F0F0E0E056FF4FE49101301105F9F0F8
:1016B00010F10230110519F1DF91CF911F910F91B7
:1016C000FF90EF900895E0958C91E823CECF81E0D4
:1016D0000115110509F480E081959E2F8C932C81D2
:1016E0003D81A20FB31F98509830C0F7D7CF8C918F
:1016F000E82BEC93E1CFE0958C91E823FACF8C9125
:10170000E827F7CF0130110509F4ADCFE0F2023040
:10171000110509F4A5CFAE0DBF1DAECF0F931F93DA
:10172000CF93DF9377FF04C0260F371F70E060E090
:10173000DC011496CD91DC91FB01E20FF31FCE1773
:10174000DF071CF49E01261B370B121613064CF5FF
:10175000FA0157FD3796A3E0F595E795AA95E1F7CD
:10176000EC9FD001ED9FB00DFC9FB00D11246A0FCE
:101770007B1FDC015F96ED91FC91E60FF71F477030
:10178000552781E090E001C0880F4A95EAF7482F7D
:101790000130110559F0A8F02E0F3F1F023011053E
:1017A000E1F0DF91CF911F910F9108952E0F3F1F10
:1017B000E217F307B1F38191DF011197842B8C932A
:1017C000F7CF80952E0F3F1FE217F30751F391914A
:1017D000DF01119798239C93F7CFE217F30709F3E2
:1017E0008191DF01119784278C93F7CF0F931F937B
:1017F000FA01DC0156964C9156974230E9F043309D
:10180000A1F1413061F514964D915C91DA01AE1B66
:10181000BF0BFD01E21BF30B77FD0BC0DC0116963D
:101820004D915C916417750724F4AB01BF010E94D0
:101830008E0B1F910F91089514964D915C91DA01D2
:10184000A61BB70BBD0161507109DC0116964D91C5
:101850005C91DA01AE1BBF0BFD01E21BF30B77FDC0
:10186000E8CFAF010E94DF0AE4CF16964D915C915C
:10187000DA01A61BB70BBD0161507109CDCF0F93E3
:101880001F93FA01DC0156964C9156974230A9F00D
:10189000433091F1413019F514964D915C91DA0184
:1018A000AE1BBF0BFD013197F7FD04C0AB01BF01BB
:1018B0000E94DF0A1F910F91089516964D915C9139
:1018C000DA01AE1BBF0BFD013197DC0114964D917F
:1018D0005C91DA01A61BB70BBD01621B730BF7FD10
:1018E000E9CFDC0116964D915C91E417F50714F7EA
:1018F000AF010E948E0BDECF16964D915C91DA01FE
:10190000A61BB70BBD01621B730BCECFFC0177FD8D
:1019100064C080859185681779070CF05EC057FD1B
:101920005CC082859385481759070CF056C086899C
:101930008230B1F0833029F1813041F48481958186
:10194000841B950BAB01BC0161507109213031053D
:1019500009F108F443C02230310509F463C0089549
:1019600084819581DC01A61BB70BBD016150710913
:1019700086819781DC01A41BB50BAD014150510953
:10198000E5CF86819781861B970BBA01AC01415048
:101990005109DCCFCA0157FD0796A3E095958795BD
:1019A000AA95E1F7A481B5818A9F90018B9F300DA4
:1019B0009A9F300D1124620F731F078CF0A1E02D48
:1019C000E60FF71F4770552721E030E001C0220FD6
:1019D0004A95EAF78081822B80830895CA0157FDDA
:1019E000079633E0959587953A95E1F7A481B581FF
:1019F0008A9F90018B9F300D9A9F300D1124620FAA
:101A0000731F078CF0A1E02DE60FF71F47705527D5
:101A100081E090E001C0880F4A95EAF780959081B7
:101A20008923DACFCA0157FD079623E0959587955C
:101A30002A95E1F7A481B5818A9F90018B9F300D93
:101A40009A9F300D1124620F731F078CF0A1E02DB7
:101A5000E60FF71F4770552721E030E001C0220F45
:101A60004A95EAF780818227B7CF08952091DA025C
:101A7000260F3327331F21323105ECF42091520316
:101A8000FC0190E080E0243069F082E00895A091AC
:101A9000DA022191AC0146545D4FA40FB52FB11D60
:101AA0002C930196861798F38091DA02680F609361
:101AB000DA0280E0089581E008951092520381E0F7
:101AC0008093510310922C0361E082E10E940D0982
:101AD00061E083E10E940D09E9EBF0E080818E7FF7
:101AE000808380818D7F808388E48093B80085E443
:101AF0008093BC000895CF93DF9391E09093B90257
:101B00008823B9F0C091B800D091BA008091BC0090
:101B10008A7B8093BC0060E082E10E940D0960E056
:101B200083E10E940D090E945D0DD093BA00C0931D
:101B3000B800DF91CF9108958F929F92AF92BF929C
:101B4000CF92DF92EF92FF920F931F93CF93DF9389
:101B5000D0917B03D13208F0D7C0182FC0917A03FF
:101B60000E946C096B017C018091520381116BC052
:101B700082E080935203109351038FEF80935003C0
:101B800010924F03D0934E03AAE5B3E0EEE2F3E0E8
:101B900080E0D81391C010922D0380912D03CC0FBB
:101BA000C82BC0932D0380912C03813009F088C08D
:101BB00010922C030E946C096B017C0180912D0313
:101BC0008093BB008091540390915503A0915603DC
:101BD000B0915703892B8A2B8B2BA1F00E946C09A3
:101BE00000915403109155032091560330915703EF
:101BF0006C197D098E099F090617170728073907F1
:101C000008F442C08091BC0083FDD8CF85EC80935E
:101C1000BC000E946C096B017C01809152038230F0
:101C200009F450C0809150038F3F09F46FC0809138
:101C30005003803209F46CC080915003803309F462
:101C400069C084E026C08091540390915503A0910F
:101C50005603B0915703892B8A2B8B2B09F484CF21
:101C60000E946C098090540390905503A0905603F5
:101C7000B09057036C197D098E099F098616970647
:101C8000A806B90608F070CF809153030E947B0D1F
:101C900085E01092590310927B0310925803DF9154
:101CA000CF911F910F91FF90EF90DF90CF90BF9059
:101CB000AF909F908F9008959D9191938F5F69CF82
:101CC00085EEA5CF8091540390915503A0915603C2
:101CD000B0915703892B8A2B8B2B09F49ECF0E943E
:101CE0006C090091540310915503209156033091D3
:101CF00057036C197D098E099F09061717072807D6
:101D0000390708F08ACFC0CF81E0C3CF80E0C1CFD0
:101D100082E0BFCF83E0BDCFCF92DF92EF92FF9200
:101D20000F931F93CF93DF93D82FC62F613208F004
:101D300098C00E946C096B017C0180915203811153
:101D40006BC081E080935203809351039FEF909387
:101D5000500310924F039C0F90934E0380932D03DA
:101D600080912D03DD0FD82BD0932D0380912C0370
:101D7000813009F078C010922C030E946C096B012D
:101D80007C0180912D038093BB008091540390913E
:101D90005503A0915603B0915703892B8A2B8B2BA7
:101DA000A1F00E946C0900915403109155032091F9
:101DB0005603309157036C197D098E099F09061748
:101DC00017072807390708F448C08091BC0083FD35
:101DD000D8CF85EC8093BC000E946C096B017C011C
:101DE00080915203813009F440C080914F038C17D9
:101DF00010F4C0914F03EEE2F3E0ACE0B3E080E01A
:101E00008C1355C08C2FDF91CF911F910F91FF90B4
:101E1000EF90DF90CF9008958091540390915503F7
:101E2000A0915603B0915703892B8A2B8B2B09F471
:101E300084CF0E946C0900915403109155032091A6
:101E40005603309157036C197D098E099F090617B7
:101E500017072807390708F070CF809153030E94B5
:101E60007B0DC0E0CFCF85EEB5CF8091540390912C
:101E70005503A0915603B0915703892B8A2B8B2BC6
:101E800009F4AECF0E946C090091540310915503E0
:101E900020915603309157036C197D098E099F09D3
:101EA000061717072807390708F09ACFD6CF919160
:101EB0009D938F5FA5CFE091020380910103E81706
:101EC00030F4F0E0E45FFC4F808190E008958FEF04
:101ED0009FEF089590910203809101032FEF3FEF50
:101EE000981748F4E92FF0E0E45FFC4F208130E0E0
:101EF0009F5F90930203C90108958091010390911F
:101F00000203891B990B0895CF92DF92EF92FF9203
:101F10000F931F93CF93DF937C01CB018A01209114
:101F20005803222389F0EB016B01C40ED51ECC159A
:101F3000DD0569F06991D701ED91FC910190F08187
:101F4000E02DC7010995F3CF642F0E94360DC8011B
:101F5000DF91CF911F910F91FF90EF90DF90CF9085
:101F60000895CF93DF931F92CDB7DEB76983209199
:101F700058032223F9F020917B03203258F021E00E
:101F800030E0FC013383228390E080E00F90DF910A
:101F9000CF91089580915903E82FF0E0E65AFC4F65
:101FA000998190838F5F8093590380937B0381E0B5
:101FB00090E0ECCF61E0CE0101960E94360DF7CFA4
:101FC00081E00C949C0D1F93CF93DF93EC01162FAF
:101FD0008D8D9E8D892B09F455C02DA93EA94FA941
:101FE00058AD60E074E284EF90E00E94212220511D
:101FF0003109410951095695479537952795209301
:10200000B800112309F44EC017EA8D8D9E8D892BDF
:1020100009F44AC089A10E9445038D8D9E8DDC0183
:10202000ED91FC910190F081E02D60E009958D8D9E
:102030009E8DDC01ED91FC910190F081E02D612FEE
:1020400009958D8D9E8D0E94E00F8D8D9E8D892B23
:1020500009F45EC029AD3AAD4BAD5CAD60E074E211
:1020600084EF90E00E942122205131094109510959
:1020700056954795379527952093B800DF91CF91D6
:102080001F9108958B8D9C8D892B21F09EAD8FAD76
:102090009CBD8DBDEFA5F8A990818CA98095892361
:1020A0008083AFCF16EAB1CFEDA5FEA590818BA9B5
:1020B0008095892380838B8D9C8D892B39F01EBD63
:1020C00000000DB407FEFDCF8EB5BFCF28E030E095
:1020D00090E8E9A5FAA589A9412F4923A9F04081F3
:1020E000842B8083EBA5FCA580814AA9842B808367
:1020F000EBA5FCA540818AA98095842380839695D1
:102100002150310931F7A1CF408180958423E9CF57
:10211000EFA5F8A980819CA9892B8083AFCFFF927E
:102120000F931F93CF93DF93EC01F62E142F052FFF
:102130008B810E94450389819A81DC01ED91FC919C
:102140000190F081E02D60E0099589819A81DC01A0
:10215000ED91FC910190F081E02D6F2D0995898121
:102160009A81DC01ED91FC910190F081E02D602FCE
:10217000099589819A81DC01ED91FC910190F081B2
:10218000E02D612F099589819A810E94E00F888353
:10219000DF91CF911F910F91FF900895FF920F93C0
:1021A0001F93CF93DF93EC01062FF72E142F8B8113
:1021B0000E94450389819A81DC01ED91FC91019097
:1021C000F081E02D6F2D099589819A81DC01ED91D7
:1021D000FC910190F081E02D602F099589819A8111
:1021E000DC01ED91FC910190F081E02D612F0995CA
:1021F00089819A810E94E00F8883DF91CF911F919E
:102200000F91FF9008950F931F93CF93DF93EC01ED
:10221000062F142F88E60E94450388819981DC01EE
:10222000ED91FC910190F081E02D602F099588815E
:102230009981DC01ED91FC910190F081E02D612FFD
:10224000099588819981DF91CF911F910F910C940D
:10225000E00F90E080E008952F923F924F925F92BE
:102260006F927F928F929F92AF92BF92CF92DF92A6
:10227000EF92FF920F931F93CF93DF93CDB7DEB70B
:102280002A970FB6F894DEBF0FBECDBF9A87898715
:102290004A015B0109831A832B833C83FE82ED8212
:1022A000D886CF82A9019801CB01B4010E94CF2426
:1022B000E985FA8524853585468557850E945E2205
:1022C0001B018C01E985FA854488558866887788E2
:1022D00073016201F7FAF094F7F8F094A701960100
:1022E0000E943C2387FD0CC0A3019201B101C801EB
:1022F0000E94C22461017801181614F4730162016E
:10230000E985FA85C486D586E686F78620893189EF
:1023100042895389C501B4010E945D2229813A8115
:102320004B815C810E9441232B013C01E985FA85A8
:10233000808A918AA28AB38A208131814281538125
:10234000C501B4010E94CF244B015C01E985FA85E7
:102350002481358146815781C701B6010E94CF246F
:102360009B01AC01C501B4010E945E226B017C019E
:10237000E985FA852085318542855385C301B201FF
:102380000E94CF249B01AC01C701B6010E945E22CE
:102390005B01D82EF92E2D813E81B901330F880BB8
:1023A000990B0E94EB238B018D8399839B01AC01D8
:1023B000B5018D2D9F2D0E943C2387FD17C0EF8115
:1023C000F885BF01FF0F880B990B0E94EB238B014F
:1023D0008D8399839B01AC01B5018D2D9F2D0E94AA
:1023E000C22418161CF08501DD82F982B8018D81A6
:1023F00099810E94B323CB012A960FB6F894DEBFD1
:102400000FBECDBFDF91CF911F910F91FF90EF9045
:10241000DF90CF90BF90AF909F908F907F906F9004
:102420005F904F903F902F9008950F931F93CF93FD
:10243000DF93EC012B8130E0F901E451FF4F8491EF
:10244000F901E852FF4F0491F901EC53FF4F149149
:10245000112301F181110E94E408E12FF0E0EE0F59
:10246000FF1FEA56FF4FA591B491EC910E2391F016
:102470008D819E81AF81B8850196A11DB11D8D838F
:102480009E83AF83B88781E08C83DF91CF911F91CA
:102490000F9108958D819E81AF81B8850197A10923
:1024A000B1098D839E83AF83B8878FEFEDCF809185
:1024B000960190919701009711F00C9415120895D0
:1024C0008091940190919501009711F00C94151250
:1024D0000895FC0101900020E9F73197AF01481BF6
:1024E000590BBC018CE793E00C94D209CF93DF9396
:1024F0000E946912EC0184E591E00E9469128C0F40
:102500009D1FDF91CF9108950F931F93CF93DF937A
:10251000EC018B01898161E017FD60E00E940D09EB
:10252000C88161E08C2F0E943B090115110541F41F
:1025300060E08C2FDF91CF911F910F910C940D09CA
:1025400017FF03C0119501951109EC2FF0E0E4513C
:10255000FF4FE491E33019F148F4E130B9F0E23093
:1025600039F784B5806284BD08BD14C0E73009F135
:10257000E83039F1E430E1F68091800080628093A8
:10258000800010938B0000938A0004C084B580689B
:1025900084BD07BDDF91CF911F910F910895809168
:1025A00080008068809380001093890000938800E9
:1025B000F1CF8091B00080688093B0000093B300A9
:1025C000E9CF8091B00080628093B0000093B400A6
:1025D000E1CF8F929F92AF92BF92CF92DF92EF9214
:1025E000FF920F931F93CF93DF93CDB7DEB7A197E1
:1025F0000FB6F894DEBF0FBECDBF6C01990FEE0889
:10260000FF08F7FE47C06DE28CE793E00E94720A74
:102610008C0122273327A9012C193D094E095F0996
:1026200019A2CE0181967C019AE0892E912CA12CD1
:10263000B12CCA01B901A50194010E942122605D5B
:10264000F70162937F01211531054105510589F795
:1026500090E080E0309719F0CF010E946912080FD6
:10266000191F84E591E00E946912800F911FA196C5
:102670000FB6F894DEBF0FBECDBFDF91CF911F9193
:102680000F91FF90EF90DF90CF90BF90AF909F9011
:102690008F900895A701960119A28E010F5D1F4F1B
:1026A0008AE0C82ED12CE12CF12CCA01B901A70176
:1026B00096010E942122605DF80162938F0121152D
:1026C00031054105510589F7309729F0CF010E9466
:1026D00069128C01C6CF10E000E0C3CF9F92AF9289
:1026E000BF92CF92DF92EF92FF920F931F93CF93FF
:1026F000DF93CDB7DEB72E970FB6F894DEBF0FBECF
:10270000CDBF8C0188E60E944503D8018D919C9134
:10271000DC01ED91FC910190F081E02D6BE30995D6
:1027200080E00E949C0D6EE088E60E948C0E109264
:10273000020380930103FE0131967F015E01FFE0F9
:10274000AF0EB11CD8018D919C91DC01ED91FC91F3
:102750000284F385E02D0995982EF80180819181FE
:10276000DC01ED91FC910284F385E02D0995C12CEB
:102770008C299929F701819391937F01AE16BF06A9
:1027800009F7D8011696CD90DD90ED90FC90199741
:1027900069817A81072E000C880B990B0E94EB232C
:1027A000A70196010E944123F80126893789408DAF
:1027B000518D0E945D22D80196966D937D938D93E5
:1027C0009C9399976B817C81072E000C880B990B49
:1027D0000E94EB23A70196010E944123F801228D5C
:1027E000338D448D558D0E945D22D8019A966D934C
:1027F0007D938D939C939D976D817E81072E000C18
:10280000880B990B0E94EB23A70196010E9441239C
:10281000F801268D378D40A151A10E945D22D8017B
:102820009E966D937D938D939C93D1976F817885C0
:10283000072E000C880B990B0E94EB2320E030EF51
:1028400041E456E40E945E2220E030E04AEA53E48C
:102850000E944123F80162A373A384A395A3C280BD
:10286000D380E480F58069857A85072E000C880B7B
:10287000990B0E94EB23A70196010E944123D801E6
:102880001A962D913D914D915C911D970E945D226C
:10289000F80162AB73AB84AB95AB6B857C85072E7F
:1028A000000C880B990B0E94EB23A70196010E9454
:1028B0004123D8011E962D913D914D915C915197E8
:1028C0000E945D22F80166AB77AB80AF91AF6D855A
:1028D0007E85072E000C880B990B0E94EB23A70125
:1028E00096010E944123D80152962D913D914D9120
:1028F0005C9155970E945D22F80162AF73AF84AF7F
:1029000095AF2E960FB6F894DEBF0FBECDBFDF9108
:10291000CF911F910F91FF90EF90DF90CF90BF90DC
:10292000AF909F9008951F93CF93DF93EC01162FE4
:102930008B810E94450389819A81DC01ED91FC9194
:102940000190F081E02D60E0099589819A81DC0198
:10295000ED91FC910190F081E02D612F0995898125
:102960009A810E94E00F888361E08B810E948C0E27
:10297000109202038093010389819A81DC01ED9119
:10298000FC910284F385E02D0995DF91CF911F9191
:1029900008950F931F93CF93DF93EC010E94C30917
:1029A0008B016FE470E0CE010E9493148770843035
:1029B000B1F08E819F81892BA1F30E94C309601B16
:1029C000710B8E819F818617970758F781E0888762
:1029D0001FEF812FDF91CF911F910F91089562E634
:1029E00070E0CE010E949314182F41E065E170E081
:1029F000CE010E94CE10EDCFFF920F931F93CF9385
:102A0000DF93EC01862FF42E61E00E940D0962E352
:102A100070E080E090E00E94910964E270E0CE01F5
:102A20000E9493148D8366E170E0CE010E9493149E
:102A3000813009F03EC18C8341E067E072E0CE0155
:102A40000E94CE1041E068E072E0CE010E94CE10FC
:102A500040E066E970E0CE010E94CE104DEF67E9DC
:102A600070E0CE010E94CE1041E063EE70E0CE0136
:102A70000E94CE1043E064EE70E0CE010E94CE10C2
:102A800042E065EE70E0CE010E94CE1041E066EEBD
:102A900070E0CE010E94CE1043E067EE70E0CE0100
:102AA0000E94CE1042E065EF70E0CE010E94CE1091
:102AB00045E069ED70E0CE010E94CE104EEC6BED6A
:102AC00070E0CE010E94CE1043E06CED70E0CE01CC
:102AD0000E94CE1048EF6DED70E0CE010E94CE1046
:102AE00040E06FE970E0CE010E94CE104CE363EA53
:102AF00070E0CE010E94CE1040E067EB70E0CE01A6
:102B00000E94CE104CE36BEB70E0CE010E94CE1021
:102B100049E062EB70E0CE010E94CE1049E06AEC21
:102B200070E0CE010E94CE1041E068E971E0CE0174
:102B30000E94CE1047E160EB71E0CE010E94CE1002
:102B400040E06DEA71E0CE010E94CE1045E06FEFEB
:102B500070E0CE010E94CE1045E060E071E0CE0151
:102B60000E94CE1045E069E971E0CE010E94CE10CE
:102B70004BE166EA71E0CE010E94CE104EE36CEAB2
:102B800071E0CE010E94CE104FE167EA71E0CE0104
:102B90000E94CE1040E060E370E0CE010E94CE10B3
:102BA00040E066E170E0CE010E94CE104F2D4F77DD
:102BB00062E172E0CE010E94CE10FB8240E36AE047
:102BC00071E0CE010E94CE1046E46FE370E0CE01CA
:102BD0000E94CE104FEF61E370E0CE010E94CE1054
:102BE00043E650E060E470E0CE010E948F1041E0C7
:102BF0006EE270E0CE010E94CE1049E06BE170E021
:102C0000CE010E94CE1041E36EE370E0CE010E943F
:102C1000CE1044E264E170E0CE010E94CE1041E3A8
:102C20006CE170E0CE010E94CE1040E063EA72E0F9
:102C3000CE010E94CE1081E08C834DEF50E066E91A
:102C400070E0CE010E948F108D81082E000C990B30
:102C50006C8170E00E940D22462F64E270E0CE018C
:102C60000E94CE106C8170E084E190E00E940D2201
:102C7000462F61E270E0CE010E94CE106DE270E05E
:102C8000CE010E94931441E09C81913009F040E014
:102C90008E7F482B6DE270E0CE010E94CE108AEF4D
:102CA00090E09F838E83DF91CF911F910F91FF90D2
:102CB00008958B810E94450389819A81DC01ED9101
:102CC000FC910190F081E02D60E0099589819A8165
:102CD000DC01ED91FC910190F081E02D66E9099510
:102CE00089819A810E94E00F888362E08B810E9433
:102CF0008C0E109202038093010389819A81DC017A
:102D0000ED91FC910284F385E02D099500E0182FE8
:102D100089819A81DC01ED91FC910284F385E02D9B
:102D20000995802B912B8435910549F483E08C83A0
:102D30008D819C81899F802D11248D8337CF8F3782
:102D4000910511F482E0F3CF81E0F1CFCF92DF92D1
:102D5000EF920F931F93CF93DF93EC016B01842FBE
:102D6000488329830A83EB821C821D821E821F8274
:102D7000188661E00E943B0961E089810E943B095D
:102D8000188161E0812F0E943B0960E0812F0E9441
:102D90000D0960E089810E940D0962E08A810E942C
:102DA0003B0962E08B810E943B098A81CD28C1F4F6
:102DB000D0939501C0939401823071F0833071F00B
:102DC0008FEF60E672E1DF91CF911F910F91EF904D
:102DD000DF90CF900C942B0380E0F3CF81E0F1CF14
:102DE000D0939701C0939601823031F0833031F057
:102DF0008FEF67E572E1E7CF80E0FBCF81E0F9CFAD
:102E0000CF92DF92EF92FF920F931F938091B102C6
:102E10008111D3C187E0E82E02E02CE04BE070E0A6
:102E200060E088E991E00E94A61698E0E92E03E0B0
:102E30002AE049E061E070E081EA91E00E94A61694
:102E400010920402109205021092060210920702DC
:102E500089E194E09093AB018093AA0148E451EE9C
:102E60006AE77FE3409300025093010260930202FD
:102E7000709303021092B4011092B5011092B60142
:102E80001092B7011092B8011092B9011092BA01D4
:102E90001092BB011092BC011092BD011092BE01B4
:102EA0001092BF011092C0011092C1011092C20194
:102EB0001092C3011092C4011092C5011092C60174
:102EC0001092C7011092C8011092C9011092CA0154
:102ED0001092CB0140E050E060EC70E440930802B7
:102EE0005093090260930A0270930B0243E353E389
:102EF00063EB7EE340930C0250930D0260930E024D
:102F000070930F0200E010E020E03FE30093100216
:102F100010931102209312023093130210921402A4
:102F200010921502109216021092170210921802B7
:102F30001092190210921A0210921B0240E050E007
:102F400068EC72E440931C0250931D0260931E02D1
:102F500070931F02C12CD12CECE5EE2EE2E4FE2E84
:102F6000C0922002D0922102E0922202F09223022B
:102F7000FAE9CF2EF9E9DF2EED2CFEE3FF2EC09209
:102F80002402D0922502E0922602F0922702AAE9BA
:102F9000CA2EA9E9DA2EA9E1EA2EAEE3FA2EC092F2
:102FA0002802D0922902E0922A02F0922B0210927B
:102FB0002C0210922D0210922E0210922F021092CB
:102FC000300210923102109232021092330240937A
:102FD0003402509335026093360270933702C12C4D
:102FE000D12CB0E2EB2EB1E4FB2EC0923802D0928D
:102FF0003902E0923A02F0923B0210923C021092A7
:103000003D0210923E0210923F0200934002109344
:1030100041022093420230934302109244021092E4
:1030200045021092460210924702109248021092F6
:10303000490210924A0210924B0240934C02509364
:103040004D0260934E0270934F0220E12093500294
:1030500024E5209351022EE02093520225E520938F
:1030600053022FE02093540226E5209355029093BB
:1030700058028093570229E22093590210925A0273
:1030800010925B0210925D0210925C0210925E023E
:103090009093610280936002209362021092630217
:1030A00010926402109266021092650210926702FA
:1030B00090936A028093690220936B0210926C02D3
:1030C00010926D0210926F0210926E0210927002B6
:1030D000109274021092730240E850E0509376020E
:1030E0004093750220E430E0309378022093770219
:1030F00050937A024093790230937C0220937B02B2
:103100001092870210927E0210927D02109280022D
:1031100010927F0221E020938602209385024FEFD8
:103120005FEF509384024093830250938202409356
:103130008102209388021092890210928B021092D1
:103140008A0248E051E0509372024093710210925B
:103150008D0210928C0290938F0280938E021092B7
:103160009102109290028FEF8093950280939602C5
:1031700080939702809398028093990280E89AE165
:10318000A6E0B0E08093A6029093A702A093A802C5
:10319000B093A90280EA96E8A1E0B0E08093AA0289
:1031A0009093AB02A093AC02B093AD0280E5809304
:1031B000AF021092B0022093B10288E991E01F9112
:1031C0000F91FF90EF90DF90CF9008950E949B2584
:1031D0002F923F924F925F926F927F928F929F9227
:1031E000AF92BF92CF92DF92EF92FF920F931F9315
:1031F000CF93DF93CDB7DEB72A970FB6F894DEBF33
:103200000FBECDBF1C010E946E13F101C6A4D7A44E
:10321000E0A8F1A8A7019601C701B6010E94CF243A
:1032200069837A838B839C83F10186A097A0A0A4F5
:10323000B1A4A5019401C501B4010E94CF24298144
:103240003A814B815C810E945E220E9442256D83FF
:103250007E838F839887F10142A453A464A475A44C
:1032600001E010E020E030E0A901C701B6010E94B2
:10327000C22487FF02C010E000E021E030E03A877E
:10328000298720E030E0A901C701B6010E943C2354
:1032900087FD02C01A861986B80149855A85641BC4
:1032A000750B072E000C880B990B0E94EB232D81C8
:1032B0003E814F8158850E94CF249B01AC01C30100
:1032C000B2010E94DD22F101FE96FA87E98721EE24
:1032D0003EE245E652E40E94CF24E985FA85608308
:1032E000718382839383A3019201C301B2010E947F
:1032F000CF2429813A814B815C810E945E220E9409
:1033000042259B01AC01C501B4010E94DD2291015F
:103310002E5B3F4F3A832983905821EE3EE245E6EB
:1033200052E40E94CF24E981FA8160837183828311
:1033300093830E94C3094B015C0181010E5A1F4F08
:10334000F80180819181A281B381A5019401281B9C
:10335000390B4A0B5B0BCA01B9010E94E9232FE626
:1033600032E143E85AE30E94CF246B017C01F8016B
:1033700080829182A282B382349680809180A280E2
:10338000B380A501940160E070E080E89FE30E94B3
:103390005D222B013C010C501109F10122A933A936
:1033A00044A955A9C701B6010E94CF24F801208184
:1033B0003181428153810E945E22A50194010E94C5
:1033C000CF246D837E838F839887E985FA8520815A
:1033D000318142815381C301B2010E94CF249B01FC
:1033E000AC016D817E818F8198850E945E22F801FB
:1033F00060837183828393839101265B3F4F3E8379
:103400002D83F10126A937A940AD51ADC701B60101
:103410000E94CF24ED81FE81208131814281538140
:103420000E945E22A50194010E94CF244B015C0101
:10343000E981FA812081318142815381C301B20146
:103440000E94CF249B01AC01C501B4010E945E2201
:10345000ED81FE8160837183828393839101225B7E
:103460003F4F3A832983F10122AD33AD44AD55ADD1
:10347000C701B6010E94CF24E981FA812081318100
:10348000428153810E945E22E981FA8160837183C7
:10349000828393832A960FB6F894DEBF0FBECDBF0A
:1034A000DF91CF911F910F91FF90EF90DF90CF9020
:1034B000BF90AF909F908F907F906F905F904F9054
:1034C0003F902F90089585ED8093BC008091540328
:1034D00090915503A0915603B09157030796A11DF3
:1034E000B11D23E0B695A795979587952A95D1F7B5
:1034F0002091BC0024FD03C0109252030895409116
:103500005403509155036091560370915703452B16
:10351000462B472B69F30097A105B10541F02AE23C
:103520002A95F1F700C00197A109B109E1CF809177
:1035300053030C947B0D1F920F920FB60F92112420
:103540002F933F938F939F93AF93BF9380910403E7
:1035500090910503A0910603B091070330910303F6
:1035600023E0230F2D3758F50196A11DB11D20939F
:1035700003038093040390930503A0930603B09381
:1035800007038091080390910903A0910A03B09169
:103590000B030196A11DB11D8093080390930903AD
:1035A000A0930A03B0930B03BF91AF919F918F91AA
:1035B0003F912F910F900FBE0F901F90189526E806
:1035C000230F0296A11DB11DD2CF1F920F920FB6ED
:1035D0000F9211242F933F934F935F936F937F9399
:1035E0008F939F93AF93BF93EF93FF93E09102016B
:1035F000F09103010995FF91EF91BF91AF919F91D8
:103600008F917F916F915F914F913F912F910F908B
:103610000FBE0F901F9018951F920F920FB60F922A
:1036200011242F933F934F935F936F937F938F93C7
:103630009F93AF93BF93EF93FF93E0910001F091BD
:1036400001010995FF91EF91BF91AF919F918F91EA
:103650007F916F915F914F913F912F910F900FBE8E
:103660000F901F9018951F920F920FB60F92112472
:103670002F933F934F935F936F937F938F939F937A
:10368000AF93BF93EF93FF938CE793E00E94500AB0
:10369000FF91EF91BF91AF919F918F917F916F912A
:1036A0005F914F913F912F910F900FBE0F901F9000
:1036B00018951F920F920FB60F9211242F938F938C
:1036C0009F93EF93FF93E0918C03F0918D038081A2
:1036D000E0919203F091930382FD1BC09081809151
:1036E00095038F5F8F7320919603821741F0E091CD
:1036F0009503F0E0E458FC4F958F80939503FF917C
:10370000EF919F918F912F910F900FBE0F901F906F
:1037100018958081F4CF1F920F920FB60F9211244B
:103720002F933F934F935F936F937F938F939F93C9
:10373000AF93BF93EF93FF938091B900887F80365A
:1037400009F44AC0F0F5883209F4A7C018F58031B1
:1037500009F49BC0B8F4882309F4F9C0883009F44F
:1037600094C0FF91EF91BF91AF919F918F917F9105
:103770006F915F914F913F912F910F900FBE0F90DE
:103780001F901895883109F488C0803251F78093D2
:10379000500314C0803409F49DC040F48033B9F361
:1037A0008833F9F68093500385ECB0C0803509F476
:1037B00085C0883509F496C0883499F60E94631A4A
:1037C000D0CF883909F48CC038F5883729F050F407
:1037D000883611F0803729F683E0809352031092E7
:1037E000FC0257C0883809F47BC0803919F0803852
:1037F00009F0B7CF8091FC02803208F071C0E091EF
:10380000FC0281E08E0F8093FC028091BB00F0E00F
:10381000E452FD4F80833DC0803B39F0E0F4803AB4
:1038200009F479C0883A09F09CCF84E08093520370
:103830001092DB021092DA02E091FF02F091000395
:1038400009958091DA0281110FC081E08093DA023C
:103850001092BA0209C0803C09F4A6CF883C09F452
:10386000A3CF883B09F07DCFE091DB0281E08E0F92
:103870008093DB02F0E0E654FD4F80818093BB0033
:103880009091DB028091DA0229C080912D03809310
:10389000BB0085EC8093BC0064CF90914F03809176
:1038A0004E03981758F5E0914F0381E08E0F8093F7
:1038B0004F03F0E0E25DFC4F8081E9CFE0914F03E0
:1038C00081E08E0F80934F038091BB00F0E0E25DBA
:1038D000FC4F808390914F0380914E039817C8F25C
:1038E00085E8D8CFE0914F0381E08E0F80934F039E
:1038F0008091BB00F0E0E25DFC4F8083809151033A
:1039000081115CCF81E080932C0384EA8093BC001A
:103910001092520326CF85EC8093BC001092520384
:103920008091FC02803230F4E091FC02F0E0E4523D
:10393000FD4F10826091FC0270E0E091FD02F09179
:10394000FE028CED92E009951092FC020ACF1092D3
:10395000500334CFECE7F3E01382128288EE93E059
:10396000A0E0B0E084839583A683B78324E331E0AD
:103970003183208325EC30E03587248724EC30E048
:103980003787268720EC30E0318B208B21EC30E02C
:10399000338B228B22EC30E0358B248B26EC30E00D
:1039A000378B268B118E128E138E148EE9E1F4E084
:1039B0001382128284839583A683B78386E491E081
:1039C00091838083E5E2F4E08DEC9CECACE4BFE312
:1039D00080839183A283B383148215821682178217
:1039E000108611861286138614861586168617860B
:1039F000108A118A128A138A80E090E0A8ECB2E45F
:103A0000848B958BA68BB78B0895CF93DF93CDB71F
:103A1000DEB7AE970FB6F894DEBF0FBECDBF789479
:103A200084B5826084BD84B5816084BD85B58260C3
:103A300085BD85B5816085BD80916E008160809374
:103A40006E001092810080918100826080938100DD
:103A500080918100816080938100809180008160ED
:103A6000809380008091B10084608093B100809148
:103A7000B00081608093B00080917A008460809370
:103A80007A0080917A00826080937A0080917A0037
:103A9000816080937A0080917A00806880937A00B8
:103AA0001092C100E0918C03F0918D0382E080833D
:103AB000E0918803F09189031082E0918A03F091EC
:103AC0008B038FEC808310929403E0919003F0912C
:103AD000910386E08083E0918E03F0918F038081D3
:103AE00080618083E0918E03F0918F0380818860F4
:103AF0008083E0918E03F0918F03808180688083C2
:103B0000E0918E03F0918F0380818F7D80831092EE
:103B10000203109201031092590310927B030E943A
:103B20005D0D8FEC99E0909300038093FF0280ED90
:103B300099E09093FE028093FD020E9400179E8BF5
:103B40008D8B8C0108541F4F61E0F80180810E9429
:103B50003B0961E0F80182810E943B0961E0F801C4
:103B600084810E943B0960E0F80180810E940D0978
:103B700060E0F80182810E940D0960E0F801848113
:103B80000E940D0962E370E080E090E00E949109DC
:103B9000F801608170E04181C80106960E94FC1422
:103BA000F801628170E04381C8010F960E94FC1405
:103BB000F801648170E04581C80148960E94FC14B8
:103BC00064EF71E080E090E00E9491090D891E8908
:103BD0000E5E1F4F40E069E1C8010E94031140E002
:103BE0006AE1C8010E94031180E090E0A3E8B2E41A
:103BF000ED89FE89848B958BA68BB78B48E06BE1B2
:103C0000C8010E94031180E090E0A0E8B6E4ED89CD
:103C1000FE89808F918FA28FB38F40E06CE1C80145
:103C20000E94031141E06BE6C8010E940311F82EC7
:103C3000C8010E94E818ED89FE89E85AFF4FAD8956
:103C4000BE89A05BBF4F8D919D910D90BC91A02D21
:103C500080839183A283B383ED89FE89E45AFF4F69
:103C6000AD89BE89AC5ABF4F8D919D910D90BC918D
:103C7000A02D80839183A283B3830E94C309ED8921
:103C8000FE89EC59FF4F6083718382839383FF2009
:103C900029F087E591E00E947612FFCF88E60E9426
:103CA00045036BE189E194E00E94B10F68E089E18E
:103CB00094E00E94B10F89E194E00E94E00FED8949
:103CC000FE89148E158E168E178E10A211A212A2C6
:103CD00013A214A215A216A217A210A611A612A62C
:103CE00013A614A615A616A617A610AA11AA12AAFC
:103CF00013AA64EF262E332433941B821C821D8268
:103D00001E821B861C861D861E861F8218861986AB
:103D10001A86C12CD12C76014601570126013701A4
:103D2000E05CFF4FFA83E9832D893E892C5B3F4F8E
:103D3000388B2F874D895E89485B5F4F5A8B498B43
:103D40008D899E89845B9F4F9C8B8B8BC8010E94C1
:103D50006E13ED89FE8920AD31AD42AD53ADC30187
:103D6000B2010E945E222B013C01ED89FE8924AD47
:103D700035AD46AD57ADC501B4010E945E224B0181
:103D80005C0120E030E040E85FE3E981FA81608196
:103D90007181828193810E945D229B01AC01C701E8
:103DA000B6010E945E226B017C01EF85F8892081BB
:103DB0003181428153816F81788589859A850E94FE
:103DC0005E226F83788789879A87E989FA892081BB
:103DD0003181428153816B857C858D859E850E94D2
:103DE0005E226B877C878D879E87EB89FC8920818B
:103DF0003181428153816B817C818D819E810E94C2
:103E00005E226B837C838D839E8361E070E080E023
:103E100090E00E949109F1E02F1A310809F096CF45
:103E200020E030E04AEF53E4C301B2010E94412395
:103E3000ED89FE8960A771A782A793A720E030E0F3
:103E40004AEF53E4C501B4010E944123ED89FE8984
:103E500064A775A786A797A720E030E04AEF53E450
:103E6000C701B6010E944123ED89FE8960AB71ABA9
:103E700082AB93AB20E030E04AEF53E46F8178856A
:103E800089859A850E944123ED89FE89648F758F0B
:103E9000868F978F20E030E04AEF53E46B857C8576
:103EA0008D859E850E944123ED89FE8960A371A3C3
:103EB00082A393A320E030E04AEF53E46B817C813E
:103EC0008D819E810E944123ED89FE8964A375A3A3
:103ED00086A397A384E791E00E9476120E940017C0
:103EE00080569F4F9C838B830E94001788579F4F5B
:103EF00098878F830E9400171C01F894FC0115829B
:103F000016821782108678949C01275F3F4F3A8B68
:103F1000298BF89416861786108A118A7894EF8177
:103F2000F8851486158616861786108A118A128AD5
:103F3000138AEB81FC811486158616861786108AF3
:103F4000118A128A138A109231041092320410924C
:103F500033041092340410923504109236041092F7
:103F6000370410923804275F3F4F3C8B2B8BC901DD
:103F70000E94E818F101E85AFF4FD101A05BBF4F42
:103F80008D919D910D90BC91A02D80839183A283F2
:103F9000B3833496D101AC5ABF4F8D919D910D9052
:103FA000BC91A02D80839183A283B383A101405A49
:103FB0005F4F5CA74BA7FA01108211821282138215
:103FC0000E94C309F101EC59FF4F60837183828322
:103FD00093830E946C096D8B7E8B8F8B988FF894E6
:103FE000F10166857785808991897894F894858038
:103FF0009680A780B08478940E94EB232BED3FE05D
:1040000049EC50E40E94CF2420E030E04FE254E439
:104010000E9441236B017C01C501B4010E94EB2386
:104020002BED3FE049EC50E40E94CF2420E030E04B
:104030004FE254E40E9441239B01AC01C701B60149
:104040000E945D2220E030E040E05FE30E94CF2448
:104050009B01AC0160E070E08AE792E40E945D227F
:104060006B877C878D879E87CD88DE88EF88F88C6C
:10407000198E1A8E1B8E1C8EC10188549F4F9C0175
:10408000215F3F4F3AA329A3A10149535F4F58A78E
:104090004FA3FC017896FCA3EBA3275F3F4F3AA701
:1040A00029A74B5551095EA74DA78B819C819EA3E3
:1040B0008DA32DEC3CEC4CE45EE36B857C858D851B
:1040C0009E859F770E94C224181674F020E030E08D
:1040D00040E250E4698D7A8D8B8D9C8D9F770E9494
:1040E000C22418160CF02DC10E946C092D893E893E
:1040F0004F89588D621B730B840B950B60347B4486
:104100008C44910508F01DC10E946C096D8F7E8F53
:104110008F8F98A36C197D098E099F090E94E9234E
:104120002DEB37E346E855E30E94CF244B015C01B9
:10413000F894F10166857785808991897894F8945F
:10414000458056806780708478940E94EB232BED25
:104150003FE049EC50E40E94CF2420E030E04FE201
:1041600054E40E9441236B017C01C301B2010E940F
:10417000EB232BED3FE049EC50E40E94CF2420E0FC
:1041800030E04FE254E40E9441239B01AC01C7019F
:10419000B6010E945D2220E030E040E05FE30E9433
:1041A000CF249B01AC0160E070E08AE792E40E94BA
:1041B0005D2269837F87582E492E20E030E0A901D7
:1041C000C501B4010E94C22418160CF4D2C040E507
:1041D000C42ED12C50EBE52EFF24FA9495018401D6
:1041E00049815F85652D742D8F8198850E942C11E2
:1041F0003C018B899C890E94E818EFA1F8A50481F5
:1042000041E068E170E089A19AA10E94CE1089A1E5
:104210009AA10E94C914089F80011124E9A5FAA55A
:10422000F481FB8741E068E170E08BA19CA10E94D2
:10423000CE108BA19CA10E94C9143B85389F900190
:1042400011243C872B8784E891E00E946912C80101
:104250000E94E9128BE891E00E9469128B859C858F
:104260000E94E9124B855C8520E04017510714F449
:104270008A0121E0C801C3968736910508F092C0F3
:10428000B80117FF03C0719561957109222309F4E4
:1042900083C064537109072E000C880B990B0E9490
:1042A000EB232CE3C22ED12C34ECE32EFF24FA9422
:1042B00095018401AB01BC0185E294E00E942C11C0
:1042C000EDA1FEA11486158616861786108A118A1E
:1042D000128A138A6627772766197709681B790B74
:1042E0009301281B390B3C872B876536710514F029
:1042F00064E670E06C393FEF730714F46CE97FEF0C
:10430000C1010E9484126B857C856536710514F0AD
:1043100064E670E06C394FEF740714F46CE97FEFDA
:1043200089899A890E94841289819F85A52DB42D3F
:104330008B879C87AD87BE87CD8CDE8CEF8CF8A0F9
:10434000B8CE70E060E0C1010E94841270E060E0CD
:1043500089899A890E94841220E030E0232B09F495
:10436000BDCD0E943C0A882309F4B8CD0E9400000C
:10437000B5CD2B853C854D855E8569817F85852DF5
:10438000942D0E945D22A50194010E944123698F12
:104390007A8F8B8F9C8F1BCF84E390E0861B970BCB
:1043A000BC0179CFEDA5FEA52081318142815381E9
:1043B000EBA5FCA560817181828193810E945D22C1
:1043C0009B01AC0160E070E0CB010E945D22AB017B
:1043D000BC018CE3C82ED12C94ECE92EFF24FA9476
:1043E000950184018B819C810E942C1110923104D3
:1043F0001092320410923304109234041092350457
:10440000109236041092370410923804BC016619D9
:1044100077099301280F391F66CF97FB072E16F4F3
:10442000009407D077FD09D00E94432207FC05D0F5
:104430003EF4909581959F4F0895709561957F4FBB
:104440000895A1E21A2EAA1BBB1BFD010DC0AA1FD5
:10445000BB1FEE1FFF1FA217B307E407F50720F0ED
:10446000A21BB30BE40BF50B661F771F881F991F68
:104470001A9469F760957095809590959B01AC01B1
:10448000BD01CF010895AA1BBB1B51E107C0AA1FA4
:10449000BB1FA617B70710F0A61BB70B881F991FE5
:1044A0005A95A9F780959095BC01CD010895EE0F1E
:1044B000FF1F0590F491E02D09945058BB27AA27BF
:1044C0000E9475220C9488240E947A2438F00E945D
:1044D000812420F039F49F3F19F426F40C945024E1
:1044E0000EF4E095E7FB0C944A24E92F0E949924EE
:1044F00058F3BA17620773078407950720F079F419
:10450000A6F50C94BB240EF4E0950B2EBA2FA02D2B
:104510000B01B90190010C01CA01A0011124FF2770
:10452000591B99F0593F50F4503E68F11A16F0406B
:10453000A22F232F342F4427585FF3CF469537956A
:104540002795A795F0405395C9F77EF41F16BA0B2F
:10455000620B730B840BBAF09150A1F0FF0FBB1FDD
:10456000661F771F881FC2F70EC0BA0F621F731F26
:10457000841F48F4879577956795B795F7959E3F83
:1045800008F0B0CF9395880F08F09927EE0F979514
:10459000879508950E947A2460F080E891E009F4FC
:1045A0009EEF0E94812428F040E851E071F45EEF14
:1045B0000CC00C9450240C94BB24E92FE0780E948A
:1045C000992440F3092E052AB1F326173707480727
:1045D000590738F00E2E07F8E02569F0E025E06471
:1045E0000AC0EF6307F8009407FADB01B9019D01E7
:1045F000DC01CA01AD01EF930E9458230E94882478
:104600000E940D235F91552339F02BED3FE049E4E3
:1046100050FD49EC0C945E220895DF93DD27B92FFD
:10462000BF7740E85FE31616170648075B0718F4E4
:10463000D92F0E94C7249F938F937F936F930E94DB
:104640008225E8E6F0E00E9453240E9488242F91FE
:104650003F914F915F910E94E224DD2351F09058E9
:10466000A2EA2AED3FE049EC5FE3D0785D270E94A3
:104670007522DF910C9488240E94262408F481E09E
:1046800008950E9455230C9488240E94812458F098
:104690000E947A2440F029F45F3F29F00C944A24C8
:1046A00051110C94BC240C9450240E94992468F35A
:1046B0009923B1F3552391F3951B550BBB27AA27DB
:1046C00062177307840738F09F5F5F4F220F331F15
:1046D000441FAA1FA9F335D00E2E3AF0E0E832D0DD
:1046E00091505040E695001CCAF72BD0FE2F29D0E0
:1046F000660F771F881FBB1F261737074807AB07B2
:10470000B0E809F0BB0B802DBF01FF2793585F4F26
:104710003AF09E3F510578F00C944A240C94BC2446
:104720005F3FE4F3983ED4F3869577956795B79508
:10473000F7959F5FC9F7880F911D9695879597F913
:104740000895E1E0660F771F881FBB1F621773078C
:104750008407BA0720F0621B730B840BBA0BEE1FA1
:1047600088F7E09508950E94BA236894B1110C94DB
:10477000BC2408950E94A12488F09F5798F0B92F77
:104780009927B751B0F0E1F0660F771F881F991F86
:104790001AF0BA95C9F714C0B13091F00E94BB2449
:1047A000B1E008950C94BB24672F782F8827B85F59
:1047B00039F0B93FCCF3869577956795B395D9F7DE
:1047C0003EF490958095709561957F4F8F4F9F4FE8
:1047D0000895E89409C097FB3EF4909580957095F4
:1047E00061957F4F8F4F9F4F9923A9F0F92F96E93D
:1047F000BB279395F695879577956795B795F111B2
:10480000F8CFFAF4BB0F11F460FF1BC06F5F7F4F4E
:104810008F4F9F4F16C0882311F096E911C0772360
:1048200021F09EE8872F762F05C0662371F096E869
:10483000862F70E060E02AF09A95660F771F881F38
:10484000DAF7880F9695879597F90895990F0008DC
:10485000550FAA0BE0E8FEEF16161706E807F90752
:10486000C0F012161306E407F50798F0621B730BED
:10487000840B950B39F40A2661F0232B242B252B6E
:1048800021F408950A2609F4A140A6958FEF811D11
:10489000811D089597F99F6780E870E060E00895B2
:1048A0009FEF80EC0895DF93CF931F930F93FF92B8
:1048B000EF92DF927B018C01689406C0DA2EEF0143
:1048C0000E94E224FE01E894A5912591359145913D
:1048D0005591A6F3EF010E947522FE019701A801F0
:1048E000DA9469F7DF90EF90FF900F911F91CF91CD
:1048F000DF91089500240A94161617061806090673
:10490000089500240A941216130614060506089545
:10491000092E0394000C11F4882352F0BB0F40F4CD
:10492000BF2B11F460FF04C06F5F7F4F8F4F9F4F0D
:10493000089557FD9058440F551F59F05F3F71F08F
:104940004795880F97FB991F61F09F3F79F08795F6
:104950000895121613061406551FF2CF4695F1DF7F
:1049600008C0161617061806991FF1CF869571050F
:10497000610508940895E894BB2766277727CB0143
:1049800097F908950E94262408F48FEF08959B015B
:10499000AC0160E070E080E89FE30C9441230E944A
:1049A000E2240C9488240E947A2438F00E94812406
:1049B00020F0952311F00C944A240C9450241124D7
:1049C0000C94BC240E94992470F3959FC1F3950F19
:1049D00050E0551F629FF001729FBB27F00DB11D83
:1049E000639FAA27F00DB11DAA1F649F6627B00D13
:1049F000A11D661F829F2227B00DA11D621F739FFC
:104A0000B00DA11D621F839FA00D611D221F749F09
:104A10003327A00D611D231F849F600D211D822F50
:104A2000762F6A2F11249F5750409AF0F1F0882377
:104A30004AF0EE0FFF1FBB1F661F771F881F9150A4
:104A40005040A9F79E3F510580F00C944A240C94E5
:104A5000BC245F3FE4F3983ED4F386957795679541
:104A6000B795F795E7959F5FC1F7FE2B880F911DCE
:104A70009695879597F9089519F416F40C94502497
:104A80000C9486250E94A124B8F39923C9F3B6F3A8
:104A90009F57550B87FF0E9494250024A0E640EA0B
:104AA000900180585695979528F4805C660F771F83
:104AB000881F20F026173707480730F4621B730B56
:104AC000840B202931294A2BA69517940794202579
:104AD00031254A2758F7660F771F881F20F02617C1
:104AE0003707480730F4620B730B840B200D311D20
:104AF000411DA09581F7B901842F9158880F969593
:104B0000879508959B01AC010C94CF249F3F31F011
:104B1000915020F4879577956795B795880F911DEB
:104B20009695879597F9089591505040660F771F95
:104B3000881FD2F7089581E090E0F8940C94A025A6
:044B4000F894FFCF17
:104B4400D109D109000000008A05D2092911350DC7
:104B5400860C0708300808082408180837080708CE
:104B64005003E30FF60B3F0C50073307BB065C06FC
:104B740000000000720AD209FF09BF0A300A0E0AB7
:104B8400220A00000000B10F840F291107087D0FCD
:104B94006A0F5B0F0D0A00436F756C64206E6F74AF
:104BA40020636F6E6E65637420746F204D505536AC
:104BB40030353000536574757020636F6D706C65AB
:104BC400746521004C6566743A2000526967687404
:044BD4003A20000083
:00000001FF
