:100000000C945C050C94BE200C9497200C948405F1
:100010000C9484050C9484050C9484050C9484053C
:100020000C9484050C9484050C9484050C9484052C
:100030000C9484050C9484050C9484050C9484051C
:100040000C944D200C9484050C940B210C94E52009
:100050000C9484050C9484050C9484050C948405FC
:100060000C943D210C948405084AD73B3BCE016E8D
:1000700084BCBFFDC12F3D6C74319ABD56833DDAFF
:100080003D00C77F11BED9E4BB4C3E916BAAAABE0E
:10009000000000803F00000000002300260029002F
:1000A00000000000003E5B4F5B3E3E6B4F6B3E1C12
:1000B0003E7C3E1C183C7E3C181C577D571C1C5E29
:1000C0007F5E1C00183C1800FFE7C3E7FF00182400
:1000D0001800FFE7DBE7FF30483A060E26297929AA
:1000E00026407F050507407F05253F5A3CE73C5ADF
:1000F0007F3E1C1C08081C1C3E7F14227F22145FBC
:100100005F005F5F06097F017F006689956A606016
:1001100060606094A2FFA29408047E040810207E10
:10012000201008082A1C08081C2A08081E10101095
:10013000100C1E0C1E0C30383E3830060E3E0E06DB
:10014000000000000000005F00000007000700142E
:100150007F147F14242A7F2A1223130864623649ED
:100160005620500008070300001C224100004122D5
:100170001C002A1C7F1C2A08083E080800807030DA
:100180000008080808080000606000201008040249
:100190003E5149453E00427F40007249494946214F
:1001A00041494D331814127F1027454545393C4AC3
:1001B00049493141211109073649494936464949DA
:1001C000291E000014000000403400000008142222
:1001D0004114141414140041221408020159090690
:1001E0003E415D594E7C1211127C7F494949363E91
:1001F000414141227F4141413E7F494949417F0977
:100200000909013E414151737F0808087F00417F81
:1002100041002040413F017F081422417F4040407F
:10022000407F021C027F7F0408107F3E4141413E17
:100230007F090909063E4151215E7F091929462699
:100240004949493203017F01033F4040403F1F209D
:1002500040201F3F4038403F631408146303047874
:1002600004036159494D43007F4141410204081094
:1002700020004141417F04020102044040404040CF
:10028000000307080020545478407F28444438383D
:1002900044444428384444287F38545454180008AF
:1002A0007E090218A4A49C787F0804047800447D89
:1002B00040002040403D007F1028440000417F4026
:1002C000007C047804787C0804047838444444387A
:1002D000FC1824241818242418FC7C08040408485A
:1002E0005454542404043F44243C4040207C1C20AB
:1002F00040201C3C4030403C44281028444C909006
:10030000907C4464544C440008364100000077005F
:1003100000004136080002010204023C2623263C6C
:100320001EA1A161123A4040207A385454555921F7
:1003300055557941225454784221555478402054DF
:100340005579400C1E52721239555555593954542D
:10035000545939555454580000457C410002457D9C
:10036000420001457C407D1211127DF0282528F0C5
:100370007C545545002054547C547C0A097F4932F2
:10038000494949323A4444443A324A4848303A4169
:1003900041217A3A42402078009DA0A07D3D424212
:1003A000423D3D4040403D3C24FF2424487E49439B
:1003B000662B2FFC2F2BFF0929F620C0887E09030E
:1003C00020545479410000447D413048484A323835
:1003D0004040227A007A0A0A727D0D19317D262961
:1003E000292F28262929292630484D402038080859
:1003F000080808080808382F10C8ACBA2F1028348D
:10040000FA00007B000008142A142222142A14087F
:100410005500550055AA55AA55AAFF55FF55FF008E
:100420000000FF00101010FF00141414FF00101043
:10043000FF00FF1010F010F0141414FC001414F757
:1004400000FF0000FF00FF1414F404FC1414171044
:100450001F10101F101F1414141F00101010F00094
:100460000000001F101010101F10101010F01000CE
:100470000000FF101010101010101010FF100000DE
:1004800000FF140000FF00FF00001F10170000FC19
:1004900004F414141710171414F404F40000FF00EB
:1004A000F714141414141414F700F7141414171474
:1004B00010101F101F141414F4141010F010F0007A
:1004C000001F101F0000001F14000000FC1400009B
:1004D000F010F01010FF10FF141414FF141010107F
:1004E0001F00000000F010FFFFFFFFFFF0F0F0F032
:1004F000F0FFFFFF0000000000FFFF0F0F0F0F0FC6
:100500003844443844FC4A4A4A347E020206060211
:100510007E027E0263554941633844443C04407E78
:10052000201E2006027E020299A5E7A5991C2A49F1
:100530002A1C4C7201724C304A4D4D30304878487C
:1005400030BC625A463D3E494949007E0101017E68
:100550002A2A2A2A2A44445F444440514A444040BB
:10056000444A51400000FF0103E080FF00000808FA
:100570006B6B083612362436060F090F060000187A
:10058000180000001010003040FF0101001F0101A1
:100590001E00191D1712003C3C3C3C0000000000EE
:1005A0002200FF21000103070F1F3F7F0080C0E0F2
:1005B000F0F8FCFEDB40A4A62EAF2000A1C8D300BB
:1005C000408DAED580A80000600000000000000053
:1005D00000000000000000E000000000000000003B
:1005E000000000000001E00000000000000000002A
:1005F0000000000001F0000000000000000000000A
:1006000000000003F00000000000000000000000F7
:10061000000007F0000000000000000000000000E3
:100620000007F800000000000000000000000000CB
:100630000FF800000003C0007E000001E0007F0F03
:10064000F800000003C000FE000001E000FFEFF82A
:1006500000000003C000FE000001E000FFFFF80002
:10066000000003C000F00000000F007FFE7FC0000C
:100670000003C000F00000000F003FFE7FF83FF1D4
:10068000FBCFFCFEF3BC3DEFE01FFE7FFF7FFBFFD7
:10069000DFFEFEFFBC3DEFE01FC6FFFF7FFBFFDF7D
:1006A000FEFEFFBC3DEFE00FE3C7FE787BC3DE1E1E
:1006B000F0FFBC3DEF0007FF87FC787BC3DE1EF038
:1006C000F83C3DEF0001FFFFF0007BC3C01EF0F0DF
:1006D0003C3DEF0001F37FE03FFBC3CFFEF0F03C79
:1006E0003DEF0003E33F807FFBC3DFFEF0F03C3DC6
:1006F000EF0007E73C00787BC3DE1EF0F03C3DEFE7
:100700000007FFBE00787BC3DE1EF0F03C3DEF002B
:1007100007FFFE00787BC3DE1EF0F03C3DEF000FCC
:10072000FFFE007FFBFFDFFEF0F03FFDEFE00FFF7D
:10073000FF007FFBFFDFFEF0F03FFDEFE00FF9FF72
:10074000003E79F9CF9EF0F01F3DE7E01FF1FF007A
:1007500000000000000000000000001F80FF007F7C
:10076000FFFFFFFFFFFFFFFFFFE01C007F007FFF99
:10077000FFFFFEB46D888D18E000001F007FFFFFB3
:10078000FFFE95AD7DB577E000000F007FFFFFFF16
:10079000FEA5AD9D8D19E0000006007FFFFFFFFE66
:1007A000B5ADEDB57EE00000000000018000000066
:1007B00000000000000003800000000000000000B6
:1007C0000007C000000000000000000007C000009B
:1007D000000000000000000FC0000000000000004A
:1007E00000001FE00000000000000000001FE0000B
:1007F00000000000000000003FE0000000000000DA
:100800000000003FF00000000000000000007FF04A
:10081000000000000000001FF87FF0000000000052
:1008200000003FFE7FF0000000000000003FFF7F5F
:10083000F0000000000000001FFFFBE000000000CF
:100840000000000FFFF9FFC00000000000000FFFD4
:10085000F9FFF800000000000007FFF1FFFF0000B3
:100860000000000003FC73FFFF8000000000000197
:10087000FE3FFFFF80000000000000FF1E0FFF0092
:100880000000000000007FFE1FFC000000000000D0
:10089000003FFFFFF8000000000000000FDFFFE056
:1008A000000000000000001F19FFC0000000000051
:1008B00000003F3CFF00000000000000007E7CF8CC
:1008C00000000000000000007FFE7C00000000002F
:1008D000000000FFFFFC0000000000000000FFFF20
:1008E000FE0000000000000000FFFFFE000000000E
:1008F00000000001FFEFFE0000000000000001FF0B
:10090000CFFE0000000000000003FF07FE00000013
:100910000000000003FC07FE0000000000000003D0
:10092000F003FE00000000000000018000FE000057
:1009300000000000000000007E0000000000000039
:100940000000003E000000000000000000000C005D
:100950000000000000078000FC000003C000000051
:10096000078001FC000003C0000000078001FC00BC
:100970000003C0000000078001E00000001E00002E
:1009800000078001E00000001E007FE3F79FF9FDF3
:10099000E7787BDFC0FFF7FFBFFDFDFF787BDFC09F
:1009A000FFF7FFBFFDFDFF787BDFC0F0F787BC3DA1
:1009B000E1FF787BDE00F0F787BC3DE1F0787BDE7D
:1009C0000000F787803DE1E0787BDE007FF7879FBE
:1009D000FDE1E0787BDE00FFF787BFFDE1E0787B9B
:1009E000DE00F0F787BC3DE1E0787BDE00F0F787C2
:1009F000BC3DE1E0787BDE00F0F787BC3DE1E078CC
:100A00007BDE00FFF7FFBFFDE1E07FFBDFC0FFF70C
:100A1000FFBFFDE1E07FFBDFC07CF3F39F3DE1E042
:100A20003E7BCFC00000000000000000000000FF7F
:100A3000FFFFFFFFFFFFFFFFFFC0FFFFFFFFFD689E
:100A4000DB111A31C0FFFFFFFFFD2B5AFB6AEFC01D
:100A5000FFFFFFFFFD4B5B3B1A33C0FFFFFFFFFDB6
:100A60006B5BDB6AFDC000000000240027002A0049
:100A700000000000250028002B00040404040404E6
:100A8000040402020202020203030303030301023D
:100A9000040810204080010204081020010204080C
:100AA00010200000000800020100000304070000FD
:100AB0000000000000005C2211241FBECFEFD8E030
:100AC000DEBFCDBF12E0A0E0B1E0ECE0FFE502C088
:100AD00005900D92A830B107D9F724E0A8E0B2E064
:100AE00001C01D92A63CB207E1F715E0CCE5D5E0C8
:100AF00004C02197FE010E942E28CB35D107C9F7EB
:100B00000E9495220C94842F0C9400008230B8F43B
:100B1000E82FF0E0EE0FFF1FE050FF4F718360837E
:100B2000813039F080916900836080936900E89A90
:100B30000895809169008C6080936900E99A089516
:100B400091E09093F503809317041092F6031092AE
:100B5000180408953F924F925F926F927F928F9206
:100B60009F92AF92BF92CF92DF92EF92FF920F933C
:100B70001F93CF93DF9300D000D0CDB7DEB79C8317
:100B80008B833B016A015901DC01ED91FC910284E8
:100B9000F385E02D09952801B7E04B0E511C93E039
:100BA000559447949A95E1F7C6018E0D9F1D9A833F
:100BB0008983912C812C312CF12CE12CC701877079
:100BC0009927330C892B59F4F70183E0F595E795C4
:100BD0008A95E1F7E80DF91DEA0DFB1D349037FE0B
:100BE00010C0AB81BC81ED91FC9111970484F58517
:100BF000E02D21E030E0A601B701660D771DCD01A3
:100C00000995BFEFEB1AFB0A0E151F05B9F68FEF1A
:100C1000C81AD80A840C951CA981BA81CA16DB06A9
:100C200059F6AB81BC81ED91FC9111970688F7894B
:100C3000E02DCD010F900F900F900F90DF91CF918D
:100C40001F910F91FF90EF90DF90CF90BF90AF90EA
:100C50009F908F907F906F905F904F903F900994FE
:100C6000833081F028F4813099F08230A9F0089522
:100C70008730A9F08830C9F08430B1F480918000C9
:100C80008F7D03C0809180008F77809380000895CE
:100C900084B58F7784BD089584B58F7DFBCF809117
:100CA000B0008F778093B00008958091B0008F7D61
:100CB000F9CF1F93CF93DF93282F30E0F901EE5542
:100CC000F54F8491F901E257F54FD491F901E658B7
:100CD000F54FC491CC23A9F0162F81110E94300644
:100CE000EC2FF0E0EE0FFF1FE059F54FA591B49106
:100CF0008FB7F894EC91111108C0D095DE23DC93E6
:100D00008FBFDF91CF911F910895DE2BF8CFCF9346
:100D1000DF9390E0FC01E257F54F24918658954F00
:100D2000FC0184918823D1F090E0880F991FFC0189
:100D3000EA59F54FA591B491FC01E059F54FC591E1
:100D4000D491623071F49FB7F8943C91822F8095D2
:100D500083238C93E8812E2B28839FBFDF91CF9133
:100D600008958FB7F894EC912E2B2C938FBFF6CF6C
:100D70003FB7F8948091A5039091A603A091A70393
:100D8000B091A80326B5A89B05C02F3F19F0019686
:100D9000A11DB11D3FBFBA2FA92F982F8827BC01D5
:100DA000CD01620F711D811D911D42E0660F771FFD
:100DB000881F991F4A95D1F708958F929F92AF92FD
:100DC000BF92CF92DF92EF92FF924B015C010E94A3
:100DD000B8066B017C010E94B8066C197D098E096A
:100DE0009F09683E734081059105A8F321E0821AAE
:100DF0009108A108B10888EEC80E83E0D81EE11C56
:100E0000F11C81149104A104B10429F7FF90EF9023
:100E1000DF90CF90BF90AF909F908F9008952FB7A5
:100E2000F8946091A1037091A2038091A303909123
:100E3000A4032FBF0895089508950895AF92BF9217
:100E4000CF92DF92EF92FF920F931F93CF93DF9396
:100E50006C017B018B01040F151FEB015E01AE18C5
:100E6000BF08C017D10759F06991D601ED91FC91E7
:100E70000190F081E02DC6010995892B79F7C50114
:100E8000DF91CF911F910F91FF90EF90DF90CF9066
:100E9000BF90AF900895FC01538D448D252F30E015
:100EA000842F90E0821B930B541710F0CF96089577
:100EB00001970895FC01918D828D981761F0A28DA4
:100EC000AE0FBF2FB11D5D968C91928D9F5F9F736A
:100ED000928F90E008958FEF9FEF0895FC01918D20
:100EE000828D981731F0828DE80FF11D858D90E08D
:100EF00008958FEF9FEF0895FC01918D228D892F2A
:100F000090E0805C9F4F821B91098F739927089511
:100F100089E194E00E947C0721E0892B09F420E01C
:100F2000822F089580E090E0892B29F00E948807A5
:100F300081110C9400000895FC01A48DA80FB92F15
:100F4000B11DA35ABF4F2C91848D90E001968F73F1
:100F50009927848FA689B7892C93A089B1898C9110
:100F6000837080648C93938D848D981306C002885F
:100F7000F389E02D80818F7D80830895EF92FF9229
:100F80000F931F93CF93DF93EC0181E0888F9B8DAC
:100F90008C8D98131AC0E889F989808185FF15C066
:100FA0009FB7F894EE89FF896083E889F989808189
:100FB0008370806480839FBF81E090E0DF91CF9158
:100FC0001F910F91FF90EF900895F62E0B8D10E07A
:100FD0000F5F1F4F0F731127E02E8C8D8E110CC0E9
:100FE0000FB607FCFACFE889F989808185FFF5CF34
:100FF000CE010E949C07F1CFEB8DEC0FFD2FF11D70
:10100000E35AFF4FF0829FB7F8940B8FEA89FB8970
:1010100080818062CFCFCF93DF93EC01888D8823CE
:10102000B9F0AA89BB89E889F9898C9185FD03C04B
:10103000808186FD0DC00FB607FCF7CF8C9185FF30
:10104000F2CF808185FFEDCFCE010E949C07E9CFD2
:10105000DF91CF910895EF92FF920F931F93CF935B
:10106000DF93EC01EC80FD806E157F050CF070C005
:1010700057FF04C0240F351F50E040E08E819F8150
:10108000FA01E20FF31F8E179F071CF49C01241B2B
:10109000350B121613060CF05BC0922F842F869529
:1010A000869586958E9DD0018F9DB00D11246A0F77
:1010B0007B1FAF8DB8A1A60FB71F477049F188E01D
:1010C000841B482F682F70E0FB01E455FA4FE49130
:1010D000281708F063C0621B71092FEF30E002C0CF
:1010E000359527956A95E2F7E2230130110539F02D
:1010F000B0F10230110561F58C91E82702C08C91A6
:10110000E82BEC93941720F12C813D81A20FB31FA3
:10111000E92FE41BE83078F00230110521F58E2F1D
:101120009C9190959C932C813D81A20FB31F885078
:101130008830B0F7E770EE2359F0F0E0EC55FA4F45
:10114000E49101301105F9F010F10230110519F1A7
:10115000DF91CF911F910F91FF90EF900895E0954F
:101160008C91E823CECF81E00115110509F480E0D0
:1011700081959E2F8C932C813D81A20FB31F985097
:101180009830C0F7D7CF8C91E82BEC93E1CFE09566
:101190008C91E823FACF8C91E827F7CF0130110525
:1011A00009F4ADCFE0F20230110509F4A5CFAE0D80
:1011B000BF1DAECF0F931F93CF93DF9377FF04C074
:1011C000260F371F70E060E0DC011496CD91DC91B2
:1011D000FB01E20FF31FCE17DF071CF49E01261B55
:1011E000370B121613064CF5FA0157FD3796A3E09C
:1011F000F595E795AA95E1F7EC9FD001ED9FB00D2D
:10120000FC9FB00D11246A0F7B1FDC015F96ED91EE
:10121000FC91E60FF71F4770552781E090E001C071
:10122000880F4A95EAF7482F0130110559F0A8F0C8
:101230002E0F3F1F02301105E1F0DF91CF911F917A
:101240000F9108952E0F3F1FE217F307B1F381911D
:10125000DF011197842B8C93F7CF80952E0F3F1FC2
:10126000E217F30751F39191DF01119798239C93B3
:10127000F7CFE217F30709F38191DF011197842774
:101280008C93F7CF0F931F93FA01DC0156964C9184
:1012900056974230E9F04330A1F1413061F51496A0
:1012A0004D915C91DA01AE1BBF0BFD01E21BF30B0C
:1012B00077FD0BC0DC0116964D915C9164177507A4
:1012C00024F4AB01BF010E94DA081F910F91089529
:1012D00014964D915C91DA01A61BB70BBD016150CC
:1012E0007109DC0116964D915C91DA01AE1BBF0BC2
:1012F000FD01E21BF30B77FDE8CFAF010E942B0845
:10130000E4CF16964D915C91DA01A61BB70BBD0197
:1013100061507109CDCF0F931F93FA01DC015696EE
:101320004C9156974230A9F0433091F1413019F574
:1013300014964D915C91DA01AE1BBF0BFD01319704
:10134000F7FD04C0AB01BF010E942B081F910F9154
:10135000089516964D915C91DA01AE1BBF0BFD010D
:101360003197DC0114964D915C91DA01A61BB70B05
:10137000BD01621B730BF7FDE9CFDC0116964D91A1
:101380005C91E417F50714F7AF010E94DA08DECF8D
:1013900016964D915C91DA01A61BB70BBD01621B3D
:1013A000730BCECFFC0177FD64C0808591856817F3
:1013B00079070CF05EC057FD5CC0828593854817A5
:1013C00059070CF056C086898230B1F0833029F17C
:1013D000813041F484819581841B950BAB01BC0164
:1013E000615071092130310509F108F443C0223000
:1013F000310509F463C0089584819581DC01A61B41
:10140000B70BBD016150710986819781DC01A41B76
:10141000B50BAD0141505109E5CF86819781861BFF
:10142000970BBA01AC0141505109DCCFCA0157FDFD
:101430000796A3E095958795AA95E1F7A481B581D4
:101440008A9F90018B9F300D9A9F300D1124620F5F
:10145000731F078CF0A1E02DE60FF71F477055278B
:1014600021E030E001C0220F4A95EAF78081822B0B
:1014700080830895CA0157FD079633E095958795B7
:101480003A95E1F7A481B5818A9F90018B9F300D39
:101490009A9F300D1124620F731F078CF0A1E02D6D
:1014A000E60FF71F4770552781E090E001C0880FD5
:1014B0004A95EAF7809590818923DACFCA0157FDD2
:1014C000079623E0959587952A95E1F7A481B58144
:1014D0008A9F90018B9F300D9A9F300D1124620FCF
:1014E000731F078CF0A1E02DE60FF71F47705527FB
:1014F00021E030E001C0220F4A95EAF7808182277F
:10150000B7CF08958EBD00000DB407FEFDCF8EB598
:1015100008958CBD9DBD08950895FC016370668B90
:101520008481958126813781613039F0633029F0DB
:101530009187808733872287089531872087938713
:10154000828708952F923F924F925F926F927F927F
:101550008F929F92AF92BF92CF92DF92EF92FF92C3
:101560000F931F93CF93DF93CDB7DEB76A970FB674
:10157000F894DEBF0FBECDBF9A8F898F7A836983BF
:101580004A01D22E18870F833701BC2CDC015996F3
:101590002D913C915A972115310509F015C11896E6
:1015A0008D919C911997681779070CF0D7C11A96FD
:1015B0008D919C91481759070CF0D0C14C2C512C9F
:1015C000B6E0CB9E600D711D11247C876B871616CB
:1015D00017060CF0C3C1EA2DF0E0FA87E98793E023
:1015E000EE0FFF1F9A95E1F7F88BEF87CF01840F7D
:1015F000951F181619060CF0B1C1A98DBA8D589611
:101600008C91811104C0BFEABD1508F4D394A98D53
:10161000BA8DED91FC9111970284F385E02DCD01F7
:101620000995B5E0DB9EC0011124E981FA81FC83B4
:10163000EB83312C212C9C0120563F4F388F2F8B70
:101640004A2D50E05E8B4D8BEF89F88DE20DF31D36
:1016500044919E828D82D12CC12C69817A81620D48
:10166000731D7A8B698B842F90E09C8B8B8BE98D1B
:10167000FA8DA081B18140FF82C0F1E0BF126FC03E
:10168000AF126DC01C96ED91FC912F813885A4019D
:101690004C0D5D1D69897A89898D9A8D0995EB8933
:1016A000FC89F595E7954E2F5FEFC51AD50A6D8138
:1016B0007E818D899E89680F791F7E836D8398E076
:1016C000C916D10481F6AFEF2A1A3A0AEB81FC81E0
:1016D000E40DF51DFC83EB83F5E02F16310409F0D2
:1016E000B3CF2F81388526153705B9F0A98DBA8D6E
:1016F000ED91FC91B1E0BB1257C0AB1255C06981AE
:101700007A816B5F7F4F0088F189E02D830128E0AB
:1017100030E0A401898D9A8D0995A98DBA8DED913E
:10172000FC9111970688F789E02DCD016A960FB6D6
:10173000F894DEBF0FBECDBFDF91CF911F910F9107
:10174000FF90EF90DF90CF90BF90AF909F908F90E1
:101750007F906F905F904F903F902F9009941E96CE
:10176000ED91FC91EF80F88409851A8592014D81F5
:101770005E816B817C81898D9A8D099590CF2F81B7
:1017800038852615370509F48ACF31E0B31207C032
:10179000A31205C01C96ED91FC91930178CF1E9683
:1017A000ED91FC917301E0CF6B857C85641975091F
:1017B0000684F785E02D73010F8518899201A40135
:1017C000898D9A8D0995A9CFF90134969491329714
:1017D00045915491D91AB7E0DB9E400D511D11245B
:1017E000F901259134913C8B2B8BFA012590349093
:1017F000FA013296749031963491398B3296649016
:101800003196449041E04C1518F04A1508F07FC01D
:10181000662D062C000C770B7C836B83842D042CA7
:10182000000C990B9E838D83A98DBA8DED91FC914F
:1018300011970284F385E02DCD010995512CD12C0F
:10184000C12CEA2DF0E0FA87E9872B2D30E03C87A8
:101850002B87A401440D511D47FC5A95588F4F8B7F
:1018600069817A81660D711D67FC7A957E876D8727
:101870007989C71608F051CF2C2D30E04D815E815B
:10188000420F531FA985BA854A9FC0014B9F900DF7
:101890005A9F900D1124FC01E80DF91DF88BEF877C
:1018A000852D612C4F89588D420F531F5E8B4D8BB8
:1018B000671408F050C044244394480E877041F4E4
:1018C000C1010196EB89FC89E20DF31DD4901C0146
:1018D000D7FE19C0A98DBA8DED91FC91662D70E0EF
:1018E000B1E0BB1219C0AB1217C02D853E85620F47
:1018F000731F0484F585E02D2F8138854D895E891D
:10190000898D9A8D0995DD0C6394842DD1CF1E822B
:101910001D821C821B8288CF4B815C81640F751FE6
:10192000AB85BC856A9FC0016B9F900D7A9F900D1F
:10193000112469817A81680F791F0684F785E02D6B
:10194000EF80F88409851A859D014F855889898D16
:101950009A8D0995D8CF570CC3948ACF6A960FB643
:10196000F894DEBF0FBECDBFDF91CF911F910F91D5
:10197000FF90EF90DF90CF90BF90AF909F908F90AF
:101980007F906F905F904F903F902F9008958F922F
:101990009F92AF92CF92EF92FF920F931F93CF93AC
:1019A000DF93EC01262F898D9A8D009709F051C0A5
:1019B0006A30D1F41D861C868D8948E0849F900191
:1019C00011248E859F85820F931F9F878E8781E0CC
:1019D00090E0DF91CF911F910F91FF90EF90CF900A
:1019E000AF909F908F9008956D3089F3CC88AD882B
:1019F0008F898823C1F08C859D8536E0C39E800D3C
:101A0000911D1124488559854817590764F44E855E
:101A10005F851D861C8638E0A39EC0011124840FBB
:101A2000951F9F878E87EA88FB88088919894E85CC
:101A30005F856C857D85CE010E94A20A2C898C85EC
:101A40009D8546E0249F800D911D11249D878C87E4
:101A5000BECF6A3069F41D861C86FC013896E4917D
:101A60002D898E859F85E29F800D911D1124ADCF1C
:101A70006D3009F4ACCFFC0134963491631708F44F
:101A8000A6CF3296E491E61708F4A1CFFC01329676
:101A900085909490462F431B342F47E0349F800C51
:101AA000911C1124F401329634913196E491332340
:101AB000A9F1EE2399F1CC88F4013596E491AD8833
:101AC0004F89442301F10E2E000CFF0BE30FF11D93
:101AD000CE9EA001CF9E500D11246C857D85460FB2
:101AE000571F68857985641775076CF44E855F8587
:101AF0001D861C86FC013896E491AE9E400D511D5A
:101B000011245F874E87EA88FB88088919894E85EA
:101B10005F856C857D85CE010E94A20AF401349612
:101B2000E4912C898C859D85E29F800D911D112467
:101B30008DCF6F927F928F929F92AF92BF92CF92F2
:101B4000DF92EF92FF920F931F93CF93DF93EC01FD
:101B50006B015A0139014801E881F9810284F3855A
:101B6000E02D0995E881F9810288F389E02D87014C
:101B70009301A501B601CE010995A501480D591D96
:101B800041505109E881F9810288F389E02D9301E0
:101B9000B601CE010995E881F9810088F189E02D2F
:101BA0009401A501B601CE010995C60CD71CB6015A
:101BB00061507109E881F9810088F189E02D940173
:101BC000A501CE010995E881F9810688F789E02D04
:101BD000CE01DF91CF911F910F91FF90EF90DF9099
:101BE000CF90BF90AF909F908F907F906F9009940F
:101BF0006F927F928F929F92AF92BF92CF92DF921D
:101C0000EF92FF920F931F93CF93DF935C01EB0151
:101C10006A01490138018701DC01ED91FC916217ED
:101C2000730719F5641675062CF0962D872D3A0169
:101C3000C92ED82E9601261937092F5F3F4F048CE5
:101C4000F58DE02DA301BE01C5010995DF91CF916E
:101C50001F910F91FF90EF90DF90CF90BF90AF90CA
:101C60009F908F907F906F9008954615570591F43F
:101C70002617370724F0892D4B01C22FD82F9E013C
:101C8000281939092F5F3F4F068CF78DE02DA601EB
:101C9000B401DACF0284F385E02D0995D501ED91E9
:101CA000FC910488F589E02D83019401A601BE0111
:101CB000C5010995D501ED91FC910688F789E02DC4
:101CC000C501DF91CF911F910F91FF90EF90DF90B1
:101CD000CF90BF90AF909F908F907F906F9009941E
:101CE000EF92FF920F931F93DC011A960D911C91B6
:101CF0001B9718962D913C911997ED91FC9100A09E
:101D0000F1A1E02D7B0150E040E070E060E009953A
:101D10001F910F91FF90EF9008954F925F926F92F5
:101D20007F928F929F92AF92BF92CF92DF92EF926B
:101D3000FF920F931F93CF93DF936C012B015A01F6
:101D400039014801DC01ED91FC910284F385E02D1D
:101D50000995E201640C751CD601ED91FC91C61544
:101D6000D7055CF40088F189E02D87019401A50175
:101D7000BE01C60109952196EFCF0688F789E02DAF
:101D8000C601DF91CF911F910F91FF90EF90DF90EF
:101D9000CF90BF90AF909F908F907F906F905F900B
:101DA0004F9009948F929F92AF92BF92CF92DF9201
:101DB000EF92FF920F931F93CF93DF93EC015B01A0
:101DC0004A016901E881F9810284F385E02D0995D2
:101DD00095012C0D3D1D21503109E881F9810488C0
:101DE000F589E02D78018401A401B501CE010995A2
:101DF000E881F9810688F789E02DCE01DF91CF9146
:101E00001F910F91FF90EF90DF90CF90BF90AF9018
:101E10009F908F9009948F929F92AF92BF92CF9292
:101E2000DF92EF92FF920F931F93CF93DF93EC011A
:101E30005B014A0169017801E881F9810284F38537
:101E4000E02D0995C80CD91C860101501109E881C3
:101E5000F9810488F589E02D9501A401B501CE0131
:101E60000995E881F9810688F789E02DCE01DF9197
:101E7000CF911F910F91FF90EF90DF90CF90BF9087
:101E8000AF909F908F9009940895EF92FF920F93D7
:101E90001F93DC01ED91FC9100A0F1A1E02D0995CB
:101EA0001F910F91FF90EF9008950F931F93DC0106
:101EB000ED91FC91068CF78DE02D09951F910F9106
:101EC00008950F931F93DC01ED91FC91048CF58D27
:101ED000E02D09951F910F910895DC01ED91FC9182
:101EE0000084F185E02D09942F923F924F925F92EA
:101EF0006F927F928F929F92AF92BF92CF92DF921A
:101F0000EF92FF920F931F93CF93DF9300D000D0F7
:101F100000D0CDB7DEB73C016A013E832D83FC8241
:101F2000EB825801A41AB50AB7FE03C0B194A1947C
:101F3000B1088D809E80861A970A97FE03C09194FF
:101F4000819491088A149B045CF0902F812F0D815D
:101F50001E819D838E839C2D8D2D6B01692F782F83
:101F60000C151D055CF09D818E817E836D83692F2C
:101F7000782F902F812F8601C92ED82E1601201A76
:101F8000310A2B012D813E81421A530A57FE03C0AC
:101F9000519441945108710137FE03C03FEFE31A99
:101FA000F30AF594E7948D819E81861797075CF577
:101FB000A1E0B0E0BA83A983C016D1064CF1D301E9
:101FC000ED91FC910484F585E02D2B813C81A801E5
:101FD0006D817E818A149B041CF04D815E81B80165
:101FE000C3010995E418F508F7FE0AC02D813E816A
:101FF00089819A81280F391F3E832D83E20CF31CBF
:102000000F5F1F4FD9CF2FEF3FEF3A832983D4CFF4
:1020100026960FB6F894DEBF0FBECDBFDF91CF91ED
:102020001F910F91FF90EF90DF90CF90BF90AF90F6
:102030009F908F907F906F905F904F903F902F90E8
:102040000895089520917603260F3327331F2132F8
:102050003105ECF42091EF03FC0190E080E02430A6
:1020600069F082E00895A09176032191AC014A5A6B
:102070005C4FA40FB52FB11D2C930196861798F3D2
:1020800080917603680F6093760380E0089581E085
:1020900008951092EF0381E08093EE031092C9033C
:1020A00061E082E10E94590661E083E10E945906E5
:1020B000E9EBF0E080818E7F808380818D7F80835B
:1020C00088E48093B80085E48093BC000895CF93A2
:1020D000DF9391E0909355038823B9F0C091B80045
:1020E000D091BA008091BC008A7B8093BC0060E0F4
:1020F00082E10E94590660E083E10E9459060E9435
:102100004910D093BA00C093B800DF91CF910895E1
:102110008F929F92AF92BF92CF92DF92EF92FF92F7
:102120000F931F93CF93DF93D0911804D13208F00F
:10213000D7C0182FC09117040E94B8066B017C010C
:102140008091EF0381116BC082E08093EF031093C5
:10215000EE038FEF8093ED031092EC03D093EB032B
:10216000A7EFB3E0EBECF3E080E0D81391C010925E
:10217000CA038091CA03CC0FC82BC093CA038091B5
:10218000C903813009F088C01092C9030E94B806C3
:102190006B017C018091CA038093BB008091F103A5
:1021A0009091F203A091F303B091F403892B8A2B51
:1021B0008B2BA1F00E94B8060091F1031091F2035D
:1021C0002091F3033091F4036C197D098E099F0966
:1021D000061717072807390708F442C08091BC008A
:1021E00083FDD8CF85EC8093BC000E94B8066B01BC
:1021F0007C018091EF03823009F450C08091ED039F
:102200008F3F09F46FC08091ED03803209F46CC0F8
:102210008091ED03803309F469C084E026C0809189
:10222000F1039091F203A091F303B091F403892B91
:102230008A2B8B2B09F484CF0E94B8068090F1037F
:102240009090F203A090F303B090F4036C197D0911
:102250008E099F0986169706A806B90608F070CF62
:102260008091F0030E94671085E01092F6031092AF
:1022700018041092F503DF91CF911F910F91FF90F9
:10228000EF90DF90CF90BF90AF909F908F90089588
:102290009D9191938F5F69CF85EEA5CF8091F103DA
:1022A0009091F203A091F303B091F403892B8A2B50
:1022B0008B2B09F49ECF0E94B8060091F103109178
:1022C000F2032091F3033091F4036C197D098E0918
:1022D0009F09061717072807390708F08ACFC0CFCC
:1022E00081E0C3CF80E0C1CF82E0BFCF83E0BDCF2C
:1022F000CF92DF92EF92FF920F931F93CF93DF93D2
:10230000D82FC62F613208F098C00E94B8066B0122
:102310007C018091EF0381116BC081E08093EF031A
:102320008093EE039FEF9093ED031092EC039C0FCC
:102330009093EB038093CA038091CA03DD0FD82BDF
:10234000D093CA038091C903813009F078C01092FC
:10235000C9030E94B8066B017C018091CA03809377
:10236000BB008091F1039091F203A091F303B0912F
:10237000F403892B8A2B8B2BA1F00E94B8060091C5
:10238000F1031091F2032091F3033091F4036C19DF
:102390007D098E099F09061717072807390708F4D2
:1023A00048C08091BC0083FDD8CF85EC8093BC00F1
:1023B0000E94B8066B017C018091EF03813009F423
:1023C00040C08091EC038C1710F4C091EC03EBEC4F
:1023D000F3E0A9EAB3E080E08C1355C08C2FDF91C5
:1023E000CF911F910F91FF90EF90DF90CF900895C4
:1023F0008091F1039091F203A091F303B091F40363
:10240000892B8A2B8B2B09F484CF0E94B80600916C
:10241000F1031091F2032091F3033091F4036C194E
:102420007D098E099F09061717072807390708F045
:1024300070CF8091F0030E946710C0E0CFCF85EE8F
:10244000B5CF8091F1039091F203A091F303B09185
:10245000F403892B8A2B8B2B09F4AECF0E94B8068C
:102460000091F1031091F2032091F3033091F403F2
:102470006C197D098E099F09061717072807390768
:1024800008F09ACFD6CF91919D938F5FA5CFE09121
:102490009F0380919E03E81730F4F0E0E755FC4F6E
:1024A000808190E008958FEF9FEF089590919F03B2
:1024B00080919E032FEF3FEF981748F4E92FF0E04B
:1024C000E755FC4F208130E09F5F90939F03C90147
:1024D000089580919E0390919F03891B990B089505
:1024E000CF92DF92EF92FF920F931F93CF93DF93E0
:1024F0007C01CB018A012091F503222389F0EB01B5
:102500006B01C40ED51ECC15DD0569F06991D701AC
:10251000ED91FC910190F081E02DC7010995F3CF79
:10252000642F0E942210C801DF91CF911F910F915B
:10253000FF90EF90DF90CF900895CF93DF931F929D
:10254000CDB7DEB769832091F5032223F9F02091FE
:102550001804203258F021E030E0FC01338322835C
:1025600090E080E00F90DF91CF9108958091F60385
:10257000E82FF0E0E950FC4F998190838F5F8093C2
:10258000F6038093180481E090E0ECCF61E0CE0187
:1025900001960E942210F7CF81E00C948810CF9210
:1025A000DF92EF92FF921F93CF93DF93EC016B01C9
:1025B000142F8D8D9E8D892B09F447C089A10E940F
:1025C000A0058D8D9E8DDC01ED91FC910190F08137
:1025D000E02D60E009957601CC24C394D12C1150F4
:1025E0008D8D9E8D1F3F41F1B0E2CB16D10490F04E
:1025F0000E94CC1289A10E94A0058D8D9E8DDC01C8
:10260000ED91FC910190F081E02D60E00995CC24E2
:10261000C394D12C8D8D9E8DF7016491DC01ED91D9
:10262000FC910190F081E02D0995BFEFCB1ADB0AF8
:10263000EFEFEE1AFE0AD3CFDF91CF911F91FF90FB
:10264000EF90DF90CF900C94CC12EDA5FEA5908179
:102650008BA98095892380837B01115070F1F7014C
:1026600084912B8D3C8D232B31F00E94820AFFEF49
:10267000EF1AFF0AF2CF28E030E040E8E9A5FAA51A
:1026800099A9582F5423A9F05081952B9083EBA53D
:10269000FCA590815AA9952B9083EBA5FCA55081B0
:1026A0009AA990959523908346952150310931F749
:1026B000DECF508190959523E9CFDF91CF911F9187
:1026C000FF90EF90DF90CF9008951F93CF93DF930B
:1026D000EC018D8D9E8D892BF9F0162F89A10E941A
:1026E000A0058D8D9E8DDC01ED91FC910190F08116
:1026F000E02D60E009958D8D9E8DDC01ED91FC91C2
:102700000190F081E02D612F09958D8D9E8DDF91D7
:10271000CF911F910C94CC12ADA5BEA59C918BA915
:10272000809589238C938B8D9C8D892B31F0862FFE
:10273000DF91CF911F910C94820A28E030E080E86D
:10274000A9A5BAA599A9462F4823C1F04C91942B6D
:102750009C93ABA5BCA59C914AA9942B9C93ABA53B
:10276000BCA54C919AA9909594239C938695215051
:10277000310931F7DF91CF911F9108954C919095D8
:102780009423E6CF1F93CF93DF93EC01162F8D8D0B
:102790009E8D892BB1F12DA93EA94FA958AD60E0BE
:1027A00074E284EF90E00E94F8272051310941093A
:1027B000510956954795379527952093B80066EAB5
:1027C000111167EACE010E9465138D8D9E8D892BB4
:1027D00041F129AD3AAD4BAD5CAD60E074E284EF00
:1027E00090E00E94F827205131094109510956957E
:1027F0004795379527952093B800DF91CF911F918A
:1028000008958B8D9C8D892B21F08EAD9FAD0E94FC
:10281000890AEFA5F8A990818CA9809589238083E6
:10282000CECFEFA5F8A980819CA9892B8083E5CF25
:10283000CF92DF92EF92FF920F931F93CF93DF938C
:10284000EC018D8D9E8D892B09F481C02DA93EA9A7
:102850004FA958AD60E074E284EF90E00E94F82741
:1028600020513109410951095695479537952795CA
:102870002093B80044E060EA75E0CE010E94CF12D8
:102880008C819D818034910509F071C060E2CE0198
:102890000E9465136C81615ECE010E9465132E81DA
:1028A0003F81C901079697FD079633E09595879577
:1028B0003A95E1F72C813D81829F7001839FF00C56
:1028C000929FF00C11240F8D18A18D8D9E8DE00E1E
:1028D000F11E892B09F476C089A10E94A0058D8D77
:1028E0009E8DDC01ED91FC910190F081E02D60E482
:1028F0000995CC24C394D12C8D8D9E8DE016F106C4
:10290000E9F1B0E2CB16D10490F00E94CC1289A17B
:102910000E94A0058D8D9E8DDC01ED91FC910190B2
:10292000F081E02D60E40995CC24C394D12C8D8DE9
:102930009E8DF80161918F01DC01ED91FC91019078
:10294000F081E02D0995BFEFCB1ADB0AD5CF8B8D37
:102950009C8D892B21F08EAD9FAD0E94890AEFA539
:10296000F8A990818CA980958923808383CF60E02A
:10297000CE010E9465136C8161508ECF0E94CC12F3
:102980008D8D9E8D892B09F452C029AD3AAD4BAD8A
:102990005CAD60E074E284EF90E00E94F827205183
:1029A0003109410951095695479537952795209347
:1029B000B800DF91CF911F910F91FF90EF90DF90C2
:1029C000CF900895EDA5FEA580819BA9892B8083DA
:1029D000E016F106A9F2F80181918F012B8D3C8D53
:1029E000232B19F00E94820AF3CF28E030E040E860
:1029F000E9A5FAA599A9582F5423A9F05081952B40
:102A00009083EBA5FCA590815AA9952B9083EBA50B
:102A1000FCA550819AA990959523908346952150C5
:102A2000310931F7D5CF508190959523E9CFEFA5A6
:102A3000F8A980819CA9892B8083BBCFFF920F933B
:102A40001F93CF93DF93EC01F62E142F052F8B816C
:102A50000E94A00589819A81DC01ED91FC91019091
:102A6000F081E02D60E0099589819A81DC01ED918A
:102A7000FC910190F081E02D6F2D099589819A815B
:102A8000DC01ED91FC910190F081E02D602F099522
:102A900089819A81DC01ED91FC910190F081E02D1A
:102AA000612F099589819A810E94CC128883DF91D8
:102AB000CF911F910F91FF900895FF920F931F9355
:102AC000CF93DF93EC01062FF72E142F8B810E94FA
:102AD000A00589819A81DC01ED91FC910190F08142
:102AE000E02D6F2D099589819A81DC01ED91FC9192
:102AF0000190F081E02D602F099589819A81DC0198
:102B0000ED91FC910190F081E02D612F0995898173
:102B10009A810E94CC128883DF91CF911F910F91EF
:102B2000FF9008950F931F93CF93DF93EC01062F2F
:102B3000142F88E60E94A00588819981DC01ED911F
:102B4000FC910190F081E02D602F09958881998199
:102B5000DC01ED91FC910190F081E02D612F099550
:102B600088819981DF91CF911F910F910C94CC12A4
:102B700090E080E008950F931F93CF93DF93EC01D3
:102B80002B8130E0F901EE55F54F8491F901E257C0
:102B9000F54F0491F901E658F54F1491112301F115
:102BA00081110E943006E12FF0E0EE0FFF1FEA5680
:102BB000FF4FA591B491EC910E2391F08D819E81F0
:102BC000AF81B8850196A11DB11D8D839E83AF8312
:102BD000B88781E08C83DF91CF911F910F91089589
:102BE0008D819E81AF81B8850197A109B1098D833F
:102BF0009E83AF83B8878FEFEDCF80910A029091CB
:102C00000B02009711F00C94BB15089580910802F7
:102C100090910902009711F00C94BB1508959F92B2
:102C2000AF92BF92CF92DF92EF92FF920F931F93DA
:102C3000CF93DF93CDB7DEB72E970FB6F894DEBFF4
:102C40000FBECDBF8C0188E60E94A005D8018D91F2
:102C50009C91DC01ED91FC910190F081E02D6BE302
:102C6000099580E00E9488106EE088E60E94781145
:102C700010929F0380939E03FE0131967F015E01B7
:102C8000FFE0AF0EB11CD8018D919C91DC01ED915C
:102C9000FC910284F385E02D0995982EF80180813E
:102CA0009181DC01ED91FC910284F385E02D099581
:102CB000C12C8C299929F701819391937F01AE163C
:102CC000BF0609F7D8011696CD90DD90ED90FC90E7
:102CD000199769817A81072E000C880B990B0E9445
:102CE000C229A70196010E941829F801268937896F
:102CF000408D518D0E943428D80196966D937D9316
:102D00008D939C9399976B817C81072E000C880B87
:102D1000990B0E94C229A70196010E941829F80167
:102D2000228D338D448D558D0E943428D8019A967A
:102D30006D937D938D939C939D976D817E81072EDE
:102D4000000C880B990B0E94C229A70196010E94D2
:102D50001829F801268D378D40A151A10E943428F1
:102D6000D8019E966D937D938D939C93D1976F819F
:102D70007885072E000C880B990B0E94C22920E051
:102D800030EF41E456E40E94352820E030E04AEA82
:102D900053E40E941829F80162A373A384A395A3A6
:102DA000C280D380E480F58069857A85072E000C87
:102DB000880B990B0E94C229A70196010E9418292D
:102DC000D8011A962D913D914D915C911D970E94CD
:102DD0003428F80162AB73AB84AB95AB6B857C8513
:102DE000072E000C880B990B0E94C229A70196019F
:102DF0000E941829D8011E962D913D914D915C910C
:102E000051970E943428F80166AB77AB80AF91AF41
:102E10006D857E85072E000C880B990B0E94C229B8
:102E2000A70196010E941829D80152962D913D9133
:102E30004D915C9155970E943428F80162AF73AFB1
:102E400084AF95AF2E960FB6F894DEBF0FBECDBF00
:102E5000DF91CF911F910F91FF90EF90DF90CF9076
:102E6000BF90AF909F9008951F93CF93DF93EC0195
:102E7000162F8B810E94A00589819A81DC01ED913A
:102E8000FC910190F081E02D60E0099589819A81A3
:102E9000DC01ED91FC910190F081E02D612F09950D
:102EA00089819A810E94CC12888361E08B810E9483
:102EB000781110929F0380939E0389819A81DC018F
:102EC000ED91FC910284F385E02D0995DF91CF917E
:102ED0001F910895FF920F931F93CF93DF93EC01FF
:102EE000162FF42E61E0812F0E94870660E0812F6B
:102EF0000E94590662E370E080E090E00E94DD06E7
:102F000061E0812F0E94590662E370E080E090E06A
:102F10000E94DD0664E270E0CE010E9434178D83CA
:102F200066E170E0CE010E943417813009F03EC1A5
:102F30008C8341E067E072E0CE010E945D1541E0C4
:102F400068E072E0CE010E945D1540E066E970E045
:102F5000CE010E945D154DEF67E970E0CE010E9441
:102F60005D1541E063EE70E0CE010E945D1543E027
:102F700064EE70E0CE010E945D1542E065EE70E007
:102F8000CE010E945D1541E066EE70E0CE010E9428
:102F90005D1543E067EE70E0CE010E945D1542E0F2
:102FA00065EF70E0CE010E945D1545E069ED70E0CF
:102FB000CE010E945D154EEC6BED70E0CE010E94DB
:102FC0005D1543E06CED70E0CE010E945D1548EFA9
:102FD0006DED70E0CE010E945D1540E06FE970E09C
:102FE000CE010E945D154CE363EA70E0CE010E94C1
:102FF0005D1540E067EB70E0CE010E945D154CE38B
:103000006BEB70E0CE010E945D1549E062EB70E071
:10301000CE010E945D1549E06AEC70E0CE010E948D
:103020005D1541E068E971E0CE010E945D1547E160
:1030300060EB71E0CE010E945D1540E06DEA71E049
:10304000CE010E945D1545E06FEF70E0CE010E9459
:103050005D1545E060E071E0CE010E945D1545E040
:1030600069E971E0CE010E945D154BE166EA71E00D
:10307000CE010E945D154EE36CEA71E0CE010E9424
:103080005D154FE167EA71E0CE010E945D1540E0F9
:1030900060E370E0CE010E945D1540E066E170E003
:1030A000CE010E945D154F2D4F7762E172E0CE0197
:1030B0000E945D15FB8240E36AE071E0CE010E9450
:1030C0005D1546E46FE370E0CE010E945D154FEFA1
:1030D00061E370E0CE010E945D1543E650E060E4DC
:1030E00070E0CE010E941E1541E06EE270E0CE015C
:1030F0000E945D1549E06BE170E0CE010E945D1514
:1031000041E36EE370E0CE010E945D1544E264E1AC
:1031100070E0CE010E945D1541E36CE170E0CE01EC
:103120000E945D1540E063EA72E0CE010E945D15E9
:1031300081E08C834DEF50E066E970E0CE010E94A3
:103140001E158D81082E000C990B6C8170E00E9479
:10315000E427462F64E270E0CE010E945D156C8189
:1031600070E084E190E00E94E427462F61E270E085
:10317000CE010E945D156DE270E0CE010E94341711
:1031800041E09C81913009F040E08E7F482B6DE258
:1031900070E0CE010E945D158AEF90E09F838E83E0
:1031A000DF91CF911F910F91FF9008958B810E9425
:1031B000A00589819A81DC01ED91FC910190F0815B
:1031C000E02D60E0099589819A81DC01ED91FC9107
:1031D0000190F081E02D66E9099589819A810E942C
:1031E000CC12888362E08B810E94781110929F0339
:1031F00080939E0389819A81DC01ED91FC91028488
:10320000F385E02D099500E0182F89819A81DC0172
:10321000ED91FC910284F385E02D0995802B912B93
:103220008435910549F483E08C838D819C81899F4D
:10323000802D11248D8337CF8F37910511F482E0D3
:10324000F3CF81E0F1CFCF92DF92EF920F931F93F4
:10325000CF93DF93EC016B01842F488329830A838A
:10326000EB821C821D821E821F82188661E00E94F2
:10327000870661E089810E948706188161E0812FBD
:103280000E94870660E0812F0E94590660E08981D4
:103290000E94590662E08A810E94870662E08B8163
:1032A0000E9487068A81CD28C1F4D0930902C09379
:1032B0000802823071F0833071F08FEF66E076E1C2
:1032C000DF91CF911F910F91EF90DF90CF900C94F1
:1032D000860580E0F3CF81E0F1CFD0930B02C0935D
:1032E0000A02823031F0833031F08FEF6DEF75E1FB
:1032F000E7CF80E0FBCF81E0F9CF4F925F926F92F2
:103300007F928F929F92AF92BF92CF92DF92EF9275
:10331000FF920F931F9380914D0381111EC287E08E
:10332000E82E02E02CE04BE070E060E08CE092E000
:103330000E94231998E0E92E03E02AE049E061E0C9
:1033400070E085E192E00E942319109278021092B9
:10335000790210927A0210927B02E6EBF4E0F0938D
:103360001F02E0931E0248E451EE6AE77FE34093B8
:1033700074025093750260937602709377021092F4
:1033800028021092290210922A0210922B02109207
:103390002C0210922D0210922E0210922F021092E7
:1033A00030021092310210923202109233021092C7
:1033B00034021092350210923602109237021092A7
:1033C00038021092390210923A0210923B02109287
:1033D0003C0210923D0210923E0210923F0240E0E9
:1033E00050E060EA70E440937C0250937D02609369
:1033F0007E0270937F0240E050E060E87EE34093FD
:103400008002509381026093820270938302412C68
:10341000512C612C2FE3722E40928402509285022F
:10342000609286027092870210928802109289023E
:1034300010928A0210928B0210928C0210928D02CE
:1034400010928E0210928F021092900210929102AE
:10345000109292021092930240E050E068EC72E405
:103460004093940250939502609396027093970252
:10347000812C912C30E2A32E32E4B32E809298025C
:1034800090929902A0929A02B0929B02AAE9CA2E47
:10349000A9E9DA2EED2CAEE3FA2EC0929C02D0926E
:1034A0009D02E0929E02F0929F020AE919E929E149
:1034B0003EE30093A0021093A1022093A202309356
:1034C000A3021092A4021092A5021092A6021092DA
:1034D000A7021092A8021092A9021092AA021092BA
:1034E000AB021092AC021092AD021092AE0210929A
:1034F000AF024093B0025093B1026093B202709356
:10350000B30280E090E0A0E2B1E48093B402909333
:10351000B502A093B602B093B7021092B80210920F
:10352000B9021092BA021092BB024092BC025092B1
:10353000BD026092BE027092BF021092C002109251
:10354000C1021092C2021092C3021092C4021092E1
:10355000C5021092C6021092C7021092C8021092C1
:10356000C9021092CA021092CB024093CC0250932F
:10357000CD026093CE027093CF028092D0029092DF
:10358000D102A092D202B092D302C092D402D092C1
:10359000D502E092D602F092D7020093D80210939F
:1035A000D9022093DA023093DB021092DC021092EF
:1035B000DD021092DE021092DF021092E002109201
:1035C000E1021092E2021092E3021092E4021092E1
:1035D000E5021092E6021092E7024093E80250934F
:1035E000E9026093EA027093EB0220E12093EC027F
:1035F00024E52093ED022EE02093EE0225E52093B2
:10360000EF022FE02093F00226E52093F102F093E1
:10361000F402E093F30229E22093F5021092F602FD
:103620001092F7021092F9021092F8021092FA0228
:10363000F093FD02E093FC022093FE021092FF0241
:1036400010920003109202031092010310920303E0
:10365000F0930603E09305032093070310920803F9
:103660001092090310920B0310920A0310920C039C
:103670001092100310920F0340E850E05093120391
:103680004093110320E430E030931403209313039C
:103690005093160340931503309318032093170398
:1036A0001092230310921A031092190310921C0314
:1036B00010921B0321E020932203209321034FEF5C
:1036C0005FEF5093200340931F0350931E034093DA
:1036D0001D032093240310922503109227031092B8
:1036E00026034EE051E050930E0340930D031092D9
:1036F000290310922803F0932B03E0932A031092DE
:103700002D0310922C038FEF8093310380933203AB
:1037100080933303809334038093350380E89AE1E8
:10372000A6E0B0E08093420390934303A093440348
:10373000B093450380EA96E8A1E0B0E080934603A9
:1037400090934703A0934803B093490380E5809387
:103750004B0310924C0320934D038CE092E01F9199
:103760000F91FF90EF90DF90CF90BF90AF909F9020
:103770008F907F906F905F904F9008950E94972C4C
:10378000FB0101900020E9F73197AF01461B570B71
:10379000DC01ED91FC910280F381E02D09940F93FF
:1037A0001F93CF93DF93EC010E94C01B8C016AE54D
:1037B00071E0CE010E94C01B800F911FDF91CF915D
:1037C0001F910F910895CF93DF93CDB7DEB7C0540B
:1037D000D1090FB6F894DEBF0FBECDBF9E01275BA7
:1037E0003F4F4DE551E060E470E0CE0101960E944C
:1037F000A32CBE016F5F7F4F27968EAD9FAD27979D
:103800000E94CF1B27968EAD9FAD27970E9418145C
:10381000C05CDF4F0FB6F894DEBF0FBECDBFDF91A7
:10382000CF910895EF92FF920F931F93CF93DF9361
:10383000EB0177FF04C0CC27DD27C61BD70BCF3F9A
:10384000D10569F064F064E771E089E194E0DF910B
:10385000CF911F910F91FF90EF900C94CF1B8B0194
:103860007C01FC01818161E017FD60E00E94590646
:10387000F701F08061E08F2D0E948706012B51F443
:1038800060E08F2DDF91CF911F910F91FF90EF900E
:103890000C945906CF3FD10511F461E0F2CFEF2D22
:1038A000F0E0EE55F54FE491E33049F140F4E130BA
:1038B000B1F0E230F9F0C038D1057CF7E1CFE73064
:1038C00041F1E83071F1E430B1F78091800080621D
:1038D00080938000D0938B00C0938A0004C084B58D
:1038E000806884BDC7BDDF91CF911F910F91FF907C
:1038F000EF90089584B5806284BDC8BDF4CF8091F7
:103900008000806880938000D0938900C0938800F5
:10391000EACF8091B00080688093B000C093B3007C
:10392000E2CF8091B00080628093B000C093B40079
:10393000DACFFC01868197819C01295F3F4F37FFD9
:1039400002C0295F3F4F83E0359527958A95E1F7BF
:1039500084819581289FA001299F500D389F500D8B
:10396000112470E060E0878D90A10C949C2C2F9224
:103970003F924F925F926F927F928F929F92AF92FF
:10398000BF92CF92DF92EF92FF920F931F93CF934C
:10399000DF93CDB7DEB72A970FB6F894DEBF0FBE20
:1039A000CDBF1C010E940F16F101C6A4D7A4E0A848
:1039B000F1A8A7019601C701B6010E94A62A698352
:1039C0007A838B839C83F10186A097A0A0A4B1A4E5
:1039D000A5019401C501B4010E94A62A29813A815A
:1039E0004B815C810E9435280E94192B6D837E8358
:1039F0008F839887F10142A453A464A475A401E0C5
:103A000010E020E030E0A901C701B6010E94992A28
:103A100087FF02C010E000E021E030E03A8729870C
:103A200020E030E0A901C701B6010E94132987FDFB
:103A300002C01A861986B80149855A85641B750B20
:103A4000072E000C880B990B0E94C2292D813E8104
:103A50004F8158850E94A62A9B01AC01C301B20187
:103A60000E94B428F101FE96FA87E98721EE3EE232
:103A700045E652E40E94A62AE985FA8560837183AF
:103A800082839383A3019201C301B2010E94A62AFB
:103A900029813A814B815C810E9435280E94192B33
:103AA0009B01AC01C501B4010E94B42891012E5BB9
:103AB0003F4F3A832983905821EE3EE245E652E497
:103AC0000E94A62AE981FA816083718382839383AD
:103AD0000E940F074B015C0181010E5A1F4FF80134
:103AE00080819181A281B381A5019401281B390BAA
:103AF0004A0B5B0BCA01B9010E94C0292FE632E1D3
:103B000043E85AE30E94A62A6B017C01F8018082F7
:103B10009182A282B382349680809180A280B38009
:103B2000A501940160E070E080E89FE30E943428E2
:103B30002B013C010C501109F10122A933A944A920
:103B400055A9C701B6010E94A62AF801208131813A
:103B5000428153810E943528A50194010E94A62A22
:103B60006D837E838F839887E985FA8520813181F3
:103B700042815381C301B2010E94A62A9B01AC017C
:103B80006D817E818F8198850E943528F801608340
:103B90007183828393839101265B3F4F3E832D8304
:103BA000F10126A937A940AD51ADC701B6010E9468
:103BB000A62AED81FE8120813181428153810E94BC
:103BC0003528A50194010E94A62A4B015C01E981D8
:103BD000FA812081318142815381C301B2010E9467
:103BE000A62A9B01AC01C501B4010E943528ED81D4
:103BF000FE8160837183828393839101225B3F4FB7
:103C00003A832983F10122AD33AD44AD55ADC701EF
:103C1000B6010E94A62AE981FA8120813181428180
:103C200053810E943528E981FA8160837183828300
:103C300093832A960FB6F894DEBF0FBECDBFDF91F7
:103C4000CF911F910F91FF90EF90DF90CF90BF9099
:103C5000AF909F908F907F906F905F904F903F902C
:103C60002F900895CF92DF92EF92FF92CF93DF9340
:103C70000E947D19EC010E940F076B017C01629686
:103C80000E940F076C197D098E099F0968387341DE
:103C90008105910520F4CE010E94B71CF1CFDF9180
:103CA000CF91FF90EF90DF90CF9008952F923F92A9
:103CB0004F925F926F927F928F929F92AF92BF923C
:103CC000CF92DF92EF92FF920F931F93CF93DF93E8
:103CD000CDB7DEB76C970FB6F894DEBF0FBECDBF81
:103CE0009C8F8B8F0E947D198C01EB8DFC8D108A2F
:103CF000118A128A138A148A158A168A178A80E012
:103D000090E0A4EBB2EC84879587A687B7870E94E2
:103D1000B8066F83788789879A872801F0E64F0E67
:103D2000511C38012CE6620E711CF3012081318197
:103D300042815381F20160817181828193810E946D
:103D400034289B01AC0160E070E084EB92EC0E94AF
:103D500034286B017C018F809884A984BA841B86E7
:103D60001C861D861E8698012E5E3F4F3C8B2B8B3A
:103D70005E8A4D8A788E6F8AA801475F5F4F5A8F9F
:103D8000498F20E030E040E250E4C701B6019F7760
:103D90000E94992A181674F020E030E040E751E4C0
:103DA0006B857C858D859E859F770E94992A181644
:103DB0000CF0EBC00E94B8062F81388549855A85E2
:103DC000621B730B840B950B603C764C8D42910506
:103DD00008F0DBC00E94B8066F87788B898B9A8BBE
:103DE000681979098A099B090E94C0292DEB37E3DC
:103DF00046E855E30E94A62A4B015C018B899C8909
:103E00000E94B71CEF89F88D208131814281538156
:103E1000ED89FE8960817181828193810E943428BD
:103E20009B01AC0160E070E084EB92EC0E943428CE
:103E300069837A83382E292E20E030E0A901C5015C
:103E4000B4010E94992A18160CF4C2C029813A8143
:103E5000432D522DC501B4010E94A62AEB8DFC8D85
:103E600020893189428953890E9435286B837C835C
:103E70008D839E83EB8DFC8D408C518C628C738C7A
:103E800073016201F7FAF094F7F8F094A701960134
:103E90000E94132987FD10C0A30192016B817C81D0
:103EA0008D819E810E94992A73016201181624F067
:103EB000CB80DC80ED80FE80EB8DFC8DC08AD18ACA
:103EC000E28AF38A248935894689578969817A810A
:103ED000832D922D0E943428A50194010E94182957
:103EE0004B015C0189819A81A32DB22DEB8DFC8D54
:103EF000848B958BA68BB78B208131814281538136
:103F0000BC01832D922D0E94A62A2B013C01EB8D32
:103F1000FC8D2481358146815781C701B6010E94FD
:103F2000A62A9B01AC01C301B2010E9435286B0196
:103F30007C01EB8DFC8D2085318542855385C50143
:103F4000B4010E94A62A9B01AC01C701B6010E94E0
:103F500035286B017C0120E030E040EA52EC0E9401
:103F6000132987FD46C020E030E040EA52E4C70153
:103F7000B6010E94992A18160CF041C0C12CD12C10
:103F800080EAE82E82E4F82E3AC070E060E0C801D2
:103F90000E94121C70E060E0C80109966C960FB692
:103FA000F894DEBF0FBECDBFDF91CF911F910F916F
:103FB000FF90EF90DF90CF90BF90AF909F908F9049
:103FC0007F906F905F904F903F902F900C94121CB9
:103FD000A701960169817A81832D922D0E94342850
:103FE000A50194010E9418296B877C878D879E8785
:103FF0002DCFC12CD12C90EAE92E92ECF92EC701DD
:10400000B6010E948A296B01C8010E94121CB601E8
:10401000898D9A8D0E94121CC980DA80E32CF22CC3
:104020008F849888A988BA88ACCE85ED8093BC002F
:104030008091F1039091F203A091F303B091F40306
:104040000796A11DB11D23E0B695A7959795879575
:104050002A95D1F72091BC0024FD03C01092EF03F4
:1040600008954091F1035091F2036091F303709130
:10407000F403452B462B472B69F30097A105B105A7
:1040800041F02AE22A95F1F700C00197A109B10990
:10409000E1CF8091F0030C9467101F920F920FB63E
:1040A0000F9211242F933F938F939F93AF93BF93BE
:1040B0008091A1039091A203A091A303B091A403C6
:1040C0003091A00323E0230F2D3758F50196A11D51
:1040D000B11D2093A0038093A1039093A203A0930A
:1040E000A303B093A4038091A5039091A603A0918C
:1040F000A703B091A8030196A11DB11D8093A5034C
:104100009093A603A093A703B093A803BF91AF9188
:104110009F918F913F912F910F900FBE0F901F9005
:10412000189526E8230F0296A11DB11DD2CF1F922C
:104130000F920FB60F9211242F933F934F935F93DB
:104140006F937F938F939F93AF93BF93EF93FF935F
:10415000E0910201F09103010995FF91EF91BF9168
:10416000AF919F918F917F916F915F914F913F910F
:104170002F910F900FBE0F901F9018951F920F92C6
:104180000FB60F9211242F933F934F935F936F932A
:104190007F938F939F93AF93BF93EF93FF93E091A0
:1041A0000001F09101010995FF91EF91BF91AF914D
:1041B0009F918F917F916F915F914F913F912F913F
:1041C0000F900FBE0F901F9018951F920F920FB671
:1041D0000F9211242F933F934F935F936F937F938D
:1041E0008F939F93AF93BF93EF93FF9389E194E0F5
:1041F0000E949C07FF91EF91BF91AF919F918F918A
:104200007F916F915F914F913F912F910F900FBED2
:104210000F901F9018951F920F920FB60F921124B6
:104220002F938F939F93EF93FF93E0912904F09145
:104230002A048081E0912F04F091300482FD1BC09C
:104240009081809132048F5F8F73209133048217A5
:1042500041F0E0913204F0E0E75EFB4F958F8093F0
:104260003204FF91EF919F918F912F910F900FBE8C
:104270000F901F9018958081F4CF1F920F920FB668
:104280000F9211242F933F934F935F936F937F93DC
:104290008F939F93AF93BF93EF93FF938091B90058
:1042A000887F803609F44AC0F0F5883209F4A7C047
:1042B00018F5803109F49BC0B8F4882309F4F9C0DB
:1042C000883009F494C0FF91EF91BF91AF919F9115
:1042D0008F917F916F915F914F913F912F910F90AF
:1042E0000FBE0F901F901895883109F488C0803256
:1042F00051F78093ED0314C0803409F49DC040F45D
:104300008033B9F38833F9F68093ED0385ECB0C0C0
:10431000803509F485C0883509F496C0883499F64B
:104320000E941520D0CF883909F48CC038F5883721
:1043300029F050F4883611F0803729F683E0809315
:10434000EF031092980357C0883809F47BC0803976
:1043500019F0803809F0B7CF80919803803208F0C7
:1043600071C0E091980381E08E0F80939803809153
:10437000BB00F0E0E858FC4F80833DC0803B39F043
:10438000E0F4803A09F479C0883A09F09CCF84E0DF
:104390008093EF031092770310927603E0919C03D1
:1043A000F0919D0309958091760381110FC081E002
:1043B000809376031092560309C0803C09F4A6CF7F
:1043C000883C09F4A3CF883B09F07DCFE0917703C7
:1043D00081E08E0F80937703F0E0EA5AFC4F8081F2
:1043E0008093BB00909177038091760329C08091E0
:1043F000CA038093BB0085EC8093BC0064CF90918E
:10440000EC038091EB03981758F5E091EC0381E001
:104410008E0F8093EC03F0E0E553FC4F8081E9CFF1
:10442000E091EC0381E08E0F8093EC038091BB0060
:10443000F0E0E553FC4F80839091EC038091EB0317
:104440009817C8F285E8D8CFE091EC0381E08E0F91
:104450008093EC038091BB00F0E0E553FC4F808338
:104460008091EE0381115CCF81E08093C90384EADF
:104470008093BC001092EF0326CF85EC8093BC00A4
:104480001092EF0380919803803230F4E09198030A
:10449000F0E0E858FC4F10826091980370E0E091E2
:1044A0009A03F0919B0388E793E009951092980393
:1044B0000ACF1092ED0334CFE9E1F4E013821282C7
:1044C00088EE93E0A0E0B0E084839583A683B78371
:1044D0002AE331E03183208325EC30E035872487DF
:1044E00024EC30E03787268720EC30E0318B208BBE
:1044F00021EC30E0338B228B22EC30E0358B248BA7
:1045000026EC30E0378B268B118E128E138E148E94
:10451000E6EBF4E01382128284839583A683B7834B
:104520008CE491E0918380830895CF93DF93CDB79E
:10453000DEB766970FB6F894DEBF0FBECDBF789496
:1045400084B5826084BD84B5816084BD85B5826098
:1045500085BD85B5816085BD80916E008160809349
:104560006E001092810080918100826080938100B2
:1045700080918100816080938100809180008160C2
:10458000809380008091B10084608093B10080911D
:10459000B00081608093B00080917A008460809345
:1045A0007A0080917A00826080937A0080917A000C
:1045B000816080937A0080917A00806880937A008D
:1045C0001092C100E0912904F0912A0482E08083D6
:1045D000E0912504F09126041082E0912704F091E7
:1045E00028048FEC808310923104E0912D04F09127
:1045F0002E0486E08083E0912B04F0912C048081CE
:1046000080618083E0912B04F0912C04808188608C
:104610008083E0912B04F0912C048081806880835A
:10462000E0912B04F0912C0480818F7D808366E8DB
:1046300071E089E194E00E94CF1B10929F031092D9
:104640009E031092F603109218040E9449108BE109
:1046500097E090939D0380939C038CE197E0909367
:104660009B0380939A0364E971E089E194E00E94DE
:10467000CF1B0E947D199A8389836C0141E0C40E8F
:10468000D41ED6015F968D919C919097892B09F04D
:10469000D8C016962D913C91C901079697FD0796B3
:1046A000A3E095958795AA95E1F7F60124813581D8
:1046B000AC01429FC001439F900D529F900D112469
:1046C0000E94722BD60190969C938E935F97892BB4
:1046D00009F0B7C060EA71E089E194E00E94CF1B65
:1046E00060EC71E089E194E00E94CF1B1F9283E0AF
:1046F0008F931F9282E08F931F9281E08F938DE5BD
:1047000091E09F938F93DF92CF920E94E31B0981E8
:104710001A8100521F4FD8016C9170E011964C9194
:10472000C80106960E946A17F801628170E0438111
:10473000C8010F960E946A17D80114966C911497BD
:1047400070E015964C91C80148960E946A176CEC6F
:1047500071E089E194E00E94CF1B64EF71E080E09A
:1047600090E00E94DD0609811A810E5E1F4F40E035
:1047700069E1C8010E94921540E06AE1C8010E9407
:10478000921580E090E0A3E8B2E4E981FA81848B9D
:10479000958BA68BB78B48E06BE1C8010E94921500
:1047A00080E090E0A0E8B6E4E981FA81808F918F03
:1047B000A28FB38F40E06CE1C8010E94921541E0E6
:1047C0006BE6C8010E949215F82EC8010E94B71C22
:1047D000E981FA81E05BFF4F80819181A281B38101
:1047E000E981FA81E85AFF4F80839183A283B383E2
:1047F000E981FA81EC5AFF4F80819181A281B381D6
:10480000E981FA81E45AFF4F80839183A283B383C5
:104810000E940F07E981FA81EC59FF4F6083718391
:10482000828393830FB6F894DEBF0FBECDBFFF2007
:1048300009F443C26AED71E089E194E00E94CF1B64
:10484000FFCFC6010E94991CF60186819781AC01B9
:1048500081970CF4BCC04054510957FF02C04F5F10
:104860005F4F55954795D60114966D917C91625591
:10487000710977FF02C06F5F7F4F75956795E0E420
:10488000EE2EF12C02E510E026EA37E0C6010E9488
:10489000AA0582E0D60192968C9392975D968D91AF
:1048A0009C915E97892B09F4ADC08CE391968C9313
:1048B00010929F0310929E031092F6031092180418
:1048C0000E9449108BE197E090939D0380939C0395
:1048D0008CE197E090939B0380939A03D60198967E
:1048E0008C9187FD1FC061E00E94870661E0F601A0
:1048F00080A50E94590661E070E080E090E00E948F
:10490000DD0660E0D60198968C910E9459066AE017
:1049100070E080E090E00E94DD0661E0F60180A595
:104920000E945906D6015D968D919C915E97892BC8
:1049300009F42DC1D5962D913D914D915C91D8975B
:1049400060E074E284EF90E00E94F8272051310982
:104950004109510956954795379527952093B800F9
:1049600044E062EC75E0C6010E94CF12F601668158
:104970006150C6010E94651344E06EEB75E0C6010C
:104980000E94CF12D60192968C9164E1813009F495
:1049900060E1C6010E94651344E06AEB75E0C60160
:1049A0000E94CF128FE8F60185AF8481958180380F
:1049B000910509F059C1868197818034910509F0EC
:1049C00061C182A1813009F4F7C08FECF6C040527A
:1049D000510957FF02C04F5F5F4F55954795F6014C
:1049E000648175816357710977FF02C06F5F7F4FE4
:1049F0007595679590E2E92EF12C03E710E026EC1F
:104A000035E044CF61E0F60186A10E94870661E0AF
:104A1000D60197968C910E948706F60186A1082EF2
:104A2000000C990BFC01E658F54FE491F0E0EE0F15
:104A3000FF1FE059F54F25913491D6019E963C9386
:104A40002E939D97FC01E257F54FE491D396EC939A
:104A5000D39797968C91082E000C990BFC01E65881
:104A6000F54FE491F0E0EE0FFF1FE059F54FA591EF
:104A7000B491F601B0ABA7A7FC01E257F54F9491B2
:104A8000F60194AB8C91E92FE82BEC93D6015B9661
:104A90008D919C91892B09F434C01FB7F8948091B3
:104AA0009903811127C0E4E8FAE08491E8E9FAE08B
:104AB0009491E82FF0E0EE0FFF1FEA59F54FA59112
:104AC000B491EC91E92321F461E08AE00E94590657
:104AD00061E08AE00E9487068CB580618CBD8CB550
:104AE00080648CBD61E08DE00E94870661E08BE010
:104AF0000E948706809199038F5F809399031FBF5F
:104B0000EDCE61E0F60184A10E94870661E0D60146
:104B100095968C910E948706F60184A1082E000CC0
:104B2000990BFC01E658F54FE491F0E0EE0FFF1F02
:104B3000E059F54F25913491D6019A963C932E93E6
:104B40009997FC01E257F54FE491D196EC93D197F8
:104B500095968C91082E000C990BFC01E658F54FA8
:104B6000E491F0E0EE0FFF1FE059F54FA591B491ED
:104B7000F601B4A7A3A7FC01E257F54F9491F60103
:104B800092AB8C91E92FE095E823EC93A7CEF60148
:104B9000838D948D892B21F086AD97AD0E94890A73
:104BA000D6019F96ED91FC91D0979081D4968C91EF
:104BB000809589238083D4CE8FE9D601DD968C93AE
:104BC00012E16AEDC6010E946513612FC6010E94C1
:104BD000651361E8C6010E946513F60165ADC60163
:104BE0000E94651369EDC6010E946513D601929675
:104BF0008C9161EF813009F462E2C6010E94651375
:104C000046E064EB75E0C6010E94CF12F601858D87
:104C1000968D892B09F447C021AD32AD43AD54AD1B
:104C200060E074E284EF90E00E94F827205131099F
:104C30004109510956954795379527952093B80016
:104C4000C6010E94991C81E090E0F601938B828B53
:104C5000918B808B848B858B1586148617861686A0
:104C6000C6010E9418143CCD8036910579F48681E6
:104C70009781409739F482A1813031F08FEAD601D3
:104C8000DD968C9312E09DCF80E1F9CF80349105C1
:104C9000C9F7868197818097A9F782A1813009F0B1
:104CA00094CE80E18ACFD60107A4F0A9E02D8081BF
:104CB000D4969C91892B8083C3CF88E60E94A0055F
:104CC0006BE186EB94E00E949D1268E086EB94E035
:104CD0000E949D1286EB94E00E94CC12A981BA81B9
:104CE0005C961D921D921D921C925F97FD0110A271
:104CF00011A212A213A294961D921D921D921C92B3
:104D0000979710A611A612A613A69C961D921D9207
:104D10001D921C929F9710AA11AA12AA13AA84EF9F
:104D2000282E332433941F82188619861A861B86F0
:104D30001C861D861E861B821C821D821E82C12C23
:104D4000D12C76014601570126013701E05CFF4F67
:104D5000F88BEF87AD014C5B5F4F5A8B498BCD01D0
:104D6000885B9F4F9C8B8B8BA45BBF4FBE8BAD8BA7
:104D7000C8010E940F16E981FA8120AD31AD42AD24
:104D800053ADC301B2010E9435282B013C01A9811A
:104D9000BA81DC962D913D914D915C91DF97C501D3
:104DA000B4010E9435284B015C0120E030E040E86E
:104DB0005FE3EF85F88960817181828193810E9430
:104DC00034289B01AC01C701B6010E9435286B0154
:104DD0007C01A989BA892D913D914D915C916B819E
:104DE0007C818D819E810E9435286B837C838D839D
:104DF0009E83EB89FC8920813181428153816B85BF
:104E00007C858D859E850E9435286B877C878D8764
:104E10009E87AD89BE892D913D914D915C916F81A9
:104E2000788589859A850E9435286F837887898758
:104E30009A8761E070E080E090E00E94DD06B1E0DA
:104E40002B1A310809F094CF20E030E04AEF53E408
:104E5000C301B2010E941829E981FA8160A771A7F4
:104E600082A793A720E030E04AEF53E4C501B401E4
:104E70000E941829A981BA819C966D937D938D9388
:104E80009C939F9720E030E04AEF53E4C701B601BE
:104E90000E941829E981FA8160AB71AB82AB93ABB8
:104EA00020E030E04AEF53E46B817C818D819E816C
:104EB0000E941829A981BA815C966D937D938D9388
:104EC0009C935F9720E030E04AEF53E46B857C854C
:104ED0008D859E850E941829E981FA8160A371A3BE
:104EE00082A393A320E030E04AEF53E46F817885FA
:104EF00089859A850E941829A981BA8194966D9313
:104F00007D938D939C93979767EF71E089E194E08F
:104F10000E94CF1B00E010E00E947D199A838983D4
:104F200042960E94B71CE981FA81E85AFF4FA98195
:104F3000BA81A05BBF4F8D919D910D90BC91A02D2A
:104F400080839183A283B383E981FA81E45AFF4F7E
:104F5000A981BA81AC5ABF4F8D919D910D90BC91A2
:104F6000A02D80839183A283B383E981FA81E05AE3
:104F7000FF4F10821182128213820E940F07E98173
:104F8000FA81EC59FF4F6083718382839383E981B7
:104F9000FA81E059FF4FFA83E983CF010E94561E40
:104FA0000E94321E89819A810E94561E0E94321EE2
:104FB0000115110509F4B0CF0E948807882309F470
:104FC000ABCF0E940000A8CF97FB072E16F40094E9
:104FD00007D077FD09D00E941A2807FC05D03EF4BF
:104FE000909581959F4F0895709561957F4F089595
:104FF000A1E21A2EAA1BBB1BFD010DC0AA1FBB1FDD
:10500000EE1FFF1FA217B307E407F50720F0A21B4E
:10501000B30BE40BF50B661F771F881F991F1A94BB
:1050200069F760957095809590959B01AC01BD01E5
:10503000CF010895AA1BBB1B51E107C0AA1FBB1FCC
:10504000A617B70710F0A61BB70B881F991F5A9514
:10505000A9F780959095BC01CD010895EE0FFF1F33
:105060000590F491E02D09945058BB27AA270E947F
:105070004C280C945F2A0E94512A38F00E94582A2A
:1050800020F039F49F3F19F426F40C94272A0EF4EB
:10509000E095E7FB0C94212AE92F0E94702A58F32F
:1050A000BA17620773078407950720F079F4A6F50D
:1050B0000C94922A0EF4E0950B2EBA2FA02D0B0122
:1050C000B90190010C01CA01A0011124FF27591B4D
:1050D00099F0593F50F4503E68F11A16F040A22F53
:1050E000232F342F4427585FF3CF469537952795C4
:1050F000A795F0405395C9F77EF41F16BA0B620BC3
:10510000730B840BBAF09150A1F0FF0FBB1F661F09
:10511000771F881FC2F70EC0BA0F621F731F841F4C
:1051200048F4879577956795B795F7959E3F08F072
:10513000B0CF9395880F08F09927EE0F9795879534
:1051400008950E94512A60F080E891E009F49EEFF2
:105150000E94582A28F040E851E071F45EEF0CC03C
:105160000C94272A0C94922AE92FE0780E94702A46
:1051700040F3092E052AB1F32617370748075907C8
:1051800038F00E2E07F8E02569F0E025E0640AC04B
:10519000EF6307F8009407FADB01B9019D01DC0118
:1051A000CA01AD01EF930E942F290E945F2A0E943D
:1051B000E4285F91552339F02BED3FE049E450FDA1
:1051C00049EC0C9435280895DF93DD27B92FBF777C
:1051D00040E85FE31616170648075B0718F4D92F57
:1051E0000E949E2A9F938F937F936F930E94592BC7
:1051F000E8E6F0E00E942A2A0E945F2A2F913F9160
:105200004F915F910E94B92ADD2351F09058A2EA94
:105210002AED3FE049EC5FE3D0785D270E944C28FF
:10522000DF910C945F2A0E94FD2908F481E0089523
:105230000E942C290C945F2A0E94582A58F00E9440
:10524000512A40F029F45F3F29F00C94212A511192
:105250000C94932A0C94272A0E94702A68F39923AD
:10526000B1F3552391F3951B550BBB27AA27621762
:105270007307840738F09F5F5F4F220F331F441F6F
:10528000AA1FA9F335D00E2E3AF0E0E832D09150A3
:105290005040E695001CCAF72BD0FE2F29D0660F90
:1052A000771F881FBB1F261737074807AB07B0E8D3
:1052B00009F0BB0B802DBF01FF2793585F4F3AF0D9
:1052C0009E3F510578F00C94212A0C94932A5F3F5D
:1052D000E4F3983ED4F3869577956795B795F7955F
:1052E0009F5FC9F7880F911D9695879597F9089547
:1052F000E1E0660F771F881FBB1F621773078407E3
:10530000BA0720F0621B730B840BBA0BEE1F88F7F1
:10531000E09508950E9491296894B1110C94932A04
:1053200008950E94782A88F09F5798F0B92F9927FE
:10533000B751B0F0E1F0660F771F881F991F1AF080
:10534000BA95C9F714C0B13091F00E94922AB1E029
:1053500008950C94922A672F782F8827B85F39F028
:10536000B93FCCF3869577956795B395D9F73EF419
:1053700090958095709561957F4F8F4F9F4F0895C1
:10538000E89409C097FB3EF49095809570956195DF
:105390007F4F8F4F9F4F9923A9F0F92F96E9BB2795
:1053A0009395F695879577956795B795F111F8CF11
:1053B000FAF4BB0F11F460FF1BC06F5F7F4F8F4F7C
:1053C0009F4F16C0882311F096E911C0772321F072
:1053D0009EE8872F762F05C0662371F096E8862F0A
:1053E00070E060E02AF09A95660F771F881FDAF761
:1053F000880F9695879597F90895990F0008550F8E
:10540000AA0BE0E8FEEF16161706E807F907C0F04A
:1054100012161306E407F50798F0621B730B840B52
:10542000950B39F40A2661F0232B242B252B21F42C
:1054300008950A2609F4A140A6958FEF811D811DCC
:10544000089597F99F6780E870E060E008959FEF06
:1054500080EC0895DF93CF931F930F93FF92EF9209
:10546000DF927B018C01689406C0DA2EEF010E9466
:10547000B92AFE01E894A591259135914591559160
:10548000A6F3EF010E944C28FE019701A801DA94CF
:1054900069F7DF90EF90FF900F911F91CF91DF910F
:1054A000089500240A94161617061806090608958A
:1054B00000240A9412161306140605060895092EF0
:1054C0000394000C11F4882352F0BB0F40F4BF2B5F
:1054D00011F460FF04C06F5F7F4F8F4F9F4F08959F
:1054E00057FD9058440F551F59F05F3F71F0479595
:1054F000880F97FB991F61F09F3F79F0879508957A
:10550000121613061406551FF2CF4695F1DF08C098
:10551000161617061806991FF1CF869571056105B5
:1055200008940895E894BB2766277727CB0197F95D
:1055300008950E94FD2908F48FEF08959B01AC01A6
:1055400060E070E080E89FE30C9418290E94B92A7B
:105550000C945F2A0E94512A38F00E94582A20F0A9
:10556000952311F00C94212A0C94272A11240C94D1
:10557000932A0E94702A70F3959FC1F3950F50E013
:10558000551F629FF001729FBB27F00DB11D639FF5
:10559000AA27F00DB11DAA1F649F6627B00DA11D9B
:1055A000661F829F2227B00DA11D621F739FB00D41
:1055B000A11D621F839FA00D611D221F749F3327B1
:1055C000A00D611D231F849F600D211D822F762F4A
:1055D0006A2F11249F5750409AF0F1F088234AF027
:1055E000EE0FFF1FBB1F661F771F881F9150504093
:1055F000A9F79E3F510580F00C94212A0C94932A20
:105600005F3FE4F3983ED4F3869577956795B79519
:10561000F795E7959F5FC1F7FE2B880F911D969533
:10562000879597F9089519F416F40C94272A0C9489
:105630005D2B0E94782AB8F39923C9F3B6F39F57DC
:10564000550B87FF0E946B2B0024A0E640EA9001D7
:1056500080585695979528F4805C660F771F881FB1
:1056600020F026173707480730F4621B730B840BB2
:10567000202931294A2BA6951794079420253125F6
:105680004A2758F7660F771F881F20F0261737071D
:10569000480730F4620B730B840B200D311D411D44
:1056A000A09581F7B901842F9158880F9695879519
:1056B00008959B01AC010C94A62A9F3F31F09150B4
:1056C00020F4879577956795B795880F911D9695E6
:1056D000879597F9089591505040660F771F881F5E
:1056E000D2F708950F931F93CF93DF9382309105E4
:1056F00010F482E090E0E091C404F091C50430E041
:1057000020E0B0E0A0E0309799F42115310509F4CC
:105710004AC0281B390B24303105D8F58A819B817A
:105720006115710589F1FB0193838283FE0111C02C
:10573000408151810281138148175907E0F04817D1
:10574000590799F4109761F012960C9312971396DB
:105750001C933296CF01DF91CF911F910F91089545
:105760000093C4041093C504F4CF2115310551F002
:105770004217530738F0A901DB019A01BD01DF018F
:10578000F801C1CFEF01F9CF9093C5048093C40411
:10579000CDCFFE01E20FF31F819391932250310987
:1057A00039832883D7CF2091C2043091C304232B9F
:1057B00041F420910601309107013093C3042093F6
:1057C000C20420910401309105012115310541F4F5
:1057D0002DB73EB74091080150910901241B350BAC
:1057E000E091C204F091C304E217F307A0F42E1B6A
:1057F0003F0B2817390778F0AC014E5F5F4F241735
:10580000350748F04E0F5F1F5093C3044093C20406
:10581000819391939FCFF0E0E0E09CCFCF93DF9313
:105820000097E9F0FC01329713821282A091C40420
:10583000B091C504ED0130E020E01097A1F4208183
:105840003181820F931F2091C2043091C304281725
:10585000390709F061C0F093C304E093C204DF91FB
:10586000CF910895EA01CE17DF07E8F54A815B8101
:105870009E0141155105B1F7E901FB83EA83499186
:105880005991C40FD51FEC17FD0761F480819181F8
:105890000296840F951FE901998388838281938101
:1058A0009B838A83F0E0E0E012968D919C911397A0
:1058B0000097B9F52D913C911197CD010296820F79
:1058C000931F2091C2043091C3042817390739F679
:1058D000309751F51092C5041092C404B093C304DC
:1058E000A093C204BCCFD383C28340815181840F73
:1058F000951FC817D90761F44E5F5F4F8881998162
:10590000480F591F518340838A819B8193838283EF
:105910002115310509F0B0CFF093C504E093C4041C
:105920009ECFFD01DC01C0CF13821282D7CF81E070
:1059300090E0F8940C94842FDC0101C06D934150E9
:105940005040E0F70895AEE0B0E0E9EAFCE20C94E4
:105950005B2F8C01FA0186E08C831A83098377FF21
:1059600002C060E070E8615071097E836D83A90117
:10597000BF01CE0101960E94CF2C4D815E8157FD63
:105980000AC02F813885421753070CF49A01020F81
:10599000131FF80110822E96E4E00C94772FABE0F1
:1059A000B0E0E5EDFCE20C944D2F7C013B018A0157
:1059B000FC0117821682838181FFC8C1CE01019646
:1059C0005C01F7019381F30193FD859193FF819130
:1059D0003F01882309F453C1853239F493FD859141
:1059E00093FF81913F01853229F4B70190E00E9435
:1059F000BF2EE7CF912C212C312CFFE1F31538F08D
:105A00008B3211F190F4803209F1833229F137FCA5
:105A10003CC020ED280F2A3050F536FE20C08AE029
:105A2000989E200D1124922E06C08D3291F0803365
:105A300071F7689430F8F30193FD859193FF81919C
:105A40003F018111DACF21C0689431F8689432F8AF
:105A5000F2CF689433F8EFCF689434F8ECCFEAE0F3
:105A60002E9E200D1124222E689435F8E4CF8E321C
:105A700029F436FC04C1689436F8DDCF8C3619F46D
:105A8000689437F8D8CF8836B1F2982F9F7D955417
:105A90009330E0F08336A1F18337C1F1833509F00B
:105AA00063C02801F2E04F0E511CF801C080D18084
:105AB000692D70E036FC02C06FEF7FEFC6010E94D7
:105AC000A92E4C01689437F882010AC00C5F1F4F61
:105AD000FFE3F98388248394912C6501E89437F8D7
